{
	"compilerInput": "{\"language\":\"Solidity\",\"sources\":{\"mainnet/0x00000000219ab540356cBB839Cbe05303d7705Fa/DepositContract.sol\":{\"content\":\"// ┏━━━┓━┏┓━┏┓━━┏━━━┓━━┏━━━┓━━━━┏━━━┓━━━━━━━━━━━━━━━━━━━┏┓━━━━━┏━━━┓━━━━━━━━━┏┓━━━━━━━━━━━━━━┏┓━\\r\\n// ┃┏━━┛┏┛┗┓┃┃━━┃┏━┓┃━━┃┏━┓┃━━━━┗┓┏┓┃━━━━━━━━━━━━━━━━━━┏┛┗┓━━━━┃┏━┓┃━━━━━━━━┏┛┗┓━━━━━━━━━━━━┏┛┗┓\\r\\n// ┃┗━━┓┗┓┏┛┃┗━┓┗┛┏┛┃━━┃┃━┃┃━━━━━┃┃┃┃┏━━┓┏━━┓┏━━┓┏━━┓┏┓┗┓┏┛━━━━┃┃━┗┛┏━━┓┏━┓━┗┓┏┛┏━┓┏━━┓━┏━━┓┗┓┏┛\\r\\n// ┃┏━━┛━┃┃━┃┏┓┃┏━┛┏┛━━┃┃━┃┃━━━━━┃┃┃┃┃┏┓┃┃┏┓┃┃┏┓┃┃━━┫┣┫━┃┃━━━━━┃┃━┏┓┃┏┓┃┃┏┓┓━┃┃━┃┏┛┗━┓┃━┃┏━┛━┃┃━\\r\\n// ┃┗━━┓━┃┗┓┃┃┃┃┃┃┗━┓┏┓┃┗━┛┃━━━━┏┛┗┛┃┃┃━┫┃┗┛┃┃┗┛┃┣━━┃┃┃━┃┗┓━━━━┃┗━┛┃┃┗┛┃┃┃┃┃━┃┗┓┃┃━┃┗┛┗┓┃┗━┓━┃┗┓\\r\\n// ┗━━━┛━┗━┛┗┛┗┛┗━━━┛┗┛┗━━━┛━━━━┗━━━┛┗━━┛┃┏━┛┗━━┛┗━━┛┗┛━┗━┛━━━━┗━━━┛┗━━┛┗┛┗┛━┗━┛┗┛━┗━━━┛┗━━┛━┗━┛\\r\\n// ━━━━━━━━━━━━━━━━━━━━━━━━━━━━━━━━━━━━━━┃┃━━━━━━━━━━━━━━━━━━━━━━━━━━━━━━━━━━━━━━━━━━━━━━━━━━━━━\\r\\n// ━━━━━━━━━━━━━━━━━━━━━━━━━━━━━━━━━━━━━━┗┛━━━━━━━━━━━━━━━━━━━━━━━━━━━━━━━━━━━━━━━━━━━━━━━━━━━━━\\r\\n\\r\\n// SPDX-License-Identifier: CC0-1.0\\r\\n\\r\\npragma solidity 0.6.11;\\r\\n\\r\\n// This interface is designed to be compatible with the Vyper version.\\r\\n/// @notice This is the Ethereum 2.0 deposit contract interface.\\r\\n/// For more information see the Phase 0 specification under https://github.com/ethereum/eth2.0-specs\\r\\ninterface IDepositContract {\\r\\n    /// @notice A processed deposit event.\\r\\n    event DepositEvent(\\r\\n        bytes pubkey, \\r\\n        bytes withdrawal_credentials,\\r\\n        bytes amount,\\r\\n        bytes signature,\\r\\n        bytes index\\r\\n    );\\r\\n\\r\\n    /// @notice Submit a Phase 0 DepositData object.\\r\\n    /// @param pubkey A BLS12-381 public key.\\r\\n    /// @param withdrawal_credentials Commitment to a public key for withdrawals.\\r\\n    /// @param signature A BLS12-381 signature.\\r\\n    /// @param deposit_data_root The SHA-256 hash of the SSZ-encoded DepositData object.\\r\\n    /// Used as a protection against malformed input.\\r\\n    function deposit(\\r\\n        bytes calldata pubkey,\\r\\n        bytes calldata withdrawal_credentials,\\r\\n        bytes calldata signature,\\r\\n        bytes32 deposit_data_root\\r\\n    ) external payable;\\r\\n\\r\\n    /// @notice Query the current deposit root hash.\\r\\n    /// @return The deposit root hash.\\r\\n    function get_deposit_root() external view returns (bytes32);\\r\\n\\r\\n    /// @notice Query the current deposit count.\\r\\n    /// @return The deposit count encoded as a little endian 64-bit number.\\r\\n    function get_deposit_count() external view returns (bytes memory);\\r\\n}\\r\\n\\r\\n// Based on official specification in https://eips.ethereum.org/EIPS/eip-165\\r\\ninterface ERC165 {\\r\\n    /// @notice Query if a contract implements an interface\\r\\n    /// @param interfaceId The interface identifier, as specified in ERC-165\\r\\n    /// @dev Interface identification is specified in ERC-165. This function\\r\\n    ///  uses less than 30,000 gas.\\r\\n    /// @return `true` if the contract implements `interfaceId` and\\r\\n    ///  `interfaceId` is not 0xffffffff, `false` otherwise\\r\\n    function supportsInterface(bytes4 interfaceId) external pure returns (bool);\\r\\n}\\r\\n\\r\\n// This is a rewrite of the Vyper Eth2.0 deposit contract in Solidity.\\r\\n// It tries to stay as close as possible to the original source code.\\r\\n/// @notice This is the Ethereum 2.0 deposit contract interface.\\r\\n/// For more information see the Phase 0 specification under https://github.com/ethereum/eth2.0-specs\\r\\ncontract DepositContract is IDepositContract, ERC165 {\\r\\n    uint constant DEPOSIT_CONTRACT_TREE_DEPTH = 32;\\r\\n    // NOTE: this also ensures `deposit_count` will fit into 64-bits\\r\\n    uint constant MAX_DEPOSIT_COUNT = 2**DEPOSIT_CONTRACT_TREE_DEPTH - 1;\\r\\n\\r\\n    bytes32[DEPOSIT_CONTRACT_TREE_DEPTH] branch;\\r\\n    uint256 deposit_count;\\r\\n\\r\\n    bytes32[DEPOSIT_CONTRACT_TREE_DEPTH] zero_hashes;\\r\\n\\r\\n    constructor() public {\\r\\n        // Compute hashes in empty sparse Merkle tree\\r\\n        for (uint height = 0; height < DEPOSIT_CONTRACT_TREE_DEPTH - 1; height++)\\r\\n            zero_hashes[height + 1] = sha256(abi.encodePacked(zero_hashes[height], zero_hashes[height]));\\r\\n    }\\r\\n\\r\\n    function get_deposit_root() override external view returns (bytes32) {\\r\\n        bytes32 node;\\r\\n        uint size = deposit_count;\\r\\n        for (uint height = 0; height < DEPOSIT_CONTRACT_TREE_DEPTH; height++) {\\r\\n            if ((size & 1) == 1)\\r\\n                node = sha256(abi.encodePacked(branch[height], node));\\r\\n            else\\r\\n                node = sha256(abi.encodePacked(node, zero_hashes[height]));\\r\\n            size /= 2;\\r\\n        }\\r\\n        return sha256(abi.encodePacked(\\r\\n            node,\\r\\n            to_little_endian_64(uint64(deposit_count)),\\r\\n            bytes24(0)\\r\\n        ));\\r\\n    }\\r\\n\\r\\n    function get_deposit_count() override external view returns (bytes memory) {\\r\\n        return to_little_endian_64(uint64(deposit_count));\\r\\n    }\\r\\n\\r\\n    function deposit(\\r\\n        bytes calldata pubkey,\\r\\n        bytes calldata withdrawal_credentials,\\r\\n        bytes calldata signature,\\r\\n        bytes32 deposit_data_root\\r\\n    ) override external payable {\\r\\n        // Extended ABI length checks since dynamic types are used.\\r\\n        require(pubkey.length == 48, \\\"DepositContract: invalid pubkey length\\\");\\r\\n        require(withdrawal_credentials.length == 32, \\\"DepositContract: invalid withdrawal_credentials length\\\");\\r\\n        require(signature.length == 96, \\\"DepositContract: invalid signature length\\\");\\r\\n\\r\\n        // Check deposit amount\\r\\n        require(msg.value >= 1 ether, \\\"DepositContract: deposit value too low\\\");\\r\\n        require(msg.value % 1 gwei == 0, \\\"DepositContract: deposit value not multiple of gwei\\\");\\r\\n        uint deposit_amount = msg.value / 1 gwei;\\r\\n        require(deposit_amount <= type(uint64).max, \\\"DepositContract: deposit value too high\\\");\\r\\n\\r\\n        // Emit `DepositEvent` log\\r\\n        bytes memory amount = to_little_endian_64(uint64(deposit_amount));\\r\\n        emit DepositEvent(\\r\\n            pubkey,\\r\\n            withdrawal_credentials,\\r\\n            amount,\\r\\n            signature,\\r\\n            to_little_endian_64(uint64(deposit_count))\\r\\n        );\\r\\n\\r\\n        // Compute deposit data root (`DepositData` hash tree root)\\r\\n        bytes32 pubkey_root = sha256(abi.encodePacked(pubkey, bytes16(0)));\\r\\n        bytes32 signature_root = sha256(abi.encodePacked(\\r\\n            sha256(abi.encodePacked(signature[:64])),\\r\\n            sha256(abi.encodePacked(signature[64:], bytes32(0)))\\r\\n        ));\\r\\n        bytes32 node = sha256(abi.encodePacked(\\r\\n            sha256(abi.encodePacked(pubkey_root, withdrawal_credentials)),\\r\\n            sha256(abi.encodePacked(amount, bytes24(0), signature_root))\\r\\n        ));\\r\\n\\r\\n        // Verify computed and expected deposit data roots match\\r\\n        require(node == deposit_data_root, \\\"DepositContract: reconstructed DepositData does not match supplied deposit_data_root\\\");\\r\\n\\r\\n        // Avoid overflowing the Merkle tree (and prevent edge case in computing `branch`)\\r\\n        require(deposit_count < MAX_DEPOSIT_COUNT, \\\"DepositContract: merkle tree full\\\");\\r\\n\\r\\n        // Add deposit data root to Merkle tree (update a single `branch` node)\\r\\n        deposit_count += 1;\\r\\n        uint size = deposit_count;\\r\\n        for (uint height = 0; height < DEPOSIT_CONTRACT_TREE_DEPTH; height++) {\\r\\n            if ((size & 1) == 1) {\\r\\n                branch[height] = node;\\r\\n                return;\\r\\n            }\\r\\n            node = sha256(abi.encodePacked(branch[height], node));\\r\\n            size /= 2;\\r\\n        }\\r\\n        // As the loop should always end prematurely with the `return` statement,\\r\\n        // this code should be unreachable. We assert `false` just to be safe.\\r\\n        assert(false);\\r\\n    }\\r\\n\\r\\n    function supportsInterface(bytes4 interfaceId) override external pure returns (bool) {\\r\\n        return interfaceId == type(ERC165).interfaceId || interfaceId == type(IDepositContract).interfaceId;\\r\\n    }\\r\\n\\r\\n    function to_little_endian_64(uint64 value) internal pure returns (bytes memory ret) {\\r\\n        ret = new bytes(8);\\r\\n        bytes8 bytesValue = bytes8(value);\\r\\n        // Byteswapping during copying to bytes.\\r\\n        ret[0] = bytesValue[7];\\r\\n        ret[1] = bytesValue[6];\\r\\n        ret[2] = bytesValue[5];\\r\\n        ret[3] = bytesValue[4];\\r\\n        ret[4] = bytesValue[3];\\r\\n        ret[5] = bytesValue[2];\\r\\n        ret[6] = bytesValue[1];\\r\\n        ret[7] = bytesValue[0];\\r\\n    }\\r\\n}\"}},\"settings\":{\"optimizer\":{\"enabled\":false,\"runs\":200},\"outputSelection\":{\"*\":{\"\":[\"ast\"],\"*\":[\"abi\",\"metadata\",\"devdoc\",\"userdoc\",\"storageLayout\",\"evm.legacyAssembly\",\"evm.bytecode\",\"evm.deployedBytecode\",\"evm.methodIdentifiers\",\"evm.gasEstimates\",\"evm.assembly\"]}}}}",
	"name": "DepositContract",
	"bytecode": {
		"linkReferences": {},
		"object": "608060405234801561001057600080fd5b5060008090505b60016020038110156101265760026021826020811061003257fe5b01546021836020811061004157fe5b015460405160200180838152602001828152602001925050506040516020818303038152906040526040518082805190602001908083835b6020831061009c5780518252602082019150602081019050602083039250610079565b6001836020036101000a038019825116818451168082178552505050505050905001915050602060405180830381855afa1580156100de573d6000803e3d6000fd5b5050506040513d60208110156100f357600080fd5b81019080805190602001909291905050506021600183016020811061011457fe5b01819055508080600101915050610017565b506117bd80620001376000396000f3fe60806040526004361061003f5760003560e01c806301ffc9a71461004457806322895118146100b6578063621fd130146101e3578063c5f2892f14610273575b600080fd5b34801561005057600080fd5b5061009c6004803603602081101561006757600080fd5b8101908080357bffffffffffffffffffffffffffffffffffffffffffffffffffffffff1916906020019092919050505061029e565b604051808215151515815260200191505060405180910390f35b6101e1600480360360808110156100cc57600080fd5b81019080803590602001906401000000008111156100e957600080fd5b8201836020820111156100fb57600080fd5b8035906020019184600183028401116401000000008311171561011d57600080fd5b90919293919293908035906020019064010000000081111561013e57600080fd5b82018360208201111561015057600080fd5b8035906020019184600183028401116401000000008311171561017257600080fd5b90919293919293908035906020019064010000000081111561019357600080fd5b8201836020820111156101a557600080fd5b803590602001918460018302840111640100000000831117156101c757600080fd5b909192939192939080359060200190929190505050610370565b005b3480156101ef57600080fd5b506101f8610fd0565b6040518080602001828103825283818151815260200191508051906020019080838360005b8381101561023857808201518184015260208101905061021d565b50505050905090810190601f1680156102655780820380516001836020036101000a031916815260200191505b509250505060405180910390f35b34801561027f57600080fd5b50610288610fe2565b6040518082815260200191505060405180910390f35b60007f01ffc9a7000000000000000000000000000000000000000000000000000000007bffffffffffffffffffffffffffffffffffffffffffffffffffffffff1916827bffffffffffffffffffffffffffffffffffffffffffffffffffffffff1916148061036957507f85640907000000000000000000000000000000000000000000000000000000007bffffffffffffffffffffffffffffffffffffffffffffffffffffffff1916827bffffffffffffffffffffffffffffffffffffffffffffffffffffffff1916145b9050919050565b603087879050146103cc576040517f08c379a00000000000000000000000000000000000000000000000000000000081526004018080602001828103825260268152602001806116ec6026913960400191505060405180910390fd5b60208585905014610428576040517f08c379a00000000000000000000000000000000000000000000000000000000081526004018080602001828103825260368152602001806116836036913960400191505060405180910390fd5b60608383905014610484576040517f08c379a000000000000000000000000000000000000000000000000000000000815260040180806020018281038252602981526020018061175f6029913960400191505060405180910390fd5b670de0b6b3a76400003410156104e5576040517f08c379a00000000000000000000000000000000000000000000000000000000081526004018080602001828103825260268152602001806117396026913960400191505060405180910390fd5b6000633b9aca0034816104f457fe5b061461054b576040517f08c379a00000000000000000000000000000000000000000000000000000000081526004018080602001828103825260338152602001806116b96033913960400191505060405180910390fd5b6000633b9aca00348161055a57fe5b04905067ffffffffffffffff80168111156105c0576040517f08c379a00000000000000000000000000000000000000000000000000000000081526004018080602001828103825260278152602001806117126027913960400191505060405180910390fd5b60606105cb82611314565b90507f649bbc62d0e31342afea4e5cd82d4049e7e1ee912fc0889aa790803be39038c589898989858a8a610600602054611314565b60405180806020018060200180602001806020018060200186810386528e8e82818152602001925080828437600081840152601f19601f82011690508083019250505086810385528c8c82818152602001925080828437600081840152601f19601f82011690508083019250505086810384528a818151815260200191508051906020019080838360005b838110156106a657808201518184015260208101905061068b565b50505050905090810190601f1680156106d35780820380516001836020036101000a031916815260200191505b508681038352898982818152602001925080828437600081840152601f19601f820116905080830192505050868103825287818151815260200191508051906020019080838360005b8381101561073757808201518184015260208101905061071c565b50505050905090810190601f1680156107645780820380516001836020036101000a031916815260200191505b509d505050505050505050505050505060405180910390a1600060028a8a600060801b6040516020018084848082843780830192505050826fffffffffffffffffffffffffffffffff19166fffffffffffffffffffffffffffffffff1916815260100193505050506040516020818303038152906040526040518082805190602001908083835b6020831061080e57805182526020820191506020810190506020830392506107eb565b6001836020036101000a038019825116818451168082178552505050505050905001915050602060405180830381855afa158015610850573d6000803e3d6000fd5b5050506040513d602081101561086557600080fd5b8101908080519060200190929190505050905060006002808888600090604092610891939291906115da565b6040516020018083838082843780830192505050925050506040516020818303038152906040526040518082805190602001908083835b602083106108eb57805182526020820191506020810190506020830392506108c8565b6001836020036101000a038019825116818451168082178552505050505050905001915050602060405180830381855afa15801561092d573d6000803e3d6000fd5b5050506040513d602081101561094257600080fd5b8101908080519060200190929190505050600289896040908092610968939291906115da565b6000801b604051602001808484808284378083019250505082815260200193505050506040516020818303038152906040526040518082805190602001908083835b602083106109cd57805182526020820191506020810190506020830392506109aa565b6001836020036101000a038019825116818451168082178552505050505050905001915050602060405180830381855afa158015610a0f573d6000803e3d6000fd5b5050506040513d6020811015610a2457600080fd5b810190808051906020019092919050505060405160200180838152602001828152602001925050506040516020818303038152906040526040518082805190602001908083835b60208310610a8e5780518252602082019150602081019050602083039250610a6b565b6001836020036101000a038019825116818451168082178552505050505050905001915050602060405180830381855afa158015610ad0573d6000803e3d6000fd5b5050506040513d6020811015610ae557600080fd5b810190808051906020019092919050505090506000600280848c8c604051602001808481526020018383808284378083019250505093505050506040516020818303038152906040526040518082805190602001908083835b60208310610b615780518252602082019150602081019050602083039250610b3e565b6001836020036101000a038019825116818451168082178552505050505050905001915050602060405180830381855afa158015610ba3573d6000803e3d6000fd5b5050506040513d6020811015610bb857600080fd5b8101908080519060200190929190505050600286600060401b866040516020018084805190602001908083835b60208310610c085780518252602082019150602081019050602083039250610be5565b6001836020036101000a0380198251168184511680821785525050505050509050018367ffffffffffffffff191667ffffffffffffffff1916815260180182815260200193505050506040516020818303038152906040526040518082805190602001908083835b60208310610c935780518252602082019150602081019050602083039250610c70565b6001836020036101000a038019825116818451168082178552505050505050905001915050602060405180830381855afa158015610cd5573d6000803e3d6000fd5b5050506040513d6020811015610cea57600080fd5b810190808051906020019092919050505060405160200180838152602001828152602001925050506040516020818303038152906040526040518082805190602001908083835b60208310610d545780518252602082019150602081019050602083039250610d31565b6001836020036101000a038019825116818451168082178552505050505050905001915050602060405180830381855afa158015610d96573d6000803e3d6000fd5b5050506040513d6020811015610dab57600080fd5b81019080805190602001909291905050509050858114610e16576040517f08c379a000000000000000000000000000000000000000000000000000000000815260040180806020018281038252605481526020018061162f6054913960600191505060405180910390fd5b6001602060020a0360205410610e77576040517f08c379a000000000000000000000000000000000000000000000000000000000815260040180806020018281038252602181526020018061160e6021913960400191505060405180910390fd5b60016020600082825401925050819055506000602054905060008090505b6020811015610fb75760018083161415610ec8578260008260208110610eb757fe5b018190555050505050505050610fc7565b600260008260208110610ed757fe5b01548460405160200180838152602001828152602001925050506040516020818303038152906040526040518082805190602001908083835b60208310610f335780518252602082019150602081019050602083039250610f10565b6001836020036101000a038019825116818451168082178552505050505050905001915050602060405180830381855afa158015610f75573d6000803e3d6000fd5b5050506040513d6020811015610f8a57600080fd5b8101908080519060200190929190505050925060028281610fa757fe5b0491508080600101915050610e95565b506000610fc057fe5b5050505050505b50505050505050565b6060610fdd602054611314565b905090565b6000806000602054905060008090505b60208110156111d057600180831614156110e05760026000826020811061101557fe5b01548460405160200180838152602001828152602001925050506040516020818303038152906040526040518082805190602001908083835b60208310611071578051825260208201915060208101905060208303925061104e565b6001836020036101000a038019825116818451168082178552505050505050905001915050602060405180830381855afa1580156110b3573d6000803e3d6000fd5b5050506040513d60208110156110c857600080fd5b810190808051906020019092919050505092506111b6565b600283602183602081106110f057fe5b015460405160200180838152602001828152602001925050506040516020818303038152906040526040518082805190602001908083835b6020831061114b5780518252602082019150602081019050602083039250611128565b6001836020036101000a038019825116818451168082178552505050505050905001915050602060405180830381855afa15801561118d573d6000803e3d6000fd5b5050506040513d60208110156111a257600080fd5b810190808051906020019092919050505092505b600282816111c057fe5b0491508080600101915050610ff2565b506002826111df602054611314565b600060401b6040516020018084815260200183805190602001908083835b6020831061122057805182526020820191506020810190506020830392506111fd565b6001836020036101000a0380198251168184511680821785525050505050509050018267ffffffffffffffff191667ffffffffffffffff1916815260180193505050506040516020818303038152906040526040518082805190602001908083835b602083106112a55780518252602082019150602081019050602083039250611282565b6001836020036101000a038019825116818451168082178552505050505050905001915050602060405180830381855afa1580156112e7573d6000803e3d6000fd5b5050506040513d60208110156112fc57600080fd5b81019080805190602001909291905050509250505090565b6060600867ffffffffffffffff8111801561132e57600080fd5b506040519080825280601f01601f1916602001820160405280156113615781602001600182028036833780820191505090505b50905060008260c01b90508060076008811061137957fe5b1a60f81b8260008151811061138a57fe5b60200101907effffffffffffffffffffffffffffffffffffffffffffffffffffffffffffff1916908160001a905350806006600881106113c657fe5b1a60f81b826001815181106113d757fe5b60200101907effffffffffffffffffffffffffffffffffffffffffffffffffffffffffffff1916908160001a9053508060056008811061141357fe5b1a60f81b8260028151811061142457fe5b60200101907effffffffffffffffffffffffffffffffffffffffffffffffffffffffffffff1916908160001a9053508060046008811061146057fe5b1a60f81b8260038151811061147157fe5b60200101907effffffffffffffffffffffffffffffffffffffffffffffffffffffffffffff1916908160001a905350806003600881106114ad57fe5b1a60f81b826004815181106114be57fe5b60200101907effffffffffffffffffffffffffffffffffffffffffffffffffffffffffffff1916908160001a905350806002600881106114fa57fe5b1a60f81b8260058151811061150b57fe5b60200101907effffffffffffffffffffffffffffffffffffffffffffffffffffffffffffff1916908160001a9053508060016008811061154757fe5b1a60f81b8260068151811061155857fe5b60200101907effffffffffffffffffffffffffffffffffffffffffffffffffffffffffffff1916908160001a9053508060006008811061159457fe5b1a60f81b826007815181106115a557fe5b60200101907effffffffffffffffffffffffffffffffffffffffffffffffffffffffffffff1916908160001a90535050919050565b600080858511156115ea57600080fd5b838611156115f757600080fd5b600185028301915084860390509450949250505056fe4465706f736974436f6e74726163743a206d65726b6c6520747265652066756c6c4465706f736974436f6e74726163743a207265636f6e7374727563746564204465706f7369744461746120646f6573206e6f74206d6174636820737570706c696564206465706f7369745f646174615f726f6f744465706f736974436f6e74726163743a20696e76616c6964207769746864726177616c5f63726564656e7469616c73206c656e6774684465706f736974436f6e74726163743a206465706f7369742076616c7565206e6f74206d756c7469706c65206f6620677765694465706f736974436f6e74726163743a20696e76616c6964207075626b6579206c656e6774684465706f736974436f6e74726163743a206465706f7369742076616c756520746f6f20686967684465706f736974436f6e74726163743a206465706f7369742076616c756520746f6f206c6f774465706f736974436f6e74726163743a20696e76616c6964207369676e6174757265206c656e677468a26469706673582212202ed0880a8831790a1c2ab701420eae8b4aa883e06df0c713cfba1c8f243febd864736f6c634300060b0033",
		"opcodes": "PUSH1 0x80 PUSH1 0x40 MSTORE CALLVALUE DUP1 ISZERO PUSH2 0x10 JUMPI PUSH1 0x0 DUP1 REVERT JUMPDEST POP PUSH1 0x0 DUP1 SWAP1 POP JUMPDEST PUSH1 0x1 PUSH1 0x20 SUB DUP2 LT ISZERO PUSH2 0x126 JUMPI PUSH1 0x2 PUSH1 0x21 DUP3 PUSH1 0x20 DUP2 LT PUSH2 0x32 JUMPI INVALID JUMPDEST ADD SLOAD PUSH1 0x21 DUP4 PUSH1 0x20 DUP2 LT PUSH2 0x41 JUMPI INVALID JUMPDEST ADD SLOAD PUSH1 0x40 MLOAD PUSH1 0x20 ADD DUP1 DUP4 DUP2 MSTORE PUSH1 0x20 ADD DUP3 DUP2 MSTORE PUSH1 0x20 ADD SWAP3 POP POP POP PUSH1 0x40 MLOAD PUSH1 0x20 DUP2 DUP4 SUB SUB DUP2 MSTORE SWAP1 PUSH1 0x40 MSTORE PUSH1 0x40 MLOAD DUP1 DUP3 DUP1 MLOAD SWAP1 PUSH1 0x20 ADD SWAP1 DUP1 DUP4 DUP4 JUMPDEST PUSH1 0x20 DUP4 LT PUSH2 0x9C JUMPI DUP1 MLOAD DUP3 MSTORE PUSH1 0x20 DUP3 ADD SWAP2 POP PUSH1 0x20 DUP2 ADD SWAP1 POP PUSH1 0x20 DUP4 SUB SWAP3 POP PUSH2 0x79 JUMP JUMPDEST PUSH1 0x1 DUP4 PUSH1 0x20 SUB PUSH2 0x100 EXP SUB DUP1 NOT DUP3 MLOAD AND DUP2 DUP5 MLOAD AND DUP1 DUP3 OR DUP6 MSTORE POP POP POP POP POP POP SWAP1 POP ADD SWAP2 POP POP PUSH1 0x20 PUSH1 0x40 MLOAD DUP1 DUP4 SUB DUP2 DUP6 GAS STATICCALL ISZERO DUP1 ISZERO PUSH2 0xDE JUMPI RETURNDATASIZE PUSH1 0x0 DUP1 RETURNDATACOPY RETURNDATASIZE PUSH1 0x0 REVERT JUMPDEST POP POP POP PUSH1 0x40 MLOAD RETURNDATASIZE PUSH1 0x20 DUP2 LT ISZERO PUSH2 0xF3 JUMPI PUSH1 0x0 DUP1 REVERT JUMPDEST DUP2 ADD SWAP1 DUP1 DUP1 MLOAD SWAP1 PUSH1 0x20 ADD SWAP1 SWAP3 SWAP2 SWAP1 POP POP POP PUSH1 0x21 PUSH1 0x1 DUP4 ADD PUSH1 0x20 DUP2 LT PUSH2 0x114 JUMPI INVALID JUMPDEST ADD DUP2 SWAP1 SSTORE POP DUP1 DUP1 PUSH1 0x1 ADD SWAP2 POP POP PUSH2 0x17 JUMP JUMPDEST POP PUSH2 0x17BD DUP1 PUSH3 0x137 PUSH1 0x0 CODECOPY PUSH1 0x0 RETURN INVALID PUSH1 0x80 PUSH1 0x40 MSTORE PUSH1 0x4 CALLDATASIZE LT PUSH2 0x3F JUMPI PUSH1 0x0 CALLDATALOAD PUSH1 0xE0 SHR DUP1 PUSH4 0x1FFC9A7 EQ PUSH2 0x44 JUMPI DUP1 PUSH4 0x22895118 EQ PUSH2 0xB6 JUMPI DUP1 PUSH4 0x621FD130 EQ PUSH2 0x1E3 JUMPI DUP1 PUSH4 0xC5F2892F EQ PUSH2 0x273 JUMPI JUMPDEST PUSH1 0x0 DUP1 REVERT JUMPDEST CALLVALUE DUP1 ISZERO PUSH2 0x50 JUMPI PUSH1 0x0 DUP1 REVERT JUMPDEST POP PUSH2 0x9C PUSH1 0x4 DUP1 CALLDATASIZE SUB PUSH1 0x20 DUP2 LT ISZERO PUSH2 0x67 JUMPI PUSH1 0x0 DUP1 REVERT JUMPDEST DUP2 ADD SWAP1 DUP1 DUP1 CALLDATALOAD PUSH28 0xFFFFFFFFFFFFFFFFFFFFFFFFFFFFFFFFFFFFFFFFFFFFFFFFFFFFFFFF NOT AND SWAP1 PUSH1 0x20 ADD SWAP1 SWAP3 SWAP2 SWAP1 POP POP POP PUSH2 0x29E JUMP JUMPDEST PUSH1 0x40 MLOAD DUP1 DUP3 ISZERO ISZERO ISZERO ISZERO DUP2 MSTORE PUSH1 0x20 ADD SWAP2 POP POP PUSH1 0x40 MLOAD DUP1 SWAP2 SUB SWAP1 RETURN JUMPDEST PUSH2 0x1E1 PUSH1 0x4 DUP1 CALLDATASIZE SUB PUSH1 0x80 DUP2 LT ISZERO PUSH2 0xCC JUMPI PUSH1 0x0 DUP1 REVERT JUMPDEST DUP2 ADD SWAP1 DUP1 DUP1 CALLDATALOAD SWAP1 PUSH1 0x20 ADD SWAP1 PUSH5 0x100000000 DUP2 GT ISZERO PUSH2 0xE9 JUMPI PUSH1 0x0 DUP1 REVERT JUMPDEST DUP3 ADD DUP4 PUSH1 0x20 DUP3 ADD GT ISZERO PUSH2 0xFB JUMPI PUSH1 0x0 DUP1 REVERT JUMPDEST DUP1 CALLDATALOAD SWAP1 PUSH1 0x20 ADD SWAP2 DUP5 PUSH1 0x1 DUP4 MUL DUP5 ADD GT PUSH5 0x100000000 DUP4 GT OR ISZERO PUSH2 0x11D JUMPI PUSH1 0x0 DUP1 REVERT JUMPDEST SWAP1 SWAP2 SWAP3 SWAP4 SWAP2 SWAP3 SWAP4 SWAP1 DUP1 CALLDATALOAD SWAP1 PUSH1 0x20 ADD SWAP1 PUSH5 0x100000000 DUP2 GT ISZERO PUSH2 0x13E JUMPI PUSH1 0x0 DUP1 REVERT JUMPDEST DUP3 ADD DUP4 PUSH1 0x20 DUP3 ADD GT ISZERO PUSH2 0x150 JUMPI PUSH1 0x0 DUP1 REVERT JUMPDEST DUP1 CALLDATALOAD SWAP1 PUSH1 0x20 ADD SWAP2 DUP5 PUSH1 0x1 DUP4 MUL DUP5 ADD GT PUSH5 0x100000000 DUP4 GT OR ISZERO PUSH2 0x172 JUMPI PUSH1 0x0 DUP1 REVERT JUMPDEST SWAP1 SWAP2 SWAP3 SWAP4 SWAP2 SWAP3 SWAP4 SWAP1 DUP1 CALLDATALOAD SWAP1 PUSH1 0x20 ADD SWAP1 PUSH5 0x100000000 DUP2 GT ISZERO PUSH2 0x193 JUMPI PUSH1 0x0 DUP1 REVERT JUMPDEST DUP3 ADD DUP4 PUSH1 0x20 DUP3 ADD GT ISZERO PUSH2 0x1A5 JUMPI PUSH1 0x0 DUP1 REVERT JUMPDEST DUP1 CALLDATALOAD SWAP1 PUSH1 0x20 ADD SWAP2 DUP5 PUSH1 0x1 DUP4 MUL DUP5 ADD GT PUSH5 0x100000000 DUP4 GT OR ISZERO PUSH2 0x1C7 JUMPI PUSH1 0x0 DUP1 REVERT JUMPDEST SWAP1 SWAP2 SWAP3 SWAP4 SWAP2 SWAP3 SWAP4 SWAP1 DUP1 CALLDATALOAD SWAP1 PUSH1 0x20 ADD SWAP1 SWAP3 SWAP2 SWAP1 POP POP POP PUSH2 0x370 JUMP JUMPDEST STOP JUMPDEST CALLVALUE DUP1 ISZERO PUSH2 0x1EF JUMPI PUSH1 0x0 DUP1 REVERT JUMPDEST POP PUSH2 0x1F8 PUSH2 0xFD0 JUMP JUMPDEST PUSH1 0x40 MLOAD DUP1 DUP1 PUSH1 0x20 ADD DUP3 DUP2 SUB DUP3 MSTORE DUP4 DUP2 DUP2 MLOAD DUP2 MSTORE PUSH1 0x20 ADD SWAP2 POP DUP1 MLOAD SWAP1 PUSH1 0x20 ADD SWAP1 DUP1 DUP4 DUP4 PUSH1 0x0 JUMPDEST DUP4 DUP2 LT ISZERO PUSH2 0x238 JUMPI DUP1 DUP3 ADD MLOAD DUP2 DUP5 ADD MSTORE PUSH1 0x20 DUP2 ADD SWAP1 POP PUSH2 0x21D JUMP JUMPDEST POP POP POP POP SWAP1 POP SWAP1 DUP2 ADD SWAP1 PUSH1 0x1F AND DUP1 ISZERO PUSH2 0x265 JUMPI DUP1 DUP3 SUB DUP1 MLOAD PUSH1 0x1 DUP4 PUSH1 0x20 SUB PUSH2 0x100 EXP SUB NOT AND DUP2 MSTORE PUSH1 0x20 ADD SWAP2 POP JUMPDEST POP SWAP3 POP POP POP PUSH1 0x40 MLOAD DUP1 SWAP2 SUB SWAP1 RETURN JUMPDEST CALLVALUE DUP1 ISZERO PUSH2 0x27F JUMPI PUSH1 0x0 DUP1 REVERT JUMPDEST POP PUSH2 0x288 PUSH2 0xFE2 JUMP JUMPDEST PUSH1 0x40 MLOAD DUP1 DUP3 DUP2 MSTORE PUSH1 0x20 ADD SWAP2 POP POP PUSH1 0x40 MLOAD DUP1 SWAP2 SUB SWAP1 RETURN JUMPDEST PUSH1 0x0 PUSH32 0x1FFC9A700000000000000000000000000000000000000000000000000000000 PUSH28 0xFFFFFFFFFFFFFFFFFFFFFFFFFFFFFFFFFFFFFFFFFFFFFFFFFFFFFFFF NOT AND DUP3 PUSH28 0xFFFFFFFFFFFFFFFFFFFFFFFFFFFFFFFFFFFFFFFFFFFFFFFFFFFFFFFF NOT AND EQ DUP1 PUSH2 0x369 JUMPI POP PUSH32 0x8564090700000000000000000000000000000000000000000000000000000000 PUSH28 0xFFFFFFFFFFFFFFFFFFFFFFFFFFFFFFFFFFFFFFFFFFFFFFFFFFFFFFFF NOT AND DUP3 PUSH28 0xFFFFFFFFFFFFFFFFFFFFFFFFFFFFFFFFFFFFFFFFFFFFFFFFFFFFFFFF NOT AND EQ JUMPDEST SWAP1 POP SWAP2 SWAP1 POP JUMP JUMPDEST PUSH1 0x30 DUP8 DUP8 SWAP1 POP EQ PUSH2 0x3CC JUMPI PUSH1 0x40 MLOAD PUSH32 0x8C379A000000000000000000000000000000000000000000000000000000000 DUP2 MSTORE PUSH1 0x4 ADD DUP1 DUP1 PUSH1 0x20 ADD DUP3 DUP2 SUB DUP3 MSTORE PUSH1 0x26 DUP2 MSTORE PUSH1 0x20 ADD DUP1 PUSH2 0x16EC PUSH1 0x26 SWAP2 CODECOPY PUSH1 0x40 ADD SWAP2 POP POP PUSH1 0x40 MLOAD DUP1 SWAP2 SUB SWAP1 REVERT JUMPDEST PUSH1 0x20 DUP6 DUP6 SWAP1 POP EQ PUSH2 0x428 JUMPI PUSH1 0x40 MLOAD PUSH32 0x8C379A000000000000000000000000000000000000000000000000000000000 DUP2 MSTORE PUSH1 0x4 ADD DUP1 DUP1 PUSH1 0x20 ADD DUP3 DUP2 SUB DUP3 MSTORE PUSH1 0x36 DUP2 MSTORE PUSH1 0x20 ADD DUP1 PUSH2 0x1683 PUSH1 0x36 SWAP2 CODECOPY PUSH1 0x40 ADD SWAP2 POP POP PUSH1 0x40 MLOAD DUP1 SWAP2 SUB SWAP1 REVERT JUMPDEST PUSH1 0x60 DUP4 DUP4 SWAP1 POP EQ PUSH2 0x484 JUMPI PUSH1 0x40 MLOAD PUSH32 0x8C379A000000000000000000000000000000000000000000000000000000000 DUP2 MSTORE PUSH1 0x4 ADD DUP1 DUP1 PUSH1 0x20 ADD DUP3 DUP2 SUB DUP3 MSTORE PUSH1 0x29 DUP2 MSTORE PUSH1 0x20 ADD DUP1 PUSH2 0x175F PUSH1 0x29 SWAP2 CODECOPY PUSH1 0x40 ADD SWAP2 POP POP PUSH1 0x40 MLOAD DUP1 SWAP2 SUB SWAP1 REVERT JUMPDEST PUSH8 0xDE0B6B3A7640000 CALLVALUE LT ISZERO PUSH2 0x4E5 JUMPI PUSH1 0x40 MLOAD PUSH32 0x8C379A000000000000000000000000000000000000000000000000000000000 DUP2 MSTORE PUSH1 0x4 ADD DUP1 DUP1 PUSH1 0x20 ADD DUP3 DUP2 SUB DUP3 MSTORE PUSH1 0x26 DUP2 MSTORE PUSH1 0x20 ADD DUP1 PUSH2 0x1739 PUSH1 0x26 SWAP2 CODECOPY PUSH1 0x40 ADD SWAP2 POP POP PUSH1 0x40 MLOAD DUP1 SWAP2 SUB SWAP1 REVERT JUMPDEST PUSH1 0x0 PUSH4 0x3B9ACA00 CALLVALUE DUP2 PUSH2 0x4F4 JUMPI INVALID JUMPDEST MOD EQ PUSH2 0x54B JUMPI PUSH1 0x40 MLOAD PUSH32 0x8C379A000000000000000000000000000000000000000000000000000000000 DUP2 MSTORE PUSH1 0x4 ADD DUP1 DUP1 PUSH1 0x20 ADD DUP3 DUP2 SUB DUP3 MSTORE PUSH1 0x33 DUP2 MSTORE PUSH1 0x20 ADD DUP1 PUSH2 0x16B9 PUSH1 0x33 SWAP2 CODECOPY PUSH1 0x40 ADD SWAP2 POP POP PUSH1 0x40 MLOAD DUP1 SWAP2 SUB SWAP1 REVERT JUMPDEST PUSH1 0x0 PUSH4 0x3B9ACA00 CALLVALUE DUP2 PUSH2 0x55A JUMPI INVALID JUMPDEST DIV SWAP1 POP PUSH8 0xFFFFFFFFFFFFFFFF DUP1 AND DUP2 GT ISZERO PUSH2 0x5C0 JUMPI PUSH1 0x40 MLOAD PUSH32 0x8C379A000000000000000000000000000000000000000000000000000000000 DUP2 MSTORE PUSH1 0x4 ADD DUP1 DUP1 PUSH1 0x20 ADD DUP3 DUP2 SUB DUP3 MSTORE PUSH1 0x27 DUP2 MSTORE PUSH1 0x20 ADD DUP1 PUSH2 0x1712 PUSH1 0x27 SWAP2 CODECOPY PUSH1 0x40 ADD SWAP2 POP POP PUSH1 0x40 MLOAD DUP1 SWAP2 SUB SWAP1 REVERT JUMPDEST PUSH1 0x60 PUSH2 0x5CB DUP3 PUSH2 0x1314 JUMP JUMPDEST SWAP1 POP PUSH32 0x649BBC62D0E31342AFEA4E5CD82D4049E7E1EE912FC0889AA790803BE39038C5 DUP10 DUP10 DUP10 DUP10 DUP6 DUP11 DUP11 PUSH2 0x600 PUSH1 0x20 SLOAD PUSH2 0x1314 JUMP JUMPDEST PUSH1 0x40 MLOAD DUP1 DUP1 PUSH1 0x20 ADD DUP1 PUSH1 0x20 ADD DUP1 PUSH1 0x20 ADD DUP1 PUSH1 0x20 ADD DUP1 PUSH1 0x20 ADD DUP7 DUP2 SUB DUP7 MSTORE DUP15 DUP15 DUP3 DUP2 DUP2 MSTORE PUSH1 0x20 ADD SWAP3 POP DUP1 DUP3 DUP5 CALLDATACOPY PUSH1 0x0 DUP2 DUP5 ADD MSTORE PUSH1 0x1F NOT PUSH1 0x1F DUP3 ADD AND SWAP1 POP DUP1 DUP4 ADD SWAP3 POP POP POP DUP7 DUP2 SUB DUP6 MSTORE DUP13 DUP13 DUP3 DUP2 DUP2 MSTORE PUSH1 0x20 ADD SWAP3 POP DUP1 DUP3 DUP5 CALLDATACOPY PUSH1 0x0 DUP2 DUP5 ADD MSTORE PUSH1 0x1F NOT PUSH1 0x1F DUP3 ADD AND SWAP1 POP DUP1 DUP4 ADD SWAP3 POP POP POP DUP7 DUP2 SUB DUP5 MSTORE DUP11 DUP2 DUP2 MLOAD DUP2 MSTORE PUSH1 0x20 ADD SWAP2 POP DUP1 MLOAD SWAP1 PUSH1 0x20 ADD SWAP1 DUP1 DUP4 DUP4 PUSH1 0x0 JUMPDEST DUP4 DUP2 LT ISZERO PUSH2 0x6A6 JUMPI DUP1 DUP3 ADD MLOAD DUP2 DUP5 ADD MSTORE PUSH1 0x20 DUP2 ADD SWAP1 POP PUSH2 0x68B JUMP JUMPDEST POP POP POP POP SWAP1 POP SWAP1 DUP2 ADD SWAP1 PUSH1 0x1F AND DUP1 ISZERO PUSH2 0x6D3 JUMPI DUP1 DUP3 SUB DUP1 MLOAD PUSH1 0x1 DUP4 PUSH1 0x20 SUB PUSH2 0x100 EXP SUB NOT AND DUP2 MSTORE PUSH1 0x20 ADD SWAP2 POP JUMPDEST POP DUP7 DUP2 SUB DUP4 MSTORE DUP10 DUP10 DUP3 DUP2 DUP2 MSTORE PUSH1 0x20 ADD SWAP3 POP DUP1 DUP3 DUP5 CALLDATACOPY PUSH1 0x0 DUP2 DUP5 ADD MSTORE PUSH1 0x1F NOT PUSH1 0x1F DUP3 ADD AND SWAP1 POP DUP1 DUP4 ADD SWAP3 POP POP POP DUP7 DUP2 SUB DUP3 MSTORE DUP8 DUP2 DUP2 MLOAD DUP2 MSTORE PUSH1 0x20 ADD SWAP2 POP DUP1 MLOAD SWAP1 PUSH1 0x20 ADD SWAP1 DUP1 DUP4 DUP4 PUSH1 0x0 JUMPDEST DUP4 DUP2 LT ISZERO PUSH2 0x737 JUMPI DUP1 DUP3 ADD MLOAD DUP2 DUP5 ADD MSTORE PUSH1 0x20 DUP2 ADD SWAP1 POP PUSH2 0x71C JUMP JUMPDEST POP POP POP POP SWAP1 POP SWAP1 DUP2 ADD SWAP1 PUSH1 0x1F AND DUP1 ISZERO PUSH2 0x764 JUMPI DUP1 DUP3 SUB DUP1 MLOAD PUSH1 0x1 DUP4 PUSH1 0x20 SUB PUSH2 0x100 EXP SUB NOT AND DUP2 MSTORE PUSH1 0x20 ADD SWAP2 POP JUMPDEST POP SWAP14 POP POP POP POP POP POP POP POP POP POP POP POP POP POP PUSH1 0x40 MLOAD DUP1 SWAP2 SUB SWAP1 LOG1 PUSH1 0x0 PUSH1 0x2 DUP11 DUP11 PUSH1 0x0 PUSH1 0x80 SHL PUSH1 0x40 MLOAD PUSH1 0x20 ADD DUP1 DUP5 DUP5 DUP1 DUP3 DUP5 CALLDATACOPY DUP1 DUP4 ADD SWAP3 POP POP POP DUP3 PUSH16 0xFFFFFFFFFFFFFFFFFFFFFFFFFFFFFFFF NOT AND PUSH16 0xFFFFFFFFFFFFFFFFFFFFFFFFFFFFFFFF NOT AND DUP2 MSTORE PUSH1 0x10 ADD SWAP4 POP POP POP POP PUSH1 0x40 MLOAD PUSH1 0x20 DUP2 DUP4 SUB SUB DUP2 MSTORE SWAP1 PUSH1 0x40 MSTORE PUSH1 0x40 MLOAD DUP1 DUP3 DUP1 MLOAD SWAP1 PUSH1 0x20 ADD SWAP1 DUP1 DUP4 DUP4 JUMPDEST PUSH1 0x20 DUP4 LT PUSH2 0x80E JUMPI DUP1 MLOAD DUP3 MSTORE PUSH1 0x20 DUP3 ADD SWAP2 POP PUSH1 0x20 DUP2 ADD SWAP1 POP PUSH1 0x20 DUP4 SUB SWAP3 POP PUSH2 0x7EB JUMP JUMPDEST PUSH1 0x1 DUP4 PUSH1 0x20 SUB PUSH2 0x100 EXP SUB DUP1 NOT DUP3 MLOAD AND DUP2 DUP5 MLOAD AND DUP1 DUP3 OR DUP6 MSTORE POP POP POP POP POP POP SWAP1 POP ADD SWAP2 POP POP PUSH1 0x20 PUSH1 0x40 MLOAD DUP1 DUP4 SUB DUP2 DUP6 GAS STATICCALL ISZERO DUP1 ISZERO PUSH2 0x850 JUMPI RETURNDATASIZE PUSH1 0x0 DUP1 RETURNDATACOPY RETURNDATASIZE PUSH1 0x0 REVERT JUMPDEST POP POP POP PUSH1 0x40 MLOAD RETURNDATASIZE PUSH1 0x20 DUP2 LT ISZERO PUSH2 0x865 JUMPI PUSH1 0x0 DUP1 REVERT JUMPDEST DUP2 ADD SWAP1 DUP1 DUP1 MLOAD SWAP1 PUSH1 0x20 ADD SWAP1 SWAP3 SWAP2 SWAP1 POP POP POP SWAP1 POP PUSH1 0x0 PUSH1 0x2 DUP1 DUP9 DUP9 PUSH1 0x0 SWAP1 PUSH1 0x40 SWAP3 PUSH2 0x891 SWAP4 SWAP3 SWAP2 SWAP1 PUSH2 0x15DA JUMP JUMPDEST PUSH1 0x40 MLOAD PUSH1 0x20 ADD DUP1 DUP4 DUP4 DUP1 DUP3 DUP5 CALLDATACOPY DUP1 DUP4 ADD SWAP3 POP POP POP SWAP3 POP POP POP PUSH1 0x40 MLOAD PUSH1 0x20 DUP2 DUP4 SUB SUB DUP2 MSTORE SWAP1 PUSH1 0x40 MSTORE PUSH1 0x40 MLOAD DUP1 DUP3 DUP1 MLOAD SWAP1 PUSH1 0x20 ADD SWAP1 DUP1 DUP4 DUP4 JUMPDEST PUSH1 0x20 DUP4 LT PUSH2 0x8EB JUMPI DUP1 MLOAD DUP3 MSTORE PUSH1 0x20 DUP3 ADD SWAP2 POP PUSH1 0x20 DUP2 ADD SWAP1 POP PUSH1 0x20 DUP4 SUB SWAP3 POP PUSH2 0x8C8 JUMP JUMPDEST PUSH1 0x1 DUP4 PUSH1 0x20 SUB PUSH2 0x100 EXP SUB DUP1 NOT DUP3 MLOAD AND DUP2 DUP5 MLOAD AND DUP1 DUP3 OR DUP6 MSTORE POP POP POP POP POP POP SWAP1 POP ADD SWAP2 POP POP PUSH1 0x20 PUSH1 0x40 MLOAD DUP1 DUP4 SUB DUP2 DUP6 GAS STATICCALL ISZERO DUP1 ISZERO PUSH2 0x92D JUMPI RETURNDATASIZE PUSH1 0x0 DUP1 RETURNDATACOPY RETURNDATASIZE PUSH1 0x0 REVERT JUMPDEST POP POP POP PUSH1 0x40 MLOAD RETURNDATASIZE PUSH1 0x20 DUP2 LT ISZERO PUSH2 0x942 JUMPI PUSH1 0x0 DUP1 REVERT JUMPDEST DUP2 ADD SWAP1 DUP1 DUP1 MLOAD SWAP1 PUSH1 0x20 ADD SWAP1 SWAP3 SWAP2 SWAP1 POP POP POP PUSH1 0x2 DUP10 DUP10 PUSH1 0x40 SWAP1 DUP1 SWAP3 PUSH2 0x968 SWAP4 SWAP3 SWAP2 SWAP1 PUSH2 0x15DA JUMP JUMPDEST PUSH1 0x0 DUP1 SHL PUSH1 0x40 MLOAD PUSH1 0x20 ADD DUP1 DUP5 DUP5 DUP1 DUP3 DUP5 CALLDATACOPY DUP1 DUP4 ADD SWAP3 POP POP POP DUP3 DUP2 MSTORE PUSH1 0x20 ADD SWAP4 POP POP POP POP PUSH1 0x40 MLOAD PUSH1 0x20 DUP2 DUP4 SUB SUB DUP2 MSTORE SWAP1 PUSH1 0x40 MSTORE PUSH1 0x40 MLOAD DUP1 DUP3 DUP1 MLOAD SWAP1 PUSH1 0x20 ADD SWAP1 DUP1 DUP4 DUP4 JUMPDEST PUSH1 0x20 DUP4 LT PUSH2 0x9CD JUMPI DUP1 MLOAD DUP3 MSTORE PUSH1 0x20 DUP3 ADD SWAP2 POP PUSH1 0x20 DUP2 ADD SWAP1 POP PUSH1 0x20 DUP4 SUB SWAP3 POP PUSH2 0x9AA JUMP JUMPDEST PUSH1 0x1 DUP4 PUSH1 0x20 SUB PUSH2 0x100 EXP SUB DUP1 NOT DUP3 MLOAD AND DUP2 DUP5 MLOAD AND DUP1 DUP3 OR DUP6 MSTORE POP POP POP POP POP POP SWAP1 POP ADD SWAP2 POP POP PUSH1 0x20 PUSH1 0x40 MLOAD DUP1 DUP4 SUB DUP2 DUP6 GAS STATICCALL ISZERO DUP1 ISZERO PUSH2 0xA0F JUMPI RETURNDATASIZE PUSH1 0x0 DUP1 RETURNDATACOPY RETURNDATASIZE PUSH1 0x0 REVERT JUMPDEST POP POP POP PUSH1 0x40 MLOAD RETURNDATASIZE PUSH1 0x20 DUP2 LT ISZERO PUSH2 0xA24 JUMPI PUSH1 0x0 DUP1 REVERT JUMPDEST DUP2 ADD SWAP1 DUP1 DUP1 MLOAD SWAP1 PUSH1 0x20 ADD SWAP1 SWAP3 SWAP2 SWAP1 POP POP POP PUSH1 0x40 MLOAD PUSH1 0x20 ADD DUP1 DUP4 DUP2 MSTORE PUSH1 0x20 ADD DUP3 DUP2 MSTORE PUSH1 0x20 ADD SWAP3 POP POP POP PUSH1 0x40 MLOAD PUSH1 0x20 DUP2 DUP4 SUB SUB DUP2 MSTORE SWAP1 PUSH1 0x40 MSTORE PUSH1 0x40 MLOAD DUP1 DUP3 DUP1 MLOAD SWAP1 PUSH1 0x20 ADD SWAP1 DUP1 DUP4 DUP4 JUMPDEST PUSH1 0x20 DUP4 LT PUSH2 0xA8E JUMPI DUP1 MLOAD DUP3 MSTORE PUSH1 0x20 DUP3 ADD SWAP2 POP PUSH1 0x20 DUP2 ADD SWAP1 POP PUSH1 0x20 DUP4 SUB SWAP3 POP PUSH2 0xA6B JUMP JUMPDEST PUSH1 0x1 DUP4 PUSH1 0x20 SUB PUSH2 0x100 EXP SUB DUP1 NOT DUP3 MLOAD AND DUP2 DUP5 MLOAD AND DUP1 DUP3 OR DUP6 MSTORE POP POP POP POP POP POP SWAP1 POP ADD SWAP2 POP POP PUSH1 0x20 PUSH1 0x40 MLOAD DUP1 DUP4 SUB DUP2 DUP6 GAS STATICCALL ISZERO DUP1 ISZERO PUSH2 0xAD0 JUMPI RETURNDATASIZE PUSH1 0x0 DUP1 RETURNDATACOPY RETURNDATASIZE PUSH1 0x0 REVERT JUMPDEST POP POP POP PUSH1 0x40 MLOAD RETURNDATASIZE PUSH1 0x20 DUP2 LT ISZERO PUSH2 0xAE5 JUMPI PUSH1 0x0 DUP1 REVERT JUMPDEST DUP2 ADD SWAP1 DUP1 DUP1 MLOAD SWAP1 PUSH1 0x20 ADD SWAP1 SWAP3 SWAP2 SWAP1 POP POP POP SWAP1 POP PUSH1 0x0 PUSH1 0x2 DUP1 DUP5 DUP13 DUP13 PUSH1 0x40 MLOAD PUSH1 0x20 ADD DUP1 DUP5 DUP2 MSTORE PUSH1 0x20 ADD DUP4 DUP4 DUP1 DUP3 DUP5 CALLDATACOPY DUP1 DUP4 ADD SWAP3 POP POP POP SWAP4 POP POP POP POP PUSH1 0x40 MLOAD PUSH1 0x20 DUP2 DUP4 SUB SUB DUP2 MSTORE SWAP1 PUSH1 0x40 MSTORE PUSH1 0x40 MLOAD DUP1 DUP3 DUP1 MLOAD SWAP1 PUSH1 0x20 ADD SWAP1 DUP1 DUP4 DUP4 JUMPDEST PUSH1 0x20 DUP4 LT PUSH2 0xB61 JUMPI DUP1 MLOAD DUP3 MSTORE PUSH1 0x20 DUP3 ADD SWAP2 POP PUSH1 0x20 DUP2 ADD SWAP1 POP PUSH1 0x20 DUP4 SUB SWAP3 POP PUSH2 0xB3E JUMP JUMPDEST PUSH1 0x1 DUP4 PUSH1 0x20 SUB PUSH2 0x100 EXP SUB DUP1 NOT DUP3 MLOAD AND DUP2 DUP5 MLOAD AND DUP1 DUP3 OR DUP6 MSTORE POP POP POP POP POP POP SWAP1 POP ADD SWAP2 POP POP PUSH1 0x20 PUSH1 0x40 MLOAD DUP1 DUP4 SUB DUP2 DUP6 GAS STATICCALL ISZERO DUP1 ISZERO PUSH2 0xBA3 JUMPI RETURNDATASIZE PUSH1 0x0 DUP1 RETURNDATACOPY RETURNDATASIZE PUSH1 0x0 REVERT JUMPDEST POP POP POP PUSH1 0x40 MLOAD RETURNDATASIZE PUSH1 0x20 DUP2 LT ISZERO PUSH2 0xBB8 JUMPI PUSH1 0x0 DUP1 REVERT JUMPDEST DUP2 ADD SWAP1 DUP1 DUP1 MLOAD SWAP1 PUSH1 0x20 ADD SWAP1 SWAP3 SWAP2 SWAP1 POP POP POP PUSH1 0x2 DUP7 PUSH1 0x0 PUSH1 0x40 SHL DUP7 PUSH1 0x40 MLOAD PUSH1 0x20 ADD DUP1 DUP5 DUP1 MLOAD SWAP1 PUSH1 0x20 ADD SWAP1 DUP1 DUP4 DUP4 JUMPDEST PUSH1 0x20 DUP4 LT PUSH2 0xC08 JUMPI DUP1 MLOAD DUP3 MSTORE PUSH1 0x20 DUP3 ADD SWAP2 POP PUSH1 0x20 DUP2 ADD SWAP1 POP PUSH1 0x20 DUP4 SUB SWAP3 POP PUSH2 0xBE5 JUMP JUMPDEST PUSH1 0x1 DUP4 PUSH1 0x20 SUB PUSH2 0x100 EXP SUB DUP1 NOT DUP3 MLOAD AND DUP2 DUP5 MLOAD AND DUP1 DUP3 OR DUP6 MSTORE POP POP POP POP POP POP SWAP1 POP ADD DUP4 PUSH8 0xFFFFFFFFFFFFFFFF NOT AND PUSH8 0xFFFFFFFFFFFFFFFF NOT AND DUP2 MSTORE PUSH1 0x18 ADD DUP3 DUP2 MSTORE PUSH1 0x20 ADD SWAP4 POP POP POP POP PUSH1 0x40 MLOAD PUSH1 0x20 DUP2 DUP4 SUB SUB DUP2 MSTORE SWAP1 PUSH1 0x40 MSTORE PUSH1 0x40 MLOAD DUP1 DUP3 DUP1 MLOAD SWAP1 PUSH1 0x20 ADD SWAP1 DUP1 DUP4 DUP4 JUMPDEST PUSH1 0x20 DUP4 LT PUSH2 0xC93 JUMPI DUP1 MLOAD DUP3 MSTORE PUSH1 0x20 DUP3 ADD SWAP2 POP PUSH1 0x20 DUP2 ADD SWAP1 POP PUSH1 0x20 DUP4 SUB SWAP3 POP PUSH2 0xC70 JUMP JUMPDEST PUSH1 0x1 DUP4 PUSH1 0x20 SUB PUSH2 0x100 EXP SUB DUP1 NOT DUP3 MLOAD AND DUP2 DUP5 MLOAD AND DUP1 DUP3 OR DUP6 MSTORE POP POP POP POP POP POP SWAP1 POP ADD SWAP2 POP POP PUSH1 0x20 PUSH1 0x40 MLOAD DUP1 DUP4 SUB DUP2 DUP6 GAS STATICCALL ISZERO DUP1 ISZERO PUSH2 0xCD5 JUMPI RETURNDATASIZE PUSH1 0x0 DUP1 RETURNDATACOPY RETURNDATASIZE PUSH1 0x0 REVERT JUMPDEST POP POP POP PUSH1 0x40 MLOAD RETURNDATASIZE PUSH1 0x20 DUP2 LT ISZERO PUSH2 0xCEA JUMPI PUSH1 0x0 DUP1 REVERT JUMPDEST DUP2 ADD SWAP1 DUP1 DUP1 MLOAD SWAP1 PUSH1 0x20 ADD SWAP1 SWAP3 SWAP2 SWAP1 POP POP POP PUSH1 0x40 MLOAD PUSH1 0x20 ADD DUP1 DUP4 DUP2 MSTORE PUSH1 0x20 ADD DUP3 DUP2 MSTORE PUSH1 0x20 ADD SWAP3 POP POP POP PUSH1 0x40 MLOAD PUSH1 0x20 DUP2 DUP4 SUB SUB DUP2 MSTORE SWAP1 PUSH1 0x40 MSTORE PUSH1 0x40 MLOAD DUP1 DUP3 DUP1 MLOAD SWAP1 PUSH1 0x20 ADD SWAP1 DUP1 DUP4 DUP4 JUMPDEST PUSH1 0x20 DUP4 LT PUSH2 0xD54 JUMPI DUP1 MLOAD DUP3 MSTORE PUSH1 0x20 DUP3 ADD SWAP2 POP PUSH1 0x20 DUP2 ADD SWAP1 POP PUSH1 0x20 DUP4 SUB SWAP3 POP PUSH2 0xD31 JUMP JUMPDEST PUSH1 0x1 DUP4 PUSH1 0x20 SUB PUSH2 0x100 EXP SUB DUP1 NOT DUP3 MLOAD AND DUP2 DUP5 MLOAD AND DUP1 DUP3 OR DUP6 MSTORE POP POP POP POP POP POP SWAP1 POP ADD SWAP2 POP POP PUSH1 0x20 PUSH1 0x40 MLOAD DUP1 DUP4 SUB DUP2 DUP6 GAS STATICCALL ISZERO DUP1 ISZERO PUSH2 0xD96 JUMPI RETURNDATASIZE PUSH1 0x0 DUP1 RETURNDATACOPY RETURNDATASIZE PUSH1 0x0 REVERT JUMPDEST POP POP POP PUSH1 0x40 MLOAD RETURNDATASIZE PUSH1 0x20 DUP2 LT ISZERO PUSH2 0xDAB JUMPI PUSH1 0x0 DUP1 REVERT JUMPDEST DUP2 ADD SWAP1 DUP1 DUP1 MLOAD SWAP1 PUSH1 0x20 ADD SWAP1 SWAP3 SWAP2 SWAP1 POP POP POP SWAP1 POP DUP6 DUP2 EQ PUSH2 0xE16 JUMPI PUSH1 0x40 MLOAD PUSH32 0x8C379A000000000000000000000000000000000000000000000000000000000 DUP2 MSTORE PUSH1 0x4 ADD DUP1 DUP1 PUSH1 0x20 ADD DUP3 DUP2 SUB DUP3 MSTORE PUSH1 0x54 DUP2 MSTORE PUSH1 0x20 ADD DUP1 PUSH2 0x162F PUSH1 0x54 SWAP2 CODECOPY PUSH1 0x60 ADD SWAP2 POP POP PUSH1 0x40 MLOAD DUP1 SWAP2 SUB SWAP1 REVERT JUMPDEST PUSH1 0x1 PUSH1 0x20 PUSH1 0x2 EXP SUB PUSH1 0x20 SLOAD LT PUSH2 0xE77 JUMPI PUSH1 0x40 MLOAD PUSH32 0x8C379A000000000000000000000000000000000000000000000000000000000 DUP2 MSTORE PUSH1 0x4 ADD DUP1 DUP1 PUSH1 0x20 ADD DUP3 DUP2 SUB DUP3 MSTORE PUSH1 0x21 DUP2 MSTORE PUSH1 0x20 ADD DUP1 PUSH2 0x160E PUSH1 0x21 SWAP2 CODECOPY PUSH1 0x40 ADD SWAP2 POP POP PUSH1 0x40 MLOAD DUP1 SWAP2 SUB SWAP1 REVERT JUMPDEST PUSH1 0x1 PUSH1 0x20 PUSH1 0x0 DUP3 DUP3 SLOAD ADD SWAP3 POP POP DUP2 SWAP1 SSTORE POP PUSH1 0x0 PUSH1 0x20 SLOAD SWAP1 POP PUSH1 0x0 DUP1 SWAP1 POP JUMPDEST PUSH1 0x20 DUP2 LT ISZERO PUSH2 0xFB7 JUMPI PUSH1 0x1 DUP1 DUP4 AND EQ ISZERO PUSH2 0xEC8 JUMPI DUP3 PUSH1 0x0 DUP3 PUSH1 0x20 DUP2 LT PUSH2 0xEB7 JUMPI INVALID JUMPDEST ADD DUP2 SWAP1 SSTORE POP POP POP POP POP POP POP POP PUSH2 0xFC7 JUMP JUMPDEST PUSH1 0x2 PUSH1 0x0 DUP3 PUSH1 0x20 DUP2 LT PUSH2 0xED7 JUMPI INVALID JUMPDEST ADD SLOAD DUP5 PUSH1 0x40 MLOAD PUSH1 0x20 ADD DUP1 DUP4 DUP2 MSTORE PUSH1 0x20 ADD DUP3 DUP2 MSTORE PUSH1 0x20 ADD SWAP3 POP POP POP PUSH1 0x40 MLOAD PUSH1 0x20 DUP2 DUP4 SUB SUB DUP2 MSTORE SWAP1 PUSH1 0x40 MSTORE PUSH1 0x40 MLOAD DUP1 DUP3 DUP1 MLOAD SWAP1 PUSH1 0x20 ADD SWAP1 DUP1 DUP4 DUP4 JUMPDEST PUSH1 0x20 DUP4 LT PUSH2 0xF33 JUMPI DUP1 MLOAD DUP3 MSTORE PUSH1 0x20 DUP3 ADD SWAP2 POP PUSH1 0x20 DUP2 ADD SWAP1 POP PUSH1 0x20 DUP4 SUB SWAP3 POP PUSH2 0xF10 JUMP JUMPDEST PUSH1 0x1 DUP4 PUSH1 0x20 SUB PUSH2 0x100 EXP SUB DUP1 NOT DUP3 MLOAD AND DUP2 DUP5 MLOAD AND DUP1 DUP3 OR DUP6 MSTORE POP POP POP POP POP POP SWAP1 POP ADD SWAP2 POP POP PUSH1 0x20 PUSH1 0x40 MLOAD DUP1 DUP4 SUB DUP2 DUP6 GAS STATICCALL ISZERO DUP1 ISZERO PUSH2 0xF75 JUMPI RETURNDATASIZE PUSH1 0x0 DUP1 RETURNDATACOPY RETURNDATASIZE PUSH1 0x0 REVERT JUMPDEST POP POP POP PUSH1 0x40 MLOAD RETURNDATASIZE PUSH1 0x20 DUP2 LT ISZERO PUSH2 0xF8A JUMPI PUSH1 0x0 DUP1 REVERT JUMPDEST DUP2 ADD SWAP1 DUP1 DUP1 MLOAD SWAP1 PUSH1 0x20 ADD SWAP1 SWAP3 SWAP2 SWAP1 POP POP POP SWAP3 POP PUSH1 0x2 DUP3 DUP2 PUSH2 0xFA7 JUMPI INVALID JUMPDEST DIV SWAP2 POP DUP1 DUP1 PUSH1 0x1 ADD SWAP2 POP POP PUSH2 0xE95 JUMP JUMPDEST POP PUSH1 0x0 PUSH2 0xFC0 JUMPI INVALID JUMPDEST POP POP POP POP POP POP JUMPDEST POP POP POP POP POP POP POP JUMP JUMPDEST PUSH1 0x60 PUSH2 0xFDD PUSH1 0x20 SLOAD PUSH2 0x1314 JUMP JUMPDEST SWAP1 POP SWAP1 JUMP JUMPDEST PUSH1 0x0 DUP1 PUSH1 0x0 PUSH1 0x20 SLOAD SWAP1 POP PUSH1 0x0 DUP1 SWAP1 POP JUMPDEST PUSH1 0x20 DUP2 LT ISZERO PUSH2 0x11D0 JUMPI PUSH1 0x1 DUP1 DUP4 AND EQ ISZERO PUSH2 0x10E0 JUMPI PUSH1 0x2 PUSH1 0x0 DUP3 PUSH1 0x20 DUP2 LT PUSH2 0x1015 JUMPI INVALID JUMPDEST ADD SLOAD DUP5 PUSH1 0x40 MLOAD PUSH1 0x20 ADD DUP1 DUP4 DUP2 MSTORE PUSH1 0x20 ADD DUP3 DUP2 MSTORE PUSH1 0x20 ADD SWAP3 POP POP POP PUSH1 0x40 MLOAD PUSH1 0x20 DUP2 DUP4 SUB SUB DUP2 MSTORE SWAP1 PUSH1 0x40 MSTORE PUSH1 0x40 MLOAD DUP1 DUP3 DUP1 MLOAD SWAP1 PUSH1 0x20 ADD SWAP1 DUP1 DUP4 DUP4 JUMPDEST PUSH1 0x20 DUP4 LT PUSH2 0x1071 JUMPI DUP1 MLOAD DUP3 MSTORE PUSH1 0x20 DUP3 ADD SWAP2 POP PUSH1 0x20 DUP2 ADD SWAP1 POP PUSH1 0x20 DUP4 SUB SWAP3 POP PUSH2 0x104E JUMP JUMPDEST PUSH1 0x1 DUP4 PUSH1 0x20 SUB PUSH2 0x100 EXP SUB DUP1 NOT DUP3 MLOAD AND DUP2 DUP5 MLOAD AND DUP1 DUP3 OR DUP6 MSTORE POP POP POP POP POP POP SWAP1 POP ADD SWAP2 POP POP PUSH1 0x20 PUSH1 0x40 MLOAD DUP1 DUP4 SUB DUP2 DUP6 GAS STATICCALL ISZERO DUP1 ISZERO PUSH2 0x10B3 JUMPI RETURNDATASIZE PUSH1 0x0 DUP1 RETURNDATACOPY RETURNDATASIZE PUSH1 0x0 REVERT JUMPDEST POP POP POP PUSH1 0x40 MLOAD RETURNDATASIZE PUSH1 0x20 DUP2 LT ISZERO PUSH2 0x10C8 JUMPI PUSH1 0x0 DUP1 REVERT JUMPDEST DUP2 ADD SWAP1 DUP1 DUP1 MLOAD SWAP1 PUSH1 0x20 ADD SWAP1 SWAP3 SWAP2 SWAP1 POP POP POP SWAP3 POP PUSH2 0x11B6 JUMP JUMPDEST PUSH1 0x2 DUP4 PUSH1 0x21 DUP4 PUSH1 0x20 DUP2 LT PUSH2 0x10F0 JUMPI INVALID JUMPDEST ADD SLOAD PUSH1 0x40 MLOAD PUSH1 0x20 ADD DUP1 DUP4 DUP2 MSTORE PUSH1 0x20 ADD DUP3 DUP2 MSTORE PUSH1 0x20 ADD SWAP3 POP POP POP PUSH1 0x40 MLOAD PUSH1 0x20 DUP2 DUP4 SUB SUB DUP2 MSTORE SWAP1 PUSH1 0x40 MSTORE PUSH1 0x40 MLOAD DUP1 DUP3 DUP1 MLOAD SWAP1 PUSH1 0x20 ADD SWAP1 DUP1 DUP4 DUP4 JUMPDEST PUSH1 0x20 DUP4 LT PUSH2 0x114B JUMPI DUP1 MLOAD DUP3 MSTORE PUSH1 0x20 DUP3 ADD SWAP2 POP PUSH1 0x20 DUP2 ADD SWAP1 POP PUSH1 0x20 DUP4 SUB SWAP3 POP PUSH2 0x1128 JUMP JUMPDEST PUSH1 0x1 DUP4 PUSH1 0x20 SUB PUSH2 0x100 EXP SUB DUP1 NOT DUP3 MLOAD AND DUP2 DUP5 MLOAD AND DUP1 DUP3 OR DUP6 MSTORE POP POP POP POP POP POP SWAP1 POP ADD SWAP2 POP POP PUSH1 0x20 PUSH1 0x40 MLOAD DUP1 DUP4 SUB DUP2 DUP6 GAS STATICCALL ISZERO DUP1 ISZERO PUSH2 0x118D JUMPI RETURNDATASIZE PUSH1 0x0 DUP1 RETURNDATACOPY RETURNDATASIZE PUSH1 0x0 REVERT JUMPDEST POP POP POP PUSH1 0x40 MLOAD RETURNDATASIZE PUSH1 0x20 DUP2 LT ISZERO PUSH2 0x11A2 JUMPI PUSH1 0x0 DUP1 REVERT JUMPDEST DUP2 ADD SWAP1 DUP1 DUP1 MLOAD SWAP1 PUSH1 0x20 ADD SWAP1 SWAP3 SWAP2 SWAP1 POP POP POP SWAP3 POP JUMPDEST PUSH1 0x2 DUP3 DUP2 PUSH2 0x11C0 JUMPI INVALID JUMPDEST DIV SWAP2 POP DUP1 DUP1 PUSH1 0x1 ADD SWAP2 POP POP PUSH2 0xFF2 JUMP JUMPDEST POP PUSH1 0x2 DUP3 PUSH2 0x11DF PUSH1 0x20 SLOAD PUSH2 0x1314 JUMP JUMPDEST PUSH1 0x0 PUSH1 0x40 SHL PUSH1 0x40 MLOAD PUSH1 0x20 ADD DUP1 DUP5 DUP2 MSTORE PUSH1 0x20 ADD DUP4 DUP1 MLOAD SWAP1 PUSH1 0x20 ADD SWAP1 DUP1 DUP4 DUP4 JUMPDEST PUSH1 0x20 DUP4 LT PUSH2 0x1220 JUMPI DUP1 MLOAD DUP3 MSTORE PUSH1 0x20 DUP3 ADD SWAP2 POP PUSH1 0x20 DUP2 ADD SWAP1 POP PUSH1 0x20 DUP4 SUB SWAP3 POP PUSH2 0x11FD JUMP JUMPDEST PUSH1 0x1 DUP4 PUSH1 0x20 SUB PUSH2 0x100 EXP SUB DUP1 NOT DUP3 MLOAD AND DUP2 DUP5 MLOAD AND DUP1 DUP3 OR DUP6 MSTORE POP POP POP POP POP POP SWAP1 POP ADD DUP3 PUSH8 0xFFFFFFFFFFFFFFFF NOT AND PUSH8 0xFFFFFFFFFFFFFFFF NOT AND DUP2 MSTORE PUSH1 0x18 ADD SWAP4 POP POP POP POP PUSH1 0x40 MLOAD PUSH1 0x20 DUP2 DUP4 SUB SUB DUP2 MSTORE SWAP1 PUSH1 0x40 MSTORE PUSH1 0x40 MLOAD DUP1 DUP3 DUP1 MLOAD SWAP1 PUSH1 0x20 ADD SWAP1 DUP1 DUP4 DUP4 JUMPDEST PUSH1 0x20 DUP4 LT PUSH2 0x12A5 JUMPI DUP1 MLOAD DUP3 MSTORE PUSH1 0x20 DUP3 ADD SWAP2 POP PUSH1 0x20 DUP2 ADD SWAP1 POP PUSH1 0x20 DUP4 SUB SWAP3 POP PUSH2 0x1282 JUMP JUMPDEST PUSH1 0x1 DUP4 PUSH1 0x20 SUB PUSH2 0x100 EXP SUB DUP1 NOT DUP3 MLOAD AND DUP2 DUP5 MLOAD AND DUP1 DUP3 OR DUP6 MSTORE POP POP POP POP POP POP SWAP1 POP ADD SWAP2 POP POP PUSH1 0x20 PUSH1 0x40 MLOAD DUP1 DUP4 SUB DUP2 DUP6 GAS STATICCALL ISZERO DUP1 ISZERO PUSH2 0x12E7 JUMPI RETURNDATASIZE PUSH1 0x0 DUP1 RETURNDATACOPY RETURNDATASIZE PUSH1 0x0 REVERT JUMPDEST POP POP POP PUSH1 0x40 MLOAD RETURNDATASIZE PUSH1 0x20 DUP2 LT ISZERO PUSH2 0x12FC JUMPI PUSH1 0x0 DUP1 REVERT JUMPDEST DUP2 ADD SWAP1 DUP1 DUP1 MLOAD SWAP1 PUSH1 0x20 ADD SWAP1 SWAP3 SWAP2 SWAP1 POP POP POP SWAP3 POP POP POP SWAP1 JUMP JUMPDEST PUSH1 0x60 PUSH1 0x8 PUSH8 0xFFFFFFFFFFFFFFFF DUP2 GT DUP1 ISZERO PUSH2 0x132E JUMPI PUSH1 0x0 DUP1 REVERT JUMPDEST POP PUSH1 0x40 MLOAD SWAP1 DUP1 DUP3 MSTORE DUP1 PUSH1 0x1F ADD PUSH1 0x1F NOT AND PUSH1 0x20 ADD DUP3 ADD PUSH1 0x40 MSTORE DUP1 ISZERO PUSH2 0x1361 JUMPI DUP2 PUSH1 0x20 ADD PUSH1 0x1 DUP3 MUL DUP1 CALLDATASIZE DUP4 CALLDATACOPY DUP1 DUP3 ADD SWAP2 POP POP SWAP1 POP JUMPDEST POP SWAP1 POP PUSH1 0x0 DUP3 PUSH1 0xC0 SHL SWAP1 POP DUP1 PUSH1 0x7 PUSH1 0x8 DUP2 LT PUSH2 0x1379 JUMPI INVALID JUMPDEST BYTE PUSH1 0xF8 SHL DUP3 PUSH1 0x0 DUP2 MLOAD DUP2 LT PUSH2 0x138A JUMPI INVALID JUMPDEST PUSH1 0x20 ADD ADD SWAP1 PUSH31 0xFFFFFFFFFFFFFFFFFFFFFFFFFFFFFFFFFFFFFFFFFFFFFFFFFFFFFFFFFFFFFF NOT AND SWAP1 DUP2 PUSH1 0x0 BYTE SWAP1 MSTORE8 POP DUP1 PUSH1 0x6 PUSH1 0x8 DUP2 LT PUSH2 0x13C6 JUMPI INVALID JUMPDEST BYTE PUSH1 0xF8 SHL DUP3 PUSH1 0x1 DUP2 MLOAD DUP2 LT PUSH2 0x13D7 JUMPI INVALID JUMPDEST PUSH1 0x20 ADD ADD SWAP1 PUSH31 0xFFFFFFFFFFFFFFFFFFFFFFFFFFFFFFFFFFFFFFFFFFFFFFFFFFFFFFFFFFFFFF NOT AND SWAP1 DUP2 PUSH1 0x0 BYTE SWAP1 MSTORE8 POP DUP1 PUSH1 0x5 PUSH1 0x8 DUP2 LT PUSH2 0x1413 JUMPI INVALID JUMPDEST BYTE PUSH1 0xF8 SHL DUP3 PUSH1 0x2 DUP2 MLOAD DUP2 LT PUSH2 0x1424 JUMPI INVALID JUMPDEST PUSH1 0x20 ADD ADD SWAP1 PUSH31 0xFFFFFFFFFFFFFFFFFFFFFFFFFFFFFFFFFFFFFFFFFFFFFFFFFFFFFFFFFFFFFF NOT AND SWAP1 DUP2 PUSH1 0x0 BYTE SWAP1 MSTORE8 POP DUP1 PUSH1 0x4 PUSH1 0x8 DUP2 LT PUSH2 0x1460 JUMPI INVALID JUMPDEST BYTE PUSH1 0xF8 SHL DUP3 PUSH1 0x3 DUP2 MLOAD DUP2 LT PUSH2 0x1471 JUMPI INVALID JUMPDEST PUSH1 0x20 ADD ADD SWAP1 PUSH31 0xFFFFFFFFFFFFFFFFFFFFFFFFFFFFFFFFFFFFFFFFFFFFFFFFFFFFFFFFFFFFFF NOT AND SWAP1 DUP2 PUSH1 0x0 BYTE SWAP1 MSTORE8 POP DUP1 PUSH1 0x3 PUSH1 0x8 DUP2 LT PUSH2 0x14AD JUMPI INVALID JUMPDEST BYTE PUSH1 0xF8 SHL DUP3 PUSH1 0x4 DUP2 MLOAD DUP2 LT PUSH2 0x14BE JUMPI INVALID JUMPDEST PUSH1 0x20 ADD ADD SWAP1 PUSH31 0xFFFFFFFFFFFFFFFFFFFFFFFFFFFFFFFFFFFFFFFFFFFFFFFFFFFFFFFFFFFFFF NOT AND SWAP1 DUP2 PUSH1 0x0 BYTE SWAP1 MSTORE8 POP DUP1 PUSH1 0x2 PUSH1 0x8 DUP2 LT PUSH2 0x14FA JUMPI INVALID JUMPDEST BYTE PUSH1 0xF8 SHL DUP3 PUSH1 0x5 DUP2 MLOAD DUP2 LT PUSH2 0x150B JUMPI INVALID JUMPDEST PUSH1 0x20 ADD ADD SWAP1 PUSH31 0xFFFFFFFFFFFFFFFFFFFFFFFFFFFFFFFFFFFFFFFFFFFFFFFFFFFFFFFFFFFFFF NOT AND SWAP1 DUP2 PUSH1 0x0 BYTE SWAP1 MSTORE8 POP DUP1 PUSH1 0x1 PUSH1 0x8 DUP2 LT PUSH2 0x1547 JUMPI INVALID JUMPDEST BYTE PUSH1 0xF8 SHL DUP3 PUSH1 0x6 DUP2 MLOAD DUP2 LT PUSH2 0x1558 JUMPI INVALID JUMPDEST PUSH1 0x20 ADD ADD SWAP1 PUSH31 0xFFFFFFFFFFFFFFFFFFFFFFFFFFFFFFFFFFFFFFFFFFFFFFFFFFFFFFFFFFFFFF NOT AND SWAP1 DUP2 PUSH1 0x0 BYTE SWAP1 MSTORE8 POP DUP1 PUSH1 0x0 PUSH1 0x8 DUP2 LT PUSH2 0x1594 JUMPI INVALID JUMPDEST BYTE PUSH1 0xF8 SHL DUP3 PUSH1 0x7 DUP2 MLOAD DUP2 LT PUSH2 0x15A5 JUMPI INVALID JUMPDEST PUSH1 0x20 ADD ADD SWAP1 PUSH31 0xFFFFFFFFFFFFFFFFFFFFFFFFFFFFFFFFFFFFFFFFFFFFFFFFFFFFFFFFFFFFFF NOT AND SWAP1 DUP2 PUSH1 0x0 BYTE SWAP1 MSTORE8 POP POP SWAP2 SWAP1 POP JUMP JUMPDEST PUSH1 0x0 DUP1 DUP6 DUP6 GT ISZERO PUSH2 0x15EA JUMPI PUSH1 0x0 DUP1 REVERT JUMPDEST DUP4 DUP7 GT ISZERO PUSH2 0x15F7 JUMPI PUSH1 0x0 DUP1 REVERT JUMPDEST PUSH1 0x1 DUP6 MUL DUP4 ADD SWAP2 POP DUP5 DUP7 SUB SWAP1 POP SWAP5 POP SWAP5 SWAP3 POP POP POP JUMP INVALID DIFFICULTY PUSH6 0x706F73697443 PUSH16 0x6E74726163743A206D65726B6C652074 PUSH19 0x65652066756C6C4465706F736974436F6E7472 PUSH2 0x6374 GASPRICE KECCAK256 PUSH19 0x65636F6E7374727563746564204465706F7369 PUSH21 0x4461746120646F6573206E6F74206D617463682073 PUSH22 0x70706C696564206465706F7369745F646174615F726F PUSH16 0x744465706F736974436F6E7472616374 GASPRICE KECCAK256 PUSH10 0x6E76616C696420776974 PUSH9 0x64726177616C5F6372 PUSH6 0x64656E746961 PUSH13 0x73206C656E6774684465706F73 PUSH10 0x74436F6E74726163743A KECCAK256 PUSH5 0x65706F7369 PUSH21 0x2076616C7565206E6F74206D756C7469706C65206F PUSH7 0x20677765694465 PUSH17 0x6F736974436F6E74726163743A20696E76 PUSH2 0x6C69 PUSH5 0x207075626B PUSH6 0x79206C656E67 PUSH21 0x684465706F736974436F6E74726163743A20646570 PUSH16 0x7369742076616C756520746F6F206869 PUSH8 0x684465706F736974 NUMBER PUSH16 0x6E74726163743A206465706F73697420 PUSH23 0x616C756520746F6F206C6F774465706F736974436F6E74 PUSH19 0x6163743A20696E76616C6964207369676E6174 PUSH22 0x7265206C656E677468A26469706673582212202ED088 EXP DUP9 BALANCE PUSH26 0xA1C2AB701420EAE8B4AA883E06DF0C713CFBA1C8F243FEBD864 PUSH20 0x6F6C634300060B00330000000000000000000000 "
	},
	"abi": [
		{
			"inputs": [],
			"stateMutability": "nonpayable",
			"type": "constructor"
		},
		{
			"anonymous": false,
			"inputs": [
				{
					"indexed": false,
					"internalType": "bytes",
					"name": "pubkey",
					"type": "bytes"
				},
				{
					"indexed": false,
					"internalType": "bytes",
					"name": "withdrawal_credentials",
					"type": "bytes"
				},
				{
					"indexed": false,
					"internalType": "bytes",
					"name": "amount",
					"type": "bytes"
				},
				{
					"indexed": false,
					"internalType": "bytes",
					"name": "signature",
					"type": "bytes"
				},
				{
					"indexed": false,
					"internalType": "bytes",
					"name": "index",
					"type": "bytes"
				}
			],
			"name": "DepositEvent",
			"type": "event"
		},
		{
			"inputs": [
				{
					"internalType": "bytes",
					"name": "pubkey",
					"type": "bytes"
				},
				{
					"internalType": "bytes",
					"name": "withdrawal_credentials",
					"type": "bytes"
				},
				{
					"internalType": "bytes",
					"name": "signature",
					"type": "bytes"
				},
				{
					"internalType": "bytes32",
					"name": "deposit_data_root",
					"type": "bytes32"
				}
			],
			"name": "deposit",
			"outputs": [],
			"stateMutability": "payable",
			"type": "function"
		},
		{
			"inputs": [],
			"name": "get_deposit_count",
			"outputs": [
				{
					"internalType": "bytes",
					"name": "",
					"type": "bytes"
				}
			],
			"stateMutability": "view",
			"type": "function"
		},
		{
			"inputs": [],
			"name": "get_deposit_root",
			"outputs": [
				{
					"internalType": "bytes32",
					"name": "",
					"type": "bytes32"
				}
			],
			"stateMutability": "view",
			"type": "function"
		},
		{
			"inputs": [
				{
					"internalType": "bytes4",
					"name": "interfaceId",
					"type": "bytes4"
				}
			],
			"name": "supportsInterface",
			"outputs": [
				{
					"internalType": "bool",
					"name": "",
					"type": "bool"
				}
			],
			"stateMutability": "pure",
			"type": "function"
		}
	],
	"storageLayout": {
		"storage": [
			{
				"astId": 68,
				"contract": "mainnet/0x00000000219ab540356cBB839Cbe05303d7705Fa/DepositContract.sol:DepositContract",
				"label": "branch",
				"offset": 0,
				"slot": "0",
				"type": "t_array(t_bytes32)32_storage"
			},
			{
				"astId": 70,
				"contract": "mainnet/0x00000000219ab540356cBB839Cbe05303d7705Fa/DepositContract.sol:DepositContract",
				"label": "deposit_count",
				"offset": 0,
				"slot": "32",
				"type": "t_uint256"
			},
			{
				"astId": 74,
				"contract": "mainnet/0x00000000219ab540356cBB839Cbe05303d7705Fa/DepositContract.sol:DepositContract",
				"label": "zero_hashes",
				"offset": 0,
				"slot": "33",
				"type": "t_array(t_bytes32)32_storage"
			}
		],
		"types": {
			"t_array(t_bytes32)32_storage": {
				"base": "t_bytes32",
				"encoding": "inplace",
				"label": "bytes32[32]",
				"numberOfBytes": "1024"
			},
			"t_bytes32": {
				"encoding": "inplace",
				"label": "bytes32",
				"numberOfBytes": "32"
			},
			"t_uint256": {
				"encoding": "inplace",
				"label": "uint256",
				"numberOfBytes": "32"
			}
		}
	},
	"web3Deploy": "var depositcontractContract = new web3.eth.Contract([{\"inputs\":[],\"stateMutability\":\"nonpayable\",\"type\":\"constructor\"},{\"anonymous\":false,\"inputs\":[{\"indexed\":false,\"internalType\":\"bytes\",\"name\":\"pubkey\",\"type\":\"bytes\"},{\"indexed\":false,\"internalType\":\"bytes\",\"name\":\"withdrawal_credentials\",\"type\":\"bytes\"},{\"indexed\":false,\"internalType\":\"bytes\",\"name\":\"amount\",\"type\":\"bytes\"},{\"indexed\":false,\"internalType\":\"bytes\",\"name\":\"signature\",\"type\":\"bytes\"},{\"indexed\":false,\"internalType\":\"bytes\",\"name\":\"index\",\"type\":\"bytes\"}],\"name\":\"DepositEvent\",\"type\":\"event\"},{\"inputs\":[{\"internalType\":\"bytes\",\"name\":\"pubkey\",\"type\":\"bytes\"},{\"internalType\":\"bytes\",\"name\":\"withdrawal_credentials\",\"type\":\"bytes\"},{\"internalType\":\"bytes\",\"name\":\"signature\",\"type\":\"bytes\"},{\"internalType\":\"bytes32\",\"name\":\"deposit_data_root\",\"type\":\"bytes32\"}],\"name\":\"deposit\",\"outputs\":[],\"stateMutability\":\"payable\",\"type\":\"function\"},{\"inputs\":[],\"name\":\"get_deposit_count\",\"outputs\":[{\"internalType\":\"bytes\",\"name\":\"\",\"type\":\"bytes\"}],\"stateMutability\":\"view\",\"type\":\"function\"},{\"inputs\":[],\"name\":\"get_deposit_root\",\"outputs\":[{\"internalType\":\"bytes32\",\"name\":\"\",\"type\":\"bytes32\"}],\"stateMutability\":\"view\",\"type\":\"function\"},{\"inputs\":[{\"internalType\":\"bytes4\",\"name\":\"interfaceId\",\"type\":\"bytes4\"}],\"name\":\"supportsInterface\",\"outputs\":[{\"internalType\":\"bool\",\"name\":\"\",\"type\":\"bool\"}],\"stateMutability\":\"pure\",\"type\":\"function\"}]);\nvar depositcontract = depositcontractContract.deploy({\n     data: '0x608060405234801561001057600080fd5b5060008090505b60016020038110156101265760026021826020811061003257fe5b01546021836020811061004157fe5b015460405160200180838152602001828152602001925050506040516020818303038152906040526040518082805190602001908083835b6020831061009c5780518252602082019150602081019050602083039250610079565b6001836020036101000a038019825116818451168082178552505050505050905001915050602060405180830381855afa1580156100de573d6000803e3d6000fd5b5050506040513d60208110156100f357600080fd5b81019080805190602001909291905050506021600183016020811061011457fe5b01819055508080600101915050610017565b506117bd80620001376000396000f3fe60806040526004361061003f5760003560e01c806301ffc9a71461004457806322895118146100b6578063621fd130146101e3578063c5f2892f14610273575b600080fd5b34801561005057600080fd5b5061009c6004803603602081101561006757600080fd5b8101908080357bffffffffffffffffffffffffffffffffffffffffffffffffffffffff1916906020019092919050505061029e565b604051808215151515815260200191505060405180910390f35b6101e1600480360360808110156100cc57600080fd5b81019080803590602001906401000000008111156100e957600080fd5b8201836020820111156100fb57600080fd5b8035906020019184600183028401116401000000008311171561011d57600080fd5b90919293919293908035906020019064010000000081111561013e57600080fd5b82018360208201111561015057600080fd5b8035906020019184600183028401116401000000008311171561017257600080fd5b90919293919293908035906020019064010000000081111561019357600080fd5b8201836020820111156101a557600080fd5b803590602001918460018302840111640100000000831117156101c757600080fd5b909192939192939080359060200190929190505050610370565b005b3480156101ef57600080fd5b506101f8610fd0565b6040518080602001828103825283818151815260200191508051906020019080838360005b8381101561023857808201518184015260208101905061021d565b50505050905090810190601f1680156102655780820380516001836020036101000a031916815260200191505b509250505060405180910390f35b34801561027f57600080fd5b50610288610fe2565b6040518082815260200191505060405180910390f35b60007f01ffc9a7000000000000000000000000000000000000000000000000000000007bffffffffffffffffffffffffffffffffffffffffffffffffffffffff1916827bffffffffffffffffffffffffffffffffffffffffffffffffffffffff1916148061036957507f85640907000000000000000000000000000000000000000000000000000000007bffffffffffffffffffffffffffffffffffffffffffffffffffffffff1916827bffffffffffffffffffffffffffffffffffffffffffffffffffffffff1916145b9050919050565b603087879050146103cc576040517f08c379a00000000000000000000000000000000000000000000000000000000081526004018080602001828103825260268152602001806116ec6026913960400191505060405180910390fd5b60208585905014610428576040517f08c379a00000000000000000000000000000000000000000000000000000000081526004018080602001828103825260368152602001806116836036913960400191505060405180910390fd5b60608383905014610484576040517f08c379a000000000000000000000000000000000000000000000000000000000815260040180806020018281038252602981526020018061175f6029913960400191505060405180910390fd5b670de0b6b3a76400003410156104e5576040517f08c379a00000000000000000000000000000000000000000000000000000000081526004018080602001828103825260268152602001806117396026913960400191505060405180910390fd5b6000633b9aca0034816104f457fe5b061461054b576040517f08c379a00000000000000000000000000000000000000000000000000000000081526004018080602001828103825260338152602001806116b96033913960400191505060405180910390fd5b6000633b9aca00348161055a57fe5b04905067ffffffffffffffff80168111156105c0576040517f08c379a00000000000000000000000000000000000000000000000000000000081526004018080602001828103825260278152602001806117126027913960400191505060405180910390fd5b60606105cb82611314565b90507f649bbc62d0e31342afea4e5cd82d4049e7e1ee912fc0889aa790803be39038c589898989858a8a610600602054611314565b60405180806020018060200180602001806020018060200186810386528e8e82818152602001925080828437600081840152601f19601f82011690508083019250505086810385528c8c82818152602001925080828437600081840152601f19601f82011690508083019250505086810384528a818151815260200191508051906020019080838360005b838110156106a657808201518184015260208101905061068b565b50505050905090810190601f1680156106d35780820380516001836020036101000a031916815260200191505b508681038352898982818152602001925080828437600081840152601f19601f820116905080830192505050868103825287818151815260200191508051906020019080838360005b8381101561073757808201518184015260208101905061071c565b50505050905090810190601f1680156107645780820380516001836020036101000a031916815260200191505b509d505050505050505050505050505060405180910390a1600060028a8a600060801b6040516020018084848082843780830192505050826fffffffffffffffffffffffffffffffff19166fffffffffffffffffffffffffffffffff1916815260100193505050506040516020818303038152906040526040518082805190602001908083835b6020831061080e57805182526020820191506020810190506020830392506107eb565b6001836020036101000a038019825116818451168082178552505050505050905001915050602060405180830381855afa158015610850573d6000803e3d6000fd5b5050506040513d602081101561086557600080fd5b8101908080519060200190929190505050905060006002808888600090604092610891939291906115da565b6040516020018083838082843780830192505050925050506040516020818303038152906040526040518082805190602001908083835b602083106108eb57805182526020820191506020810190506020830392506108c8565b6001836020036101000a038019825116818451168082178552505050505050905001915050602060405180830381855afa15801561092d573d6000803e3d6000fd5b5050506040513d602081101561094257600080fd5b8101908080519060200190929190505050600289896040908092610968939291906115da565b6000801b604051602001808484808284378083019250505082815260200193505050506040516020818303038152906040526040518082805190602001908083835b602083106109cd57805182526020820191506020810190506020830392506109aa565b6001836020036101000a038019825116818451168082178552505050505050905001915050602060405180830381855afa158015610a0f573d6000803e3d6000fd5b5050506040513d6020811015610a2457600080fd5b810190808051906020019092919050505060405160200180838152602001828152602001925050506040516020818303038152906040526040518082805190602001908083835b60208310610a8e5780518252602082019150602081019050602083039250610a6b565b6001836020036101000a038019825116818451168082178552505050505050905001915050602060405180830381855afa158015610ad0573d6000803e3d6000fd5b5050506040513d6020811015610ae557600080fd5b810190808051906020019092919050505090506000600280848c8c604051602001808481526020018383808284378083019250505093505050506040516020818303038152906040526040518082805190602001908083835b60208310610b615780518252602082019150602081019050602083039250610b3e565b6001836020036101000a038019825116818451168082178552505050505050905001915050602060405180830381855afa158015610ba3573d6000803e3d6000fd5b5050506040513d6020811015610bb857600080fd5b8101908080519060200190929190505050600286600060401b866040516020018084805190602001908083835b60208310610c085780518252602082019150602081019050602083039250610be5565b6001836020036101000a0380198251168184511680821785525050505050509050018367ffffffffffffffff191667ffffffffffffffff1916815260180182815260200193505050506040516020818303038152906040526040518082805190602001908083835b60208310610c935780518252602082019150602081019050602083039250610c70565b6001836020036101000a038019825116818451168082178552505050505050905001915050602060405180830381855afa158015610cd5573d6000803e3d6000fd5b5050506040513d6020811015610cea57600080fd5b810190808051906020019092919050505060405160200180838152602001828152602001925050506040516020818303038152906040526040518082805190602001908083835b60208310610d545780518252602082019150602081019050602083039250610d31565b6001836020036101000a038019825116818451168082178552505050505050905001915050602060405180830381855afa158015610d96573d6000803e3d6000fd5b5050506040513d6020811015610dab57600080fd5b81019080805190602001909291905050509050858114610e16576040517f08c379a000000000000000000000000000000000000000000000000000000000815260040180806020018281038252605481526020018061162f6054913960600191505060405180910390fd5b6001602060020a0360205410610e77576040517f08c379a000000000000000000000000000000000000000000000000000000000815260040180806020018281038252602181526020018061160e6021913960400191505060405180910390fd5b60016020600082825401925050819055506000602054905060008090505b6020811015610fb75760018083161415610ec8578260008260208110610eb757fe5b018190555050505050505050610fc7565b600260008260208110610ed757fe5b01548460405160200180838152602001828152602001925050506040516020818303038152906040526040518082805190602001908083835b60208310610f335780518252602082019150602081019050602083039250610f10565b6001836020036101000a038019825116818451168082178552505050505050905001915050602060405180830381855afa158015610f75573d6000803e3d6000fd5b5050506040513d6020811015610f8a57600080fd5b8101908080519060200190929190505050925060028281610fa757fe5b0491508080600101915050610e95565b506000610fc057fe5b5050505050505b50505050505050565b6060610fdd602054611314565b905090565b6000806000602054905060008090505b60208110156111d057600180831614156110e05760026000826020811061101557fe5b01548460405160200180838152602001828152602001925050506040516020818303038152906040526040518082805190602001908083835b60208310611071578051825260208201915060208101905060208303925061104e565b6001836020036101000a038019825116818451168082178552505050505050905001915050602060405180830381855afa1580156110b3573d6000803e3d6000fd5b5050506040513d60208110156110c857600080fd5b810190808051906020019092919050505092506111b6565b600283602183602081106110f057fe5b015460405160200180838152602001828152602001925050506040516020818303038152906040526040518082805190602001908083835b6020831061114b5780518252602082019150602081019050602083039250611128565b6001836020036101000a038019825116818451168082178552505050505050905001915050602060405180830381855afa15801561118d573d6000803e3d6000fd5b5050506040513d60208110156111a257600080fd5b810190808051906020019092919050505092505b600282816111c057fe5b0491508080600101915050610ff2565b506002826111df602054611314565b600060401b6040516020018084815260200183805190602001908083835b6020831061122057805182526020820191506020810190506020830392506111fd565b6001836020036101000a0380198251168184511680821785525050505050509050018267ffffffffffffffff191667ffffffffffffffff1916815260180193505050506040516020818303038152906040526040518082805190602001908083835b602083106112a55780518252602082019150602081019050602083039250611282565b6001836020036101000a038019825116818451168082178552505050505050905001915050602060405180830381855afa1580156112e7573d6000803e3d6000fd5b5050506040513d60208110156112fc57600080fd5b81019080805190602001909291905050509250505090565b6060600867ffffffffffffffff8111801561132e57600080fd5b506040519080825280601f01601f1916602001820160405280156113615781602001600182028036833780820191505090505b50905060008260c01b90508060076008811061137957fe5b1a60f81b8260008151811061138a57fe5b60200101907effffffffffffffffffffffffffffffffffffffffffffffffffffffffffffff1916908160001a905350806006600881106113c657fe5b1a60f81b826001815181106113d757fe5b60200101907effffffffffffffffffffffffffffffffffffffffffffffffffffffffffffff1916908160001a9053508060056008811061141357fe5b1a60f81b8260028151811061142457fe5b60200101907effffffffffffffffffffffffffffffffffffffffffffffffffffffffffffff1916908160001a9053508060046008811061146057fe5b1a60f81b8260038151811061147157fe5b60200101907effffffffffffffffffffffffffffffffffffffffffffffffffffffffffffff1916908160001a905350806003600881106114ad57fe5b1a60f81b826004815181106114be57fe5b60200101907effffffffffffffffffffffffffffffffffffffffffffffffffffffffffffff1916908160001a905350806002600881106114fa57fe5b1a60f81b8260058151811061150b57fe5b60200101907effffffffffffffffffffffffffffffffffffffffffffffffffffffffffffff1916908160001a9053508060016008811061154757fe5b1a60f81b8260068151811061155857fe5b60200101907effffffffffffffffffffffffffffffffffffffffffffffffffffffffffffff1916908160001a9053508060006008811061159457fe5b1a60f81b826007815181106115a557fe5b60200101907effffffffffffffffffffffffffffffffffffffffffffffffffffffffffffff1916908160001a90535050919050565b600080858511156115ea57600080fd5b838611156115f757600080fd5b600185028301915084860390509450949250505056fe4465706f736974436f6e74726163743a206d65726b6c6520747265652066756c6c4465706f736974436f6e74726163743a207265636f6e7374727563746564204465706f7369744461746120646f6573206e6f74206d6174636820737570706c696564206465706f7369745f646174615f726f6f744465706f736974436f6e74726163743a20696e76616c6964207769746864726177616c5f63726564656e7469616c73206c656e6774684465706f736974436f6e74726163743a206465706f7369742076616c7565206e6f74206d756c7469706c65206f6620677765694465706f736974436f6e74726163743a20696e76616c6964207075626b6579206c656e6774684465706f736974436f6e74726163743a206465706f7369742076616c756520746f6f20686967684465706f736974436f6e74726163743a206465706f7369742076616c756520746f6f206c6f774465706f736974436f6e74726163743a20696e76616c6964207369676e6174757265206c656e677468a26469706673582212202ed0880a8831790a1c2ab701420eae8b4aa883e06df0c713cfba1c8f243febd864736f6c634300060b0033', \n     arguments: [\n     ]\n}).send({\n     from: web3.eth.accounts[0], \n     gas: '4700000'\n   }, function (e, contract){\n    console.log(e, contract);\n    if (typeof contract.address !== 'undefined') {\n         console.log('Contract mined! address: ' + contract.address + ' transactionHash: ' + contract.transactionHash);\n    }\n })",
	"functionHashes": {
		"22895118": "deposit(bytes,bytes,bytes,bytes32)",
		"621fd130": "get_deposit_count()",
		"c5f2892f": "get_deposit_root()",
		"01ffc9a7": "supportsInterface(bytes4)"
	},
	"gasEstimates": {
		"Creation": {
			"codeDepositCost": "1215400",
			"executionCost": "infinite",
			"totalCost": "infinite"
		},
		"External": {
			"deposit(bytes,bytes,bytes,bytes32)": "infinite",
			"get_deposit_count()": "infinite",
			"get_deposit_root()": "infinite",
			"supportsInterface(bytes4)": "369"
		},
		"Internal": {
			"to_little_endian_64(uint64)": "infinite"
		}
	},
	"devdoc": {
		"kind": "dev",
		"methods": {
			"deposit(bytes,bytes,bytes,bytes32)": {
				"params": {
					"deposit_data_root": "The SHA-256 hash of the SSZ-encoded DepositData object. Used as a protection against malformed input.",
					"pubkey": "A BLS12-381 public key.",
					"signature": "A BLS12-381 signature.",
					"withdrawal_credentials": "Commitment to a public key for withdrawals."
				}
			},
			"get_deposit_count()": {
				"returns": {
					"_0": "The deposit count encoded as a little endian 64-bit number."
				}
			},
			"get_deposit_root()": {
				"returns": {
					"_0": "The deposit root hash."
				}
			},
			"supportsInterface(bytes4)": {
				"details": "Interface identification is specified in ERC-165. This function  uses less than 30,000 gas.",
				"params": {
					"interfaceId": "The interface identifier, as specified in ERC-165"
				},
				"returns": {
					"_0": "`true` if the contract implements `interfaceId` and  `interfaceId` is not 0xffffffff, `false` otherwise"
				}
			}
		},
		"version": 1
	},
	"userdoc": {
		"events": {
			"DepositEvent(bytes,bytes,bytes,bytes,bytes)": {
				"notice": "A processed deposit event."
			}
		},
		"kind": "user",
		"methods": {
			"deposit(bytes,bytes,bytes,bytes32)": {
				"notice": "Submit a Phase 0 DepositData object."
			},
			"get_deposit_count()": {
				"notice": "Query the current deposit count."
			},
			"get_deposit_root()": {
				"notice": "Query the current deposit root hash."
			},
			"supportsInterface(bytes4)": {
				"notice": "Query if a contract implements an interface"
			}
		},
		"notice": "This is the Ethereum 2.0 deposit contract interface. For more information see the Phase 0 specification under https://github.com/ethereum/eth2.0-specs",
		"version": 1
	},
	"Runtime Bytecode": {
		"immutableReferences": {},
		"linkReferences": {},
		"object": "60806040526004361061003f5760003560e01c806301ffc9a71461004457806322895118146100b6578063621fd130146101e3578063c5f2892f14610273575b600080fd5b34801561005057600080fd5b5061009c6004803603602081101561006757600080fd5b8101908080357bffffffffffffffffffffffffffffffffffffffffffffffffffffffff1916906020019092919050505061029e565b604051808215151515815260200191505060405180910390f35b6101e1600480360360808110156100cc57600080fd5b81019080803590602001906401000000008111156100e957600080fd5b8201836020820111156100fb57600080fd5b8035906020019184600183028401116401000000008311171561011d57600080fd5b90919293919293908035906020019064010000000081111561013e57600080fd5b82018360208201111561015057600080fd5b8035906020019184600183028401116401000000008311171561017257600080fd5b90919293919293908035906020019064010000000081111561019357600080fd5b8201836020820111156101a557600080fd5b803590602001918460018302840111640100000000831117156101c757600080fd5b909192939192939080359060200190929190505050610370565b005b3480156101ef57600080fd5b506101f8610fd0565b6040518080602001828103825283818151815260200191508051906020019080838360005b8381101561023857808201518184015260208101905061021d565b50505050905090810190601f1680156102655780820380516001836020036101000a031916815260200191505b509250505060405180910390f35b34801561027f57600080fd5b50610288610fe2565b6040518082815260200191505060405180910390f35b60007f01ffc9a7000000000000000000000000000000000000000000000000000000007bffffffffffffffffffffffffffffffffffffffffffffffffffffffff1916827bffffffffffffffffffffffffffffffffffffffffffffffffffffffff1916148061036957507f85640907000000000000000000000000000000000000000000000000000000007bffffffffffffffffffffffffffffffffffffffffffffffffffffffff1916827bffffffffffffffffffffffffffffffffffffffffffffffffffffffff1916145b9050919050565b603087879050146103cc576040517f08c379a00000000000000000000000000000000000000000000000000000000081526004018080602001828103825260268152602001806116ec6026913960400191505060405180910390fd5b60208585905014610428576040517f08c379a00000000000000000000000000000000000000000000000000000000081526004018080602001828103825260368152602001806116836036913960400191505060405180910390fd5b60608383905014610484576040517f08c379a000000000000000000000000000000000000000000000000000000000815260040180806020018281038252602981526020018061175f6029913960400191505060405180910390fd5b670de0b6b3a76400003410156104e5576040517f08c379a00000000000000000000000000000000000000000000000000000000081526004018080602001828103825260268152602001806117396026913960400191505060405180910390fd5b6000633b9aca0034816104f457fe5b061461054b576040517f08c379a00000000000000000000000000000000000000000000000000000000081526004018080602001828103825260338152602001806116b96033913960400191505060405180910390fd5b6000633b9aca00348161055a57fe5b04905067ffffffffffffffff80168111156105c0576040517f08c379a00000000000000000000000000000000000000000000000000000000081526004018080602001828103825260278152602001806117126027913960400191505060405180910390fd5b60606105cb82611314565b90507f649bbc62d0e31342afea4e5cd82d4049e7e1ee912fc0889aa790803be39038c589898989858a8a610600602054611314565b60405180806020018060200180602001806020018060200186810386528e8e82818152602001925080828437600081840152601f19601f82011690508083019250505086810385528c8c82818152602001925080828437600081840152601f19601f82011690508083019250505086810384528a818151815260200191508051906020019080838360005b838110156106a657808201518184015260208101905061068b565b50505050905090810190601f1680156106d35780820380516001836020036101000a031916815260200191505b508681038352898982818152602001925080828437600081840152601f19601f820116905080830192505050868103825287818151815260200191508051906020019080838360005b8381101561073757808201518184015260208101905061071c565b50505050905090810190601f1680156107645780820380516001836020036101000a031916815260200191505b509d505050505050505050505050505060405180910390a1600060028a8a600060801b6040516020018084848082843780830192505050826fffffffffffffffffffffffffffffffff19166fffffffffffffffffffffffffffffffff1916815260100193505050506040516020818303038152906040526040518082805190602001908083835b6020831061080e57805182526020820191506020810190506020830392506107eb565b6001836020036101000a038019825116818451168082178552505050505050905001915050602060405180830381855afa158015610850573d6000803e3d6000fd5b5050506040513d602081101561086557600080fd5b8101908080519060200190929190505050905060006002808888600090604092610891939291906115da565b6040516020018083838082843780830192505050925050506040516020818303038152906040526040518082805190602001908083835b602083106108eb57805182526020820191506020810190506020830392506108c8565b6001836020036101000a038019825116818451168082178552505050505050905001915050602060405180830381855afa15801561092d573d6000803e3d6000fd5b5050506040513d602081101561094257600080fd5b8101908080519060200190929190505050600289896040908092610968939291906115da565b6000801b604051602001808484808284378083019250505082815260200193505050506040516020818303038152906040526040518082805190602001908083835b602083106109cd57805182526020820191506020810190506020830392506109aa565b6001836020036101000a038019825116818451168082178552505050505050905001915050602060405180830381855afa158015610a0f573d6000803e3d6000fd5b5050506040513d6020811015610a2457600080fd5b810190808051906020019092919050505060405160200180838152602001828152602001925050506040516020818303038152906040526040518082805190602001908083835b60208310610a8e5780518252602082019150602081019050602083039250610a6b565b6001836020036101000a038019825116818451168082178552505050505050905001915050602060405180830381855afa158015610ad0573d6000803e3d6000fd5b5050506040513d6020811015610ae557600080fd5b810190808051906020019092919050505090506000600280848c8c604051602001808481526020018383808284378083019250505093505050506040516020818303038152906040526040518082805190602001908083835b60208310610b615780518252602082019150602081019050602083039250610b3e565b6001836020036101000a038019825116818451168082178552505050505050905001915050602060405180830381855afa158015610ba3573d6000803e3d6000fd5b5050506040513d6020811015610bb857600080fd5b8101908080519060200190929190505050600286600060401b866040516020018084805190602001908083835b60208310610c085780518252602082019150602081019050602083039250610be5565b6001836020036101000a0380198251168184511680821785525050505050509050018367ffffffffffffffff191667ffffffffffffffff1916815260180182815260200193505050506040516020818303038152906040526040518082805190602001908083835b60208310610c935780518252602082019150602081019050602083039250610c70565b6001836020036101000a038019825116818451168082178552505050505050905001915050602060405180830381855afa158015610cd5573d6000803e3d6000fd5b5050506040513d6020811015610cea57600080fd5b810190808051906020019092919050505060405160200180838152602001828152602001925050506040516020818303038152906040526040518082805190602001908083835b60208310610d545780518252602082019150602081019050602083039250610d31565b6001836020036101000a038019825116818451168082178552505050505050905001915050602060405180830381855afa158015610d96573d6000803e3d6000fd5b5050506040513d6020811015610dab57600080fd5b81019080805190602001909291905050509050858114610e16576040517f08c379a000000000000000000000000000000000000000000000000000000000815260040180806020018281038252605481526020018061162f6054913960600191505060405180910390fd5b6001602060020a0360205410610e77576040517f08c379a000000000000000000000000000000000000000000000000000000000815260040180806020018281038252602181526020018061160e6021913960400191505060405180910390fd5b60016020600082825401925050819055506000602054905060008090505b6020811015610fb75760018083161415610ec8578260008260208110610eb757fe5b018190555050505050505050610fc7565b600260008260208110610ed757fe5b01548460405160200180838152602001828152602001925050506040516020818303038152906040526040518082805190602001908083835b60208310610f335780518252602082019150602081019050602083039250610f10565b6001836020036101000a038019825116818451168082178552505050505050905001915050602060405180830381855afa158015610f75573d6000803e3d6000fd5b5050506040513d6020811015610f8a57600080fd5b8101908080519060200190929190505050925060028281610fa757fe5b0491508080600101915050610e95565b506000610fc057fe5b5050505050505b50505050505050565b6060610fdd602054611314565b905090565b6000806000602054905060008090505b60208110156111d057600180831614156110e05760026000826020811061101557fe5b01548460405160200180838152602001828152602001925050506040516020818303038152906040526040518082805190602001908083835b60208310611071578051825260208201915060208101905060208303925061104e565b6001836020036101000a038019825116818451168082178552505050505050905001915050602060405180830381855afa1580156110b3573d6000803e3d6000fd5b5050506040513d60208110156110c857600080fd5b810190808051906020019092919050505092506111b6565b600283602183602081106110f057fe5b015460405160200180838152602001828152602001925050506040516020818303038152906040526040518082805190602001908083835b6020831061114b5780518252602082019150602081019050602083039250611128565b6001836020036101000a038019825116818451168082178552505050505050905001915050602060405180830381855afa15801561118d573d6000803e3d6000fd5b5050506040513d60208110156111a257600080fd5b810190808051906020019092919050505092505b600282816111c057fe5b0491508080600101915050610ff2565b506002826111df602054611314565b600060401b6040516020018084815260200183805190602001908083835b6020831061122057805182526020820191506020810190506020830392506111fd565b6001836020036101000a0380198251168184511680821785525050505050509050018267ffffffffffffffff191667ffffffffffffffff1916815260180193505050506040516020818303038152906040526040518082805190602001908083835b602083106112a55780518252602082019150602081019050602083039250611282565b6001836020036101000a038019825116818451168082178552505050505050905001915050602060405180830381855afa1580156112e7573d6000803e3d6000fd5b5050506040513d60208110156112fc57600080fd5b81019080805190602001909291905050509250505090565b6060600867ffffffffffffffff8111801561132e57600080fd5b506040519080825280601f01601f1916602001820160405280156113615781602001600182028036833780820191505090505b50905060008260c01b90508060076008811061137957fe5b1a60f81b8260008151811061138a57fe5b60200101907effffffffffffffffffffffffffffffffffffffffffffffffffffffffffffff1916908160001a905350806006600881106113c657fe5b1a60f81b826001815181106113d757fe5b60200101907effffffffffffffffffffffffffffffffffffffffffffffffffffffffffffff1916908160001a9053508060056008811061141357fe5b1a60f81b8260028151811061142457fe5b60200101907effffffffffffffffffffffffffffffffffffffffffffffffffffffffffffff1916908160001a9053508060046008811061146057fe5b1a60f81b8260038151811061147157fe5b60200101907effffffffffffffffffffffffffffffffffffffffffffffffffffffffffffff1916908160001a905350806003600881106114ad57fe5b1a60f81b826004815181106114be57fe5b60200101907effffffffffffffffffffffffffffffffffffffffffffffffffffffffffffff1916908160001a905350806002600881106114fa57fe5b1a60f81b8260058151811061150b57fe5b60200101907effffffffffffffffffffffffffffffffffffffffffffffffffffffffffffff1916908160001a9053508060016008811061154757fe5b1a60f81b8260068151811061155857fe5b60200101907effffffffffffffffffffffffffffffffffffffffffffffffffffffffffffff1916908160001a9053508060006008811061159457fe5b1a60f81b826007815181106115a557fe5b60200101907effffffffffffffffffffffffffffffffffffffffffffffffffffffffffffff1916908160001a90535050919050565b600080858511156115ea57600080fd5b838611156115f757600080fd5b600185028301915084860390509450949250505056fe4465706f736974436f6e74726163743a206d65726b6c6520747265652066756c6c4465706f736974436f6e74726163743a207265636f6e7374727563746564204465706f7369744461746120646f6573206e6f74206d6174636820737570706c696564206465706f7369745f646174615f726f6f744465706f736974436f6e74726163743a20696e76616c6964207769746864726177616c5f63726564656e7469616c73206c656e6774684465706f736974436f6e74726163743a206465706f7369742076616c7565206e6f74206d756c7469706c65206f6620677765694465706f736974436f6e74726163743a20696e76616c6964207075626b6579206c656e6774684465706f736974436f6e74726163743a206465706f7369742076616c756520746f6f20686967684465706f736974436f6e74726163743a206465706f7369742076616c756520746f6f206c6f774465706f736974436f6e74726163743a20696e76616c6964207369676e6174757265206c656e677468a26469706673582212202ed0880a8831790a1c2ab701420eae8b4aa883e06df0c713cfba1c8f243febd864736f6c634300060b0033",
		"opcodes": "PUSH1 0x80 PUSH1 0x40 MSTORE PUSH1 0x4 CALLDATASIZE LT PUSH2 0x3F JUMPI PUSH1 0x0 CALLDATALOAD PUSH1 0xE0 SHR DUP1 PUSH4 0x1FFC9A7 EQ PUSH2 0x44 JUMPI DUP1 PUSH4 0x22895118 EQ PUSH2 0xB6 JUMPI DUP1 PUSH4 0x621FD130 EQ PUSH2 0x1E3 JUMPI DUP1 PUSH4 0xC5F2892F EQ PUSH2 0x273 JUMPI JUMPDEST PUSH1 0x0 DUP1 REVERT JUMPDEST CALLVALUE DUP1 ISZERO PUSH2 0x50 JUMPI PUSH1 0x0 DUP1 REVERT JUMPDEST POP PUSH2 0x9C PUSH1 0x4 DUP1 CALLDATASIZE SUB PUSH1 0x20 DUP2 LT ISZERO PUSH2 0x67 JUMPI PUSH1 0x0 DUP1 REVERT JUMPDEST DUP2 ADD SWAP1 DUP1 DUP1 CALLDATALOAD PUSH28 0xFFFFFFFFFFFFFFFFFFFFFFFFFFFFFFFFFFFFFFFFFFFFFFFFFFFFFFFF NOT AND SWAP1 PUSH1 0x20 ADD SWAP1 SWAP3 SWAP2 SWAP1 POP POP POP PUSH2 0x29E JUMP JUMPDEST PUSH1 0x40 MLOAD DUP1 DUP3 ISZERO ISZERO ISZERO ISZERO DUP2 MSTORE PUSH1 0x20 ADD SWAP2 POP POP PUSH1 0x40 MLOAD DUP1 SWAP2 SUB SWAP1 RETURN JUMPDEST PUSH2 0x1E1 PUSH1 0x4 DUP1 CALLDATASIZE SUB PUSH1 0x80 DUP2 LT ISZERO PUSH2 0xCC JUMPI PUSH1 0x0 DUP1 REVERT JUMPDEST DUP2 ADD SWAP1 DUP1 DUP1 CALLDATALOAD SWAP1 PUSH1 0x20 ADD SWAP1 PUSH5 0x100000000 DUP2 GT ISZERO PUSH2 0xE9 JUMPI PUSH1 0x0 DUP1 REVERT JUMPDEST DUP3 ADD DUP4 PUSH1 0x20 DUP3 ADD GT ISZERO PUSH2 0xFB JUMPI PUSH1 0x0 DUP1 REVERT JUMPDEST DUP1 CALLDATALOAD SWAP1 PUSH1 0x20 ADD SWAP2 DUP5 PUSH1 0x1 DUP4 MUL DUP5 ADD GT PUSH5 0x100000000 DUP4 GT OR ISZERO PUSH2 0x11D JUMPI PUSH1 0x0 DUP1 REVERT JUMPDEST SWAP1 SWAP2 SWAP3 SWAP4 SWAP2 SWAP3 SWAP4 SWAP1 DUP1 CALLDATALOAD SWAP1 PUSH1 0x20 ADD SWAP1 PUSH5 0x100000000 DUP2 GT ISZERO PUSH2 0x13E JUMPI PUSH1 0x0 DUP1 REVERT JUMPDEST DUP3 ADD DUP4 PUSH1 0x20 DUP3 ADD GT ISZERO PUSH2 0x150 JUMPI PUSH1 0x0 DUP1 REVERT JUMPDEST DUP1 CALLDATALOAD SWAP1 PUSH1 0x20 ADD SWAP2 DUP5 PUSH1 0x1 DUP4 MUL DUP5 ADD GT PUSH5 0x100000000 DUP4 GT OR ISZERO PUSH2 0x172 JUMPI PUSH1 0x0 DUP1 REVERT JUMPDEST SWAP1 SWAP2 SWAP3 SWAP4 SWAP2 SWAP3 SWAP4 SWAP1 DUP1 CALLDATALOAD SWAP1 PUSH1 0x20 ADD SWAP1 PUSH5 0x100000000 DUP2 GT ISZERO PUSH2 0x193 JUMPI PUSH1 0x0 DUP1 REVERT JUMPDEST DUP3 ADD DUP4 PUSH1 0x20 DUP3 ADD GT ISZERO PUSH2 0x1A5 JUMPI PUSH1 0x0 DUP1 REVERT JUMPDEST DUP1 CALLDATALOAD SWAP1 PUSH1 0x20 ADD SWAP2 DUP5 PUSH1 0x1 DUP4 MUL DUP5 ADD GT PUSH5 0x100000000 DUP4 GT OR ISZERO PUSH2 0x1C7 JUMPI PUSH1 0x0 DUP1 REVERT JUMPDEST SWAP1 SWAP2 SWAP3 SWAP4 SWAP2 SWAP3 SWAP4 SWAP1 DUP1 CALLDATALOAD SWAP1 PUSH1 0x20 ADD SWAP1 SWAP3 SWAP2 SWAP1 POP POP POP PUSH2 0x370 JUMP JUMPDEST STOP JUMPDEST CALLVALUE DUP1 ISZERO PUSH2 0x1EF JUMPI PUSH1 0x0 DUP1 REVERT JUMPDEST POP PUSH2 0x1F8 PUSH2 0xFD0 JUMP JUMPDEST PUSH1 0x40 MLOAD DUP1 DUP1 PUSH1 0x20 ADD DUP3 DUP2 SUB DUP3 MSTORE DUP4 DUP2 DUP2 MLOAD DUP2 MSTORE PUSH1 0x20 ADD SWAP2 POP DUP1 MLOAD SWAP1 PUSH1 0x20 ADD SWAP1 DUP1 DUP4 DUP4 PUSH1 0x0 JUMPDEST DUP4 DUP2 LT ISZERO PUSH2 0x238 JUMPI DUP1 DUP3 ADD MLOAD DUP2 DUP5 ADD MSTORE PUSH1 0x20 DUP2 ADD SWAP1 POP PUSH2 0x21D JUMP JUMPDEST POP POP POP POP SWAP1 POP SWAP1 DUP2 ADD SWAP1 PUSH1 0x1F AND DUP1 ISZERO PUSH2 0x265 JUMPI DUP1 DUP3 SUB DUP1 MLOAD PUSH1 0x1 DUP4 PUSH1 0x20 SUB PUSH2 0x100 EXP SUB NOT AND DUP2 MSTORE PUSH1 0x20 ADD SWAP2 POP JUMPDEST POP SWAP3 POP POP POP PUSH1 0x40 MLOAD DUP1 SWAP2 SUB SWAP1 RETURN JUMPDEST CALLVALUE DUP1 ISZERO PUSH2 0x27F JUMPI PUSH1 0x0 DUP1 REVERT JUMPDEST POP PUSH2 0x288 PUSH2 0xFE2 JUMP JUMPDEST PUSH1 0x40 MLOAD DUP1 DUP3 DUP2 MSTORE PUSH1 0x20 ADD SWAP2 POP POP PUSH1 0x40 MLOAD DUP1 SWAP2 SUB SWAP1 RETURN JUMPDEST PUSH1 0x0 PUSH32 0x1FFC9A700000000000000000000000000000000000000000000000000000000 PUSH28 0xFFFFFFFFFFFFFFFFFFFFFFFFFFFFFFFFFFFFFFFFFFFFFFFFFFFFFFFF NOT AND DUP3 PUSH28 0xFFFFFFFFFFFFFFFFFFFFFFFFFFFFFFFFFFFFFFFFFFFFFFFFFFFFFFFF NOT AND EQ DUP1 PUSH2 0x369 JUMPI POP PUSH32 0x8564090700000000000000000000000000000000000000000000000000000000 PUSH28 0xFFFFFFFFFFFFFFFFFFFFFFFFFFFFFFFFFFFFFFFFFFFFFFFFFFFFFFFF NOT AND DUP3 PUSH28 0xFFFFFFFFFFFFFFFFFFFFFFFFFFFFFFFFFFFFFFFFFFFFFFFFFFFFFFFF NOT AND EQ JUMPDEST SWAP1 POP SWAP2 SWAP1 POP JUMP JUMPDEST PUSH1 0x30 DUP8 DUP8 SWAP1 POP EQ PUSH2 0x3CC JUMPI PUSH1 0x40 MLOAD PUSH32 0x8C379A000000000000000000000000000000000000000000000000000000000 DUP2 MSTORE PUSH1 0x4 ADD DUP1 DUP1 PUSH1 0x20 ADD DUP3 DUP2 SUB DUP3 MSTORE PUSH1 0x26 DUP2 MSTORE PUSH1 0x20 ADD DUP1 PUSH2 0x16EC PUSH1 0x26 SWAP2 CODECOPY PUSH1 0x40 ADD SWAP2 POP POP PUSH1 0x40 MLOAD DUP1 SWAP2 SUB SWAP1 REVERT JUMPDEST PUSH1 0x20 DUP6 DUP6 SWAP1 POP EQ PUSH2 0x428 JUMPI PUSH1 0x40 MLOAD PUSH32 0x8C379A000000000000000000000000000000000000000000000000000000000 DUP2 MSTORE PUSH1 0x4 ADD DUP1 DUP1 PUSH1 0x20 ADD DUP3 DUP2 SUB DUP3 MSTORE PUSH1 0x36 DUP2 MSTORE PUSH1 0x20 ADD DUP1 PUSH2 0x1683 PUSH1 0x36 SWAP2 CODECOPY PUSH1 0x40 ADD SWAP2 POP POP PUSH1 0x40 MLOAD DUP1 SWAP2 SUB SWAP1 REVERT JUMPDEST PUSH1 0x60 DUP4 DUP4 SWAP1 POP EQ PUSH2 0x484 JUMPI PUSH1 0x40 MLOAD PUSH32 0x8C379A000000000000000000000000000000000000000000000000000000000 DUP2 MSTORE PUSH1 0x4 ADD DUP1 DUP1 PUSH1 0x20 ADD DUP3 DUP2 SUB DUP3 MSTORE PUSH1 0x29 DUP2 MSTORE PUSH1 0x20 ADD DUP1 PUSH2 0x175F PUSH1 0x29 SWAP2 CODECOPY PUSH1 0x40 ADD SWAP2 POP POP PUSH1 0x40 MLOAD DUP1 SWAP2 SUB SWAP1 REVERT JUMPDEST PUSH8 0xDE0B6B3A7640000 CALLVALUE LT ISZERO PUSH2 0x4E5 JUMPI PUSH1 0x40 MLOAD PUSH32 0x8C379A000000000000000000000000000000000000000000000000000000000 DUP2 MSTORE PUSH1 0x4 ADD DUP1 DUP1 PUSH1 0x20 ADD DUP3 DUP2 SUB DUP3 MSTORE PUSH1 0x26 DUP2 MSTORE PUSH1 0x20 ADD DUP1 PUSH2 0x1739 PUSH1 0x26 SWAP2 CODECOPY PUSH1 0x40 ADD SWAP2 POP POP PUSH1 0x40 MLOAD DUP1 SWAP2 SUB SWAP1 REVERT JUMPDEST PUSH1 0x0 PUSH4 0x3B9ACA00 CALLVALUE DUP2 PUSH2 0x4F4 JUMPI INVALID JUMPDEST MOD EQ PUSH2 0x54B JUMPI PUSH1 0x40 MLOAD PUSH32 0x8C379A000000000000000000000000000000000000000000000000000000000 DUP2 MSTORE PUSH1 0x4 ADD DUP1 DUP1 PUSH1 0x20 ADD DUP3 DUP2 SUB DUP3 MSTORE PUSH1 0x33 DUP2 MSTORE PUSH1 0x20 ADD DUP1 PUSH2 0x16B9 PUSH1 0x33 SWAP2 CODECOPY PUSH1 0x40 ADD SWAP2 POP POP PUSH1 0x40 MLOAD DUP1 SWAP2 SUB SWAP1 REVERT JUMPDEST PUSH1 0x0 PUSH4 0x3B9ACA00 CALLVALUE DUP2 PUSH2 0x55A JUMPI INVALID JUMPDEST DIV SWAP1 POP PUSH8 0xFFFFFFFFFFFFFFFF DUP1 AND DUP2 GT ISZERO PUSH2 0x5C0 JUMPI PUSH1 0x40 MLOAD PUSH32 0x8C379A000000000000000000000000000000000000000000000000000000000 DUP2 MSTORE PUSH1 0x4 ADD DUP1 DUP1 PUSH1 0x20 ADD DUP3 DUP2 SUB DUP3 MSTORE PUSH1 0x27 DUP2 MSTORE PUSH1 0x20 ADD DUP1 PUSH2 0x1712 PUSH1 0x27 SWAP2 CODECOPY PUSH1 0x40 ADD SWAP2 POP POP PUSH1 0x40 MLOAD DUP1 SWAP2 SUB SWAP1 REVERT JUMPDEST PUSH1 0x60 PUSH2 0x5CB DUP3 PUSH2 0x1314 JUMP JUMPDEST SWAP1 POP PUSH32 0x649BBC62D0E31342AFEA4E5CD82D4049E7E1EE912FC0889AA790803BE39038C5 DUP10 DUP10 DUP10 DUP10 DUP6 DUP11 DUP11 PUSH2 0x600 PUSH1 0x20 SLOAD PUSH2 0x1314 JUMP JUMPDEST PUSH1 0x40 MLOAD DUP1 DUP1 PUSH1 0x20 ADD DUP1 PUSH1 0x20 ADD DUP1 PUSH1 0x20 ADD DUP1 PUSH1 0x20 ADD DUP1 PUSH1 0x20 ADD DUP7 DUP2 SUB DUP7 MSTORE DUP15 DUP15 DUP3 DUP2 DUP2 MSTORE PUSH1 0x20 ADD SWAP3 POP DUP1 DUP3 DUP5 CALLDATACOPY PUSH1 0x0 DUP2 DUP5 ADD MSTORE PUSH1 0x1F NOT PUSH1 0x1F DUP3 ADD AND SWAP1 POP DUP1 DUP4 ADD SWAP3 POP POP POP DUP7 DUP2 SUB DUP6 MSTORE DUP13 DUP13 DUP3 DUP2 DUP2 MSTORE PUSH1 0x20 ADD SWAP3 POP DUP1 DUP3 DUP5 CALLDATACOPY PUSH1 0x0 DUP2 DUP5 ADD MSTORE PUSH1 0x1F NOT PUSH1 0x1F DUP3 ADD AND SWAP1 POP DUP1 DUP4 ADD SWAP3 POP POP POP DUP7 DUP2 SUB DUP5 MSTORE DUP11 DUP2 DUP2 MLOAD DUP2 MSTORE PUSH1 0x20 ADD SWAP2 POP DUP1 MLOAD SWAP1 PUSH1 0x20 ADD SWAP1 DUP1 DUP4 DUP4 PUSH1 0x0 JUMPDEST DUP4 DUP2 LT ISZERO PUSH2 0x6A6 JUMPI DUP1 DUP3 ADD MLOAD DUP2 DUP5 ADD MSTORE PUSH1 0x20 DUP2 ADD SWAP1 POP PUSH2 0x68B JUMP JUMPDEST POP POP POP POP SWAP1 POP SWAP1 DUP2 ADD SWAP1 PUSH1 0x1F AND DUP1 ISZERO PUSH2 0x6D3 JUMPI DUP1 DUP3 SUB DUP1 MLOAD PUSH1 0x1 DUP4 PUSH1 0x20 SUB PUSH2 0x100 EXP SUB NOT AND DUP2 MSTORE PUSH1 0x20 ADD SWAP2 POP JUMPDEST POP DUP7 DUP2 SUB DUP4 MSTORE DUP10 DUP10 DUP3 DUP2 DUP2 MSTORE PUSH1 0x20 ADD SWAP3 POP DUP1 DUP3 DUP5 CALLDATACOPY PUSH1 0x0 DUP2 DUP5 ADD MSTORE PUSH1 0x1F NOT PUSH1 0x1F DUP3 ADD AND SWAP1 POP DUP1 DUP4 ADD SWAP3 POP POP POP DUP7 DUP2 SUB DUP3 MSTORE DUP8 DUP2 DUP2 MLOAD DUP2 MSTORE PUSH1 0x20 ADD SWAP2 POP DUP1 MLOAD SWAP1 PUSH1 0x20 ADD SWAP1 DUP1 DUP4 DUP4 PUSH1 0x0 JUMPDEST DUP4 DUP2 LT ISZERO PUSH2 0x737 JUMPI DUP1 DUP3 ADD MLOAD DUP2 DUP5 ADD MSTORE PUSH1 0x20 DUP2 ADD SWAP1 POP PUSH2 0x71C JUMP JUMPDEST POP POP POP POP SWAP1 POP SWAP1 DUP2 ADD SWAP1 PUSH1 0x1F AND DUP1 ISZERO PUSH2 0x764 JUMPI DUP1 DUP3 SUB DUP1 MLOAD PUSH1 0x1 DUP4 PUSH1 0x20 SUB PUSH2 0x100 EXP SUB NOT AND DUP2 MSTORE PUSH1 0x20 ADD SWAP2 POP JUMPDEST POP SWAP14 POP POP POP POP POP POP POP POP POP POP POP POP POP POP PUSH1 0x40 MLOAD DUP1 SWAP2 SUB SWAP1 LOG1 PUSH1 0x0 PUSH1 0x2 DUP11 DUP11 PUSH1 0x0 PUSH1 0x80 SHL PUSH1 0x40 MLOAD PUSH1 0x20 ADD DUP1 DUP5 DUP5 DUP1 DUP3 DUP5 CALLDATACOPY DUP1 DUP4 ADD SWAP3 POP POP POP DUP3 PUSH16 0xFFFFFFFFFFFFFFFFFFFFFFFFFFFFFFFF NOT AND PUSH16 0xFFFFFFFFFFFFFFFFFFFFFFFFFFFFFFFF NOT AND DUP2 MSTORE PUSH1 0x10 ADD SWAP4 POP POP POP POP PUSH1 0x40 MLOAD PUSH1 0x20 DUP2 DUP4 SUB SUB DUP2 MSTORE SWAP1 PUSH1 0x40 MSTORE PUSH1 0x40 MLOAD DUP1 DUP3 DUP1 MLOAD SWAP1 PUSH1 0x20 ADD SWAP1 DUP1 DUP4 DUP4 JUMPDEST PUSH1 0x20 DUP4 LT PUSH2 0x80E JUMPI DUP1 MLOAD DUP3 MSTORE PUSH1 0x20 DUP3 ADD SWAP2 POP PUSH1 0x20 DUP2 ADD SWAP1 POP PUSH1 0x20 DUP4 SUB SWAP3 POP PUSH2 0x7EB JUMP JUMPDEST PUSH1 0x1 DUP4 PUSH1 0x20 SUB PUSH2 0x100 EXP SUB DUP1 NOT DUP3 MLOAD AND DUP2 DUP5 MLOAD AND DUP1 DUP3 OR DUP6 MSTORE POP POP POP POP POP POP SWAP1 POP ADD SWAP2 POP POP PUSH1 0x20 PUSH1 0x40 MLOAD DUP1 DUP4 SUB DUP2 DUP6 GAS STATICCALL ISZERO DUP1 ISZERO PUSH2 0x850 JUMPI RETURNDATASIZE PUSH1 0x0 DUP1 RETURNDATACOPY RETURNDATASIZE PUSH1 0x0 REVERT JUMPDEST POP POP POP PUSH1 0x40 MLOAD RETURNDATASIZE PUSH1 0x20 DUP2 LT ISZERO PUSH2 0x865 JUMPI PUSH1 0x0 DUP1 REVERT JUMPDEST DUP2 ADD SWAP1 DUP1 DUP1 MLOAD SWAP1 PUSH1 0x20 ADD SWAP1 SWAP3 SWAP2 SWAP1 POP POP POP SWAP1 POP PUSH1 0x0 PUSH1 0x2 DUP1 DUP9 DUP9 PUSH1 0x0 SWAP1 PUSH1 0x40 SWAP3 PUSH2 0x891 SWAP4 SWAP3 SWAP2 SWAP1 PUSH2 0x15DA JUMP JUMPDEST PUSH1 0x40 MLOAD PUSH1 0x20 ADD DUP1 DUP4 DUP4 DUP1 DUP3 DUP5 CALLDATACOPY DUP1 DUP4 ADD SWAP3 POP POP POP SWAP3 POP POP POP PUSH1 0x40 MLOAD PUSH1 0x20 DUP2 DUP4 SUB SUB DUP2 MSTORE SWAP1 PUSH1 0x40 MSTORE PUSH1 0x40 MLOAD DUP1 DUP3 DUP1 MLOAD SWAP1 PUSH1 0x20 ADD SWAP1 DUP1 DUP4 DUP4 JUMPDEST PUSH1 0x20 DUP4 LT PUSH2 0x8EB JUMPI DUP1 MLOAD DUP3 MSTORE PUSH1 0x20 DUP3 ADD SWAP2 POP PUSH1 0x20 DUP2 ADD SWAP1 POP PUSH1 0x20 DUP4 SUB SWAP3 POP PUSH2 0x8C8 JUMP JUMPDEST PUSH1 0x1 DUP4 PUSH1 0x20 SUB PUSH2 0x100 EXP SUB DUP1 NOT DUP3 MLOAD AND DUP2 DUP5 MLOAD AND DUP1 DUP3 OR DUP6 MSTORE POP POP POP POP POP POP SWAP1 POP ADD SWAP2 POP POP PUSH1 0x20 PUSH1 0x40 MLOAD DUP1 DUP4 SUB DUP2 DUP6 GAS STATICCALL ISZERO DUP1 ISZERO PUSH2 0x92D JUMPI RETURNDATASIZE PUSH1 0x0 DUP1 RETURNDATACOPY RETURNDATASIZE PUSH1 0x0 REVERT JUMPDEST POP POP POP PUSH1 0x40 MLOAD RETURNDATASIZE PUSH1 0x20 DUP2 LT ISZERO PUSH2 0x942 JUMPI PUSH1 0x0 DUP1 REVERT JUMPDEST DUP2 ADD SWAP1 DUP1 DUP1 MLOAD SWAP1 PUSH1 0x20 ADD SWAP1 SWAP3 SWAP2 SWAP1 POP POP POP PUSH1 0x2 DUP10 DUP10 PUSH1 0x40 SWAP1 DUP1 SWAP3 PUSH2 0x968 SWAP4 SWAP3 SWAP2 SWAP1 PUSH2 0x15DA JUMP JUMPDEST PUSH1 0x0 DUP1 SHL PUSH1 0x40 MLOAD PUSH1 0x20 ADD DUP1 DUP5 DUP5 DUP1 DUP3 DUP5 CALLDATACOPY DUP1 DUP4 ADD SWAP3 POP POP POP DUP3 DUP2 MSTORE PUSH1 0x20 ADD SWAP4 POP POP POP POP PUSH1 0x40 MLOAD PUSH1 0x20 DUP2 DUP4 SUB SUB DUP2 MSTORE SWAP1 PUSH1 0x40 MSTORE PUSH1 0x40 MLOAD DUP1 DUP3 DUP1 MLOAD SWAP1 PUSH1 0x20 ADD SWAP1 DUP1 DUP4 DUP4 JUMPDEST PUSH1 0x20 DUP4 LT PUSH2 0x9CD JUMPI DUP1 MLOAD DUP3 MSTORE PUSH1 0x20 DUP3 ADD SWAP2 POP PUSH1 0x20 DUP2 ADD SWAP1 POP PUSH1 0x20 DUP4 SUB SWAP3 POP PUSH2 0x9AA JUMP JUMPDEST PUSH1 0x1 DUP4 PUSH1 0x20 SUB PUSH2 0x100 EXP SUB DUP1 NOT DUP3 MLOAD AND DUP2 DUP5 MLOAD AND DUP1 DUP3 OR DUP6 MSTORE POP POP POP POP POP POP SWAP1 POP ADD SWAP2 POP POP PUSH1 0x20 PUSH1 0x40 MLOAD DUP1 DUP4 SUB DUP2 DUP6 GAS STATICCALL ISZERO DUP1 ISZERO PUSH2 0xA0F JUMPI RETURNDATASIZE PUSH1 0x0 DUP1 RETURNDATACOPY RETURNDATASIZE PUSH1 0x0 REVERT JUMPDEST POP POP POP PUSH1 0x40 MLOAD RETURNDATASIZE PUSH1 0x20 DUP2 LT ISZERO PUSH2 0xA24 JUMPI PUSH1 0x0 DUP1 REVERT JUMPDEST DUP2 ADD SWAP1 DUP1 DUP1 MLOAD SWAP1 PUSH1 0x20 ADD SWAP1 SWAP3 SWAP2 SWAP1 POP POP POP PUSH1 0x40 MLOAD PUSH1 0x20 ADD DUP1 DUP4 DUP2 MSTORE PUSH1 0x20 ADD DUP3 DUP2 MSTORE PUSH1 0x20 ADD SWAP3 POP POP POP PUSH1 0x40 MLOAD PUSH1 0x20 DUP2 DUP4 SUB SUB DUP2 MSTORE SWAP1 PUSH1 0x40 MSTORE PUSH1 0x40 MLOAD DUP1 DUP3 DUP1 MLOAD SWAP1 PUSH1 0x20 ADD SWAP1 DUP1 DUP4 DUP4 JUMPDEST PUSH1 0x20 DUP4 LT PUSH2 0xA8E JUMPI DUP1 MLOAD DUP3 MSTORE PUSH1 0x20 DUP3 ADD SWAP2 POP PUSH1 0x20 DUP2 ADD SWAP1 POP PUSH1 0x20 DUP4 SUB SWAP3 POP PUSH2 0xA6B JUMP JUMPDEST PUSH1 0x1 DUP4 PUSH1 0x20 SUB PUSH2 0x100 EXP SUB DUP1 NOT DUP3 MLOAD AND DUP2 DUP5 MLOAD AND DUP1 DUP3 OR DUP6 MSTORE POP POP POP POP POP POP SWAP1 POP ADD SWAP2 POP POP PUSH1 0x20 PUSH1 0x40 MLOAD DUP1 DUP4 SUB DUP2 DUP6 GAS STATICCALL ISZERO DUP1 ISZERO PUSH2 0xAD0 JUMPI RETURNDATASIZE PUSH1 0x0 DUP1 RETURNDATACOPY RETURNDATASIZE PUSH1 0x0 REVERT JUMPDEST POP POP POP PUSH1 0x40 MLOAD RETURNDATASIZE PUSH1 0x20 DUP2 LT ISZERO PUSH2 0xAE5 JUMPI PUSH1 0x0 DUP1 REVERT JUMPDEST DUP2 ADD SWAP1 DUP1 DUP1 MLOAD SWAP1 PUSH1 0x20 ADD SWAP1 SWAP3 SWAP2 SWAP1 POP POP POP SWAP1 POP PUSH1 0x0 PUSH1 0x2 DUP1 DUP5 DUP13 DUP13 PUSH1 0x40 MLOAD PUSH1 0x20 ADD DUP1 DUP5 DUP2 MSTORE PUSH1 0x20 ADD DUP4 DUP4 DUP1 DUP3 DUP5 CALLDATACOPY DUP1 DUP4 ADD SWAP3 POP POP POP SWAP4 POP POP POP POP PUSH1 0x40 MLOAD PUSH1 0x20 DUP2 DUP4 SUB SUB DUP2 MSTORE SWAP1 PUSH1 0x40 MSTORE PUSH1 0x40 MLOAD DUP1 DUP3 DUP1 MLOAD SWAP1 PUSH1 0x20 ADD SWAP1 DUP1 DUP4 DUP4 JUMPDEST PUSH1 0x20 DUP4 LT PUSH2 0xB61 JUMPI DUP1 MLOAD DUP3 MSTORE PUSH1 0x20 DUP3 ADD SWAP2 POP PUSH1 0x20 DUP2 ADD SWAP1 POP PUSH1 0x20 DUP4 SUB SWAP3 POP PUSH2 0xB3E JUMP JUMPDEST PUSH1 0x1 DUP4 PUSH1 0x20 SUB PUSH2 0x100 EXP SUB DUP1 NOT DUP3 MLOAD AND DUP2 DUP5 MLOAD AND DUP1 DUP3 OR DUP6 MSTORE POP POP POP POP POP POP SWAP1 POP ADD SWAP2 POP POP PUSH1 0x20 PUSH1 0x40 MLOAD DUP1 DUP4 SUB DUP2 DUP6 GAS STATICCALL ISZERO DUP1 ISZERO PUSH2 0xBA3 JUMPI RETURNDATASIZE PUSH1 0x0 DUP1 RETURNDATACOPY RETURNDATASIZE PUSH1 0x0 REVERT JUMPDEST POP POP POP PUSH1 0x40 MLOAD RETURNDATASIZE PUSH1 0x20 DUP2 LT ISZERO PUSH2 0xBB8 JUMPI PUSH1 0x0 DUP1 REVERT JUMPDEST DUP2 ADD SWAP1 DUP1 DUP1 MLOAD SWAP1 PUSH1 0x20 ADD SWAP1 SWAP3 SWAP2 SWAP1 POP POP POP PUSH1 0x2 DUP7 PUSH1 0x0 PUSH1 0x40 SHL DUP7 PUSH1 0x40 MLOAD PUSH1 0x20 ADD DUP1 DUP5 DUP1 MLOAD SWAP1 PUSH1 0x20 ADD SWAP1 DUP1 DUP4 DUP4 JUMPDEST PUSH1 0x20 DUP4 LT PUSH2 0xC08 JUMPI DUP1 MLOAD DUP3 MSTORE PUSH1 0x20 DUP3 ADD SWAP2 POP PUSH1 0x20 DUP2 ADD SWAP1 POP PUSH1 0x20 DUP4 SUB SWAP3 POP PUSH2 0xBE5 JUMP JUMPDEST PUSH1 0x1 DUP4 PUSH1 0x20 SUB PUSH2 0x100 EXP SUB DUP1 NOT DUP3 MLOAD AND DUP2 DUP5 MLOAD AND DUP1 DUP3 OR DUP6 MSTORE POP POP POP POP POP POP SWAP1 POP ADD DUP4 PUSH8 0xFFFFFFFFFFFFFFFF NOT AND PUSH8 0xFFFFFFFFFFFFFFFF NOT AND DUP2 MSTORE PUSH1 0x18 ADD DUP3 DUP2 MSTORE PUSH1 0x20 ADD SWAP4 POP POP POP POP PUSH1 0x40 MLOAD PUSH1 0x20 DUP2 DUP4 SUB SUB DUP2 MSTORE SWAP1 PUSH1 0x40 MSTORE PUSH1 0x40 MLOAD DUP1 DUP3 DUP1 MLOAD SWAP1 PUSH1 0x20 ADD SWAP1 DUP1 DUP4 DUP4 JUMPDEST PUSH1 0x20 DUP4 LT PUSH2 0xC93 JUMPI DUP1 MLOAD DUP3 MSTORE PUSH1 0x20 DUP3 ADD SWAP2 POP PUSH1 0x20 DUP2 ADD SWAP1 POP PUSH1 0x20 DUP4 SUB SWAP3 POP PUSH2 0xC70 JUMP JUMPDEST PUSH1 0x1 DUP4 PUSH1 0x20 SUB PUSH2 0x100 EXP SUB DUP1 NOT DUP3 MLOAD AND DUP2 DUP5 MLOAD AND DUP1 DUP3 OR DUP6 MSTORE POP POP POP POP POP POP SWAP1 POP ADD SWAP2 POP POP PUSH1 0x20 PUSH1 0x40 MLOAD DUP1 DUP4 SUB DUP2 DUP6 GAS STATICCALL ISZERO DUP1 ISZERO PUSH2 0xCD5 JUMPI RETURNDATASIZE PUSH1 0x0 DUP1 RETURNDATACOPY RETURNDATASIZE PUSH1 0x0 REVERT JUMPDEST POP POP POP PUSH1 0x40 MLOAD RETURNDATASIZE PUSH1 0x20 DUP2 LT ISZERO PUSH2 0xCEA JUMPI PUSH1 0x0 DUP1 REVERT JUMPDEST DUP2 ADD SWAP1 DUP1 DUP1 MLOAD SWAP1 PUSH1 0x20 ADD SWAP1 SWAP3 SWAP2 SWAP1 POP POP POP PUSH1 0x40 MLOAD PUSH1 0x20 ADD DUP1 DUP4 DUP2 MSTORE PUSH1 0x20 ADD DUP3 DUP2 MSTORE PUSH1 0x20 ADD SWAP3 POP POP POP PUSH1 0x40 MLOAD PUSH1 0x20 DUP2 DUP4 SUB SUB DUP2 MSTORE SWAP1 PUSH1 0x40 MSTORE PUSH1 0x40 MLOAD DUP1 DUP3 DUP1 MLOAD SWAP1 PUSH1 0x20 ADD SWAP1 DUP1 DUP4 DUP4 JUMPDEST PUSH1 0x20 DUP4 LT PUSH2 0xD54 JUMPI DUP1 MLOAD DUP3 MSTORE PUSH1 0x20 DUP3 ADD SWAP2 POP PUSH1 0x20 DUP2 ADD SWAP1 POP PUSH1 0x20 DUP4 SUB SWAP3 POP PUSH2 0xD31 JUMP JUMPDEST PUSH1 0x1 DUP4 PUSH1 0x20 SUB PUSH2 0x100 EXP SUB DUP1 NOT DUP3 MLOAD AND DUP2 DUP5 MLOAD AND DUP1 DUP3 OR DUP6 MSTORE POP POP POP POP POP POP SWAP1 POP ADD SWAP2 POP POP PUSH1 0x20 PUSH1 0x40 MLOAD DUP1 DUP4 SUB DUP2 DUP6 GAS STATICCALL ISZERO DUP1 ISZERO PUSH2 0xD96 JUMPI RETURNDATASIZE PUSH1 0x0 DUP1 RETURNDATACOPY RETURNDATASIZE PUSH1 0x0 REVERT JUMPDEST POP POP POP PUSH1 0x40 MLOAD RETURNDATASIZE PUSH1 0x20 DUP2 LT ISZERO PUSH2 0xDAB JUMPI PUSH1 0x0 DUP1 REVERT JUMPDEST DUP2 ADD SWAP1 DUP1 DUP1 MLOAD SWAP1 PUSH1 0x20 ADD SWAP1 SWAP3 SWAP2 SWAP1 POP POP POP SWAP1 POP DUP6 DUP2 EQ PUSH2 0xE16 JUMPI PUSH1 0x40 MLOAD PUSH32 0x8C379A000000000000000000000000000000000000000000000000000000000 DUP2 MSTORE PUSH1 0x4 ADD DUP1 DUP1 PUSH1 0x20 ADD DUP3 DUP2 SUB DUP3 MSTORE PUSH1 0x54 DUP2 MSTORE PUSH1 0x20 ADD DUP1 PUSH2 0x162F PUSH1 0x54 SWAP2 CODECOPY PUSH1 0x60 ADD SWAP2 POP POP PUSH1 0x40 MLOAD DUP1 SWAP2 SUB SWAP1 REVERT JUMPDEST PUSH1 0x1 PUSH1 0x20 PUSH1 0x2 EXP SUB PUSH1 0x20 SLOAD LT PUSH2 0xE77 JUMPI PUSH1 0x40 MLOAD PUSH32 0x8C379A000000000000000000000000000000000000000000000000000000000 DUP2 MSTORE PUSH1 0x4 ADD DUP1 DUP1 PUSH1 0x20 ADD DUP3 DUP2 SUB DUP3 MSTORE PUSH1 0x21 DUP2 MSTORE PUSH1 0x20 ADD DUP1 PUSH2 0x160E PUSH1 0x21 SWAP2 CODECOPY PUSH1 0x40 ADD SWAP2 POP POP PUSH1 0x40 MLOAD DUP1 SWAP2 SUB SWAP1 REVERT JUMPDEST PUSH1 0x1 PUSH1 0x20 PUSH1 0x0 DUP3 DUP3 SLOAD ADD SWAP3 POP POP DUP2 SWAP1 SSTORE POP PUSH1 0x0 PUSH1 0x20 SLOAD SWAP1 POP PUSH1 0x0 DUP1 SWAP1 POP JUMPDEST PUSH1 0x20 DUP2 LT ISZERO PUSH2 0xFB7 JUMPI PUSH1 0x1 DUP1 DUP4 AND EQ ISZERO PUSH2 0xEC8 JUMPI DUP3 PUSH1 0x0 DUP3 PUSH1 0x20 DUP2 LT PUSH2 0xEB7 JUMPI INVALID JUMPDEST ADD DUP2 SWAP1 SSTORE POP POP POP POP POP POP POP POP PUSH2 0xFC7 JUMP JUMPDEST PUSH1 0x2 PUSH1 0x0 DUP3 PUSH1 0x20 DUP2 LT PUSH2 0xED7 JUMPI INVALID JUMPDEST ADD SLOAD DUP5 PUSH1 0x40 MLOAD PUSH1 0x20 ADD DUP1 DUP4 DUP2 MSTORE PUSH1 0x20 ADD DUP3 DUP2 MSTORE PUSH1 0x20 ADD SWAP3 POP POP POP PUSH1 0x40 MLOAD PUSH1 0x20 DUP2 DUP4 SUB SUB DUP2 MSTORE SWAP1 PUSH1 0x40 MSTORE PUSH1 0x40 MLOAD DUP1 DUP3 DUP1 MLOAD SWAP1 PUSH1 0x20 ADD SWAP1 DUP1 DUP4 DUP4 JUMPDEST PUSH1 0x20 DUP4 LT PUSH2 0xF33 JUMPI DUP1 MLOAD DUP3 MSTORE PUSH1 0x20 DUP3 ADD SWAP2 POP PUSH1 0x20 DUP2 ADD SWAP1 POP PUSH1 0x20 DUP4 SUB SWAP3 POP PUSH2 0xF10 JUMP JUMPDEST PUSH1 0x1 DUP4 PUSH1 0x20 SUB PUSH2 0x100 EXP SUB DUP1 NOT DUP3 MLOAD AND DUP2 DUP5 MLOAD AND DUP1 DUP3 OR DUP6 MSTORE POP POP POP POP POP POP SWAP1 POP ADD SWAP2 POP POP PUSH1 0x20 PUSH1 0x40 MLOAD DUP1 DUP4 SUB DUP2 DUP6 GAS STATICCALL ISZERO DUP1 ISZERO PUSH2 0xF75 JUMPI RETURNDATASIZE PUSH1 0x0 DUP1 RETURNDATACOPY RETURNDATASIZE PUSH1 0x0 REVERT JUMPDEST POP POP POP PUSH1 0x40 MLOAD RETURNDATASIZE PUSH1 0x20 DUP2 LT ISZERO PUSH2 0xF8A JUMPI PUSH1 0x0 DUP1 REVERT JUMPDEST DUP2 ADD SWAP1 DUP1 DUP1 MLOAD SWAP1 PUSH1 0x20 ADD SWAP1 SWAP3 SWAP2 SWAP1 POP POP POP SWAP3 POP PUSH1 0x2 DUP3 DUP2 PUSH2 0xFA7 JUMPI INVALID JUMPDEST DIV SWAP2 POP DUP1 DUP1 PUSH1 0x1 ADD SWAP2 POP POP PUSH2 0xE95 JUMP JUMPDEST POP PUSH1 0x0 PUSH2 0xFC0 JUMPI INVALID JUMPDEST POP POP POP POP POP POP JUMPDEST POP POP POP POP POP POP POP JUMP JUMPDEST PUSH1 0x60 PUSH2 0xFDD PUSH1 0x20 SLOAD PUSH2 0x1314 JUMP JUMPDEST SWAP1 POP SWAP1 JUMP JUMPDEST PUSH1 0x0 DUP1 PUSH1 0x0 PUSH1 0x20 SLOAD SWAP1 POP PUSH1 0x0 DUP1 SWAP1 POP JUMPDEST PUSH1 0x20 DUP2 LT ISZERO PUSH2 0x11D0 JUMPI PUSH1 0x1 DUP1 DUP4 AND EQ ISZERO PUSH2 0x10E0 JUMPI PUSH1 0x2 PUSH1 0x0 DUP3 PUSH1 0x20 DUP2 LT PUSH2 0x1015 JUMPI INVALID JUMPDEST ADD SLOAD DUP5 PUSH1 0x40 MLOAD PUSH1 0x20 ADD DUP1 DUP4 DUP2 MSTORE PUSH1 0x20 ADD DUP3 DUP2 MSTORE PUSH1 0x20 ADD SWAP3 POP POP POP PUSH1 0x40 MLOAD PUSH1 0x20 DUP2 DUP4 SUB SUB DUP2 MSTORE SWAP1 PUSH1 0x40 MSTORE PUSH1 0x40 MLOAD DUP1 DUP3 DUP1 MLOAD SWAP1 PUSH1 0x20 ADD SWAP1 DUP1 DUP4 DUP4 JUMPDEST PUSH1 0x20 DUP4 LT PUSH2 0x1071 JUMPI DUP1 MLOAD DUP3 MSTORE PUSH1 0x20 DUP3 ADD SWAP2 POP PUSH1 0x20 DUP2 ADD SWAP1 POP PUSH1 0x20 DUP4 SUB SWAP3 POP PUSH2 0x104E JUMP JUMPDEST PUSH1 0x1 DUP4 PUSH1 0x20 SUB PUSH2 0x100 EXP SUB DUP1 NOT DUP3 MLOAD AND DUP2 DUP5 MLOAD AND DUP1 DUP3 OR DUP6 MSTORE POP POP POP POP POP POP SWAP1 POP ADD SWAP2 POP POP PUSH1 0x20 PUSH1 0x40 MLOAD DUP1 DUP4 SUB DUP2 DUP6 GAS STATICCALL ISZERO DUP1 ISZERO PUSH2 0x10B3 JUMPI RETURNDATASIZE PUSH1 0x0 DUP1 RETURNDATACOPY RETURNDATASIZE PUSH1 0x0 REVERT JUMPDEST POP POP POP PUSH1 0x40 MLOAD RETURNDATASIZE PUSH1 0x20 DUP2 LT ISZERO PUSH2 0x10C8 JUMPI PUSH1 0x0 DUP1 REVERT JUMPDEST DUP2 ADD SWAP1 DUP1 DUP1 MLOAD SWAP1 PUSH1 0x20 ADD SWAP1 SWAP3 SWAP2 SWAP1 POP POP POP SWAP3 POP PUSH2 0x11B6 JUMP JUMPDEST PUSH1 0x2 DUP4 PUSH1 0x21 DUP4 PUSH1 0x20 DUP2 LT PUSH2 0x10F0 JUMPI INVALID JUMPDEST ADD SLOAD PUSH1 0x40 MLOAD PUSH1 0x20 ADD DUP1 DUP4 DUP2 MSTORE PUSH1 0x20 ADD DUP3 DUP2 MSTORE PUSH1 0x20 ADD SWAP3 POP POP POP PUSH1 0x40 MLOAD PUSH1 0x20 DUP2 DUP4 SUB SUB DUP2 MSTORE SWAP1 PUSH1 0x40 MSTORE PUSH1 0x40 MLOAD DUP1 DUP3 DUP1 MLOAD SWAP1 PUSH1 0x20 ADD SWAP1 DUP1 DUP4 DUP4 JUMPDEST PUSH1 0x20 DUP4 LT PUSH2 0x114B JUMPI DUP1 MLOAD DUP3 MSTORE PUSH1 0x20 DUP3 ADD SWAP2 POP PUSH1 0x20 DUP2 ADD SWAP1 POP PUSH1 0x20 DUP4 SUB SWAP3 POP PUSH2 0x1128 JUMP JUMPDEST PUSH1 0x1 DUP4 PUSH1 0x20 SUB PUSH2 0x100 EXP SUB DUP1 NOT DUP3 MLOAD AND DUP2 DUP5 MLOAD AND DUP1 DUP3 OR DUP6 MSTORE POP POP POP POP POP POP SWAP1 POP ADD SWAP2 POP POP PUSH1 0x20 PUSH1 0x40 MLOAD DUP1 DUP4 SUB DUP2 DUP6 GAS STATICCALL ISZERO DUP1 ISZERO PUSH2 0x118D JUMPI RETURNDATASIZE PUSH1 0x0 DUP1 RETURNDATACOPY RETURNDATASIZE PUSH1 0x0 REVERT JUMPDEST POP POP POP PUSH1 0x40 MLOAD RETURNDATASIZE PUSH1 0x20 DUP2 LT ISZERO PUSH2 0x11A2 JUMPI PUSH1 0x0 DUP1 REVERT JUMPDEST DUP2 ADD SWAP1 DUP1 DUP1 MLOAD SWAP1 PUSH1 0x20 ADD SWAP1 SWAP3 SWAP2 SWAP1 POP POP POP SWAP3 POP JUMPDEST PUSH1 0x2 DUP3 DUP2 PUSH2 0x11C0 JUMPI INVALID JUMPDEST DIV SWAP2 POP DUP1 DUP1 PUSH1 0x1 ADD SWAP2 POP POP PUSH2 0xFF2 JUMP JUMPDEST POP PUSH1 0x2 DUP3 PUSH2 0x11DF PUSH1 0x20 SLOAD PUSH2 0x1314 JUMP JUMPDEST PUSH1 0x0 PUSH1 0x40 SHL PUSH1 0x40 MLOAD PUSH1 0x20 ADD DUP1 DUP5 DUP2 MSTORE PUSH1 0x20 ADD DUP4 DUP1 MLOAD SWAP1 PUSH1 0x20 ADD SWAP1 DUP1 DUP4 DUP4 JUMPDEST PUSH1 0x20 DUP4 LT PUSH2 0x1220 JUMPI DUP1 MLOAD DUP3 MSTORE PUSH1 0x20 DUP3 ADD SWAP2 POP PUSH1 0x20 DUP2 ADD SWAP1 POP PUSH1 0x20 DUP4 SUB SWAP3 POP PUSH2 0x11FD JUMP JUMPDEST PUSH1 0x1 DUP4 PUSH1 0x20 SUB PUSH2 0x100 EXP SUB DUP1 NOT DUP3 MLOAD AND DUP2 DUP5 MLOAD AND DUP1 DUP3 OR DUP6 MSTORE POP POP POP POP POP POP SWAP1 POP ADD DUP3 PUSH8 0xFFFFFFFFFFFFFFFF NOT AND PUSH8 0xFFFFFFFFFFFFFFFF NOT AND DUP2 MSTORE PUSH1 0x18 ADD SWAP4 POP POP POP POP PUSH1 0x40 MLOAD PUSH1 0x20 DUP2 DUP4 SUB SUB DUP2 MSTORE SWAP1 PUSH1 0x40 MSTORE PUSH1 0x40 MLOAD DUP1 DUP3 DUP1 MLOAD SWAP1 PUSH1 0x20 ADD SWAP1 DUP1 DUP4 DUP4 JUMPDEST PUSH1 0x20 DUP4 LT PUSH2 0x12A5 JUMPI DUP1 MLOAD DUP3 MSTORE PUSH1 0x20 DUP3 ADD SWAP2 POP PUSH1 0x20 DUP2 ADD SWAP1 POP PUSH1 0x20 DUP4 SUB SWAP3 POP PUSH2 0x1282 JUMP JUMPDEST PUSH1 0x1 DUP4 PUSH1 0x20 SUB PUSH2 0x100 EXP SUB DUP1 NOT DUP3 MLOAD AND DUP2 DUP5 MLOAD AND DUP1 DUP3 OR DUP6 MSTORE POP POP POP POP POP POP SWAP1 POP ADD SWAP2 POP POP PUSH1 0x20 PUSH1 0x40 MLOAD DUP1 DUP4 SUB DUP2 DUP6 GAS STATICCALL ISZERO DUP1 ISZERO PUSH2 0x12E7 JUMPI RETURNDATASIZE PUSH1 0x0 DUP1 RETURNDATACOPY RETURNDATASIZE PUSH1 0x0 REVERT JUMPDEST POP POP POP PUSH1 0x40 MLOAD RETURNDATASIZE PUSH1 0x20 DUP2 LT ISZERO PUSH2 0x12FC JUMPI PUSH1 0x0 DUP1 REVERT JUMPDEST DUP2 ADD SWAP1 DUP1 DUP1 MLOAD SWAP1 PUSH1 0x20 ADD SWAP1 SWAP3 SWAP2 SWAP1 POP POP POP SWAP3 POP POP POP SWAP1 JUMP JUMPDEST PUSH1 0x60 PUSH1 0x8 PUSH8 0xFFFFFFFFFFFFFFFF DUP2 GT DUP1 ISZERO PUSH2 0x132E JUMPI PUSH1 0x0 DUP1 REVERT JUMPDEST POP PUSH1 0x40 MLOAD SWAP1 DUP1 DUP3 MSTORE DUP1 PUSH1 0x1F ADD PUSH1 0x1F NOT AND PUSH1 0x20 ADD DUP3 ADD PUSH1 0x40 MSTORE DUP1 ISZERO PUSH2 0x1361 JUMPI DUP2 PUSH1 0x20 ADD PUSH1 0x1 DUP3 MUL DUP1 CALLDATASIZE DUP4 CALLDATACOPY DUP1 DUP3 ADD SWAP2 POP POP SWAP1 POP JUMPDEST POP SWAP1 POP PUSH1 0x0 DUP3 PUSH1 0xC0 SHL SWAP1 POP DUP1 PUSH1 0x7 PUSH1 0x8 DUP2 LT PUSH2 0x1379 JUMPI INVALID JUMPDEST BYTE PUSH1 0xF8 SHL DUP3 PUSH1 0x0 DUP2 MLOAD DUP2 LT PUSH2 0x138A JUMPI INVALID JUMPDEST PUSH1 0x20 ADD ADD SWAP1 PUSH31 0xFFFFFFFFFFFFFFFFFFFFFFFFFFFFFFFFFFFFFFFFFFFFFFFFFFFFFFFFFFFFFF NOT AND SWAP1 DUP2 PUSH1 0x0 BYTE SWAP1 MSTORE8 POP DUP1 PUSH1 0x6 PUSH1 0x8 DUP2 LT PUSH2 0x13C6 JUMPI INVALID JUMPDEST BYTE PUSH1 0xF8 SHL DUP3 PUSH1 0x1 DUP2 MLOAD DUP2 LT PUSH2 0x13D7 JUMPI INVALID JUMPDEST PUSH1 0x20 ADD ADD SWAP1 PUSH31 0xFFFFFFFFFFFFFFFFFFFFFFFFFFFFFFFFFFFFFFFFFFFFFFFFFFFFFFFFFFFFFF NOT AND SWAP1 DUP2 PUSH1 0x0 BYTE SWAP1 MSTORE8 POP DUP1 PUSH1 0x5 PUSH1 0x8 DUP2 LT PUSH2 0x1413 JUMPI INVALID JUMPDEST BYTE PUSH1 0xF8 SHL DUP3 PUSH1 0x2 DUP2 MLOAD DUP2 LT PUSH2 0x1424 JUMPI INVALID JUMPDEST PUSH1 0x20 ADD ADD SWAP1 PUSH31 0xFFFFFFFFFFFFFFFFFFFFFFFFFFFFFFFFFFFFFFFFFFFFFFFFFFFFFFFFFFFFFF NOT AND SWAP1 DUP2 PUSH1 0x0 BYTE SWAP1 MSTORE8 POP DUP1 PUSH1 0x4 PUSH1 0x8 DUP2 LT PUSH2 0x1460 JUMPI INVALID JUMPDEST BYTE PUSH1 0xF8 SHL DUP3 PUSH1 0x3 DUP2 MLOAD DUP2 LT PUSH2 0x1471 JUMPI INVALID JUMPDEST PUSH1 0x20 ADD ADD SWAP1 PUSH31 0xFFFFFFFFFFFFFFFFFFFFFFFFFFFFFFFFFFFFFFFFFFFFFFFFFFFFFFFFFFFFFF NOT AND SWAP1 DUP2 PUSH1 0x0 BYTE SWAP1 MSTORE8 POP DUP1 PUSH1 0x3 PUSH1 0x8 DUP2 LT PUSH2 0x14AD JUMPI INVALID JUMPDEST BYTE PUSH1 0xF8 SHL DUP3 PUSH1 0x4 DUP2 MLOAD DUP2 LT PUSH2 0x14BE JUMPI INVALID JUMPDEST PUSH1 0x20 ADD ADD SWAP1 PUSH31 0xFFFFFFFFFFFFFFFFFFFFFFFFFFFFFFFFFFFFFFFFFFFFFFFFFFFFFFFFFFFFFF NOT AND SWAP1 DUP2 PUSH1 0x0 BYTE SWAP1 MSTORE8 POP DUP1 PUSH1 0x2 PUSH1 0x8 DUP2 LT PUSH2 0x14FA JUMPI INVALID JUMPDEST BYTE PUSH1 0xF8 SHL DUP3 PUSH1 0x5 DUP2 MLOAD DUP2 LT PUSH2 0x150B JUMPI INVALID JUMPDEST PUSH1 0x20 ADD ADD SWAP1 PUSH31 0xFFFFFFFFFFFFFFFFFFFFFFFFFFFFFFFFFFFFFFFFFFFFFFFFFFFFFFFFFFFFFF NOT AND SWAP1 DUP2 PUSH1 0x0 BYTE SWAP1 MSTORE8 POP DUP1 PUSH1 0x1 PUSH1 0x8 DUP2 LT PUSH2 0x1547 JUMPI INVALID JUMPDEST BYTE PUSH1 0xF8 SHL DUP3 PUSH1 0x6 DUP2 MLOAD DUP2 LT PUSH2 0x1558 JUMPI INVALID JUMPDEST PUSH1 0x20 ADD ADD SWAP1 PUSH31 0xFFFFFFFFFFFFFFFFFFFFFFFFFFFFFFFFFFFFFFFFFFFFFFFFFFFFFFFFFFFFFF NOT AND SWAP1 DUP2 PUSH1 0x0 BYTE SWAP1 MSTORE8 POP DUP1 PUSH1 0x0 PUSH1 0x8 DUP2 LT PUSH2 0x1594 JUMPI INVALID JUMPDEST BYTE PUSH1 0xF8 SHL DUP3 PUSH1 0x7 DUP2 MLOAD DUP2 LT PUSH2 0x15A5 JUMPI INVALID JUMPDEST PUSH1 0x20 ADD ADD SWAP1 PUSH31 0xFFFFFFFFFFFFFFFFFFFFFFFFFFFFFFFFFFFFFFFFFFFFFFFFFFFFFFFFFFFFFF NOT AND SWAP1 DUP2 PUSH1 0x0 BYTE SWAP1 MSTORE8 POP POP SWAP2 SWAP1 POP JUMP JUMPDEST PUSH1 0x0 DUP1 DUP6 DUP6 GT ISZERO PUSH2 0x15EA JUMPI PUSH1 0x0 DUP1 REVERT JUMPDEST DUP4 DUP7 GT ISZERO PUSH2 0x15F7 JUMPI PUSH1 0x0 DUP1 REVERT JUMPDEST PUSH1 0x1 DUP6 MUL DUP4 ADD SWAP2 POP DUP5 DUP7 SUB SWAP1 POP SWAP5 POP SWAP5 SWAP3 POP POP POP JUMP INVALID DIFFICULTY PUSH6 0x706F73697443 PUSH16 0x6E74726163743A206D65726B6C652074 PUSH19 0x65652066756C6C4465706F736974436F6E7472 PUSH2 0x6374 GASPRICE KECCAK256 PUSH19 0x65636F6E7374727563746564204465706F7369 PUSH21 0x4461746120646F6573206E6F74206D617463682073 PUSH22 0x70706C696564206465706F7369745F646174615F726F PUSH16 0x744465706F736974436F6E7472616374 GASPRICE KECCAK256 PUSH10 0x6E76616C696420776974 PUSH9 0x64726177616C5F6372 PUSH6 0x64656E746961 PUSH13 0x73206C656E6774684465706F73 PUSH10 0x74436F6E74726163743A KECCAK256 PUSH5 0x65706F7369 PUSH21 0x2076616C7565206E6F74206D756C7469706C65206F PUSH7 0x20677765694465 PUSH17 0x6F736974436F6E74726163743A20696E76 PUSH2 0x6C69 PUSH5 0x207075626B PUSH6 0x79206C656E67 PUSH21 0x684465706F736974436F6E74726163743A20646570 PUSH16 0x7369742076616C756520746F6F206869 PUSH8 0x684465706F736974 NUMBER PUSH16 0x6E74726163743A206465706F73697420 PUSH23 0x616C756520746F6F206C6F774465706F736974436F6E74 PUSH19 0x6163743A20696E76616C6964207369676E6174 PUSH22 0x7265206C656E677468A26469706673582212202ED088 EXP DUP9 BALANCE PUSH26 0xA1C2AB701420EAE8B4AA883E06DF0C713CFBA1C8F243FEBD864 PUSH20 0x6F6C634300060B00330000000000000000000000 "
	},
	"Assembly": ".code\n  PUSH 80\t\t\tubkey,\\r\\n        bytes callda...\n  PUSH 40\t\t\tubkey,\\r\\n        bytes callda...\n  MSTORE \t\t\tubkey,\\r\\n        bytes callda...\n  CALLVALUE \t\t\twal_credentials length\");\\r\\n ...\n  DUP1 \t\t\twal_credentials length\");\\r\\n ...\n  ISZERO \t\t\twal_credentials length\");\\r\\n ...\n  PUSH [tag] 1\t\t\twal_credentials length\");\\r\\n ...\n  JUMPI \t\t\twal_credentials length\");\\r\\n ...\n  PUSH 0\t\t\twal_credentials length\");\\r\\n ...\n  DUP1 \t\t\twal_credentials length\");\\r\\n ...\n  REVERT \t\t\twal_credentials length\");\\r\\n ...\ntag 1\t\t\twal_credentials length\");\\r\\n ...\n  JUMPDEST \t\t\twal_credentials length\");\\r\\n ...\n  POP \t\t\twal_credentials length\");\\r\\n ...\n  PUSH 0\t\t\t signature \n  DUP1 \t\t\tg\n  SWAP1 \t\t\t signature leng\n  POP \t\t\t signature leng\ntag 4\t\t\tvalid signature length\");\\r\\n\\...\n  JUMPDEST \t\t\tvalid signature length\");\\r\\n\\...\n  PUSH 1\t\t\t\\n\n  PUSH 20\t\t\t32\n  SUB \t\t\t      // Check deposit amount\\...\n  DUP2 \t\t\t\");\\r\\n\\r\n  LT \t\t\t\");\\r\\n\\r\\n        // Check de...\n  ISZERO \t\t\tvalid signature length\");\\r\\n\\...\n  PUSH [tag] 5\t\t\tvalid signature length\");\\r\\n\\...\n  JUMPI \t\t\tvalid signature length\");\\r\\n\\...\n  PUSH 2\t\t\tact: deposit value too low\");\\...\n  PUSH 21\t\t\tow\");\\r\\n    \n  DUP3 \t\t\t   req\n  PUSH 20\t\t\tow\");\\r\\n        requ\n  DUP2 \t\t\tow\");\\r\\n        requ\n  LT \t\t\tow\");\\r\\n        requ\n  PUSH [tag] 7\t\t\tow\");\\r\\n        requ\n  JUMPI \t\t\tow\");\\r\\n        requ\n  INVALID \t\t\tow\");\\r\\n        requ\ntag 7\t\t\tow\");\\r\\n        requ\n  JUMPDEST \t\t\tow\");\\r\\n        requ\n  ADD \t\t\tow\");\\r\\n        requ\n  SLOAD \t\t\tow\");\\r\\n        requ\n  PUSH 21\t\t\te(msg.value\n  DUP4 \t\t\t% 1 gw\n  PUSH 20\t\t\te(msg.value % 1 gwe\n  DUP2 \t\t\te(msg.value % 1 gwe\n  LT \t\t\te(msg.value % 1 gwe\n  PUSH [tag] 9\t\t\te(msg.value % 1 gwe\n  JUMPI \t\t\te(msg.value % 1 gwe\n  INVALID \t\t\te(msg.value % 1 gwe\ntag 9\t\t\te(msg.value % 1 gwe\n  JUMPDEST \t\t\te(msg.value % 1 gwe\n  ADD \t\t\te(msg.value % 1 gwe\n  SLOAD \t\t\te(msg.value % 1 gwe\n  PUSH 40\t\t\tposit value too low\");\\r\\n    ...\n  MLOAD \t\t\tposit value too low\");\\r\\n    ...\n  PUSH 20\t\t\tposit value too low\");\\r\\n    ...\n  ADD \t\t\tposit value too low\");\\r\\n    ...\n  DUP1 \t\t\tposit value too low\");\\r\\n    ...\n  DUP4 \t\t\tposit value too low\");\\r\\n    ...\n  DUP2 \t\t\tposit value too low\");\\r\\n    ...\n  MSTORE \t\t\tposit value too low\");\\r\\n    ...\n  PUSH 20\t\t\tposit value too low\");\\r\\n    ...\n  ADD \t\t\tposit value too low\");\\r\\n    ...\n  DUP3 \t\t\tposit value too low\");\\r\\n    ...\n  DUP2 \t\t\tposit value too low\");\\r\\n    ...\n  MSTORE \t\t\tposit value too low\");\\r\\n    ...\n  PUSH 20\t\t\tposit value too low\");\\r\\n    ...\n  ADD \t\t\tposit value too low\");\\r\\n    ...\n  SWAP3 \t\t\tposit value too low\");\\r\\n    ...\n  POP \t\t\tposit value too low\");\\r\\n    ...\n  POP \t\t\tposit value too low\");\\r\\n    ...\n  POP \t\t\tposit value too low\");\\r\\n    ...\n  PUSH 40\t\t\tposit value too low\");\\r\\n    ...\n  MLOAD \t\t\tposit value too low\");\\r\\n    ...\n  PUSH 20\t\t\tposit value too low\");\\r\\n    ...\n  DUP2 \t\t\tposit value too low\");\\r\\n    ...\n  DUP4 \t\t\tposit value too low\");\\r\\n    ...\n  SUB \t\t\tposit value too low\");\\r\\n    ...\n  SUB \t\t\tposit value too low\");\\r\\n    ...\n  DUP2 \t\t\tposit value too low\");\\r\\n    ...\n  MSTORE \t\t\tposit value too low\");\\r\\n    ...\n  SWAP1 \t\t\tposit value too low\");\\r\\n    ...\n  PUSH 40\t\t\tposit value too low\");\\r\\n    ...\n  MSTORE \t\t\tposit value too low\");\\r\\n    ...\n  PUSH 40\t\t\tact: deposit value too low\");\\...\n  MLOAD \t\t\tact: deposit value too low\");\\...\n  DUP1 \t\t\tact: deposit value too low\");\\...\n  DUP3 \t\t\tact: deposit value too low\");\\...\n  DUP1 \t\t\tact: deposit value too low\");\\...\n  MLOAD \t\t\tact: deposit value too low\");\\...\n  SWAP1 \t\t\tact: deposit value too low\");\\...\n  PUSH 20\t\t\tact: deposit value too low\");\\...\n  ADD \t\t\tact: deposit value too low\");\\...\n  SWAP1 \t\t\tact: deposit value too low\");\\...\n  DUP1 \t\t\tact: deposit value too low\");\\...\n  DUP4 \t\t\tact: deposit value too low\");\\...\n  DUP4 \t\t\tact: deposit value too low\");\\...\ntag 11\t\t\tact: deposit value too low\");\\...\n  JUMPDEST \t\t\tact: deposit value too low\");\\...\n  PUSH 20\t\t\tact: deposit value too low\");\\...\n  DUP4 \t\t\tact: deposit value too low\");\\...\n  LT \t\t\tact: deposit value too low\");\\...\n  PUSH [tag] 13\t\t\tact: deposit value too low\");\\...\n  JUMPI \t\t\tact: deposit value too low\");\\...\n  DUP1 \t\t\tact: deposit value too low\");\\...\n  MLOAD \t\t\tact: deposit value too low\");\\...\n  DUP3 \t\t\tact: deposit value too low\");\\...\n  MSTORE \t\t\tact: deposit value too low\");\\...\n  PUSH 20\t\t\tact: deposit value too low\");\\...\n  DUP3 \t\t\tact: deposit value too low\");\\...\n  ADD \t\t\tact: deposit value too low\");\\...\n  SWAP2 \t\t\tact: deposit value too low\");\\...\n  POP \t\t\tact: deposit value too low\");\\...\n  PUSH 20\t\t\tact: deposit value too low\");\\...\n  DUP2 \t\t\tact: deposit value too low\");\\...\n  ADD \t\t\tact: deposit value too low\");\\...\n  SWAP1 \t\t\tact: deposit value too low\");\\...\n  POP \t\t\tact: deposit value too low\");\\...\n  PUSH 20\t\t\tact: deposit value too low\");\\...\n  DUP4 \t\t\tact: deposit value too low\");\\...\n  SUB \t\t\tact: deposit value too low\");\\...\n  SWAP3 \t\t\tact: deposit value too low\");\\...\n  POP \t\t\tact: deposit value too low\");\\...\n  PUSH [tag] 11\t\t\tact: deposit value too low\");\\...\n  JUMP \t\t\tact: deposit value too low\");\\...\ntag 13\t\t\tact: deposit value too low\");\\...\n  JUMPDEST \t\t\tact: deposit value too low\");\\...\n  PUSH 1\t\t\tact: deposit value too low\");\\...\n  DUP4 \t\t\tact: deposit value too low\");\\...\n  PUSH 20\t\t\tact: deposit value too low\");\\...\n  SUB \t\t\tact: deposit value too low\");\\...\n  PUSH 100\t\t\tact: deposit value too low\");\\...\n  EXP \t\t\tact: deposit value too low\");\\...\n  SUB \t\t\tact: deposit value too low\");\\...\n  DUP1 \t\t\tact: deposit value too low\");\\...\n  NOT \t\t\tact: deposit value too low\");\\...\n  DUP3 \t\t\tact: deposit value too low\");\\...\n  MLOAD \t\t\tact: deposit value too low\");\\...\n  AND \t\t\tact: deposit value too low\");\\...\n  DUP2 \t\t\tact: deposit value too low\");\\...\n  DUP5 \t\t\tact: deposit value too low\");\\...\n  MLOAD \t\t\tact: deposit value too low\");\\...\n  AND \t\t\tact: deposit value too low\");\\...\n  DUP1 \t\t\tact: deposit value too low\");\\...\n  DUP3 \t\t\tact: deposit value too low\");\\...\n  OR \t\t\tact: deposit value too low\");\\...\n  DUP6 \t\t\tact: deposit value too low\");\\...\n  MSTORE \t\t\tact: deposit value too low\");\\...\n  POP \t\t\tact: deposit value too low\");\\...\n  POP \t\t\tact: deposit value too low\");\\...\n  POP \t\t\tact: deposit value too low\");\\...\n  POP \t\t\tact: deposit value too low\");\\...\n  POP \t\t\tact: deposit value too low\");\\...\n  POP \t\t\tact: deposit value too low\");\\...\n  SWAP1 \t\t\tact: deposit value too low\");\\...\n  POP \t\t\tact: deposit value too low\");\\...\n  ADD \t\t\tact: deposit value too low\");\\...\n  SWAP2 \t\t\tact: deposit value too low\");\\...\n  POP \t\t\tact: deposit value too low\");\\...\n  POP \t\t\tact: deposit value too low\");\\...\n  PUSH 20\t\t\tact: deposit value too low\");\\...\n  PUSH 40\t\t\tact: deposit value too low\");\\...\n  MLOAD \t\t\tact: deposit value too low\");\\...\n  DUP1 \t\t\tact: deposit value too low\");\\...\n  DUP4 \t\t\tact: deposit value too low\");\\...\n  SUB \t\t\tact: deposit value too low\");\\...\n  DUP2 \t\t\tact: deposit value too low\");\\...\n  DUP6 \t\t\tact: deposit value too low\");\\...\n  GAS \t\t\tact: deposit value too low\");\\...\n  STATICCALL \t\t\tact: deposit value too low\");\\...\n  ISZERO \t\t\tact: deposit value too low\");\\...\n  DUP1 \t\t\tact: deposit value too low\");\\...\n  ISZERO \t\t\tact: deposit value too low\");\\...\n  PUSH [tag] 15\t\t\tact: deposit value too low\");\\...\n  JUMPI \t\t\tact: deposit value too low\");\\...\n  RETURNDATASIZE \t\t\tact: deposit value too low\");\\...\n  PUSH 0\t\t\tact: deposit value too low\");\\...\n  DUP1 \t\t\tact: deposit value too low\");\\...\n  RETURNDATACOPY \t\t\tact: deposit value too low\");\\...\n  RETURNDATASIZE \t\t\tact: deposit value too low\");\\...\n  PUSH 0\t\t\tact: deposit value too low\");\\...\n  REVERT \t\t\tact: deposit value too low\");\\...\ntag 15\t\t\tact: deposit value too low\");\\...\n  JUMPDEST \t\t\tact: deposit value too low\");\\...\n  POP \t\t\tact: deposit value too low\");\\...\n  POP \t\t\tact: deposit value too low\");\\...\n  POP \t\t\tact: deposit value too low\");\\...\n  PUSH 40\t\t\tact: deposit value too low\");\\...\n  MLOAD \t\t\tact: deposit value too low\");\\...\n  RETURNDATASIZE \t\t\tact: deposit value too low\");\\...\n  PUSH 20\t\t\tact: deposit value too low\");\\...\n  DUP2 \t\t\tact: deposit value too low\");\\...\n  LT \t\t\tact: deposit value too low\");\\...\n  ISZERO \t\t\tact: deposit value too low\");\\...\n  PUSH [tag] 16\t\t\tact: deposit value too low\");\\...\n  JUMPI \t\t\tact: deposit value too low\");\\...\n  PUSH 0\t\t\tact: deposit value too low\");\\...\n  DUP1 \t\t\tact: deposit value too low\");\\...\n  REVERT \t\t\tact: deposit value too low\");\\...\ntag 16\t\t\tact: deposit value too low\");\\...\n  JUMPDEST \t\t\tact: deposit value too low\");\\...\n  DUP2 \t\t\tact: deposit value too low\");\\...\n  ADD \t\t\tact: deposit value too low\");\\...\n  SWAP1 \t\t\tact: deposit value too low\");\\...\n  DUP1 \t\t\tact: deposit value too low\");\\...\n  DUP1 \t\t\tact: deposit value too low\");\\...\n  MLOAD \t\t\tact: deposit value too low\");\\...\n  SWAP1 \t\t\tact: deposit value too low\");\\...\n  PUSH 20\t\t\tact: deposit value too low\");\\...\n  ADD \t\t\tact: deposit value too low\");\\...\n  SWAP1 \t\t\tact: deposit value too low\");\\...\n  SWAP3 \t\t\tact: deposit value too low\");\\...\n  SWAP2 \t\t\tact: deposit value too low\");\\...\n  SWAP1 \t\t\tact: deposit value too low\");\\...\n  POP \t\t\tact: deposit value too low\");\\...\n  POP \t\t\tact: deposit value too low\");\\...\n  POP \t\t\tact: deposit value too low\");\\...\n  PUSH 21\t\t\t >= 1 ether\n  PUSH 1\t\t\tC\n  DUP4 \t\t\t \"Depo\n  ADD \t\t\t \"DepositC\n  PUSH 20\t\t\t >= 1 ether, \"DepositCo\n  DUP2 \t\t\t >= 1 ether, \"DepositCo\n  LT \t\t\t >= 1 ether, \"DepositCo\n  PUSH [tag] 17\t\t\t >= 1 ether, \"DepositCo\n  JUMPI \t\t\t >= 1 ether, \"DepositCo\n  INVALID \t\t\t >= 1 ether, \"DepositCo\ntag 17\t\t\t >= 1 ether, \"DepositCo\n  JUMPDEST \t\t\t >= 1 ether, \"DepositCo\n  ADD \t\t\t >= 1 ether, \"DepositCo\n  DUP2 \t\t\t >= 1 ether, \"DepositContract:...\n  SWAP1 \t\t\t >= 1 ether, \"DepositContract:...\n  SSTORE \t\t\t >= 1 ether, \"DepositContract:...\n  POP \t\t\t >= 1 ether, \"DepositContract:...\n  DUP1 \t\t\t      re\n  DUP1 \t\t\t      re\n  PUSH 1\t\t\t      re\n  ADD \t\t\t      re\n  SWAP2 \t\t\t      re\n  POP \t\t\t      re\n  POP \t\t\t      re\n  PUSH [tag] 4\t\t\tvalid signature length\");\\r\\n\\...\n  JUMP \t\t\tvalid signature length\");\\r\\n\\...\ntag 5\t\t\tvalid signature length\");\\r\\n\\...\n  JUMPDEST \t\t\tvalid signature length\");\\r\\n\\...\n  POP \t\t\tvalid signature length\");\\r\\n\\...\n  PUSH #[$] 0000000000000000000000000000000000000000000000000000000000000000\t\t\tubkey,\\r\\n        bytes callda...\n  DUP1 \t\t\tubkey,\\r\\n        bytes callda...\n  PUSH [$] 0000000000000000000000000000000000000000000000000000000000000000\t\t\tubkey,\\r\\n        bytes callda...\n  PUSH 0\t\t\tubkey,\\r\\n        bytes callda...\n  CODECOPY \t\t\tubkey,\\r\\n        bytes callda...\n  PUSH 0\t\t\tubkey,\\r\\n        bytes callda...\n  RETURN \t\t\tubkey,\\r\\n        bytes callda...\n.data\n  0:\n    .code\n      PUSH 80\t\t\tubkey,\\r\\n        bytes callda...\n      PUSH 40\t\t\tubkey,\\r\\n        bytes callda...\n      MSTORE \t\t\tubkey,\\r\\n        bytes callda...\n      PUSH 4\t\t\tubkey,\\r\\n        bytes callda...\n      CALLDATASIZE \t\t\tubkey,\\r\\n        bytes callda...\n      LT \t\t\tubkey,\\r\\n        bytes callda...\n      PUSH [tag] 1\t\t\tubkey,\\r\\n        bytes callda...\n      JUMPI \t\t\tubkey,\\r\\n        bytes callda...\n      PUSH 0\t\t\tubkey,\\r\\n        bytes callda...\n      CALLDATALOAD \t\t\tubkey,\\r\\n        bytes callda...\n      PUSH E0\t\t\tubkey,\\r\\n        bytes callda...\n      SHR \t\t\tubkey,\\r\\n        bytes callda...\n      DUP1 \t\t\tubkey,\\r\\n        bytes callda...\n      PUSH 1FFC9A7\t\t\tubkey,\\r\\n        bytes callda...\n      EQ \t\t\tubkey,\\r\\n        bytes callda...\n      PUSH [tag] 2\t\t\tubkey,\\r\\n        bytes callda...\n      JUMPI \t\t\tubkey,\\r\\n        bytes callda...\n      DUP1 \t\t\tubkey,\\r\\n        bytes callda...\n      PUSH 22895118\t\t\tubkey,\\r\\n        bytes callda...\n      EQ \t\t\tubkey,\\r\\n        bytes callda...\n      PUSH [tag] 3\t\t\tubkey,\\r\\n        bytes callda...\n      JUMPI \t\t\tubkey,\\r\\n        bytes callda...\n      DUP1 \t\t\tubkey,\\r\\n        bytes callda...\n      PUSH 621FD130\t\t\tubkey,\\r\\n        bytes callda...\n      EQ \t\t\tubkey,\\r\\n        bytes callda...\n      PUSH [tag] 4\t\t\tubkey,\\r\\n        bytes callda...\n      JUMPI \t\t\tubkey,\\r\\n        bytes callda...\n      DUP1 \t\t\tubkey,\\r\\n        bytes callda...\n      PUSH C5F2892F\t\t\tubkey,\\r\\n        bytes callda...\n      EQ \t\t\tubkey,\\r\\n        bytes callda...\n      PUSH [tag] 5\t\t\tubkey,\\r\\n        bytes callda...\n      JUMPI \t\t\tubkey,\\r\\n        bytes callda...\n    tag 1\t\t\tubkey,\\r\\n        bytes callda...\n      JUMPDEST \t\t\tubkey,\\r\\n        bytes callda...\n      PUSH 0\t\t\tubkey,\\r\\n        bytes callda...\n      DUP1 \t\t\tubkey,\\r\\n        bytes callda...\n      REVERT \t\t\tubkey,\\r\\n        bytes callda...\n    tag 2\t\t\t\n      JUMPDEST \t\t\t\n      CALLVALUE \t\t\t\n      DUP1 \t\t\t\n      ISZERO \t\t\t\n      PUSH [tag] 6\t\t\t\n      JUMPI \t\t\t\n      PUSH 0\t\t\t\n      DUP1 \t\t\t\n      REVERT \t\t\t\n    tag 6\t\t\t\n      JUMPDEST \t\t\t\n      POP \t\t\t\n      PUSH [tag] 7\t\t\t\n      PUSH 4\t\t\t\n      DUP1 \t\t\t\n      CALLDATASIZE \t\t\t\n      SUB \t\t\t\n      PUSH 20\t\t\t\n      DUP2 \t\t\t\n      LT \t\t\t\n      ISZERO \t\t\t\n      PUSH [tag] 8\t\t\t\n      JUMPI \t\t\t\n      PUSH 0\t\t\t\n      DUP1 \t\t\t\n      REVERT \t\t\t\n    tag 8\t\t\t\n      JUMPDEST \t\t\t\n      DUP2 \t\t\t\n      ADD \t\t\t\n      SWAP1 \t\t\t\n      DUP1 \t\t\t\n      DUP1 \t\t\t\n      CALLDATALOAD \t\t\t\n      PUSH FFFFFFFFFFFFFFFFFFFFFFFFFFFFFFFFFFFFFFFFFFFFFFFFFFFFFFFF\t\t\t\n      NOT \t\t\t\n      AND \t\t\t\n      SWAP1 \t\t\t\n      PUSH 20\t\t\t\n      ADD \t\t\t\n      SWAP1 \t\t\t\n      SWAP3 \t\t\t\n      SWAP2 \t\t\t\n      SWAP1 \t\t\t\n      POP \t\t\t\n      POP \t\t\t\n      POP \t\t\t\n      PUSH [tag] 9\t\t\t\n      JUMP [in]\t\t\t\n    tag 7\t\t\t\n      JUMPDEST \t\t\t\n      PUSH 40\t\t\t\n      MLOAD \t\t\t\n      DUP1 \t\t\t\n      DUP3 \t\t\t\n      ISZERO \t\t\t\n      ISZERO \t\t\t\n      ISZERO \t\t\t\n      ISZERO \t\t\t\n      DUP2 \t\t\t\n      MSTORE \t\t\t\n      PUSH 20\t\t\t\n      ADD \t\t\t\n      SWAP2 \t\t\t\n      POP \t\t\t\n      POP \t\t\t\n      PUSH 40\t\t\t\n      MLOAD \t\t\t\n      DUP1 \t\t\t\n      SWAP2 \t\t\t\n      SUB \t\t\t\n      SWAP1 \t\t\t\n      RETURN \t\t\t\n    tag 3\t\t\t),\\r\\n            sha256(abi.e...\n      JUMPDEST \t\t\t),\\r\\n            sha256(abi.e...\n      PUSH [tag] 10\t\t\t),\\r\\n            sha256(abi.e...\n      PUSH 4\t\t\t),\\r\\n            sha256(abi.e...\n      DUP1 \t\t\t),\\r\\n            sha256(abi.e...\n      CALLDATASIZE \t\t\t),\\r\\n            sha256(abi.e...\n      SUB \t\t\t),\\r\\n            sha256(abi.e...\n      PUSH 80\t\t\t),\\r\\n            sha256(abi.e...\n      DUP2 \t\t\t),\\r\\n            sha256(abi.e...\n      LT \t\t\t),\\r\\n            sha256(abi.e...\n      ISZERO \t\t\t),\\r\\n            sha256(abi.e...\n      PUSH [tag] 11\t\t\t),\\r\\n            sha256(abi.e...\n      JUMPI \t\t\t),\\r\\n            sha256(abi.e...\n      PUSH 0\t\t\t),\\r\\n            sha256(abi.e...\n      DUP1 \t\t\t),\\r\\n            sha256(abi.e...\n      REVERT \t\t\t),\\r\\n            sha256(abi.e...\n    tag 11\t\t\t),\\r\\n            sha256(abi.e...\n      JUMPDEST \t\t\t),\\r\\n            sha256(abi.e...\n      DUP2 \t\t\t),\\r\\n            sha256(abi.e...\n      ADD \t\t\t),\\r\\n            sha256(abi.e...\n      SWAP1 \t\t\t),\\r\\n            sha256(abi.e...\n      DUP1 \t\t\t),\\r\\n            sha256(abi.e...\n      DUP1 \t\t\t),\\r\\n            sha256(abi.e...\n      CALLDATALOAD \t\t\t),\\r\\n            sha256(abi.e...\n      SWAP1 \t\t\t),\\r\\n            sha256(abi.e...\n      PUSH 20\t\t\t),\\r\\n            sha256(abi.e...\n      ADD \t\t\t),\\r\\n            sha256(abi.e...\n      SWAP1 \t\t\t),\\r\\n            sha256(abi.e...\n      PUSH 100000000\t\t\t),\\r\\n            sha256(abi.e...\n      DUP2 \t\t\t),\\r\\n            sha256(abi.e...\n      GT \t\t\t),\\r\\n            sha256(abi.e...\n      ISZERO \t\t\t),\\r\\n            sha256(abi.e...\n      PUSH [tag] 12\t\t\t),\\r\\n            sha256(abi.e...\n      JUMPI \t\t\t),\\r\\n            sha256(abi.e...\n      PUSH 0\t\t\t),\\r\\n            sha256(abi.e...\n      DUP1 \t\t\t),\\r\\n            sha256(abi.e...\n      REVERT \t\t\t),\\r\\n            sha256(abi.e...\n    tag 12\t\t\t),\\r\\n            sha256(abi.e...\n      JUMPDEST \t\t\t),\\r\\n            sha256(abi.e...\n      DUP3 \t\t\t),\\r\\n            sha256(abi.e...\n      ADD \t\t\t),\\r\\n            sha256(abi.e...\n      DUP4 \t\t\t),\\r\\n            sha256(abi.e...\n      PUSH 20\t\t\t),\\r\\n            sha256(abi.e...\n      DUP3 \t\t\t),\\r\\n            sha256(abi.e...\n      ADD \t\t\t),\\r\\n            sha256(abi.e...\n      GT \t\t\t),\\r\\n            sha256(abi.e...\n      ISZERO \t\t\t),\\r\\n            sha256(abi.e...\n      PUSH [tag] 13\t\t\t),\\r\\n            sha256(abi.e...\n      JUMPI \t\t\t),\\r\\n            sha256(abi.e...\n      PUSH 0\t\t\t),\\r\\n            sha256(abi.e...\n      DUP1 \t\t\t),\\r\\n            sha256(abi.e...\n      REVERT \t\t\t),\\r\\n            sha256(abi.e...\n    tag 13\t\t\t),\\r\\n            sha256(abi.e...\n      JUMPDEST \t\t\t),\\r\\n            sha256(abi.e...\n      DUP1 \t\t\t),\\r\\n            sha256(abi.e...\n      CALLDATALOAD \t\t\t),\\r\\n            sha256(abi.e...\n      SWAP1 \t\t\t),\\r\\n            sha256(abi.e...\n      PUSH 20\t\t\t),\\r\\n            sha256(abi.e...\n      ADD \t\t\t),\\r\\n            sha256(abi.e...\n      SWAP2 \t\t\t),\\r\\n            sha256(abi.e...\n      DUP5 \t\t\t),\\r\\n            sha256(abi.e...\n      PUSH 1\t\t\t),\\r\\n            sha256(abi.e...\n      DUP4 \t\t\t),\\r\\n            sha256(abi.e...\n      MUL \t\t\t),\\r\\n            sha256(abi.e...\n      DUP5 \t\t\t),\\r\\n            sha256(abi.e...\n      ADD \t\t\t),\\r\\n            sha256(abi.e...\n      GT \t\t\t),\\r\\n            sha256(abi.e...\n      PUSH 100000000\t\t\t),\\r\\n            sha256(abi.e...\n      DUP4 \t\t\t),\\r\\n            sha256(abi.e...\n      GT \t\t\t),\\r\\n            sha256(abi.e...\n      OR \t\t\t),\\r\\n            sha256(abi.e...\n      ISZERO \t\t\t),\\r\\n            sha256(abi.e...\n      PUSH [tag] 14\t\t\t),\\r\\n            sha256(abi.e...\n      JUMPI \t\t\t),\\r\\n            sha256(abi.e...\n      PUSH 0\t\t\t),\\r\\n            sha256(abi.e...\n      DUP1 \t\t\t),\\r\\n            sha256(abi.e...\n      REVERT \t\t\t),\\r\\n            sha256(abi.e...\n    tag 14\t\t\t),\\r\\n            sha256(abi.e...\n      JUMPDEST \t\t\t),\\r\\n            sha256(abi.e...\n      SWAP1 \t\t\t),\\r\\n            sha256(abi.e...\n      SWAP2 \t\t\t),\\r\\n            sha256(abi.e...\n      SWAP3 \t\t\t),\\r\\n            sha256(abi.e...\n      SWAP4 \t\t\t),\\r\\n            sha256(abi.e...\n      SWAP2 \t\t\t),\\r\\n            sha256(abi.e...\n      SWAP3 \t\t\t),\\r\\n            sha256(abi.e...\n      SWAP4 \t\t\t),\\r\\n            sha256(abi.e...\n      SWAP1 \t\t\t),\\r\\n            sha256(abi.e...\n      DUP1 \t\t\t),\\r\\n            sha256(abi.e...\n      CALLDATALOAD \t\t\t),\\r\\n            sha256(abi.e...\n      SWAP1 \t\t\t),\\r\\n            sha256(abi.e...\n      PUSH 20\t\t\t),\\r\\n            sha256(abi.e...\n      ADD \t\t\t),\\r\\n            sha256(abi.e...\n      SWAP1 \t\t\t),\\r\\n            sha256(abi.e...\n      PUSH 100000000\t\t\t),\\r\\n            sha256(abi.e...\n      DUP2 \t\t\t),\\r\\n            sha256(abi.e...\n      GT \t\t\t),\\r\\n            sha256(abi.e...\n      ISZERO \t\t\t),\\r\\n            sha256(abi.e...\n      PUSH [tag] 15\t\t\t),\\r\\n            sha256(abi.e...\n      JUMPI \t\t\t),\\r\\n            sha256(abi.e...\n      PUSH 0\t\t\t),\\r\\n            sha256(abi.e...\n      DUP1 \t\t\t),\\r\\n            sha256(abi.e...\n      REVERT \t\t\t),\\r\\n            sha256(abi.e...\n    tag 15\t\t\t),\\r\\n            sha256(abi.e...\n      JUMPDEST \t\t\t),\\r\\n            sha256(abi.e...\n      DUP3 \t\t\t),\\r\\n            sha256(abi.e...\n      ADD \t\t\t),\\r\\n            sha256(abi.e...\n      DUP4 \t\t\t),\\r\\n            sha256(abi.e...\n      PUSH 20\t\t\t),\\r\\n            sha256(abi.e...\n      DUP3 \t\t\t),\\r\\n            sha256(abi.e...\n      ADD \t\t\t),\\r\\n            sha256(abi.e...\n      GT \t\t\t),\\r\\n            sha256(abi.e...\n      ISZERO \t\t\t),\\r\\n            sha256(abi.e...\n      PUSH [tag] 16\t\t\t),\\r\\n            sha256(abi.e...\n      JUMPI \t\t\t),\\r\\n            sha256(abi.e...\n      PUSH 0\t\t\t),\\r\\n            sha256(abi.e...\n      DUP1 \t\t\t),\\r\\n            sha256(abi.e...\n      REVERT \t\t\t),\\r\\n            sha256(abi.e...\n    tag 16\t\t\t),\\r\\n            sha256(abi.e...\n      JUMPDEST \t\t\t),\\r\\n            sha256(abi.e...\n      DUP1 \t\t\t),\\r\\n            sha256(abi.e...\n      CALLDATALOAD \t\t\t),\\r\\n            sha256(abi.e...\n      SWAP1 \t\t\t),\\r\\n            sha256(abi.e...\n      PUSH 20\t\t\t),\\r\\n            sha256(abi.e...\n      ADD \t\t\t),\\r\\n            sha256(abi.e...\n      SWAP2 \t\t\t),\\r\\n            sha256(abi.e...\n      DUP5 \t\t\t),\\r\\n            sha256(abi.e...\n      PUSH 1\t\t\t),\\r\\n            sha256(abi.e...\n      DUP4 \t\t\t),\\r\\n            sha256(abi.e...\n      MUL \t\t\t),\\r\\n            sha256(abi.e...\n      DUP5 \t\t\t),\\r\\n            sha256(abi.e...\n      ADD \t\t\t),\\r\\n            sha256(abi.e...\n      GT \t\t\t),\\r\\n            sha256(abi.e...\n      PUSH 100000000\t\t\t),\\r\\n            sha256(abi.e...\n      DUP4 \t\t\t),\\r\\n            sha256(abi.e...\n      GT \t\t\t),\\r\\n            sha256(abi.e...\n      OR \t\t\t),\\r\\n            sha256(abi.e...\n      ISZERO \t\t\t),\\r\\n            sha256(abi.e...\n      PUSH [tag] 17\t\t\t),\\r\\n            sha256(abi.e...\n      JUMPI \t\t\t),\\r\\n            sha256(abi.e...\n      PUSH 0\t\t\t),\\r\\n            sha256(abi.e...\n      DUP1 \t\t\t),\\r\\n            sha256(abi.e...\n      REVERT \t\t\t),\\r\\n            sha256(abi.e...\n    tag 17\t\t\t),\\r\\n            sha256(abi.e...\n      JUMPDEST \t\t\t),\\r\\n            sha256(abi.e...\n      SWAP1 \t\t\t),\\r\\n            sha256(abi.e...\n      SWAP2 \t\t\t),\\r\\n            sha256(abi.e...\n      SWAP3 \t\t\t),\\r\\n            sha256(abi.e...\n      SWAP4 \t\t\t),\\r\\n            sha256(abi.e...\n      SWAP2 \t\t\t),\\r\\n            sha256(abi.e...\n      SWAP3 \t\t\t),\\r\\n            sha256(abi.e...\n      SWAP4 \t\t\t),\\r\\n            sha256(abi.e...\n      SWAP1 \t\t\t),\\r\\n            sha256(abi.e...\n      DUP1 \t\t\t),\\r\\n            sha256(abi.e...\n      CALLDATALOAD \t\t\t),\\r\\n            sha256(abi.e...\n      SWAP1 \t\t\t),\\r\\n            sha256(abi.e...\n      PUSH 20\t\t\t),\\r\\n            sha256(abi.e...\n      ADD \t\t\t),\\r\\n            sha256(abi.e...\n      SWAP1 \t\t\t),\\r\\n            sha256(abi.e...\n      PUSH 100000000\t\t\t),\\r\\n            sha256(abi.e...\n      DUP2 \t\t\t),\\r\\n            sha256(abi.e...\n      GT \t\t\t),\\r\\n            sha256(abi.e...\n      ISZERO \t\t\t),\\r\\n            sha256(abi.e...\n      PUSH [tag] 18\t\t\t),\\r\\n            sha256(abi.e...\n      JUMPI \t\t\t),\\r\\n            sha256(abi.e...\n      PUSH 0\t\t\t),\\r\\n            sha256(abi.e...\n      DUP1 \t\t\t),\\r\\n            sha256(abi.e...\n      REVERT \t\t\t),\\r\\n            sha256(abi.e...\n    tag 18\t\t\t),\\r\\n            sha256(abi.e...\n      JUMPDEST \t\t\t),\\r\\n            sha256(abi.e...\n      DUP3 \t\t\t),\\r\\n            sha256(abi.e...\n      ADD \t\t\t),\\r\\n            sha256(abi.e...\n      DUP4 \t\t\t),\\r\\n            sha256(abi.e...\n      PUSH 20\t\t\t),\\r\\n            sha256(abi.e...\n      DUP3 \t\t\t),\\r\\n            sha256(abi.e...\n      ADD \t\t\t),\\r\\n            sha256(abi.e...\n      GT \t\t\t),\\r\\n            sha256(abi.e...\n      ISZERO \t\t\t),\\r\\n            sha256(abi.e...\n      PUSH [tag] 19\t\t\t),\\r\\n            sha256(abi.e...\n      JUMPI \t\t\t),\\r\\n            sha256(abi.e...\n      PUSH 0\t\t\t),\\r\\n            sha256(abi.e...\n      DUP1 \t\t\t),\\r\\n            sha256(abi.e...\n      REVERT \t\t\t),\\r\\n            sha256(abi.e...\n    tag 19\t\t\t),\\r\\n            sha256(abi.e...\n      JUMPDEST \t\t\t),\\r\\n            sha256(abi.e...\n      DUP1 \t\t\t),\\r\\n            sha256(abi.e...\n      CALLDATALOAD \t\t\t),\\r\\n            sha256(abi.e...\n      SWAP1 \t\t\t),\\r\\n            sha256(abi.e...\n      PUSH 20\t\t\t),\\r\\n            sha256(abi.e...\n      ADD \t\t\t),\\r\\n            sha256(abi.e...\n      SWAP2 \t\t\t),\\r\\n            sha256(abi.e...\n      DUP5 \t\t\t),\\r\\n            sha256(abi.e...\n      PUSH 1\t\t\t),\\r\\n            sha256(abi.e...\n      DUP4 \t\t\t),\\r\\n            sha256(abi.e...\n      MUL \t\t\t),\\r\\n            sha256(abi.e...\n      DUP5 \t\t\t),\\r\\n            sha256(abi.e...\n      ADD \t\t\t),\\r\\n            sha256(abi.e...\n      GT \t\t\t),\\r\\n            sha256(abi.e...\n      PUSH 100000000\t\t\t),\\r\\n            sha256(abi.e...\n      DUP4 \t\t\t),\\r\\n            sha256(abi.e...\n      GT \t\t\t),\\r\\n            sha256(abi.e...\n      OR \t\t\t),\\r\\n            sha256(abi.e...\n      ISZERO \t\t\t),\\r\\n            sha256(abi.e...\n      PUSH [tag] 20\t\t\t),\\r\\n            sha256(abi.e...\n      JUMPI \t\t\t),\\r\\n            sha256(abi.e...\n      PUSH 0\t\t\t),\\r\\n            sha256(abi.e...\n      DUP1 \t\t\t),\\r\\n            sha256(abi.e...\n      REVERT \t\t\t),\\r\\n            sha256(abi.e...\n    tag 20\t\t\t),\\r\\n            sha256(abi.e...\n      JUMPDEST \t\t\t),\\r\\n            sha256(abi.e...\n      SWAP1 \t\t\t),\\r\\n            sha256(abi.e...\n      SWAP2 \t\t\t),\\r\\n            sha256(abi.e...\n      SWAP3 \t\t\t),\\r\\n            sha256(abi.e...\n      SWAP4 \t\t\t),\\r\\n            sha256(abi.e...\n      SWAP2 \t\t\t),\\r\\n            sha256(abi.e...\n      SWAP3 \t\t\t),\\r\\n            sha256(abi.e...\n      SWAP4 \t\t\t),\\r\\n            sha256(abi.e...\n      SWAP1 \t\t\t),\\r\\n            sha256(abi.e...\n      DUP1 \t\t\t),\\r\\n            sha256(abi.e...\n      CALLDATALOAD \t\t\t),\\r\\n            sha256(abi.e...\n      SWAP1 \t\t\t),\\r\\n            sha256(abi.e...\n      PUSH 20\t\t\t),\\r\\n            sha256(abi.e...\n      ADD \t\t\t),\\r\\n            sha256(abi.e...\n      SWAP1 \t\t\t),\\r\\n            sha256(abi.e...\n      SWAP3 \t\t\t),\\r\\n            sha256(abi.e...\n      SWAP2 \t\t\t),\\r\\n            sha256(abi.e...\n      SWAP1 \t\t\t),\\r\\n            sha256(abi.e...\n      POP \t\t\t),\\r\\n            sha256(abi.e...\n      POP \t\t\t),\\r\\n            sha256(abi.e...\n      POP \t\t\t),\\r\\n            sha256(abi.e...\n      PUSH [tag] 21\t\t\t),\\r\\n            sha256(abi.e...\n      JUMP [in]\t\t\t),\\r\\n            sha256(abi.e...\n    tag 10\t\t\t),\\r\\n            sha256(abi.e...\n      JUMPDEST \t\t\t),\\r\\n            sha256(abi.e...\n      STOP \t\t\t),\\r\\n            sha256(abi.e...\n    tag 4\t\t\t(abi.encodePacked(pubkey, byte...\n      JUMPDEST \t\t\t(abi.encodePacked(pubkey, byte...\n      CALLVALUE \t\t\t(abi.encodePacked(pubkey, byte...\n      DUP1 \t\t\t(abi.encodePacked(pubkey, byte...\n      ISZERO \t\t\t(abi.encodePacked(pubkey, byte...\n      PUSH [tag] 22\t\t\t(abi.encodePacked(pubkey, byte...\n      JUMPI \t\t\t(abi.encodePacked(pubkey, byte...\n      PUSH 0\t\t\t(abi.encodePacked(pubkey, byte...\n      DUP1 \t\t\t(abi.encodePacked(pubkey, byte...\n      REVERT \t\t\t(abi.encodePacked(pubkey, byte...\n    tag 22\t\t\t(abi.encodePacked(pubkey, byte...\n      JUMPDEST \t\t\t(abi.encodePacked(pubkey, byte...\n      POP \t\t\t(abi.encodePacked(pubkey, byte...\n      PUSH [tag] 23\t\t\t(abi.encodePacked(pubkey, byte...\n      PUSH [tag] 24\t\t\t(abi.encodePacked(pubkey, byte...\n      JUMP [in]\t\t\t(abi.encodePacked(pubkey, byte...\n    tag 23\t\t\t(abi.encodePacked(pubkey, byte...\n      JUMPDEST \t\t\t(abi.encodePacked(pubkey, byte...\n      PUSH 40\t\t\t(abi.encodePacked(pubkey, byte...\n      MLOAD \t\t\t(abi.encodePacked(pubkey, byte...\n      DUP1 \t\t\t(abi.encodePacked(pubkey, byte...\n      DUP1 \t\t\t(abi.encodePacked(pubkey, byte...\n      PUSH 20\t\t\t(abi.encodePacked(pubkey, byte...\n      ADD \t\t\t(abi.encodePacked(pubkey, byte...\n      DUP3 \t\t\t(abi.encodePacked(pubkey, byte...\n      DUP2 \t\t\t(abi.encodePacked(pubkey, byte...\n      SUB \t\t\t(abi.encodePacked(pubkey, byte...\n      DUP3 \t\t\t(abi.encodePacked(pubkey, byte...\n      MSTORE \t\t\t(abi.encodePacked(pubkey, byte...\n      DUP4 \t\t\t(abi.encodePacked(pubkey, byte...\n      DUP2 \t\t\t(abi.encodePacked(pubkey, byte...\n      DUP2 \t\t\t(abi.encodePacked(pubkey, byte...\n      MLOAD \t\t\t(abi.encodePacked(pubkey, byte...\n      DUP2 \t\t\t(abi.encodePacked(pubkey, byte...\n      MSTORE \t\t\t(abi.encodePacked(pubkey, byte...\n      PUSH 20\t\t\t(abi.encodePacked(pubkey, byte...\n      ADD \t\t\t(abi.encodePacked(pubkey, byte...\n      SWAP2 \t\t\t(abi.encodePacked(pubkey, byte...\n      POP \t\t\t(abi.encodePacked(pubkey, byte...\n      DUP1 \t\t\t(abi.encodePacked(pubkey, byte...\n      MLOAD \t\t\t(abi.encodePacked(pubkey, byte...\n      SWAP1 \t\t\t(abi.encodePacked(pubkey, byte...\n      PUSH 20\t\t\t(abi.encodePacked(pubkey, byte...\n      ADD \t\t\t(abi.encodePacked(pubkey, byte...\n      SWAP1 \t\t\t(abi.encodePacked(pubkey, byte...\n      DUP1 \t\t\t(abi.encodePacked(pubkey, byte...\n      DUP4 \t\t\t(abi.encodePacked(pubkey, byte...\n      DUP4 \t\t\t(abi.encodePacked(pubkey, byte...\n      PUSH 0\t\t\t(abi.encodePacked(pubkey, byte...\n    tag 25\t\t\t(abi.encodePacked(pubkey, byte...\n      JUMPDEST \t\t\t(abi.encodePacked(pubkey, byte...\n      DUP4 \t\t\t(abi.encodePacked(pubkey, byte...\n      DUP2 \t\t\t(abi.encodePacked(pubkey, byte...\n      LT \t\t\t(abi.encodePacked(pubkey, byte...\n      ISZERO \t\t\t(abi.encodePacked(pubkey, byte...\n      PUSH [tag] 27\t\t\t(abi.encodePacked(pubkey, byte...\n      JUMPI \t\t\t(abi.encodePacked(pubkey, byte...\n      DUP1 \t\t\t(abi.encodePacked(pubkey, byte...\n      DUP3 \t\t\t(abi.encodePacked(pubkey, byte...\n      ADD \t\t\t(abi.encodePacked(pubkey, byte...\n      MLOAD \t\t\t(abi.encodePacked(pubkey, byte...\n      DUP2 \t\t\t(abi.encodePacked(pubkey, byte...\n      DUP5 \t\t\t(abi.encodePacked(pubkey, byte...\n      ADD \t\t\t(abi.encodePacked(pubkey, byte...\n      MSTORE \t\t\t(abi.encodePacked(pubkey, byte...\n      PUSH 20\t\t\t(abi.encodePacked(pubkey, byte...\n      DUP2 \t\t\t(abi.encodePacked(pubkey, byte...\n      ADD \t\t\t(abi.encodePacked(pubkey, byte...\n      SWAP1 \t\t\t(abi.encodePacked(pubkey, byte...\n      POP \t\t\t(abi.encodePacked(pubkey, byte...\n      PUSH [tag] 25\t\t\t(abi.encodePacked(pubkey, byte...\n      JUMP \t\t\t(abi.encodePacked(pubkey, byte...\n    tag 27\t\t\t(abi.encodePacked(pubkey, byte...\n      JUMPDEST \t\t\t(abi.encodePacked(pubkey, byte...\n      POP \t\t\t(abi.encodePacked(pubkey, byte...\n      POP \t\t\t(abi.encodePacked(pubkey, byte...\n      POP \t\t\t(abi.encodePacked(pubkey, byte...\n      POP \t\t\t(abi.encodePacked(pubkey, byte...\n      SWAP1 \t\t\t(abi.encodePacked(pubkey, byte...\n      POP \t\t\t(abi.encodePacked(pubkey, byte...\n      SWAP1 \t\t\t(abi.encodePacked(pubkey, byte...\n      DUP2 \t\t\t(abi.encodePacked(pubkey, byte...\n      ADD \t\t\t(abi.encodePacked(pubkey, byte...\n      SWAP1 \t\t\t(abi.encodePacked(pubkey, byte...\n      PUSH 1F\t\t\t(abi.encodePacked(pubkey, byte...\n      AND \t\t\t(abi.encodePacked(pubkey, byte...\n      DUP1 \t\t\t(abi.encodePacked(pubkey, byte...\n      ISZERO \t\t\t(abi.encodePacked(pubkey, byte...\n      PUSH [tag] 28\t\t\t(abi.encodePacked(pubkey, byte...\n      JUMPI \t\t\t(abi.encodePacked(pubkey, byte...\n      DUP1 \t\t\t(abi.encodePacked(pubkey, byte...\n      DUP3 \t\t\t(abi.encodePacked(pubkey, byte...\n      SUB \t\t\t(abi.encodePacked(pubkey, byte...\n      DUP1 \t\t\t(abi.encodePacked(pubkey, byte...\n      MLOAD \t\t\t(abi.encodePacked(pubkey, byte...\n      PUSH 1\t\t\t(abi.encodePacked(pubkey, byte...\n      DUP4 \t\t\t(abi.encodePacked(pubkey, byte...\n      PUSH 20\t\t\t(abi.encodePacked(pubkey, byte...\n      SUB \t\t\t(abi.encodePacked(pubkey, byte...\n      PUSH 100\t\t\t(abi.encodePacked(pubkey, byte...\n      EXP \t\t\t(abi.encodePacked(pubkey, byte...\n      SUB \t\t\t(abi.encodePacked(pubkey, byte...\n      NOT \t\t\t(abi.encodePacked(pubkey, byte...\n      AND \t\t\t(abi.encodePacked(pubkey, byte...\n      DUP2 \t\t\t(abi.encodePacked(pubkey, byte...\n      MSTORE \t\t\t(abi.encodePacked(pubkey, byte...\n      PUSH 20\t\t\t(abi.encodePacked(pubkey, byte...\n      ADD \t\t\t(abi.encodePacked(pubkey, byte...\n      SWAP2 \t\t\t(abi.encodePacked(pubkey, byte...\n      POP \t\t\t(abi.encodePacked(pubkey, byte...\n    tag 28\t\t\t(abi.encodePacked(pubkey, byte...\n      JUMPDEST \t\t\t(abi.encodePacked(pubkey, byte...\n      POP \t\t\t(abi.encodePacked(pubkey, byte...\n      SWAP3 \t\t\t(abi.encodePacked(pubkey, byte...\n      POP \t\t\t(abi.encodePacked(pubkey, byte...\n      POP \t\t\t(abi.encodePacked(pubkey, byte...\n      POP \t\t\t(abi.encodePacked(pubkey, byte...\n      PUSH 40\t\t\t(abi.encodePacked(pubkey, byte...\n      MLOAD \t\t\t(abi.encodePacked(pubkey, byte...\n      DUP1 \t\t\t(abi.encodePacked(pubkey, byte...\n      SWAP2 \t\t\t(abi.encodePacked(pubkey, byte...\n      SUB \t\t\t(abi.encodePacked(pubkey, byte...\n      SWAP1 \t\t\t(abi.encodePacked(pubkey, byte...\n      RETURN \t\t\t(abi.encodePacked(pubkey, byte...\n    tag 5\t\t\tntract: deposit value not mult...\n      JUMPDEST \t\t\tntract: deposit value not mult...\n      CALLVALUE \t\t\tntract: deposit value not mult...\n      DUP1 \t\t\tntract: deposit value not mult...\n      ISZERO \t\t\tntract: deposit value not mult...\n      PUSH [tag] 29\t\t\tntract: deposit value not mult...\n      JUMPI \t\t\tntract: deposit value not mult...\n      PUSH 0\t\t\tntract: deposit value not mult...\n      DUP1 \t\t\tntract: deposit value not mult...\n      REVERT \t\t\tntract: deposit value not mult...\n    tag 29\t\t\tntract: deposit value not mult...\n      JUMPDEST \t\t\tntract: deposit value not mult...\n      POP \t\t\tntract: deposit value not mult...\n      PUSH [tag] 30\t\t\tntract: deposit value not mult...\n      PUSH [tag] 31\t\t\tntract: deposit value not mult...\n      JUMP [in]\t\t\tntract: deposit value not mult...\n    tag 30\t\t\tntract: deposit value not mult...\n      JUMPDEST \t\t\tntract: deposit value not mult...\n      PUSH 40\t\t\tntract: deposit value not mult...\n      MLOAD \t\t\tntract: deposit value not mult...\n      DUP1 \t\t\tntract: deposit value not mult...\n      DUP3 \t\t\tntract: deposit value not mult...\n      DUP2 \t\t\tntract: deposit value not mult...\n      MSTORE \t\t\tntract: deposit value not mult...\n      PUSH 20\t\t\tntract: deposit value not mult...\n      ADD \t\t\tntract: deposit value not mult...\n      SWAP2 \t\t\tntract: deposit value not mult...\n      POP \t\t\tntract: deposit value not mult...\n      POP \t\t\tntract: deposit value not mult...\n      PUSH 40\t\t\tntract: deposit value not mult...\n      MLOAD \t\t\tntract: deposit value not mult...\n      DUP1 \t\t\tntract: deposit value not mult...\n      SWAP2 \t\t\tntract: deposit value not mult...\n      SUB \t\t\tntract: deposit value not mult...\n      SWAP1 \t\t\tntract: deposit value not mult...\n      RETURN \t\t\tntract: deposit value not mult...\n    tag 9\t\t\t\n      JUMPDEST \t\t\t\n      PUSH 0\t\t\t\n      PUSH 1FFC9A700000000000000000000000000000000000000000000000000000000\t\t\t\n      PUSH FFFFFFFFFFFFFFFFFFFFFFFFFFFFFFFFFFFFFFFFFFFFFFFFFFFFFFFF\t\t\t\n      NOT \t\t\t\n      AND \t\t\t\n      DUP3 \t\t\t\n      PUSH FFFFFFFFFFFFFFFFFFFFFFFFFFFFFFFFFFFFFFFFFFFFFFFFFFFFFFFF\t\t\t\n      NOT \t\t\t\n      AND \t\t\t\n      EQ \t\t\t\n      DUP1 \t\t\t\n      PUSH [tag] 33\t\t\t\n      JUMPI \t\t\t\n      POP \t\t\t\n      PUSH 8564090700000000000000000000000000000000000000000000000000000000\t\t\t\n      PUSH FFFFFFFFFFFFFFFFFFFFFFFFFFFFFFFFFFFFFFFFFFFFFFFFFFFFFFFF\t\t\t\n      NOT \t\t\t\n      AND \t\t\t\n      DUP3 \t\t\t\n      PUSH FFFFFFFFFFFFFFFFFFFFFFFFFFFFFFFFFFFFFFFFFFFFFFFFFFFFFFFF\t\t\t\n      NOT \t\t\t\n      AND \t\t\t\n      EQ \t\t\t\n    tag 33\t\t\t\n      JUMPDEST \t\t\t\n      SWAP1 \t\t\t\n      POP \t\t\t\n      SWAP2 \t\t\t\n      SWAP1 \t\t\t\n      POP \t\t\t\n      JUMP [out]\t\t\t\n    tag 21\t\t\t),\\r\\n            sha256(abi.e...\n      JUMPDEST \t\t\t),\\r\\n            sha256(abi.e...\n      PUSH 30\t\t\t/ \n      DUP8 \t\t\t ));\\r\\n\n      DUP8 \t\t\t ));\\r\\n\n      SWAP1 \t\t\t ));\\r\\n\\r\\n     \n      POP \t\t\t ));\\r\\n\\r\\n     \n      EQ \t\t\t ));\\r\\n\\r\\n        // \n      PUSH [tag] 35\t\t\t\\n        ));\\r\\n\\r\\n        /...\n      JUMPI \t\t\t\\n        ));\\r\\n\\r\\n        /...\n      PUSH 40\t\t\t\\n        ));\\r\\n\\r\\n        /...\n      MLOAD \t\t\t\\n        ));\\r\\n\\r\\n        /...\n      PUSH 8C379A000000000000000000000000000000000000000000000000000000000\t\t\t\\n        ));\\r\\n\\r\\n        /...\n      DUP2 \t\t\t\\n        ));\\r\\n\\r\\n        /...\n      MSTORE \t\t\t\\n        ));\\r\\n\\r\\n        /...\n      PUSH 4\t\t\t\\n        ));\\r\\n\\r\\n        /...\n      ADD \t\t\t\\n        ));\\r\\n\\r\\n        /...\n      DUP1 \t\t\t\\n        ));\\r\\n\\r\\n        /...\n      DUP1 \t\t\t\\n        ));\\r\\n\\r\\n        /...\n      PUSH 20\t\t\t\\n        ));\\r\\n\\r\\n        /...\n      ADD \t\t\t\\n        ));\\r\\n\\r\\n        /...\n      DUP3 \t\t\t\\n        ));\\r\\n\\r\\n        /...\n      DUP2 \t\t\t\\n        ));\\r\\n\\r\\n        /...\n      SUB \t\t\t\\n        ));\\r\\n\\r\\n        /...\n      DUP3 \t\t\t\\n        ));\\r\\n\\r\\n        /...\n      MSTORE \t\t\t\\n        ));\\r\\n\\r\\n        /...\n      PUSH 26\t\t\t\\n        ));\\r\\n\\r\\n        /...\n      DUP2 \t\t\t\\n        ));\\r\\n\\r\\n        /...\n      MSTORE \t\t\t\\n        ));\\r\\n\\r\\n        /...\n      PUSH 20\t\t\t\\n        ));\\r\\n\\r\\n        /...\n      ADD \t\t\t\\n        ));\\r\\n\\r\\n        /...\n      DUP1 \t\t\t\\n        ));\\r\\n\\r\\n        /...\n      PUSH data C3B50B094EADA99B5A9DFA8CFADFA82355EDD40E0591C544071D0112172C4C5E\t\t\t\\n        ));\\r\\n\\r\\n        /...\n      PUSH 26\t\t\t\\n        ));\\r\\n\\r\\n        /...\n      SWAP2 \t\t\t\\n        ));\\r\\n\\r\\n        /...\n      CODECOPY \t\t\t\\n        ));\\r\\n\\r\\n        /...\n      PUSH 40\t\t\t\\n        ));\\r\\n\\r\\n        /...\n      ADD \t\t\t\\n        ));\\r\\n\\r\\n        /...\n      SWAP2 \t\t\t\\n        ));\\r\\n\\r\\n        /...\n      POP \t\t\t\\n        ));\\r\\n\\r\\n        /...\n      POP \t\t\t\\n        ));\\r\\n\\r\\n        /...\n      PUSH 40\t\t\t\\n        ));\\r\\n\\r\\n        /...\n      MLOAD \t\t\t\\n        ));\\r\\n\\r\\n        /...\n      DUP1 \t\t\t\\n        ));\\r\\n\\r\\n        /...\n      SWAP2 \t\t\t\\n        ));\\r\\n\\r\\n        /...\n      SUB \t\t\t\\n        ));\\r\\n\\r\\n        /...\n      SWAP1 \t\t\t\\n        ));\\r\\n\\r\\n        /...\n      REVERT \t\t\t\\n        ));\\r\\n\\r\\n        /...\n    tag 35\t\t\t\\n        ));\\r\\n\\r\\n        /...\n      JUMPDEST \t\t\t\\n        ));\\r\\n\\r\\n        /...\n      PUSH 20\t\t\tt,\n      DUP6 \t\t\t require(node == depos\n      DUP6 \t\t\t require(node == depos\n      SWAP1 \t\t\t require(node == deposit_data\n      POP \t\t\t require(node == deposit_data\n      EQ \t\t\t require(node == deposit_data_...\n      PUSH [tag] 36\t\t\t\\n        require(node == depo...\n      JUMPI \t\t\t\\n        require(node == depo...\n      PUSH 40\t\t\t\\n        require(node == depo...\n      MLOAD \t\t\t\\n        require(node == depo...\n      PUSH 8C379A000000000000000000000000000000000000000000000000000000000\t\t\t\\n        require(node == depo...\n      DUP2 \t\t\t\\n        require(node == depo...\n      MSTORE \t\t\t\\n        require(node == depo...\n      PUSH 4\t\t\t\\n        require(node == depo...\n      ADD \t\t\t\\n        require(node == depo...\n      DUP1 \t\t\t\\n        require(node == depo...\n      DUP1 \t\t\t\\n        require(node == depo...\n      PUSH 20\t\t\t\\n        require(node == depo...\n      ADD \t\t\t\\n        require(node == depo...\n      DUP3 \t\t\t\\n        require(node == depo...\n      DUP2 \t\t\t\\n        require(node == depo...\n      SUB \t\t\t\\n        require(node == depo...\n      DUP3 \t\t\t\\n        require(node == depo...\n      MSTORE \t\t\t\\n        require(node == depo...\n      PUSH 36\t\t\t\\n        require(node == depo...\n      DUP2 \t\t\t\\n        require(node == depo...\n      MSTORE \t\t\t\\n        require(node == depo...\n      PUSH 20\t\t\t\\n        require(node == depo...\n      ADD \t\t\t\\n        require(node == depo...\n      DUP1 \t\t\t\\n        require(node == depo...\n      PUSH data 747182C86D19950FC1E3554E7B3E3A1972FCFDCF01419AA5598A57F4869840E0\t\t\t\\n        require(node == depo...\n      PUSH 36\t\t\t\\n        require(node == depo...\n      SWAP2 \t\t\t\\n        require(node == depo...\n      CODECOPY \t\t\t\\n        require(node == depo...\n      PUSH 40\t\t\t\\n        require(node == depo...\n      ADD \t\t\t\\n        require(node == depo...\n      SWAP2 \t\t\t\\n        require(node == depo...\n      POP \t\t\t\\n        require(node == depo...\n      POP \t\t\t\\n        require(node == depo...\n      PUSH 40\t\t\t\\n        require(node == depo...\n      MLOAD \t\t\t\\n        require(node == depo...\n      DUP1 \t\t\t\\n        require(node == depo...\n      SWAP2 \t\t\t\\n        require(node == depo...\n      SUB \t\t\t\\n        require(node == depo...\n      SWAP1 \t\t\t\\n        require(node == depo...\n      REVERT \t\t\t\\n        require(node == depo...\n    tag 36\t\t\t\\n        require(node == depo...\n      JUMPDEST \t\t\t\\n        require(node == depo...\n      PUSH 60\t\t\t  \n      DUP4 \t\t\tata_root\"\n      DUP4 \t\t\tata_root\"\n      SWAP1 \t\t\tata_root\");\\r\\n\\r\\n \n      POP \t\t\tata_root\");\\r\\n\\r\\n \n      EQ \t\t\tata_root\");\\r\\n\\r\\n       \n      PUSH [tag] 37\t\t\teposit_data_root\");\\r\\n\\r\\n   ...\n      JUMPI \t\t\teposit_data_root\");\\r\\n\\r\\n   ...\n      PUSH 40\t\t\teposit_data_root\");\\r\\n\\r\\n   ...\n      MLOAD \t\t\teposit_data_root\");\\r\\n\\r\\n   ...\n      PUSH 8C379A000000000000000000000000000000000000000000000000000000000\t\t\teposit_data_root\");\\r\\n\\r\\n   ...\n      DUP2 \t\t\teposit_data_root\");\\r\\n\\r\\n   ...\n      MSTORE \t\t\teposit_data_root\");\\r\\n\\r\\n   ...\n      PUSH 4\t\t\teposit_data_root\");\\r\\n\\r\\n   ...\n      ADD \t\t\teposit_data_root\");\\r\\n\\r\\n   ...\n      DUP1 \t\t\teposit_data_root\");\\r\\n\\r\\n   ...\n      DUP1 \t\t\teposit_data_root\");\\r\\n\\r\\n   ...\n      PUSH 20\t\t\teposit_data_root\");\\r\\n\\r\\n   ...\n      ADD \t\t\teposit_data_root\");\\r\\n\\r\\n   ...\n      DUP3 \t\t\teposit_data_root\");\\r\\n\\r\\n   ...\n      DUP2 \t\t\teposit_data_root\");\\r\\n\\r\\n   ...\n      SUB \t\t\teposit_data_root\");\\r\\n\\r\\n   ...\n      DUP3 \t\t\teposit_data_root\");\\r\\n\\r\\n   ...\n      MSTORE \t\t\teposit_data_root\");\\r\\n\\r\\n   ...\n      PUSH 29\t\t\teposit_data_root\");\\r\\n\\r\\n   ...\n      DUP2 \t\t\teposit_data_root\");\\r\\n\\r\\n   ...\n      MSTORE \t\t\teposit_data_root\");\\r\\n\\r\\n   ...\n      PUSH 20\t\t\teposit_data_root\");\\r\\n\\r\\n   ...\n      ADD \t\t\teposit_data_root\");\\r\\n\\r\\n   ...\n      DUP1 \t\t\teposit_data_root\");\\r\\n\\r\\n   ...\n      PUSH data E15DE1A983E2181DC403952307F19CBE1AC366F85ACCB46BA7EC34E71736287B\t\t\teposit_data_root\");\\r\\n\\r\\n   ...\n      PUSH 29\t\t\teposit_data_root\");\\r\\n\\r\\n   ...\n      SWAP2 \t\t\teposit_data_root\");\\r\\n\\r\\n   ...\n      CODECOPY \t\t\teposit_data_root\");\\r\\n\\r\\n   ...\n      PUSH 40\t\t\teposit_data_root\");\\r\\n\\r\\n   ...\n      ADD \t\t\teposit_data_root\");\\r\\n\\r\\n   ...\n      SWAP2 \t\t\teposit_data_root\");\\r\\n\\r\\n   ...\n      POP \t\t\teposit_data_root\");\\r\\n\\r\\n   ...\n      POP \t\t\teposit_data_root\");\\r\\n\\r\\n   ...\n      PUSH 40\t\t\teposit_data_root\");\\r\\n\\r\\n   ...\n      MLOAD \t\t\teposit_data_root\");\\r\\n\\r\\n   ...\n      DUP1 \t\t\teposit_data_root\");\\r\\n\\r\\n   ...\n      SWAP2 \t\t\teposit_data_root\");\\r\\n\\r\\n   ...\n      SUB \t\t\teposit_data_root\");\\r\\n\\r\\n   ...\n      SWAP1 \t\t\teposit_data_root\");\\r\\n\\r\\n   ...\n      REVERT \t\t\teposit_data_root\");\\r\\n\\r\\n   ...\n    tag 37\t\t\teposit_data_root\");\\r\\n\\r\\n   ...\n      JUMPDEST \t\t\teposit_data_root\");\\r\\n\\r\\n   ...\n      PUSH DE0B6B3A7640000\t\t\tt < MAX\n      CALLVALUE \t\t\t(deposit_\n      LT \t\t\t(deposit_count < MAX\n      ISZERO \t\t\t(deposit_count < MAX\n      PUSH [tag] 38\t\t\t require(deposit_count < MAX_D...\n      JUMPI \t\t\t require(deposit_count < MAX_D...\n      PUSH 40\t\t\t require(deposit_count < MAX_D...\n      MLOAD \t\t\t require(deposit_count < MAX_D...\n      PUSH 8C379A000000000000000000000000000000000000000000000000000000000\t\t\t require(deposit_count < MAX_D...\n      DUP2 \t\t\t require(deposit_count < MAX_D...\n      MSTORE \t\t\t require(deposit_count < MAX_D...\n      PUSH 4\t\t\t require(deposit_count < MAX_D...\n      ADD \t\t\t require(deposit_count < MAX_D...\n      DUP1 \t\t\t require(deposit_count < MAX_D...\n      DUP1 \t\t\t require(deposit_count < MAX_D...\n      PUSH 20\t\t\t require(deposit_count < MAX_D...\n      ADD \t\t\t require(deposit_count < MAX_D...\n      DUP3 \t\t\t require(deposit_count < MAX_D...\n      DUP2 \t\t\t require(deposit_count < MAX_D...\n      SUB \t\t\t require(deposit_count < MAX_D...\n      DUP3 \t\t\t require(deposit_count < MAX_D...\n      MSTORE \t\t\t require(deposit_count < MAX_D...\n      PUSH 26\t\t\t require(deposit_count < MAX_D...\n      DUP2 \t\t\t require(deposit_count < MAX_D...\n      MSTORE \t\t\t require(deposit_count < MAX_D...\n      PUSH 20\t\t\t require(deposit_count < MAX_D...\n      ADD \t\t\t require(deposit_count < MAX_D...\n      DUP1 \t\t\t require(deposit_count < MAX_D...\n      PUSH data D4D9A14975CC31A7DC18AFC82EE6E59EFA15377B990098EEAAB4CC403F9D1217\t\t\t require(deposit_count < MAX_D...\n      PUSH 26\t\t\t require(deposit_count < MAX_D...\n      SWAP2 \t\t\t require(deposit_count < MAX_D...\n      CODECOPY \t\t\t require(deposit_count < MAX_D...\n      PUSH 40\t\t\t require(deposit_count < MAX_D...\n      ADD \t\t\t require(deposit_count < MAX_D...\n      SWAP2 \t\t\t require(deposit_count < MAX_D...\n      POP \t\t\t require(deposit_count < MAX_D...\n      POP \t\t\t require(deposit_count < MAX_D...\n      PUSH 40\t\t\t require(deposit_count < MAX_D...\n      MLOAD \t\t\t require(deposit_count < MAX_D...\n      DUP1 \t\t\t require(deposit_count < MAX_D...\n      SWAP2 \t\t\t require(deposit_count < MAX_D...\n      SUB \t\t\t require(deposit_count < MAX_D...\n      SWAP1 \t\t\t require(deposit_count < MAX_D...\n      REVERT \t\t\t require(deposit_count < MAX_D...\n    tag 38\t\t\t require(deposit_count < MAX_D...\n      JUMPDEST \t\t\t require(deposit_count < MAX_D...\n      PUSH 0\t\t\t \n      PUSH 3B9ACA00\t\t\tposit \n      CALLVALUE \t\t\t   // Add\n      DUP2 \t\t\t   // Add deposit \n      PUSH [tag] 39\t\t\t   // Add deposit \n      JUMPI \t\t\t   // Add deposit \n      INVALID \t\t\t   // Add deposit \n    tag 39\t\t\t   // Add deposit \n      JUMPDEST \t\t\t   // Add deposit \n      MOD \t\t\t   // Add deposit \n      EQ \t\t\t   // Add deposit data \n      PUSH [tag] 40\t\t\t\\n\\r\\n        // Add deposit d...\n      JUMPI \t\t\t\\n\\r\\n        // Add deposit d...\n      PUSH 40\t\t\t\\n\\r\\n        // Add deposit d...\n      MLOAD \t\t\t\\n\\r\\n        // Add deposit d...\n      PUSH 8C379A000000000000000000000000000000000000000000000000000000000\t\t\t\\n\\r\\n        // Add deposit d...\n      DUP2 \t\t\t\\n\\r\\n        // Add deposit d...\n      MSTORE \t\t\t\\n\\r\\n        // Add deposit d...\n      PUSH 4\t\t\t\\n\\r\\n        // Add deposit d...\n      ADD \t\t\t\\n\\r\\n        // Add deposit d...\n      DUP1 \t\t\t\\n\\r\\n        // Add deposit d...\n      DUP1 \t\t\t\\n\\r\\n        // Add deposit d...\n      PUSH 20\t\t\t\\n\\r\\n        // Add deposit d...\n      ADD \t\t\t\\n\\r\\n        // Add deposit d...\n      DUP3 \t\t\t\\n\\r\\n        // Add deposit d...\n      DUP2 \t\t\t\\n\\r\\n        // Add deposit d...\n      SUB \t\t\t\\n\\r\\n        // Add deposit d...\n      DUP3 \t\t\t\\n\\r\\n        // Add deposit d...\n      MSTORE \t\t\t\\n\\r\\n        // Add deposit d...\n      PUSH 33\t\t\t\\n\\r\\n        // Add deposit d...\n      DUP2 \t\t\t\\n\\r\\n        // Add deposit d...\n      MSTORE \t\t\t\\n\\r\\n        // Add deposit d...\n      PUSH 20\t\t\t\\n\\r\\n        // Add deposit d...\n      ADD \t\t\t\\n\\r\\n        // Add deposit d...\n      DUP1 \t\t\t\\n\\r\\n        // Add deposit d...\n      PUSH data 7DB03C60FBFD1382397614FC537E65F67F687DBB18307BED297BDA7F864590E0\t\t\t\\n\\r\\n        // Add deposit d...\n      PUSH 33\t\t\t\\n\\r\\n        // Add deposit d...\n      SWAP2 \t\t\t\\n\\r\\n        // Add deposit d...\n      CODECOPY \t\t\t\\n\\r\\n        // Add deposit d...\n      PUSH 40\t\t\t\\n\\r\\n        // Add deposit d...\n      ADD \t\t\t\\n\\r\\n        // Add deposit d...\n      SWAP2 \t\t\t\\n\\r\\n        // Add deposit d...\n      POP \t\t\t\\n\\r\\n        // Add deposit d...\n      POP \t\t\t\\n\\r\\n        // Add deposit d...\n      PUSH 40\t\t\t\\n\\r\\n        // Add deposit d...\n      MLOAD \t\t\t\\n\\r\\n        // Add deposit d...\n      DUP1 \t\t\t\\n\\r\\n        // Add deposit d...\n      SWAP2 \t\t\t\\n\\r\\n        // Add deposit d...\n      SUB \t\t\t\\n\\r\\n        // Add deposit d...\n      SWAP1 \t\t\t\\n\\r\\n        // Add deposit d...\n      REVERT \t\t\t\\n\\r\\n        // Add deposit d...\n    tag 40\t\t\t\\n\\r\\n        // Add deposit d...\n      JUMPDEST \t\t\t\\n\\r\\n        // Add deposit d...\n      PUSH 0\t\t\tt_count += 1;\\r\\n    \n      PUSH 3B9ACA00\t\t\t depos\n      CALLVALUE \t\t\t uint siz\n      DUP2 \t\t\t uint size = depos\n      PUSH [tag] 41\t\t\t uint size = depos\n      JUMPI \t\t\t uint size = depos\n      INVALID \t\t\t uint size = depos\n    tag 41\t\t\t uint size = depos\n      JUMPDEST \t\t\t uint size = depos\n      DIV \t\t\t uint size = depos\n      SWAP1 \t\t\tt_count += 1;\\r\\n        uint ...\n      POP \t\t\tt_count += 1;\\r\\n        uint ...\n      PUSH FFFFFFFFFFFFFFFF\t\t\t 0; height < DEP\n      DUP1 \t\t\tfor (uint height = 0; height <...\n      AND \t\t\tfor (uint height = 0; height <...\n      DUP2 \t\t\tfor (uint heig\n      GT \t\t\tfor (uint height = 0; height <...\n      ISZERO \t\t\tfor (uint height = 0; height <...\n      PUSH [tag] 42\t\t\t        for (uint height = 0; ...\n      JUMPI \t\t\t        for (uint height = 0; ...\n      PUSH 40\t\t\t        for (uint height = 0; ...\n      MLOAD \t\t\t        for (uint height = 0; ...\n      PUSH 8C379A000000000000000000000000000000000000000000000000000000000\t\t\t        for (uint height = 0; ...\n      DUP2 \t\t\t        for (uint height = 0; ...\n      MSTORE \t\t\t        for (uint height = 0; ...\n      PUSH 4\t\t\t        for (uint height = 0; ...\n      ADD \t\t\t        for (uint height = 0; ...\n      DUP1 \t\t\t        for (uint height = 0; ...\n      DUP1 \t\t\t        for (uint height = 0; ...\n      PUSH 20\t\t\t        for (uint height = 0; ...\n      ADD \t\t\t        for (uint height = 0; ...\n      DUP3 \t\t\t        for (uint height = 0; ...\n      DUP2 \t\t\t        for (uint height = 0; ...\n      SUB \t\t\t        for (uint height = 0; ...\n      DUP3 \t\t\t        for (uint height = 0; ...\n      MSTORE \t\t\t        for (uint height = 0; ...\n      PUSH 27\t\t\t        for (uint height = 0; ...\n      DUP2 \t\t\t        for (uint height = 0; ...\n      MSTORE \t\t\t        for (uint height = 0; ...\n      PUSH 20\t\t\t        for (uint height = 0; ...\n      ADD \t\t\t        for (uint height = 0; ...\n      DUP1 \t\t\t        for (uint height = 0; ...\n      PUSH data C445CEE017C8884423C583C4E1697A8E774197F1748CC887AA73775EF891882F\t\t\t        for (uint height = 0; ...\n      PUSH 27\t\t\t        for (uint height = 0; ...\n      SWAP2 \t\t\t        for (uint height = 0; ...\n      CODECOPY \t\t\t        for (uint height = 0; ...\n      PUSH 40\t\t\t        for (uint height = 0; ...\n      ADD \t\t\t        for (uint height = 0; ...\n      SWAP2 \t\t\t        for (uint height = 0; ...\n      POP \t\t\t        for (uint height = 0; ...\n      POP \t\t\t        for (uint height = 0; ...\n      PUSH 40\t\t\t        for (uint height = 0; ...\n      MLOAD \t\t\t        for (uint height = 0; ...\n      DUP1 \t\t\t        for (uint height = 0; ...\n      SWAP2 \t\t\t        for (uint height = 0; ...\n      SUB \t\t\t        for (uint height = 0; ...\n      SWAP1 \t\t\t        for (uint height = 0; ...\n      REVERT \t\t\t        for (uint height = 0; ...\n    tag 42\t\t\t        for (uint height = 0; ...\n      JUMPDEST \t\t\t        for (uint height = 0; ...\n      PUSH 60\t\t\tanch[height] = node\n      PUSH [tag] 43\t\t\t                return;\\r\\n   ...\n      DUP3 \t\t\t          }\\r\\n \n      PUSH [tag] 44\t\t\t                ret\n      JUMP [in]\t\t\t                return;\\r\\n   ...\n    tag 43\t\t\t                return;\\r\\n   ...\n      JUMPDEST \t\t\t                return;\\r\\n   ...\n      SWAP1 \t\t\tanch[height] = node;\\r\\n      ...\n      POP \t\t\tanch[height] = node;\\r\\n      ...\n      PUSH 649BBC62D0E31342AFEA4E5CD82D4049E7E1EE912FC0889AA790803BE39038C5\t\t\tsha256(abi.encodePacked(branch...\n      DUP10 \t\t\tnch[he\n      DUP10 \t\t\tnch[he\n      DUP10 \t\t\t\\n            size /= 2\n      DUP10 \t\t\t\\n            size /= 2\n      DUP6 \t\t\t      \n      DUP11 \t\t\t should a\n      DUP11 \t\t\t should a\n      PUSH [tag] 45\t\t\tturely with the `return` state...\n      PUSH 20\t\t\tatement,\\r\\n   \n      SLOAD \t\t\tatement,\\r\\n   \n      PUSH [tag] 44\t\t\tturely with the `re\n      JUMP [in]\t\t\tturely with the `return` state...\n    tag 45\t\t\tturely with the `return` state...\n      JUMPDEST \t\t\tturely with the `return` state...\n      PUSH 40\t\t\tsha256(abi.encodePacked(branch...\n      MLOAD \t\t\tsha256(abi.encodePacked(branch...\n      DUP1 \t\t\tsha256(abi.encodePacked(branch...\n      DUP1 \t\t\tsha256(abi.encodePacked(branch...\n      PUSH 20\t\t\tsha256(abi.encodePacked(branch...\n      ADD \t\t\tsha256(abi.encodePacked(branch...\n      DUP1 \t\t\tsha256(abi.encodePacked(branch...\n      PUSH 20\t\t\tsha256(abi.encodePacked(branch...\n      ADD \t\t\tsha256(abi.encodePacked(branch...\n      DUP1 \t\t\tsha256(abi.encodePacked(branch...\n      PUSH 20\t\t\tsha256(abi.encodePacked(branch...\n      ADD \t\t\tsha256(abi.encodePacked(branch...\n      DUP1 \t\t\tsha256(abi.encodePacked(branch...\n      PUSH 20\t\t\tsha256(abi.encodePacked(branch...\n      ADD \t\t\tsha256(abi.encodePacked(branch...\n      DUP1 \t\t\tsha256(abi.encodePacked(branch...\n      PUSH 20\t\t\tsha256(abi.encodePacked(branch...\n      ADD \t\t\tsha256(abi.encodePacked(branch...\n      DUP7 \t\t\tsha256(abi.encodePacked(branch...\n      DUP2 \t\t\tsha256(abi.encodePacked(branch...\n      SUB \t\t\tsha256(abi.encodePacked(branch...\n      DUP7 \t\t\tsha256(abi.encodePacked(branch...\n      MSTORE \t\t\tsha256(abi.encodePacked(branch...\n      DUP15 \t\t\tsha256(abi.encodePacked(branch...\n      DUP15 \t\t\tsha256(abi.encodePacked(branch...\n      DUP3 \t\t\tsha256(abi.encodePacked(branch...\n      DUP2 \t\t\tsha256(abi.encodePacked(branch...\n      DUP2 \t\t\tsha256(abi.encodePacked(branch...\n      MSTORE \t\t\tsha256(abi.encodePacked(branch...\n      PUSH 20\t\t\tsha256(abi.encodePacked(branch...\n      ADD \t\t\tsha256(abi.encodePacked(branch...\n      SWAP3 \t\t\tsha256(abi.encodePacked(branch...\n      POP \t\t\tsha256(abi.encodePacked(branch...\n      DUP1 \t\t\tsha256(abi.encodePacked(branch...\n      DUP3 \t\t\tsha256(abi.encodePacked(branch...\n      DUP5 \t\t\tsha256(abi.encodePacked(branch...\n      CALLDATACOPY \t\t\tsha256(abi.encodePacked(branch...\n      PUSH 0\t\t\tsha256(abi.encodePacked(branch...\n      DUP2 \t\t\tsha256(abi.encodePacked(branch...\n      DUP5 \t\t\tsha256(abi.encodePacked(branch...\n      ADD \t\t\tsha256(abi.encodePacked(branch...\n      MSTORE \t\t\tsha256(abi.encodePacked(branch...\n      PUSH 1F\t\t\tsha256(abi.encodePacked(branch...\n      NOT \t\t\tsha256(abi.encodePacked(branch...\n      PUSH 1F\t\t\tsha256(abi.encodePacked(branch...\n      DUP3 \t\t\tsha256(abi.encodePacked(branch...\n      ADD \t\t\tsha256(abi.encodePacked(branch...\n      AND \t\t\tsha256(abi.encodePacked(branch...\n      SWAP1 \t\t\tsha256(abi.encodePacked(branch...\n      POP \t\t\tsha256(abi.encodePacked(branch...\n      DUP1 \t\t\tsha256(abi.encodePacked(branch...\n      DUP4 \t\t\tsha256(abi.encodePacked(branch...\n      ADD \t\t\tsha256(abi.encodePacked(branch...\n      SWAP3 \t\t\tsha256(abi.encodePacked(branch...\n      POP \t\t\tsha256(abi.encodePacked(branch...\n      POP \t\t\tsha256(abi.encodePacked(branch...\n      POP \t\t\tsha256(abi.encodePacked(branch...\n      DUP7 \t\t\tsha256(abi.encodePacked(branch...\n      DUP2 \t\t\tsha256(abi.encodePacked(branch...\n      SUB \t\t\tsha256(abi.encodePacked(branch...\n      DUP6 \t\t\tsha256(abi.encodePacked(branch...\n      MSTORE \t\t\tsha256(abi.encodePacked(branch...\n      DUP13 \t\t\tsha256(abi.encodePacked(branch...\n      DUP13 \t\t\tsha256(abi.encodePacked(branch...\n      DUP3 \t\t\tsha256(abi.encodePacked(branch...\n      DUP2 \t\t\tsha256(abi.encodePacked(branch...\n      DUP2 \t\t\tsha256(abi.encodePacked(branch...\n      MSTORE \t\t\tsha256(abi.encodePacked(branch...\n      PUSH 20\t\t\tsha256(abi.encodePacked(branch...\n      ADD \t\t\tsha256(abi.encodePacked(branch...\n      SWAP3 \t\t\tsha256(abi.encodePacked(branch...\n      POP \t\t\tsha256(abi.encodePacked(branch...\n      DUP1 \t\t\tsha256(abi.encodePacked(branch...\n      DUP3 \t\t\tsha256(abi.encodePacked(branch...\n      DUP5 \t\t\tsha256(abi.encodePacked(branch...\n      CALLDATACOPY \t\t\tsha256(abi.encodePacked(branch...\n      PUSH 0\t\t\tsha256(abi.encodePacked(branch...\n      DUP2 \t\t\tsha256(abi.encodePacked(branch...\n      DUP5 \t\t\tsha256(abi.encodePacked(branch...\n      ADD \t\t\tsha256(abi.encodePacked(branch...\n      MSTORE \t\t\tsha256(abi.encodePacked(branch...\n      PUSH 1F\t\t\tsha256(abi.encodePacked(branch...\n      NOT \t\t\tsha256(abi.encodePacked(branch...\n      PUSH 1F\t\t\tsha256(abi.encodePacked(branch...\n      DUP3 \t\t\tsha256(abi.encodePacked(branch...\n      ADD \t\t\tsha256(abi.encodePacked(branch...\n      AND \t\t\tsha256(abi.encodePacked(branch...\n      SWAP1 \t\t\tsha256(abi.encodePacked(branch...\n      POP \t\t\tsha256(abi.encodePacked(branch...\n      DUP1 \t\t\tsha256(abi.encodePacked(branch...\n      DUP4 \t\t\tsha256(abi.encodePacked(branch...\n      ADD \t\t\tsha256(abi.encodePacked(branch...\n      SWAP3 \t\t\tsha256(abi.encodePacked(branch...\n      POP \t\t\tsha256(abi.encodePacked(branch...\n      POP \t\t\tsha256(abi.encodePacked(branch...\n      POP \t\t\tsha256(abi.encodePacked(branch...\n      DUP7 \t\t\tsha256(abi.encodePacked(branch...\n      DUP2 \t\t\tsha256(abi.encodePacked(branch...\n      SUB \t\t\tsha256(abi.encodePacked(branch...\n      DUP5 \t\t\tsha256(abi.encodePacked(branch...\n      MSTORE \t\t\tsha256(abi.encodePacked(branch...\n      DUP11 \t\t\tsha256(abi.encodePacked(branch...\n      DUP2 \t\t\tsha256(abi.encodePacked(branch...\n      DUP2 \t\t\tsha256(abi.encodePacked(branch...\n      MLOAD \t\t\tsha256(abi.encodePacked(branch...\n      DUP2 \t\t\tsha256(abi.encodePacked(branch...\n      MSTORE \t\t\tsha256(abi.encodePacked(branch...\n      PUSH 20\t\t\tsha256(abi.encodePacked(branch...\n      ADD \t\t\tsha256(abi.encodePacked(branch...\n      SWAP2 \t\t\tsha256(abi.encodePacked(branch...\n      POP \t\t\tsha256(abi.encodePacked(branch...\n      DUP1 \t\t\tsha256(abi.encodePacked(branch...\n      MLOAD \t\t\tsha256(abi.encodePacked(branch...\n      SWAP1 \t\t\tsha256(abi.encodePacked(branch...\n      PUSH 20\t\t\tsha256(abi.encodePacked(branch...\n      ADD \t\t\tsha256(abi.encodePacked(branch...\n      SWAP1 \t\t\tsha256(abi.encodePacked(branch...\n      DUP1 \t\t\tsha256(abi.encodePacked(branch...\n      DUP4 \t\t\tsha256(abi.encodePacked(branch...\n      DUP4 \t\t\tsha256(abi.encodePacked(branch...\n      PUSH 0\t\t\tsha256(abi.encodePacked(branch...\n    tag 46\t\t\tsha256(abi.encodePacked(branch...\n      JUMPDEST \t\t\tsha256(abi.encodePacked(branch...\n      DUP4 \t\t\tsha256(abi.encodePacked(branch...\n      DUP2 \t\t\tsha256(abi.encodePacked(branch...\n      LT \t\t\tsha256(abi.encodePacked(branch...\n      ISZERO \t\t\tsha256(abi.encodePacked(branch...\n      PUSH [tag] 48\t\t\tsha256(abi.encodePacked(branch...\n      JUMPI \t\t\tsha256(abi.encodePacked(branch...\n      DUP1 \t\t\tsha256(abi.encodePacked(branch...\n      DUP3 \t\t\tsha256(abi.encodePacked(branch...\n      ADD \t\t\tsha256(abi.encodePacked(branch...\n      MLOAD \t\t\tsha256(abi.encodePacked(branch...\n      DUP2 \t\t\tsha256(abi.encodePacked(branch...\n      DUP5 \t\t\tsha256(abi.encodePacked(branch...\n      ADD \t\t\tsha256(abi.encodePacked(branch...\n      MSTORE \t\t\tsha256(abi.encodePacked(branch...\n      PUSH 20\t\t\tsha256(abi.encodePacked(branch...\n      DUP2 \t\t\tsha256(abi.encodePacked(branch...\n      ADD \t\t\tsha256(abi.encodePacked(branch...\n      SWAP1 \t\t\tsha256(abi.encodePacked(branch...\n      POP \t\t\tsha256(abi.encodePacked(branch...\n      PUSH [tag] 46\t\t\tsha256(abi.encodePacked(branch...\n      JUMP \t\t\tsha256(abi.encodePacked(branch...\n    tag 48\t\t\tsha256(abi.encodePacked(branch...\n      JUMPDEST \t\t\tsha256(abi.encodePacked(branch...\n      POP \t\t\tsha256(abi.encodePacked(branch...\n      POP \t\t\tsha256(abi.encodePacked(branch...\n      POP \t\t\tsha256(abi.encodePacked(branch...\n      POP \t\t\tsha256(abi.encodePacked(branch...\n      SWAP1 \t\t\tsha256(abi.encodePacked(branch...\n      POP \t\t\tsha256(abi.encodePacked(branch...\n      SWAP1 \t\t\tsha256(abi.encodePacked(branch...\n      DUP2 \t\t\tsha256(abi.encodePacked(branch...\n      ADD \t\t\tsha256(abi.encodePacked(branch...\n      SWAP1 \t\t\tsha256(abi.encodePacked(branch...\n      PUSH 1F\t\t\tsha256(abi.encodePacked(branch...\n      AND \t\t\tsha256(abi.encodePacked(branch...\n      DUP1 \t\t\tsha256(abi.encodePacked(branch...\n      ISZERO \t\t\tsha256(abi.encodePacked(branch...\n      PUSH [tag] 49\t\t\tsha256(abi.encodePacked(branch...\n      JUMPI \t\t\tsha256(abi.encodePacked(branch...\n      DUP1 \t\t\tsha256(abi.encodePacked(branch...\n      DUP3 \t\t\tsha256(abi.encodePacked(branch...\n      SUB \t\t\tsha256(abi.encodePacked(branch...\n      DUP1 \t\t\tsha256(abi.encodePacked(branch...\n      MLOAD \t\t\tsha256(abi.encodePacked(branch...\n      PUSH 1\t\t\tsha256(abi.encodePacked(branch...\n      DUP4 \t\t\tsha256(abi.encodePacked(branch...\n      PUSH 20\t\t\tsha256(abi.encodePacked(branch...\n      SUB \t\t\tsha256(abi.encodePacked(branch...\n      PUSH 100\t\t\tsha256(abi.encodePacked(branch...\n      EXP \t\t\tsha256(abi.encodePacked(branch...\n      SUB \t\t\tsha256(abi.encodePacked(branch...\n      NOT \t\t\tsha256(abi.encodePacked(branch...\n      AND \t\t\tsha256(abi.encodePacked(branch...\n      DUP2 \t\t\tsha256(abi.encodePacked(branch...\n      MSTORE \t\t\tsha256(abi.encodePacked(branch...\n      PUSH 20\t\t\tsha256(abi.encodePacked(branch...\n      ADD \t\t\tsha256(abi.encodePacked(branch...\n      SWAP2 \t\t\tsha256(abi.encodePacked(branch...\n      POP \t\t\tsha256(abi.encodePacked(branch...\n    tag 49\t\t\tsha256(abi.encodePacked(branch...\n      JUMPDEST \t\t\tsha256(abi.encodePacked(branch...\n      POP \t\t\tsha256(abi.encodePacked(branch...\n      DUP7 \t\t\tsha256(abi.encodePacked(branch...\n      DUP2 \t\t\tsha256(abi.encodePacked(branch...\n      SUB \t\t\tsha256(abi.encodePacked(branch...\n      DUP4 \t\t\tsha256(abi.encodePacked(branch...\n      MSTORE \t\t\tsha256(abi.encodePacked(branch...\n      DUP10 \t\t\tsha256(abi.encodePacked(branch...\n      DUP10 \t\t\tsha256(abi.encodePacked(branch...\n      DUP3 \t\t\tsha256(abi.encodePacked(branch...\n      DUP2 \t\t\tsha256(abi.encodePacked(branch...\n      DUP2 \t\t\tsha256(abi.encodePacked(branch...\n      MSTORE \t\t\tsha256(abi.encodePacked(branch...\n      PUSH 20\t\t\tsha256(abi.encodePacked(branch...\n      ADD \t\t\tsha256(abi.encodePacked(branch...\n      SWAP3 \t\t\tsha256(abi.encodePacked(branch...\n      POP \t\t\tsha256(abi.encodePacked(branch...\n      DUP1 \t\t\tsha256(abi.encodePacked(branch...\n      DUP3 \t\t\tsha256(abi.encodePacked(branch...\n      DUP5 \t\t\tsha256(abi.encodePacked(branch...\n      CALLDATACOPY \t\t\tsha256(abi.encodePacked(branch...\n      PUSH 0\t\t\tsha256(abi.encodePacked(branch...\n      DUP2 \t\t\tsha256(abi.encodePacked(branch...\n      DUP5 \t\t\tsha256(abi.encodePacked(branch...\n      ADD \t\t\tsha256(abi.encodePacked(branch...\n      MSTORE \t\t\tsha256(abi.encodePacked(branch...\n      PUSH 1F\t\t\tsha256(abi.encodePacked(branch...\n      NOT \t\t\tsha256(abi.encodePacked(branch...\n      PUSH 1F\t\t\tsha256(abi.encodePacked(branch...\n      DUP3 \t\t\tsha256(abi.encodePacked(branch...\n      ADD \t\t\tsha256(abi.encodePacked(branch...\n      AND \t\t\tsha256(abi.encodePacked(branch...\n      SWAP1 \t\t\tsha256(abi.encodePacked(branch...\n      POP \t\t\tsha256(abi.encodePacked(branch...\n      DUP1 \t\t\tsha256(abi.encodePacked(branch...\n      DUP4 \t\t\tsha256(abi.encodePacked(branch...\n      ADD \t\t\tsha256(abi.encodePacked(branch...\n      SWAP3 \t\t\tsha256(abi.encodePacked(branch...\n      POP \t\t\tsha256(abi.encodePacked(branch...\n      POP \t\t\tsha256(abi.encodePacked(branch...\n      POP \t\t\tsha256(abi.encodePacked(branch...\n      DUP7 \t\t\tsha256(abi.encodePacked(branch...\n      DUP2 \t\t\tsha256(abi.encodePacked(branch...\n      SUB \t\t\tsha256(abi.encodePacked(branch...\n      DUP3 \t\t\tsha256(abi.encodePacked(branch...\n      MSTORE \t\t\tsha256(abi.encodePacked(branch...\n      DUP8 \t\t\tsha256(abi.encodePacked(branch...\n      DUP2 \t\t\tsha256(abi.encodePacked(branch...\n      DUP2 \t\t\tsha256(abi.encodePacked(branch...\n      MLOAD \t\t\tsha256(abi.encodePacked(branch...\n      DUP2 \t\t\tsha256(abi.encodePacked(branch...\n      MSTORE \t\t\tsha256(abi.encodePacked(branch...\n      PUSH 20\t\t\tsha256(abi.encodePacked(branch...\n      ADD \t\t\tsha256(abi.encodePacked(branch...\n      SWAP2 \t\t\tsha256(abi.encodePacked(branch...\n      POP \t\t\tsha256(abi.encodePacked(branch...\n      DUP1 \t\t\tsha256(abi.encodePacked(branch...\n      MLOAD \t\t\tsha256(abi.encodePacked(branch...\n      SWAP1 \t\t\tsha256(abi.encodePacked(branch...\n      PUSH 20\t\t\tsha256(abi.encodePacked(branch...\n      ADD \t\t\tsha256(abi.encodePacked(branch...\n      SWAP1 \t\t\tsha256(abi.encodePacked(branch...\n      DUP1 \t\t\tsha256(abi.encodePacked(branch...\n      DUP4 \t\t\tsha256(abi.encodePacked(branch...\n      DUP4 \t\t\tsha256(abi.encodePacked(branch...\n      PUSH 0\t\t\tsha256(abi.encodePacked(branch...\n    tag 50\t\t\tsha256(abi.encodePacked(branch...\n      JUMPDEST \t\t\tsha256(abi.encodePacked(branch...\n      DUP4 \t\t\tsha256(abi.encodePacked(branch...\n      DUP2 \t\t\tsha256(abi.encodePacked(branch...\n      LT \t\t\tsha256(abi.encodePacked(branch...\n      ISZERO \t\t\tsha256(abi.encodePacked(branch...\n      PUSH [tag] 52\t\t\tsha256(abi.encodePacked(branch...\n      JUMPI \t\t\tsha256(abi.encodePacked(branch...\n      DUP1 \t\t\tsha256(abi.encodePacked(branch...\n      DUP3 \t\t\tsha256(abi.encodePacked(branch...\n      ADD \t\t\tsha256(abi.encodePacked(branch...\n      MLOAD \t\t\tsha256(abi.encodePacked(branch...\n      DUP2 \t\t\tsha256(abi.encodePacked(branch...\n      DUP5 \t\t\tsha256(abi.encodePacked(branch...\n      ADD \t\t\tsha256(abi.encodePacked(branch...\n      MSTORE \t\t\tsha256(abi.encodePacked(branch...\n      PUSH 20\t\t\tsha256(abi.encodePacked(branch...\n      DUP2 \t\t\tsha256(abi.encodePacked(branch...\n      ADD \t\t\tsha256(abi.encodePacked(branch...\n      SWAP1 \t\t\tsha256(abi.encodePacked(branch...\n      POP \t\t\tsha256(abi.encodePacked(branch...\n      PUSH [tag] 50\t\t\tsha256(abi.encodePacked(branch...\n      JUMP \t\t\tsha256(abi.encodePacked(branch...\n    tag 52\t\t\tsha256(abi.encodePacked(branch...\n      JUMPDEST \t\t\tsha256(abi.encodePacked(branch...\n      POP \t\t\tsha256(abi.encodePacked(branch...\n      POP \t\t\tsha256(abi.encodePacked(branch...\n      POP \t\t\tsha256(abi.encodePacked(branch...\n      POP \t\t\tsha256(abi.encodePacked(branch...\n      SWAP1 \t\t\tsha256(abi.encodePacked(branch...\n      POP \t\t\tsha256(abi.encodePacked(branch...\n      SWAP1 \t\t\tsha256(abi.encodePacked(branch...\n      DUP2 \t\t\tsha256(abi.encodePacked(branch...\n      ADD \t\t\tsha256(abi.encodePacked(branch...\n      SWAP1 \t\t\tsha256(abi.encodePacked(branch...\n      PUSH 1F\t\t\tsha256(abi.encodePacked(branch...\n      AND \t\t\tsha256(abi.encodePacked(branch...\n      DUP1 \t\t\tsha256(abi.encodePacked(branch...\n      ISZERO \t\t\tsha256(abi.encodePacked(branch...\n      PUSH [tag] 53\t\t\tsha256(abi.encodePacked(branch...\n      JUMPI \t\t\tsha256(abi.encodePacked(branch...\n      DUP1 \t\t\tsha256(abi.encodePacked(branch...\n      DUP3 \t\t\tsha256(abi.encodePacked(branch...\n      SUB \t\t\tsha256(abi.encodePacked(branch...\n      DUP1 \t\t\tsha256(abi.encodePacked(branch...\n      MLOAD \t\t\tsha256(abi.encodePacked(branch...\n      PUSH 1\t\t\tsha256(abi.encodePacked(branch...\n      DUP4 \t\t\tsha256(abi.encodePacked(branch...\n      PUSH 20\t\t\tsha256(abi.encodePacked(branch...\n      SUB \t\t\tsha256(abi.encodePacked(branch...\n      PUSH 100\t\t\tsha256(abi.encodePacked(branch...\n      EXP \t\t\tsha256(abi.encodePacked(branch...\n      SUB \t\t\tsha256(abi.encodePacked(branch...\n      NOT \t\t\tsha256(abi.encodePacked(branch...\n      AND \t\t\tsha256(abi.encodePacked(branch...\n      DUP2 \t\t\tsha256(abi.encodePacked(branch...\n      MSTORE \t\t\tsha256(abi.encodePacked(branch...\n      PUSH 20\t\t\tsha256(abi.encodePacked(branch...\n      ADD \t\t\tsha256(abi.encodePacked(branch...\n      SWAP2 \t\t\tsha256(abi.encodePacked(branch...\n      POP \t\t\tsha256(abi.encodePacked(branch...\n    tag 53\t\t\tsha256(abi.encodePacked(branch...\n      JUMPDEST \t\t\tsha256(abi.encodePacked(branch...\n      POP \t\t\tsha256(abi.encodePacked(branch...\n      SWAP14 \t\t\tsha256(abi.encodePacked(branch...\n      POP \t\t\tsha256(abi.encodePacked(branch...\n      POP \t\t\tsha256(abi.encodePacked(branch...\n      POP \t\t\tsha256(abi.encodePacked(branch...\n      POP \t\t\tsha256(abi.encodePacked(branch...\n      POP \t\t\tsha256(abi.encodePacked(branch...\n      POP \t\t\tsha256(abi.encodePacked(branch...\n      POP \t\t\tsha256(abi.encodePacked(branch...\n      POP \t\t\tsha256(abi.encodePacked(branch...\n      POP \t\t\tsha256(abi.encodePacked(branch...\n      POP \t\t\tsha256(abi.encodePacked(branch...\n      POP \t\t\tsha256(abi.encodePacked(branch...\n      POP \t\t\tsha256(abi.encodePacked(branch...\n      POP \t\t\tsha256(abi.encodePacked(branch...\n      POP \t\t\tsha256(abi.encodePacked(branch...\n      PUSH 40\t\t\tsha256(abi.encodePacked(branch...\n      MLOAD \t\t\tsha256(abi.encodePacked(branch...\n      DUP1 \t\t\tsha256(abi.encodePacked(branch...\n      SWAP2 \t\t\tsha256(abi.encodePacked(branch...\n      SUB \t\t\tsha256(abi.encodePacked(branch...\n      SWAP1 \t\t\tsha256(abi.encodePacked(branch...\n      LOG1 \t\t\tsha256(abi.encodePacked(branch...\n      PUSH 0\t\t\tse);\\r\\n    }\\r\\n\\r\\n    \n      PUSH 2\t\t\tction supportsInterface(bytes4...\n      DUP11 \t\t\tbytes4\n      DUP11 \t\t\tbytes4\n      PUSH 0\t\t\tI\n      PUSH 80\t\t\tnterfaceId\n      SHL \t\t\tnterfaceId\n      PUSH 40\t\t\tupportsInterface(bytes4 interf...\n      MLOAD \t\t\tupportsInterface(bytes4 interf...\n      PUSH 20\t\t\tupportsInterface(bytes4 interf...\n      ADD \t\t\tupportsInterface(bytes4 interf...\n      DUP1 \t\t\tupportsInterface(bytes4 interf...\n      DUP5 \t\t\tupportsInterface(bytes4 interf...\n      DUP5 \t\t\tupportsInterface(bytes4 interf...\n      DUP1 \t\t\tupportsInterface(bytes4 interf...\n      DUP3 \t\t\tupportsInterface(bytes4 interf...\n      DUP5 \t\t\tupportsInterface(bytes4 interf...\n      CALLDATACOPY \t\t\tupportsInterface(bytes4 interf...\n      DUP1 \t\t\tupportsInterface(bytes4 interf...\n      DUP4 \t\t\tupportsInterface(bytes4 interf...\n      ADD \t\t\tupportsInterface(bytes4 interf...\n      SWAP3 \t\t\tupportsInterface(bytes4 interf...\n      POP \t\t\tupportsInterface(bytes4 interf...\n      POP \t\t\tupportsInterface(bytes4 interf...\n      POP \t\t\tupportsInterface(bytes4 interf...\n      DUP3 \t\t\tupportsInterface(bytes4 interf...\n      PUSH FFFFFFFFFFFFFFFFFFFFFFFFFFFFFFFF\t\t\tupportsInterface(bytes4 interf...\n      NOT \t\t\tupportsInterface(bytes4 interf...\n      AND \t\t\tupportsInterface(bytes4 interf...\n      PUSH FFFFFFFFFFFFFFFFFFFFFFFFFFFFFFFF\t\t\tupportsInterface(bytes4 interf...\n      NOT \t\t\tupportsInterface(bytes4 interf...\n      AND \t\t\tupportsInterface(bytes4 interf...\n      DUP2 \t\t\tupportsInterface(bytes4 interf...\n      MSTORE \t\t\tupportsInterface(bytes4 interf...\n      PUSH 10\t\t\tupportsInterface(bytes4 interf...\n      ADD \t\t\tupportsInterface(bytes4 interf...\n      SWAP4 \t\t\tupportsInterface(bytes4 interf...\n      POP \t\t\tupportsInterface(bytes4 interf...\n      POP \t\t\tupportsInterface(bytes4 interf...\n      POP \t\t\tupportsInterface(bytes4 interf...\n      POP \t\t\tupportsInterface(bytes4 interf...\n      PUSH 40\t\t\tupportsInterface(bytes4 interf...\n      MLOAD \t\t\tupportsInterface(bytes4 interf...\n      PUSH 20\t\t\tupportsInterface(bytes4 interf...\n      DUP2 \t\t\tupportsInterface(bytes4 interf...\n      DUP4 \t\t\tupportsInterface(bytes4 interf...\n      SUB \t\t\tupportsInterface(bytes4 interf...\n      SUB \t\t\tupportsInterface(bytes4 interf...\n      DUP2 \t\t\tupportsInterface(bytes4 interf...\n      MSTORE \t\t\tupportsInterface(bytes4 interf...\n      SWAP1 \t\t\tupportsInterface(bytes4 interf...\n      PUSH 40\t\t\tupportsInterface(bytes4 interf...\n      MSTORE \t\t\tupportsInterface(bytes4 interf...\n      PUSH 40\t\t\tction supportsInterface(bytes4...\n      MLOAD \t\t\tction supportsInterface(bytes4...\n      DUP1 \t\t\tction supportsInterface(bytes4...\n      DUP3 \t\t\tction supportsInterface(bytes4...\n      DUP1 \t\t\tction supportsInterface(bytes4...\n      MLOAD \t\t\tction supportsInterface(bytes4...\n      SWAP1 \t\t\tction supportsInterface(bytes4...\n      PUSH 20\t\t\tction supportsInterface(bytes4...\n      ADD \t\t\tction supportsInterface(bytes4...\n      SWAP1 \t\t\tction supportsInterface(bytes4...\n      DUP1 \t\t\tction supportsInterface(bytes4...\n      DUP4 \t\t\tction supportsInterface(bytes4...\n      DUP4 \t\t\tction supportsInterface(bytes4...\n    tag 54\t\t\tction supportsInterface(bytes4...\n      JUMPDEST \t\t\tction supportsInterface(bytes4...\n      PUSH 20\t\t\tction supportsInterface(bytes4...\n      DUP4 \t\t\tction supportsInterface(bytes4...\n      LT \t\t\tction supportsInterface(bytes4...\n      PUSH [tag] 56\t\t\tction supportsInterface(bytes4...\n      JUMPI \t\t\tction supportsInterface(bytes4...\n      DUP1 \t\t\tction supportsInterface(bytes4...\n      MLOAD \t\t\tction supportsInterface(bytes4...\n      DUP3 \t\t\tction supportsInterface(bytes4...\n      MSTORE \t\t\tction supportsInterface(bytes4...\n      PUSH 20\t\t\tction supportsInterface(bytes4...\n      DUP3 \t\t\tction supportsInterface(bytes4...\n      ADD \t\t\tction supportsInterface(bytes4...\n      SWAP2 \t\t\tction supportsInterface(bytes4...\n      POP \t\t\tction supportsInterface(bytes4...\n      PUSH 20\t\t\tction supportsInterface(bytes4...\n      DUP2 \t\t\tction supportsInterface(bytes4...\n      ADD \t\t\tction supportsInterface(bytes4...\n      SWAP1 \t\t\tction supportsInterface(bytes4...\n      POP \t\t\tction supportsInterface(bytes4...\n      PUSH 20\t\t\tction supportsInterface(bytes4...\n      DUP4 \t\t\tction supportsInterface(bytes4...\n      SUB \t\t\tction supportsInterface(bytes4...\n      SWAP3 \t\t\tction supportsInterface(bytes4...\n      POP \t\t\tction supportsInterface(bytes4...\n      PUSH [tag] 54\t\t\tction supportsInterface(bytes4...\n      JUMP \t\t\tction supportsInterface(bytes4...\n    tag 56\t\t\tction supportsInterface(bytes4...\n      JUMPDEST \t\t\tction supportsInterface(bytes4...\n      PUSH 1\t\t\tction supportsInterface(bytes4...\n      DUP4 \t\t\tction supportsInterface(bytes4...\n      PUSH 20\t\t\tction supportsInterface(bytes4...\n      SUB \t\t\tction supportsInterface(bytes4...\n      PUSH 100\t\t\tction supportsInterface(bytes4...\n      EXP \t\t\tction supportsInterface(bytes4...\n      SUB \t\t\tction supportsInterface(bytes4...\n      DUP1 \t\t\tction supportsInterface(bytes4...\n      NOT \t\t\tction supportsInterface(bytes4...\n      DUP3 \t\t\tction supportsInterface(bytes4...\n      MLOAD \t\t\tction supportsInterface(bytes4...\n      AND \t\t\tction supportsInterface(bytes4...\n      DUP2 \t\t\tction supportsInterface(bytes4...\n      DUP5 \t\t\tction supportsInterface(bytes4...\n      MLOAD \t\t\tction supportsInterface(bytes4...\n      AND \t\t\tction supportsInterface(bytes4...\n      DUP1 \t\t\tction supportsInterface(bytes4...\n      DUP3 \t\t\tction supportsInterface(bytes4...\n      OR \t\t\tction supportsInterface(bytes4...\n      DUP6 \t\t\tction supportsInterface(bytes4...\n      MSTORE \t\t\tction supportsInterface(bytes4...\n      POP \t\t\tction supportsInterface(bytes4...\n      POP \t\t\tction supportsInterface(bytes4...\n      POP \t\t\tction supportsInterface(bytes4...\n      POP \t\t\tction supportsInterface(bytes4...\n      POP \t\t\tction supportsInterface(bytes4...\n      POP \t\t\tction supportsInterface(bytes4...\n      SWAP1 \t\t\tction supportsInterface(bytes4...\n      POP \t\t\tction supportsInterface(bytes4...\n      ADD \t\t\tction supportsInterface(bytes4...\n      SWAP2 \t\t\tction supportsInterface(bytes4...\n      POP \t\t\tction supportsInterface(bytes4...\n      POP \t\t\tction supportsInterface(bytes4...\n      PUSH 20\t\t\tction supportsInterface(bytes4...\n      PUSH 40\t\t\tction supportsInterface(bytes4...\n      MLOAD \t\t\tction supportsInterface(bytes4...\n      DUP1 \t\t\tction supportsInterface(bytes4...\n      DUP4 \t\t\tction supportsInterface(bytes4...\n      SUB \t\t\tction supportsInterface(bytes4...\n      DUP2 \t\t\tction supportsInterface(bytes4...\n      DUP6 \t\t\tction supportsInterface(bytes4...\n      GAS \t\t\tction supportsInterface(bytes4...\n      STATICCALL \t\t\tction supportsInterface(bytes4...\n      ISZERO \t\t\tction supportsInterface(bytes4...\n      DUP1 \t\t\tction supportsInterface(bytes4...\n      ISZERO \t\t\tction supportsInterface(bytes4...\n      PUSH [tag] 58\t\t\tction supportsInterface(bytes4...\n      JUMPI \t\t\tction supportsInterface(bytes4...\n      RETURNDATASIZE \t\t\tction supportsInterface(bytes4...\n      PUSH 0\t\t\tction supportsInterface(bytes4...\n      DUP1 \t\t\tction supportsInterface(bytes4...\n      RETURNDATACOPY \t\t\tction supportsInterface(bytes4...\n      RETURNDATASIZE \t\t\tction supportsInterface(bytes4...\n      PUSH 0\t\t\tction supportsInterface(bytes4...\n      REVERT \t\t\tction supportsInterface(bytes4...\n    tag 58\t\t\tction supportsInterface(bytes4...\n      JUMPDEST \t\t\tction supportsInterface(bytes4...\n      POP \t\t\tction supportsInterface(bytes4...\n      POP \t\t\tction supportsInterface(bytes4...\n      POP \t\t\tction supportsInterface(bytes4...\n      PUSH 40\t\t\tction supportsInterface(bytes4...\n      MLOAD \t\t\tction supportsInterface(bytes4...\n      RETURNDATASIZE \t\t\tction supportsInterface(bytes4...\n      PUSH 20\t\t\tction supportsInterface(bytes4...\n      DUP2 \t\t\tction supportsInterface(bytes4...\n      LT \t\t\tction supportsInterface(bytes4...\n      ISZERO \t\t\tction supportsInterface(bytes4...\n      PUSH [tag] 59\t\t\tction supportsInterface(bytes4...\n      JUMPI \t\t\tction supportsInterface(bytes4...\n      PUSH 0\t\t\tction supportsInterface(bytes4...\n      DUP1 \t\t\tction supportsInterface(bytes4...\n      REVERT \t\t\tction supportsInterface(bytes4...\n    tag 59\t\t\tction supportsInterface(bytes4...\n      JUMPDEST \t\t\tction supportsInterface(bytes4...\n      DUP2 \t\t\tction supportsInterface(bytes4...\n      ADD \t\t\tction supportsInterface(bytes4...\n      SWAP1 \t\t\tction supportsInterface(bytes4...\n      DUP1 \t\t\tction supportsInterface(bytes4...\n      DUP1 \t\t\tction supportsInterface(bytes4...\n      MLOAD \t\t\tction supportsInterface(bytes4...\n      SWAP1 \t\t\tction supportsInterface(bytes4...\n      PUSH 20\t\t\tction supportsInterface(bytes4...\n      ADD \t\t\tction supportsInterface(bytes4...\n      SWAP1 \t\t\tction supportsInterface(bytes4...\n      SWAP3 \t\t\tction supportsInterface(bytes4...\n      SWAP2 \t\t\tction supportsInterface(bytes4...\n      SWAP1 \t\t\tction supportsInterface(bytes4...\n      POP \t\t\tction supportsInterface(bytes4...\n      POP \t\t\tction supportsInterface(bytes4...\n      POP \t\t\tction supportsInterface(bytes4...\n      SWAP1 \t\t\tse);\\r\\n    }\\r\\n\\r\\n    funct...\n      POP \t\t\tse);\\r\\n    }\\r\\n\\r\\n    funct...\n      PUSH 0\t\t\tternal pure returns (b\n      PUSH 2\t\t\t) {\\r\\n        return interfac...\n      DUP1 \t\t\te(ERC165).interfaceId || inter...\n      DUP9 \t\t\t interfac\n      DUP9 \t\t\t interfac\n      PUSH 0\t\t\t interfaceId =\n      SWAP1 \t\t\t interfaceId =\n      PUSH 40\t\t\td \n      SWAP3 \t\t\t interfaceId =\n      PUSH [tag] 60\t\t\t interfaceId =\n      SWAP4 \t\t\t interfaceId =\n      SWAP3 \t\t\t interfaceId =\n      SWAP2 \t\t\t interfaceId =\n      SWAP1 \t\t\t interfaceId =\n      PUSH [tag] 61\t\t\t interfaceId =\n      JUMP [in]\t\t\t interfaceId =\n    tag 60\t\t\t interfaceId =\n      JUMPDEST \t\t\t interfaceId =\n      PUSH 40\t\t\t5).interfaceId || interfaceId ...\n      MLOAD \t\t\t5).interfaceId || interfaceId ...\n      PUSH 20\t\t\t5).interfaceId || interfaceId ...\n      ADD \t\t\t5).interfaceId || interfaceId ...\n      DUP1 \t\t\t5).interfaceId || interfaceId ...\n      DUP4 \t\t\t5).interfaceId || interfaceId ...\n      DUP4 \t\t\t5).interfaceId || interfaceId ...\n      DUP1 \t\t\t5).interfaceId || interfaceId ...\n      DUP3 \t\t\t5).interfaceId || interfaceId ...\n      DUP5 \t\t\t5).interfaceId || interfaceId ...\n      CALLDATACOPY \t\t\t5).interfaceId || interfaceId ...\n      DUP1 \t\t\t5).interfaceId || interfaceId ...\n      DUP4 \t\t\t5).interfaceId || interfaceId ...\n      ADD \t\t\t5).interfaceId || interfaceId ...\n      SWAP3 \t\t\t5).interfaceId || interfaceId ...\n      POP \t\t\t5).interfaceId || interfaceId ...\n      POP \t\t\t5).interfaceId || interfaceId ...\n      POP \t\t\t5).interfaceId || interfaceId ...\n      SWAP3 \t\t\t5).interfaceId || interfaceId ...\n      POP \t\t\t5).interfaceId || interfaceId ...\n      POP \t\t\t5).interfaceId || interfaceId ...\n      POP \t\t\t5).interfaceId || interfaceId ...\n      PUSH 40\t\t\t5).interfaceId || interfaceId ...\n      MLOAD \t\t\t5).interfaceId || interfaceId ...\n      PUSH 20\t\t\t5).interfaceId || interfaceId ...\n      DUP2 \t\t\t5).interfaceId || interfaceId ...\n      DUP4 \t\t\t5).interfaceId || interfaceId ...\n      SUB \t\t\t5).interfaceId || interfaceId ...\n      SUB \t\t\t5).interfaceId || interfaceId ...\n      DUP2 \t\t\t5).interfaceId || interfaceId ...\n      MSTORE \t\t\t5).interfaceId || interfaceId ...\n      SWAP1 \t\t\t5).interfaceId || interfaceId ...\n      PUSH 40\t\t\t5).interfaceId || interfaceId ...\n      MSTORE \t\t\t5).interfaceId || interfaceId ...\n      PUSH 40\t\t\te(ERC165).interfaceId || inter...\n      MLOAD \t\t\te(ERC165).interfaceId || inter...\n      DUP1 \t\t\te(ERC165).interfaceId || inter...\n      DUP3 \t\t\te(ERC165).interfaceId || inter...\n      DUP1 \t\t\te(ERC165).interfaceId || inter...\n      MLOAD \t\t\te(ERC165).interfaceId || inter...\n      SWAP1 \t\t\te(ERC165).interfaceId || inter...\n      PUSH 20\t\t\te(ERC165).interfaceId || inter...\n      ADD \t\t\te(ERC165).interfaceId || inter...\n      SWAP1 \t\t\te(ERC165).interfaceId || inter...\n      DUP1 \t\t\te(ERC165).interfaceId || inter...\n      DUP4 \t\t\te(ERC165).interfaceId || inter...\n      DUP4 \t\t\te(ERC165).interfaceId || inter...\n    tag 62\t\t\te(ERC165).interfaceId || inter...\n      JUMPDEST \t\t\te(ERC165).interfaceId || inter...\n      PUSH 20\t\t\te(ERC165).interfaceId || inter...\n      DUP4 \t\t\te(ERC165).interfaceId || inter...\n      LT \t\t\te(ERC165).interfaceId || inter...\n      PUSH [tag] 64\t\t\te(ERC165).interfaceId || inter...\n      JUMPI \t\t\te(ERC165).interfaceId || inter...\n      DUP1 \t\t\te(ERC165).interfaceId || inter...\n      MLOAD \t\t\te(ERC165).interfaceId || inter...\n      DUP3 \t\t\te(ERC165).interfaceId || inter...\n      MSTORE \t\t\te(ERC165).interfaceId || inter...\n      PUSH 20\t\t\te(ERC165).interfaceId || inter...\n      DUP3 \t\t\te(ERC165).interfaceId || inter...\n      ADD \t\t\te(ERC165).interfaceId || inter...\n      SWAP2 \t\t\te(ERC165).interfaceId || inter...\n      POP \t\t\te(ERC165).interfaceId || inter...\n      PUSH 20\t\t\te(ERC165).interfaceId || inter...\n      DUP2 \t\t\te(ERC165).interfaceId || inter...\n      ADD \t\t\te(ERC165).interfaceId || inter...\n      SWAP1 \t\t\te(ERC165).interfaceId || inter...\n      POP \t\t\te(ERC165).interfaceId || inter...\n      PUSH 20\t\t\te(ERC165).interfaceId || inter...\n      DUP4 \t\t\te(ERC165).interfaceId || inter...\n      SUB \t\t\te(ERC165).interfaceId || inter...\n      SWAP3 \t\t\te(ERC165).interfaceId || inter...\n      POP \t\t\te(ERC165).interfaceId || inter...\n      PUSH [tag] 62\t\t\te(ERC165).interfaceId || inter...\n      JUMP \t\t\te(ERC165).interfaceId || inter...\n    tag 64\t\t\te(ERC165).interfaceId || inter...\n      JUMPDEST \t\t\te(ERC165).interfaceId || inter...\n      PUSH 1\t\t\te(ERC165).interfaceId || inter...\n      DUP4 \t\t\te(ERC165).interfaceId || inter...\n      PUSH 20\t\t\te(ERC165).interfaceId || inter...\n      SUB \t\t\te(ERC165).interfaceId || inter...\n      PUSH 100\t\t\te(ERC165).interfaceId || inter...\n      EXP \t\t\te(ERC165).interfaceId || inter...\n      SUB \t\t\te(ERC165).interfaceId || inter...\n      DUP1 \t\t\te(ERC165).interfaceId || inter...\n      NOT \t\t\te(ERC165).interfaceId || inter...\n      DUP3 \t\t\te(ERC165).interfaceId || inter...\n      MLOAD \t\t\te(ERC165).interfaceId || inter...\n      AND \t\t\te(ERC165).interfaceId || inter...\n      DUP2 \t\t\te(ERC165).interfaceId || inter...\n      DUP5 \t\t\te(ERC165).interfaceId || inter...\n      MLOAD \t\t\te(ERC165).interfaceId || inter...\n      AND \t\t\te(ERC165).interfaceId || inter...\n      DUP1 \t\t\te(ERC165).interfaceId || inter...\n      DUP3 \t\t\te(ERC165).interfaceId || inter...\n      OR \t\t\te(ERC165).interfaceId || inter...\n      DUP6 \t\t\te(ERC165).interfaceId || inter...\n      MSTORE \t\t\te(ERC165).interfaceId || inter...\n      POP \t\t\te(ERC165).interfaceId || inter...\n      POP \t\t\te(ERC165).interfaceId || inter...\n      POP \t\t\te(ERC165).interfaceId || inter...\n      POP \t\t\te(ERC165).interfaceId || inter...\n      POP \t\t\te(ERC165).interfaceId || inter...\n      POP \t\t\te(ERC165).interfaceId || inter...\n      SWAP1 \t\t\te(ERC165).interfaceId || inter...\n      POP \t\t\te(ERC165).interfaceId || inter...\n      ADD \t\t\te(ERC165).interfaceId || inter...\n      SWAP2 \t\t\te(ERC165).interfaceId || inter...\n      POP \t\t\te(ERC165).interfaceId || inter...\n      POP \t\t\te(ERC165).interfaceId || inter...\n      PUSH 20\t\t\te(ERC165).interfaceId || inter...\n      PUSH 40\t\t\te(ERC165).interfaceId || inter...\n      MLOAD \t\t\te(ERC165).interfaceId || inter...\n      DUP1 \t\t\te(ERC165).interfaceId || inter...\n      DUP4 \t\t\te(ERC165).interfaceId || inter...\n      SUB \t\t\te(ERC165).interfaceId || inter...\n      DUP2 \t\t\te(ERC165).interfaceId || inter...\n      DUP6 \t\t\te(ERC165).interfaceId || inter...\n      GAS \t\t\te(ERC165).interfaceId || inter...\n      STATICCALL \t\t\te(ERC165).interfaceId || inter...\n      ISZERO \t\t\te(ERC165).interfaceId || inter...\n      DUP1 \t\t\te(ERC165).interfaceId || inter...\n      ISZERO \t\t\te(ERC165).interfaceId || inter...\n      PUSH [tag] 66\t\t\te(ERC165).interfaceId || inter...\n      JUMPI \t\t\te(ERC165).interfaceId || inter...\n      RETURNDATASIZE \t\t\te(ERC165).interfaceId || inter...\n      PUSH 0\t\t\te(ERC165).interfaceId || inter...\n      DUP1 \t\t\te(ERC165).interfaceId || inter...\n      RETURNDATACOPY \t\t\te(ERC165).interfaceId || inter...\n      RETURNDATASIZE \t\t\te(ERC165).interfaceId || inter...\n      PUSH 0\t\t\te(ERC165).interfaceId || inter...\n      REVERT \t\t\te(ERC165).interfaceId || inter...\n    tag 66\t\t\te(ERC165).interfaceId || inter...\n      JUMPDEST \t\t\te(ERC165).interfaceId || inter...\n      POP \t\t\te(ERC165).interfaceId || inter...\n      POP \t\t\te(ERC165).interfaceId || inter...\n      POP \t\t\te(ERC165).interfaceId || inter...\n      PUSH 40\t\t\te(ERC165).interfaceId || inter...\n      MLOAD \t\t\te(ERC165).interfaceId || inter...\n      RETURNDATASIZE \t\t\te(ERC165).interfaceId || inter...\n      PUSH 20\t\t\te(ERC165).interfaceId || inter...\n      DUP2 \t\t\te(ERC165).interfaceId || inter...\n      LT \t\t\te(ERC165).interfaceId || inter...\n      ISZERO \t\t\te(ERC165).interfaceId || inter...\n      PUSH [tag] 67\t\t\te(ERC165).interfaceId || inter...\n      JUMPI \t\t\te(ERC165).interfaceId || inter...\n      PUSH 0\t\t\te(ERC165).interfaceId || inter...\n      DUP1 \t\t\te(ERC165).interfaceId || inter...\n      REVERT \t\t\te(ERC165).interfaceId || inter...\n    tag 67\t\t\te(ERC165).interfaceId || inter...\n      JUMPDEST \t\t\te(ERC165).interfaceId || inter...\n      DUP2 \t\t\te(ERC165).interfaceId || inter...\n      ADD \t\t\te(ERC165).interfaceId || inter...\n      SWAP1 \t\t\te(ERC165).interfaceId || inter...\n      DUP1 \t\t\te(ERC165).interfaceId || inter...\n      DUP1 \t\t\te(ERC165).interfaceId || inter...\n      MLOAD \t\t\te(ERC165).interfaceId || inter...\n      SWAP1 \t\t\te(ERC165).interfaceId || inter...\n      PUSH 20\t\t\te(ERC165).interfaceId || inter...\n      ADD \t\t\te(ERC165).interfaceId || inter...\n      SWAP1 \t\t\te(ERC165).interfaceId || inter...\n      SWAP3 \t\t\te(ERC165).interfaceId || inter...\n      SWAP2 \t\t\te(ERC165).interfaceId || inter...\n      SWAP1 \t\t\te(ERC165).interfaceId || inter...\n      POP \t\t\te(ERC165).interfaceId || inter...\n      POP \t\t\te(ERC165).interfaceId || inter...\n      POP \t\t\te(ERC165).interfaceId || inter...\n      PUSH 2\t\t\tntract).interfaceId;\\r\\n    }\\...\n      DUP10 \t\t\t  }\\r\\n\\r\\n  \n      DUP10 \t\t\t  }\\r\\n\\r\\n  \n      PUSH 40\t\t\t f\n      SWAP1 \t\t\t  }\\r\\n\\r\\n    fun\n      DUP1 \t\t\t  }\\r\\n\\r\\n    fun\n      SWAP3 \t\t\t  }\\r\\n\\r\\n    fun\n      PUSH [tag] 68\t\t\t  }\\r\\n\\r\\n    fun\n      SWAP4 \t\t\t  }\\r\\n\\r\\n    fun\n      SWAP3 \t\t\t  }\\r\\n\\r\\n    fun\n      SWAP2 \t\t\t  }\\r\\n\\r\\n    fun\n      SWAP1 \t\t\t  }\\r\\n\\r\\n    fun\n      PUSH [tag] 61\t\t\t  }\\r\\n\\r\\n    fun\n      JUMP [in]\t\t\t  }\\r\\n\\r\\n    fun\n    tag 68\t\t\t  }\\r\\n\\r\\n    fun\n      JUMPDEST \t\t\t  }\\r\\n\\r\\n    fun\n      PUSH 0\t\t\ti\n      DUP1 \t\t\tion to_lit\n      SHL \t\t\tion to_lit\n      PUSH 40\t\t\t.interfaceId;\\r\\n    }\\r\\n\\r\\n...\n      MLOAD \t\t\t.interfaceId;\\r\\n    }\\r\\n\\r\\n...\n      PUSH 20\t\t\t.interfaceId;\\r\\n    }\\r\\n\\r\\n...\n      ADD \t\t\t.interfaceId;\\r\\n    }\\r\\n\\r\\n...\n      DUP1 \t\t\t.interfaceId;\\r\\n    }\\r\\n\\r\\n...\n      DUP5 \t\t\t.interfaceId;\\r\\n    }\\r\\n\\r\\n...\n      DUP5 \t\t\t.interfaceId;\\r\\n    }\\r\\n\\r\\n...\n      DUP1 \t\t\t.interfaceId;\\r\\n    }\\r\\n\\r\\n...\n      DUP3 \t\t\t.interfaceId;\\r\\n    }\\r\\n\\r\\n...\n      DUP5 \t\t\t.interfaceId;\\r\\n    }\\r\\n\\r\\n...\n      CALLDATACOPY \t\t\t.interfaceId;\\r\\n    }\\r\\n\\r\\n...\n      DUP1 \t\t\t.interfaceId;\\r\\n    }\\r\\n\\r\\n...\n      DUP4 \t\t\t.interfaceId;\\r\\n    }\\r\\n\\r\\n...\n      ADD \t\t\t.interfaceId;\\r\\n    }\\r\\n\\r\\n...\n      SWAP3 \t\t\t.interfaceId;\\r\\n    }\\r\\n\\r\\n...\n      POP \t\t\t.interfaceId;\\r\\n    }\\r\\n\\r\\n...\n      POP \t\t\t.interfaceId;\\r\\n    }\\r\\n\\r\\n...\n      POP \t\t\t.interfaceId;\\r\\n    }\\r\\n\\r\\n...\n      DUP3 \t\t\t.interfaceId;\\r\\n    }\\r\\n\\r\\n...\n      DUP2 \t\t\t.interfaceId;\\r\\n    }\\r\\n\\r\\n...\n      MSTORE \t\t\t.interfaceId;\\r\\n    }\\r\\n\\r\\n...\n      PUSH 20\t\t\t.interfaceId;\\r\\n    }\\r\\n\\r\\n...\n      ADD \t\t\t.interfaceId;\\r\\n    }\\r\\n\\r\\n...\n      SWAP4 \t\t\t.interfaceId;\\r\\n    }\\r\\n\\r\\n...\n      POP \t\t\t.interfaceId;\\r\\n    }\\r\\n\\r\\n...\n      POP \t\t\t.interfaceId;\\r\\n    }\\r\\n\\r\\n...\n      POP \t\t\t.interfaceId;\\r\\n    }\\r\\n\\r\\n...\n      POP \t\t\t.interfaceId;\\r\\n    }\\r\\n\\r\\n...\n      PUSH 40\t\t\t.interfaceId;\\r\\n    }\\r\\n\\r\\n...\n      MLOAD \t\t\t.interfaceId;\\r\\n    }\\r\\n\\r\\n...\n      PUSH 20\t\t\t.interfaceId;\\r\\n    }\\r\\n\\r\\n...\n      DUP2 \t\t\t.interfaceId;\\r\\n    }\\r\\n\\r\\n...\n      DUP4 \t\t\t.interfaceId;\\r\\n    }\\r\\n\\r\\n...\n      SUB \t\t\t.interfaceId;\\r\\n    }\\r\\n\\r\\n...\n      SUB \t\t\t.interfaceId;\\r\\n    }\\r\\n\\r\\n...\n      DUP2 \t\t\t.interfaceId;\\r\\n    }\\r\\n\\r\\n...\n      MSTORE \t\t\t.interfaceId;\\r\\n    }\\r\\n\\r\\n...\n      SWAP1 \t\t\t.interfaceId;\\r\\n    }\\r\\n\\r\\n...\n      PUSH 40\t\t\t.interfaceId;\\r\\n    }\\r\\n\\r\\n...\n      MSTORE \t\t\t.interfaceId;\\r\\n    }\\r\\n\\r\\n...\n      PUSH 40\t\t\tntract).interfaceId;\\r\\n    }\\...\n      MLOAD \t\t\tntract).interfaceId;\\r\\n    }\\...\n      DUP1 \t\t\tntract).interfaceId;\\r\\n    }\\...\n      DUP3 \t\t\tntract).interfaceId;\\r\\n    }\\...\n      DUP1 \t\t\tntract).interfaceId;\\r\\n    }\\...\n      MLOAD \t\t\tntract).interfaceId;\\r\\n    }\\...\n      SWAP1 \t\t\tntract).interfaceId;\\r\\n    }\\...\n      PUSH 20\t\t\tntract).interfaceId;\\r\\n    }\\...\n      ADD \t\t\tntract).interfaceId;\\r\\n    }\\...\n      SWAP1 \t\t\tntract).interfaceId;\\r\\n    }\\...\n      DUP1 \t\t\tntract).interfaceId;\\r\\n    }\\...\n      DUP4 \t\t\tntract).interfaceId;\\r\\n    }\\...\n      DUP4 \t\t\tntract).interfaceId;\\r\\n    }\\...\n    tag 69\t\t\tntract).interfaceId;\\r\\n    }\\...\n      JUMPDEST \t\t\tntract).interfaceId;\\r\\n    }\\...\n      PUSH 20\t\t\tntract).interfaceId;\\r\\n    }\\...\n      DUP4 \t\t\tntract).interfaceId;\\r\\n    }\\...\n      LT \t\t\tntract).interfaceId;\\r\\n    }\\...\n      PUSH [tag] 71\t\t\tntract).interfaceId;\\r\\n    }\\...\n      JUMPI \t\t\tntract).interfaceId;\\r\\n    }\\...\n      DUP1 \t\t\tntract).interfaceId;\\r\\n    }\\...\n      MLOAD \t\t\tntract).interfaceId;\\r\\n    }\\...\n      DUP3 \t\t\tntract).interfaceId;\\r\\n    }\\...\n      MSTORE \t\t\tntract).interfaceId;\\r\\n    }\\...\n      PUSH 20\t\t\tntract).interfaceId;\\r\\n    }\\...\n      DUP3 \t\t\tntract).interfaceId;\\r\\n    }\\...\n      ADD \t\t\tntract).interfaceId;\\r\\n    }\\...\n      SWAP2 \t\t\tntract).interfaceId;\\r\\n    }\\...\n      POP \t\t\tntract).interfaceId;\\r\\n    }\\...\n      PUSH 20\t\t\tntract).interfaceId;\\r\\n    }\\...\n      DUP2 \t\t\tntract).interfaceId;\\r\\n    }\\...\n      ADD \t\t\tntract).interfaceId;\\r\\n    }\\...\n      SWAP1 \t\t\tntract).interfaceId;\\r\\n    }\\...\n      POP \t\t\tntract).interfaceId;\\r\\n    }\\...\n      PUSH 20\t\t\tntract).interfaceId;\\r\\n    }\\...\n      DUP4 \t\t\tntract).interfaceId;\\r\\n    }\\...\n      SUB \t\t\tntract).interfaceId;\\r\\n    }\\...\n      SWAP3 \t\t\tntract).interfaceId;\\r\\n    }\\...\n      POP \t\t\tntract).interfaceId;\\r\\n    }\\...\n      PUSH [tag] 69\t\t\tntract).interfaceId;\\r\\n    }\\...\n      JUMP \t\t\tntract).interfaceId;\\r\\n    }\\...\n    tag 71\t\t\tntract).interfaceId;\\r\\n    }\\...\n      JUMPDEST \t\t\tntract).interfaceId;\\r\\n    }\\...\n      PUSH 1\t\t\tntract).interfaceId;\\r\\n    }\\...\n      DUP4 \t\t\tntract).interfaceId;\\r\\n    }\\...\n      PUSH 20\t\t\tntract).interfaceId;\\r\\n    }\\...\n      SUB \t\t\tntract).interfaceId;\\r\\n    }\\...\n      PUSH 100\t\t\tntract).interfaceId;\\r\\n    }\\...\n      EXP \t\t\tntract).interfaceId;\\r\\n    }\\...\n      SUB \t\t\tntract).interfaceId;\\r\\n    }\\...\n      DUP1 \t\t\tntract).interfaceId;\\r\\n    }\\...\n      NOT \t\t\tntract).interfaceId;\\r\\n    }\\...\n      DUP3 \t\t\tntract).interfaceId;\\r\\n    }\\...\n      MLOAD \t\t\tntract).interfaceId;\\r\\n    }\\...\n      AND \t\t\tntract).interfaceId;\\r\\n    }\\...\n      DUP2 \t\t\tntract).interfaceId;\\r\\n    }\\...\n      DUP5 \t\t\tntract).interfaceId;\\r\\n    }\\...\n      MLOAD \t\t\tntract).interfaceId;\\r\\n    }\\...\n      AND \t\t\tntract).interfaceId;\\r\\n    }\\...\n      DUP1 \t\t\tntract).interfaceId;\\r\\n    }\\...\n      DUP3 \t\t\tntract).interfaceId;\\r\\n    }\\...\n      OR \t\t\tntract).interfaceId;\\r\\n    }\\...\n      DUP6 \t\t\tntract).interfaceId;\\r\\n    }\\...\n      MSTORE \t\t\tntract).interfaceId;\\r\\n    }\\...\n      POP \t\t\tntract).interfaceId;\\r\\n    }\\...\n      POP \t\t\tntract).interfaceId;\\r\\n    }\\...\n      POP \t\t\tntract).interfaceId;\\r\\n    }\\...\n      POP \t\t\tntract).interfaceId;\\r\\n    }\\...\n      POP \t\t\tntract).interfaceId;\\r\\n    }\\...\n      POP \t\t\tntract).interfaceId;\\r\\n    }\\...\n      SWAP1 \t\t\tntract).interfaceId;\\r\\n    }\\...\n      POP \t\t\tntract).interfaceId;\\r\\n    }\\...\n      ADD \t\t\tntract).interfaceId;\\r\\n    }\\...\n      SWAP2 \t\t\tntract).interfaceId;\\r\\n    }\\...\n      POP \t\t\tntract).interfaceId;\\r\\n    }\\...\n      POP \t\t\tntract).interfaceId;\\r\\n    }\\...\n      PUSH 20\t\t\tntract).interfaceId;\\r\\n    }\\...\n      PUSH 40\t\t\tntract).interfaceId;\\r\\n    }\\...\n      MLOAD \t\t\tntract).interfaceId;\\r\\n    }\\...\n      DUP1 \t\t\tntract).interfaceId;\\r\\n    }\\...\n      DUP4 \t\t\tntract).interfaceId;\\r\\n    }\\...\n      SUB \t\t\tntract).interfaceId;\\r\\n    }\\...\n      DUP2 \t\t\tntract).interfaceId;\\r\\n    }\\...\n      DUP6 \t\t\tntract).interfaceId;\\r\\n    }\\...\n      GAS \t\t\tntract).interfaceId;\\r\\n    }\\...\n      STATICCALL \t\t\tntract).interfaceId;\\r\\n    }\\...\n      ISZERO \t\t\tntract).interfaceId;\\r\\n    }\\...\n      DUP1 \t\t\tntract).interfaceId;\\r\\n    }\\...\n      ISZERO \t\t\tntract).interfaceId;\\r\\n    }\\...\n      PUSH [tag] 73\t\t\tntract).interfaceId;\\r\\n    }\\...\n      JUMPI \t\t\tntract).interfaceId;\\r\\n    }\\...\n      RETURNDATASIZE \t\t\tntract).interfaceId;\\r\\n    }\\...\n      PUSH 0\t\t\tntract).interfaceId;\\r\\n    }\\...\n      DUP1 \t\t\tntract).interfaceId;\\r\\n    }\\...\n      RETURNDATACOPY \t\t\tntract).interfaceId;\\r\\n    }\\...\n      RETURNDATASIZE \t\t\tntract).interfaceId;\\r\\n    }\\...\n      PUSH 0\t\t\tntract).interfaceId;\\r\\n    }\\...\n      REVERT \t\t\tntract).interfaceId;\\r\\n    }\\...\n    tag 73\t\t\tntract).interfaceId;\\r\\n    }\\...\n      JUMPDEST \t\t\tntract).interfaceId;\\r\\n    }\\...\n      POP \t\t\tntract).interfaceId;\\r\\n    }\\...\n      POP \t\t\tntract).interfaceId;\\r\\n    }\\...\n      POP \t\t\tntract).interfaceId;\\r\\n    }\\...\n      PUSH 40\t\t\tntract).interfaceId;\\r\\n    }\\...\n      MLOAD \t\t\tntract).interfaceId;\\r\\n    }\\...\n      RETURNDATASIZE \t\t\tntract).interfaceId;\\r\\n    }\\...\n      PUSH 20\t\t\tntract).interfaceId;\\r\\n    }\\...\n      DUP2 \t\t\tntract).interfaceId;\\r\\n    }\\...\n      LT \t\t\tntract).interfaceId;\\r\\n    }\\...\n      ISZERO \t\t\tntract).interfaceId;\\r\\n    }\\...\n      PUSH [tag] 74\t\t\tntract).interfaceId;\\r\\n    }\\...\n      JUMPI \t\t\tntract).interfaceId;\\r\\n    }\\...\n      PUSH 0\t\t\tntract).interfaceId;\\r\\n    }\\...\n      DUP1 \t\t\tntract).interfaceId;\\r\\n    }\\...\n      REVERT \t\t\tntract).interfaceId;\\r\\n    }\\...\n    tag 74\t\t\tntract).interfaceId;\\r\\n    }\\...\n      JUMPDEST \t\t\tntract).interfaceId;\\r\\n    }\\...\n      DUP2 \t\t\tntract).interfaceId;\\r\\n    }\\...\n      ADD \t\t\tntract).interfaceId;\\r\\n    }\\...\n      SWAP1 \t\t\tntract).interfaceId;\\r\\n    }\\...\n      DUP1 \t\t\tntract).interfaceId;\\r\\n    }\\...\n      DUP1 \t\t\tntract).interfaceId;\\r\\n    }\\...\n      MLOAD \t\t\tntract).interfaceId;\\r\\n    }\\...\n      SWAP1 \t\t\tntract).interfaceId;\\r\\n    }\\...\n      PUSH 20\t\t\tntract).interfaceId;\\r\\n    }\\...\n      ADD \t\t\tntract).interfaceId;\\r\\n    }\\...\n      SWAP1 \t\t\tntract).interfaceId;\\r\\n    }\\...\n      SWAP3 \t\t\tntract).interfaceId;\\r\\n    }\\...\n      SWAP2 \t\t\tntract).interfaceId;\\r\\n    }\\...\n      SWAP1 \t\t\tntract).interfaceId;\\r\\n    }\\...\n      POP \t\t\tntract).interfaceId;\\r\\n    }\\...\n      POP \t\t\tntract).interfaceId;\\r\\n    }\\...\n      POP \t\t\tntract).interfaceId;\\r\\n    }\\...\n      PUSH 40\t\t\t      return interfaceId == ty...\n      MLOAD \t\t\t      return interfaceId == ty...\n      PUSH 20\t\t\t      return interfaceId == ty...\n      ADD \t\t\t      return interfaceId == ty...\n      DUP1 \t\t\t      return interfaceId == ty...\n      DUP4 \t\t\t      return interfaceId == ty...\n      DUP2 \t\t\t      return interfaceId == ty...\n      MSTORE \t\t\t      return interfaceId == ty...\n      PUSH 20\t\t\t      return interfaceId == ty...\n      ADD \t\t\t      return interfaceId == ty...\n      DUP3 \t\t\t      return interfaceId == ty...\n      DUP2 \t\t\t      return interfaceId == ty...\n      MSTORE \t\t\t      return interfaceId == ty...\n      PUSH 20\t\t\t      return interfaceId == ty...\n      ADD \t\t\t      return interfaceId == ty...\n      SWAP3 \t\t\t      return interfaceId == ty...\n      POP \t\t\t      return interfaceId == ty...\n      POP \t\t\t      return interfaceId == ty...\n      POP \t\t\t      return interfaceId == ty...\n      PUSH 40\t\t\t      return interfaceId == ty...\n      MLOAD \t\t\t      return interfaceId == ty...\n      PUSH 20\t\t\t      return interfaceId == ty...\n      DUP2 \t\t\t      return interfaceId == ty...\n      DUP4 \t\t\t      return interfaceId == ty...\n      SUB \t\t\t      return interfaceId == ty...\n      SUB \t\t\t      return interfaceId == ty...\n      DUP2 \t\t\t      return interfaceId == ty...\n      MSTORE \t\t\t      return interfaceId == ty...\n      SWAP1 \t\t\t      return interfaceId == ty...\n      PUSH 40\t\t\t      return interfaceId == ty...\n      MSTORE \t\t\t      return interfaceId == ty...\n      PUSH 40\t\t\t) {\\r\\n        return interfac...\n      MLOAD \t\t\t) {\\r\\n        return interfac...\n      DUP1 \t\t\t) {\\r\\n        return interfac...\n      DUP3 \t\t\t) {\\r\\n        return interfac...\n      DUP1 \t\t\t) {\\r\\n        return interfac...\n      MLOAD \t\t\t) {\\r\\n        return interfac...\n      SWAP1 \t\t\t) {\\r\\n        return interfac...\n      PUSH 20\t\t\t) {\\r\\n        return interfac...\n      ADD \t\t\t) {\\r\\n        return interfac...\n      SWAP1 \t\t\t) {\\r\\n        return interfac...\n      DUP1 \t\t\t) {\\r\\n        return interfac...\n      DUP4 \t\t\t) {\\r\\n        return interfac...\n      DUP4 \t\t\t) {\\r\\n        return interfac...\n    tag 75\t\t\t) {\\r\\n        return interfac...\n      JUMPDEST \t\t\t) {\\r\\n        return interfac...\n      PUSH 20\t\t\t) {\\r\\n        return interfac...\n      DUP4 \t\t\t) {\\r\\n        return interfac...\n      LT \t\t\t) {\\r\\n        return interfac...\n      PUSH [tag] 77\t\t\t) {\\r\\n        return interfac...\n      JUMPI \t\t\t) {\\r\\n        return interfac...\n      DUP1 \t\t\t) {\\r\\n        return interfac...\n      MLOAD \t\t\t) {\\r\\n        return interfac...\n      DUP3 \t\t\t) {\\r\\n        return interfac...\n      MSTORE \t\t\t) {\\r\\n        return interfac...\n      PUSH 20\t\t\t) {\\r\\n        return interfac...\n      DUP3 \t\t\t) {\\r\\n        return interfac...\n      ADD \t\t\t) {\\r\\n        return interfac...\n      SWAP2 \t\t\t) {\\r\\n        return interfac...\n      POP \t\t\t) {\\r\\n        return interfac...\n      PUSH 20\t\t\t) {\\r\\n        return interfac...\n      DUP2 \t\t\t) {\\r\\n        return interfac...\n      ADD \t\t\t) {\\r\\n        return interfac...\n      SWAP1 \t\t\t) {\\r\\n        return interfac...\n      POP \t\t\t) {\\r\\n        return interfac...\n      PUSH 20\t\t\t) {\\r\\n        return interfac...\n      DUP4 \t\t\t) {\\r\\n        return interfac...\n      SUB \t\t\t) {\\r\\n        return interfac...\n      SWAP3 \t\t\t) {\\r\\n        return interfac...\n      POP \t\t\t) {\\r\\n        return interfac...\n      PUSH [tag] 75\t\t\t) {\\r\\n        return interfac...\n      JUMP \t\t\t) {\\r\\n        return interfac...\n    tag 77\t\t\t) {\\r\\n        return interfac...\n      JUMPDEST \t\t\t) {\\r\\n        return interfac...\n      PUSH 1\t\t\t) {\\r\\n        return interfac...\n      DUP4 \t\t\t) {\\r\\n        return interfac...\n      PUSH 20\t\t\t) {\\r\\n        return interfac...\n      SUB \t\t\t) {\\r\\n        return interfac...\n      PUSH 100\t\t\t) {\\r\\n        return interfac...\n      EXP \t\t\t) {\\r\\n        return interfac...\n      SUB \t\t\t) {\\r\\n        return interfac...\n      DUP1 \t\t\t) {\\r\\n        return interfac...\n      NOT \t\t\t) {\\r\\n        return interfac...\n      DUP3 \t\t\t) {\\r\\n        return interfac...\n      MLOAD \t\t\t) {\\r\\n        return interfac...\n      AND \t\t\t) {\\r\\n        return interfac...\n      DUP2 \t\t\t) {\\r\\n        return interfac...\n      DUP5 \t\t\t) {\\r\\n        return interfac...\n      MLOAD \t\t\t) {\\r\\n        return interfac...\n      AND \t\t\t) {\\r\\n        return interfac...\n      DUP1 \t\t\t) {\\r\\n        return interfac...\n      DUP3 \t\t\t) {\\r\\n        return interfac...\n      OR \t\t\t) {\\r\\n        return interfac...\n      DUP6 \t\t\t) {\\r\\n        return interfac...\n      MSTORE \t\t\t) {\\r\\n        return interfac...\n      POP \t\t\t) {\\r\\n        return interfac...\n      POP \t\t\t) {\\r\\n        return interfac...\n      POP \t\t\t) {\\r\\n        return interfac...\n      POP \t\t\t) {\\r\\n        return interfac...\n      POP \t\t\t) {\\r\\n        return interfac...\n      POP \t\t\t) {\\r\\n        return interfac...\n      SWAP1 \t\t\t) {\\r\\n        return interfac...\n      POP \t\t\t) {\\r\\n        return interfac...\n      ADD \t\t\t) {\\r\\n        return interfac...\n      SWAP2 \t\t\t) {\\r\\n        return interfac...\n      POP \t\t\t) {\\r\\n        return interfac...\n      POP \t\t\t) {\\r\\n        return interfac...\n      PUSH 20\t\t\t) {\\r\\n        return interfac...\n      PUSH 40\t\t\t) {\\r\\n        return interfac...\n      MLOAD \t\t\t) {\\r\\n        return interfac...\n      DUP1 \t\t\t) {\\r\\n        return interfac...\n      DUP4 \t\t\t) {\\r\\n        return interfac...\n      SUB \t\t\t) {\\r\\n        return interfac...\n      DUP2 \t\t\t) {\\r\\n        return interfac...\n      DUP6 \t\t\t) {\\r\\n        return interfac...\n      GAS \t\t\t) {\\r\\n        return interfac...\n      STATICCALL \t\t\t) {\\r\\n        return interfac...\n      ISZERO \t\t\t) {\\r\\n        return interfac...\n      DUP1 \t\t\t) {\\r\\n        return interfac...\n      ISZERO \t\t\t) {\\r\\n        return interfac...\n      PUSH [tag] 79\t\t\t) {\\r\\n        return interfac...\n      JUMPI \t\t\t) {\\r\\n        return interfac...\n      RETURNDATASIZE \t\t\t) {\\r\\n        return interfac...\n      PUSH 0\t\t\t) {\\r\\n        return interfac...\n      DUP1 \t\t\t) {\\r\\n        return interfac...\n      RETURNDATACOPY \t\t\t) {\\r\\n        return interfac...\n      RETURNDATASIZE \t\t\t) {\\r\\n        return interfac...\n      PUSH 0\t\t\t) {\\r\\n        return interfac...\n      REVERT \t\t\t) {\\r\\n        return interfac...\n    tag 79\t\t\t) {\\r\\n        return interfac...\n      JUMPDEST \t\t\t) {\\r\\n        return interfac...\n      POP \t\t\t) {\\r\\n        return interfac...\n      POP \t\t\t) {\\r\\n        return interfac...\n      POP \t\t\t) {\\r\\n        return interfac...\n      PUSH 40\t\t\t) {\\r\\n        return interfac...\n      MLOAD \t\t\t) {\\r\\n        return interfac...\n      RETURNDATASIZE \t\t\t) {\\r\\n        return interfac...\n      PUSH 20\t\t\t) {\\r\\n        return interfac...\n      DUP2 \t\t\t) {\\r\\n        return interfac...\n      LT \t\t\t) {\\r\\n        return interfac...\n      ISZERO \t\t\t) {\\r\\n        return interfac...\n      PUSH [tag] 80\t\t\t) {\\r\\n        return interfac...\n      JUMPI \t\t\t) {\\r\\n        return interfac...\n      PUSH 0\t\t\t) {\\r\\n        return interfac...\n      DUP1 \t\t\t) {\\r\\n        return interfac...\n      REVERT \t\t\t) {\\r\\n        return interfac...\n    tag 80\t\t\t) {\\r\\n        return interfac...\n      JUMPDEST \t\t\t) {\\r\\n        return interfac...\n      DUP2 \t\t\t) {\\r\\n        return interfac...\n      ADD \t\t\t) {\\r\\n        return interfac...\n      SWAP1 \t\t\t) {\\r\\n        return interfac...\n      DUP1 \t\t\t) {\\r\\n        return interfac...\n      DUP1 \t\t\t) {\\r\\n        return interfac...\n      MLOAD \t\t\t) {\\r\\n        return interfac...\n      SWAP1 \t\t\t) {\\r\\n        return interfac...\n      PUSH 20\t\t\t) {\\r\\n        return interfac...\n      ADD \t\t\t) {\\r\\n        return interfac...\n      SWAP1 \t\t\t) {\\r\\n        return interfac...\n      SWAP3 \t\t\t) {\\r\\n        return interfac...\n      SWAP2 \t\t\t) {\\r\\n        return interfac...\n      SWAP1 \t\t\t) {\\r\\n        return interfac...\n      POP \t\t\t) {\\r\\n        return interfac...\n      POP \t\t\t) {\\r\\n        return interfac...\n      POP \t\t\t) {\\r\\n        return interfac...\n      SWAP1 \t\t\tternal pure returns (bool) {\\r...\n      POP \t\t\tternal pure returns (bool) {\\r...\n      PUSH 0\t\t\te) internal \n      PUSH 2\t\t\te returns (bytes memory ret) {...\n      DUP1 \t\t\t  ret = new bytes(8);\\r\\n     ...\n      DUP5 \t\t\t       byte\n      DUP13 \t\t\t bytesValue = bytes8(v\n      DUP13 \t\t\t bytesValue = bytes8(v\n      PUSH 40\t\t\t new bytes(8);\\r\\n        byte...\n      MLOAD \t\t\t new bytes(8);\\r\\n        byte...\n      PUSH 20\t\t\t new bytes(8);\\r\\n        byte...\n      ADD \t\t\t new bytes(8);\\r\\n        byte...\n      DUP1 \t\t\t new bytes(8);\\r\\n        byte...\n      DUP5 \t\t\t new bytes(8);\\r\\n        byte...\n      DUP2 \t\t\t new bytes(8);\\r\\n        byte...\n      MSTORE \t\t\t new bytes(8);\\r\\n        byte...\n      PUSH 20\t\t\t new bytes(8);\\r\\n        byte...\n      ADD \t\t\t new bytes(8);\\r\\n        byte...\n      DUP4 \t\t\t new bytes(8);\\r\\n        byte...\n      DUP4 \t\t\t new bytes(8);\\r\\n        byte...\n      DUP1 \t\t\t new bytes(8);\\r\\n        byte...\n      DUP3 \t\t\t new bytes(8);\\r\\n        byte...\n      DUP5 \t\t\t new bytes(8);\\r\\n        byte...\n      CALLDATACOPY \t\t\t new bytes(8);\\r\\n        byte...\n      DUP1 \t\t\t new bytes(8);\\r\\n        byte...\n      DUP4 \t\t\t new bytes(8);\\r\\n        byte...\n      ADD \t\t\t new bytes(8);\\r\\n        byte...\n      SWAP3 \t\t\t new bytes(8);\\r\\n        byte...\n      POP \t\t\t new bytes(8);\\r\\n        byte...\n      POP \t\t\t new bytes(8);\\r\\n        byte...\n      POP \t\t\t new bytes(8);\\r\\n        byte...\n      SWAP4 \t\t\t new bytes(8);\\r\\n        byte...\n      POP \t\t\t new bytes(8);\\r\\n        byte...\n      POP \t\t\t new bytes(8);\\r\\n        byte...\n      POP \t\t\t new bytes(8);\\r\\n        byte...\n      POP \t\t\t new bytes(8);\\r\\n        byte...\n      PUSH 40\t\t\t new bytes(8);\\r\\n        byte...\n      MLOAD \t\t\t new bytes(8);\\r\\n        byte...\n      PUSH 20\t\t\t new bytes(8);\\r\\n        byte...\n      DUP2 \t\t\t new bytes(8);\\r\\n        byte...\n      DUP4 \t\t\t new bytes(8);\\r\\n        byte...\n      SUB \t\t\t new bytes(8);\\r\\n        byte...\n      SUB \t\t\t new bytes(8);\\r\\n        byte...\n      DUP2 \t\t\t new bytes(8);\\r\\n        byte...\n      MSTORE \t\t\t new bytes(8);\\r\\n        byte...\n      SWAP1 \t\t\t new bytes(8);\\r\\n        byte...\n      PUSH 40\t\t\t new bytes(8);\\r\\n        byte...\n      MSTORE \t\t\t new bytes(8);\\r\\n        byte...\n      PUSH 40\t\t\t  ret = new bytes(8);\\r\\n     ...\n      MLOAD \t\t\t  ret = new bytes(8);\\r\\n     ...\n      DUP1 \t\t\t  ret = new bytes(8);\\r\\n     ...\n      DUP3 \t\t\t  ret = new bytes(8);\\r\\n     ...\n      DUP1 \t\t\t  ret = new bytes(8);\\r\\n     ...\n      MLOAD \t\t\t  ret = new bytes(8);\\r\\n     ...\n      SWAP1 \t\t\t  ret = new bytes(8);\\r\\n     ...\n      PUSH 20\t\t\t  ret = new bytes(8);\\r\\n     ...\n      ADD \t\t\t  ret = new bytes(8);\\r\\n     ...\n      SWAP1 \t\t\t  ret = new bytes(8);\\r\\n     ...\n      DUP1 \t\t\t  ret = new bytes(8);\\r\\n     ...\n      DUP4 \t\t\t  ret = new bytes(8);\\r\\n     ...\n      DUP4 \t\t\t  ret = new bytes(8);\\r\\n     ...\n    tag 81\t\t\t  ret = new bytes(8);\\r\\n     ...\n      JUMPDEST \t\t\t  ret = new bytes(8);\\r\\n     ...\n      PUSH 20\t\t\t  ret = new bytes(8);\\r\\n     ...\n      DUP4 \t\t\t  ret = new bytes(8);\\r\\n     ...\n      LT \t\t\t  ret = new bytes(8);\\r\\n     ...\n      PUSH [tag] 83\t\t\t  ret = new bytes(8);\\r\\n     ...\n      JUMPI \t\t\t  ret = new bytes(8);\\r\\n     ...\n      DUP1 \t\t\t  ret = new bytes(8);\\r\\n     ...\n      MLOAD \t\t\t  ret = new bytes(8);\\r\\n     ...\n      DUP3 \t\t\t  ret = new bytes(8);\\r\\n     ...\n      MSTORE \t\t\t  ret = new bytes(8);\\r\\n     ...\n      PUSH 20\t\t\t  ret = new bytes(8);\\r\\n     ...\n      DUP3 \t\t\t  ret = new bytes(8);\\r\\n     ...\n      ADD \t\t\t  ret = new bytes(8);\\r\\n     ...\n      SWAP2 \t\t\t  ret = new bytes(8);\\r\\n     ...\n      POP \t\t\t  ret = new bytes(8);\\r\\n     ...\n      PUSH 20\t\t\t  ret = new bytes(8);\\r\\n     ...\n      DUP2 \t\t\t  ret = new bytes(8);\\r\\n     ...\n      ADD \t\t\t  ret = new bytes(8);\\r\\n     ...\n      SWAP1 \t\t\t  ret = new bytes(8);\\r\\n     ...\n      POP \t\t\t  ret = new bytes(8);\\r\\n     ...\n      PUSH 20\t\t\t  ret = new bytes(8);\\r\\n     ...\n      DUP4 \t\t\t  ret = new bytes(8);\\r\\n     ...\n      SUB \t\t\t  ret = new bytes(8);\\r\\n     ...\n      SWAP3 \t\t\t  ret = new bytes(8);\\r\\n     ...\n      POP \t\t\t  ret = new bytes(8);\\r\\n     ...\n      PUSH [tag] 81\t\t\t  ret = new bytes(8);\\r\\n     ...\n      JUMP \t\t\t  ret = new bytes(8);\\r\\n     ...\n    tag 83\t\t\t  ret = new bytes(8);\\r\\n     ...\n      JUMPDEST \t\t\t  ret = new bytes(8);\\r\\n     ...\n      PUSH 1\t\t\t  ret = new bytes(8);\\r\\n     ...\n      DUP4 \t\t\t  ret = new bytes(8);\\r\\n     ...\n      PUSH 20\t\t\t  ret = new bytes(8);\\r\\n     ...\n      SUB \t\t\t  ret = new bytes(8);\\r\\n     ...\n      PUSH 100\t\t\t  ret = new bytes(8);\\r\\n     ...\n      EXP \t\t\t  ret = new bytes(8);\\r\\n     ...\n      SUB \t\t\t  ret = new bytes(8);\\r\\n     ...\n      DUP1 \t\t\t  ret = new bytes(8);\\r\\n     ...\n      NOT \t\t\t  ret = new bytes(8);\\r\\n     ...\n      DUP3 \t\t\t  ret = new bytes(8);\\r\\n     ...\n      MLOAD \t\t\t  ret = new bytes(8);\\r\\n     ...\n      AND \t\t\t  ret = new bytes(8);\\r\\n     ...\n      DUP2 \t\t\t  ret = new bytes(8);\\r\\n     ...\n      DUP5 \t\t\t  ret = new bytes(8);\\r\\n     ...\n      MLOAD \t\t\t  ret = new bytes(8);\\r\\n     ...\n      AND \t\t\t  ret = new bytes(8);\\r\\n     ...\n      DUP1 \t\t\t  ret = new bytes(8);\\r\\n     ...\n      DUP3 \t\t\t  ret = new bytes(8);\\r\\n     ...\n      OR \t\t\t  ret = new bytes(8);\\r\\n     ...\n      DUP6 \t\t\t  ret = new bytes(8);\\r\\n     ...\n      MSTORE \t\t\t  ret = new bytes(8);\\r\\n     ...\n      POP \t\t\t  ret = new bytes(8);\\r\\n     ...\n      POP \t\t\t  ret = new bytes(8);\\r\\n     ...\n      POP \t\t\t  ret = new bytes(8);\\r\\n     ...\n      POP \t\t\t  ret = new bytes(8);\\r\\n     ...\n      POP \t\t\t  ret = new bytes(8);\\r\\n     ...\n      POP \t\t\t  ret = new bytes(8);\\r\\n     ...\n      SWAP1 \t\t\t  ret = new bytes(8);\\r\\n     ...\n      POP \t\t\t  ret = new bytes(8);\\r\\n     ...\n      ADD \t\t\t  ret = new bytes(8);\\r\\n     ...\n      SWAP2 \t\t\t  ret = new bytes(8);\\r\\n     ...\n      POP \t\t\t  ret = new bytes(8);\\r\\n     ...\n      POP \t\t\t  ret = new bytes(8);\\r\\n     ...\n      PUSH 20\t\t\t  ret = new bytes(8);\\r\\n     ...\n      PUSH 40\t\t\t  ret = new bytes(8);\\r\\n     ...\n      MLOAD \t\t\t  ret = new bytes(8);\\r\\n     ...\n      DUP1 \t\t\t  ret = new bytes(8);\\r\\n     ...\n      DUP4 \t\t\t  ret = new bytes(8);\\r\\n     ...\n      SUB \t\t\t  ret = new bytes(8);\\r\\n     ...\n      DUP2 \t\t\t  ret = new bytes(8);\\r\\n     ...\n      DUP6 \t\t\t  ret = new bytes(8);\\r\\n     ...\n      GAS \t\t\t  ret = new bytes(8);\\r\\n     ...\n      STATICCALL \t\t\t  ret = new bytes(8);\\r\\n     ...\n      ISZERO \t\t\t  ret = new bytes(8);\\r\\n     ...\n      DUP1 \t\t\t  ret = new bytes(8);\\r\\n     ...\n      ISZERO \t\t\t  ret = new bytes(8);\\r\\n     ...\n      PUSH [tag] 85\t\t\t  ret = new bytes(8);\\r\\n     ...\n      JUMPI \t\t\t  ret = new bytes(8);\\r\\n     ...\n      RETURNDATASIZE \t\t\t  ret = new bytes(8);\\r\\n     ...\n      PUSH 0\t\t\t  ret = new bytes(8);\\r\\n     ...\n      DUP1 \t\t\t  ret = new bytes(8);\\r\\n     ...\n      RETURNDATACOPY \t\t\t  ret = new bytes(8);\\r\\n     ...\n      RETURNDATASIZE \t\t\t  ret = new bytes(8);\\r\\n     ...\n      PUSH 0\t\t\t  ret = new bytes(8);\\r\\n     ...\n      REVERT \t\t\t  ret = new bytes(8);\\r\\n     ...\n    tag 85\t\t\t  ret = new bytes(8);\\r\\n     ...\n      JUMPDEST \t\t\t  ret = new bytes(8);\\r\\n     ...\n      POP \t\t\t  ret = new bytes(8);\\r\\n     ...\n      POP \t\t\t  ret = new bytes(8);\\r\\n     ...\n      POP \t\t\t  ret = new bytes(8);\\r\\n     ...\n      PUSH 40\t\t\t  ret = new bytes(8);\\r\\n     ...\n      MLOAD \t\t\t  ret = new bytes(8);\\r\\n     ...\n      RETURNDATASIZE \t\t\t  ret = new bytes(8);\\r\\n     ...\n      PUSH 20\t\t\t  ret = new bytes(8);\\r\\n     ...\n      DUP2 \t\t\t  ret = new bytes(8);\\r\\n     ...\n      LT \t\t\t  ret = new bytes(8);\\r\\n     ...\n      ISZERO \t\t\t  ret = new bytes(8);\\r\\n     ...\n      PUSH [tag] 86\t\t\t  ret = new bytes(8);\\r\\n     ...\n      JUMPI \t\t\t  ret = new bytes(8);\\r\\n     ...\n      PUSH 0\t\t\t  ret = new bytes(8);\\r\\n     ...\n      DUP1 \t\t\t  ret = new bytes(8);\\r\\n     ...\n      REVERT \t\t\t  ret = new bytes(8);\\r\\n     ...\n    tag 86\t\t\t  ret = new bytes(8);\\r\\n     ...\n      JUMPDEST \t\t\t  ret = new bytes(8);\\r\\n     ...\n      DUP2 \t\t\t  ret = new bytes(8);\\r\\n     ...\n      ADD \t\t\t  ret = new bytes(8);\\r\\n     ...\n      SWAP1 \t\t\t  ret = new bytes(8);\\r\\n     ...\n      DUP1 \t\t\t  ret = new bytes(8);\\r\\n     ...\n      DUP1 \t\t\t  ret = new bytes(8);\\r\\n     ...\n      MLOAD \t\t\t  ret = new bytes(8);\\r\\n     ...\n      SWAP1 \t\t\t  ret = new bytes(8);\\r\\n     ...\n      PUSH 20\t\t\t  ret = new bytes(8);\\r\\n     ...\n      ADD \t\t\t  ret = new bytes(8);\\r\\n     ...\n      SWAP1 \t\t\t  ret = new bytes(8);\\r\\n     ...\n      SWAP3 \t\t\t  ret = new bytes(8);\\r\\n     ...\n      SWAP2 \t\t\t  ret = new bytes(8);\\r\\n     ...\n      SWAP1 \t\t\t  ret = new bytes(8);\\r\\n     ...\n      POP \t\t\t  ret = new bytes(8);\\r\\n     ...\n      POP \t\t\t  ret = new bytes(8);\\r\\n     ...\n      POP \t\t\t  ret = new bytes(8);\\r\\n     ...\n      PUSH 2\t\t\t/ Byteswapping during copying ...\n      DUP7 \t\t\tpying \n      PUSH 0\t\t\t\\n\n      PUSH 40\t\t\t bytes.\\r\\n \n      SHL \t\t\t bytes.\\r\\n \n      DUP7 \t\t\t     ret[0] = \n      PUSH 40\t\t\twapping during copying to byte...\n      MLOAD \t\t\twapping during copying to byte...\n      PUSH 20\t\t\twapping during copying to byte...\n      ADD \t\t\twapping during copying to byte...\n      DUP1 \t\t\twapping during copying to byte...\n      DUP5 \t\t\twapping during copying to byte...\n      DUP1 \t\t\twapping during copying to byte...\n      MLOAD \t\t\twapping during copying to byte...\n      SWAP1 \t\t\twapping during copying to byte...\n      PUSH 20\t\t\twapping during copying to byte...\n      ADD \t\t\twapping during copying to byte...\n      SWAP1 \t\t\twapping during copying to byte...\n      DUP1 \t\t\twapping during copying to byte...\n      DUP4 \t\t\twapping during copying to byte...\n      DUP4 \t\t\twapping during copying to byte...\n    tag 87\t\t\twapping during copying to byte...\n      JUMPDEST \t\t\twapping during copying to byte...\n      PUSH 20\t\t\twapping during copying to byte...\n      DUP4 \t\t\twapping during copying to byte...\n      LT \t\t\twapping during copying to byte...\n      PUSH [tag] 89\t\t\twapping during copying to byte...\n      JUMPI \t\t\twapping during copying to byte...\n      DUP1 \t\t\twapping during copying to byte...\n      MLOAD \t\t\twapping during copying to byte...\n      DUP3 \t\t\twapping during copying to byte...\n      MSTORE \t\t\twapping during copying to byte...\n      PUSH 20\t\t\twapping during copying to byte...\n      DUP3 \t\t\twapping during copying to byte...\n      ADD \t\t\twapping during copying to byte...\n      SWAP2 \t\t\twapping during copying to byte...\n      POP \t\t\twapping during copying to byte...\n      PUSH 20\t\t\twapping during copying to byte...\n      DUP2 \t\t\twapping during copying to byte...\n      ADD \t\t\twapping during copying to byte...\n      SWAP1 \t\t\twapping during copying to byte...\n      POP \t\t\twapping during copying to byte...\n      PUSH 20\t\t\twapping during copying to byte...\n      DUP4 \t\t\twapping during copying to byte...\n      SUB \t\t\twapping during copying to byte...\n      SWAP3 \t\t\twapping during copying to byte...\n      POP \t\t\twapping during copying to byte...\n      PUSH [tag] 87\t\t\twapping during copying to byte...\n      JUMP \t\t\twapping during copying to byte...\n    tag 89\t\t\twapping during copying to byte...\n      JUMPDEST \t\t\twapping during copying to byte...\n      PUSH 1\t\t\twapping during copying to byte...\n      DUP4 \t\t\twapping during copying to byte...\n      PUSH 20\t\t\twapping during copying to byte...\n      SUB \t\t\twapping during copying to byte...\n      PUSH 100\t\t\twapping during copying to byte...\n      EXP \t\t\twapping during copying to byte...\n      SUB \t\t\twapping during copying to byte...\n      DUP1 \t\t\twapping during copying to byte...\n      NOT \t\t\twapping during copying to byte...\n      DUP3 \t\t\twapping during copying to byte...\n      MLOAD \t\t\twapping during copying to byte...\n      AND \t\t\twapping during copying to byte...\n      DUP2 \t\t\twapping during copying to byte...\n      DUP5 \t\t\twapping during copying to byte...\n      MLOAD \t\t\twapping during copying to byte...\n      AND \t\t\twapping during copying to byte...\n      DUP1 \t\t\twapping during copying to byte...\n      DUP3 \t\t\twapping during copying to byte...\n      OR \t\t\twapping during copying to byte...\n      DUP6 \t\t\twapping during copying to byte...\n      MSTORE \t\t\twapping during copying to byte...\n      POP \t\t\twapping during copying to byte...\n      POP \t\t\twapping during copying to byte...\n      POP \t\t\twapping during copying to byte...\n      POP \t\t\twapping during copying to byte...\n      POP \t\t\twapping during copying to byte...\n      POP \t\t\twapping during copying to byte...\n      SWAP1 \t\t\twapping during copying to byte...\n      POP \t\t\twapping during copying to byte...\n      ADD \t\t\twapping during copying to byte...\n      DUP4 \t\t\twapping during copying to byte...\n      PUSH FFFFFFFFFFFFFFFF\t\t\twapping during copying to byte...\n      NOT \t\t\twapping during copying to byte...\n      AND \t\t\twapping during copying to byte...\n      PUSH FFFFFFFFFFFFFFFF\t\t\twapping during copying to byte...\n      NOT \t\t\twapping during copying to byte...\n      AND \t\t\twapping during copying to byte...\n      DUP2 \t\t\twapping during copying to byte...\n      MSTORE \t\t\twapping during copying to byte...\n      PUSH 18\t\t\twapping during copying to byte...\n      ADD \t\t\twapping during copying to byte...\n      DUP3 \t\t\twapping during copying to byte...\n      DUP2 \t\t\twapping during copying to byte...\n      MSTORE \t\t\twapping during copying to byte...\n      PUSH 20\t\t\twapping during copying to byte...\n      ADD \t\t\twapping during copying to byte...\n      SWAP4 \t\t\twapping during copying to byte...\n      POP \t\t\twapping during copying to byte...\n      POP \t\t\twapping during copying to byte...\n      POP \t\t\twapping during copying to byte...\n      POP \t\t\twapping during copying to byte...\n      PUSH 40\t\t\twapping during copying to byte...\n      MLOAD \t\t\twapping during copying to byte...\n      PUSH 20\t\t\twapping during copying to byte...\n      DUP2 \t\t\twapping during copying to byte...\n      DUP4 \t\t\twapping during copying to byte...\n      SUB \t\t\twapping during copying to byte...\n      SUB \t\t\twapping during copying to byte...\n      DUP2 \t\t\twapping during copying to byte...\n      MSTORE \t\t\twapping during copying to byte...\n      SWAP1 \t\t\twapping during copying to byte...\n      PUSH 40\t\t\twapping during copying to byte...\n      MSTORE \t\t\twapping during copying to byte...\n      PUSH 40\t\t\t/ Byteswapping during copying ...\n      MLOAD \t\t\t/ Byteswapping during copying ...\n      DUP1 \t\t\t/ Byteswapping during copying ...\n      DUP3 \t\t\t/ Byteswapping during copying ...\n      DUP1 \t\t\t/ Byteswapping during copying ...\n      MLOAD \t\t\t/ Byteswapping during copying ...\n      SWAP1 \t\t\t/ Byteswapping during copying ...\n      PUSH 20\t\t\t/ Byteswapping during copying ...\n      ADD \t\t\t/ Byteswapping during copying ...\n      SWAP1 \t\t\t/ Byteswapping during copying ...\n      DUP1 \t\t\t/ Byteswapping during copying ...\n      DUP4 \t\t\t/ Byteswapping during copying ...\n      DUP4 \t\t\t/ Byteswapping during copying ...\n    tag 90\t\t\t/ Byteswapping during copying ...\n      JUMPDEST \t\t\t/ Byteswapping during copying ...\n      PUSH 20\t\t\t/ Byteswapping during copying ...\n      DUP4 \t\t\t/ Byteswapping during copying ...\n      LT \t\t\t/ Byteswapping during copying ...\n      PUSH [tag] 92\t\t\t/ Byteswapping during copying ...\n      JUMPI \t\t\t/ Byteswapping during copying ...\n      DUP1 \t\t\t/ Byteswapping during copying ...\n      MLOAD \t\t\t/ Byteswapping during copying ...\n      DUP3 \t\t\t/ Byteswapping during copying ...\n      MSTORE \t\t\t/ Byteswapping during copying ...\n      PUSH 20\t\t\t/ Byteswapping during copying ...\n      DUP3 \t\t\t/ Byteswapping during copying ...\n      ADD \t\t\t/ Byteswapping during copying ...\n      SWAP2 \t\t\t/ Byteswapping during copying ...\n      POP \t\t\t/ Byteswapping during copying ...\n      PUSH 20\t\t\t/ Byteswapping during copying ...\n      DUP2 \t\t\t/ Byteswapping during copying ...\n      ADD \t\t\t/ Byteswapping during copying ...\n      SWAP1 \t\t\t/ Byteswapping during copying ...\n      POP \t\t\t/ Byteswapping during copying ...\n      PUSH 20\t\t\t/ Byteswapping during copying ...\n      DUP4 \t\t\t/ Byteswapping during copying ...\n      SUB \t\t\t/ Byteswapping during copying ...\n      SWAP3 \t\t\t/ Byteswapping during copying ...\n      POP \t\t\t/ Byteswapping during copying ...\n      PUSH [tag] 90\t\t\t/ Byteswapping during copying ...\n      JUMP \t\t\t/ Byteswapping during copying ...\n    tag 92\t\t\t/ Byteswapping during copying ...\n      JUMPDEST \t\t\t/ Byteswapping during copying ...\n      PUSH 1\t\t\t/ Byteswapping during copying ...\n      DUP4 \t\t\t/ Byteswapping during copying ...\n      PUSH 20\t\t\t/ Byteswapping during copying ...\n      SUB \t\t\t/ Byteswapping during copying ...\n      PUSH 100\t\t\t/ Byteswapping during copying ...\n      EXP \t\t\t/ Byteswapping during copying ...\n      SUB \t\t\t/ Byteswapping during copying ...\n      DUP1 \t\t\t/ Byteswapping during copying ...\n      NOT \t\t\t/ Byteswapping during copying ...\n      DUP3 \t\t\t/ Byteswapping during copying ...\n      MLOAD \t\t\t/ Byteswapping during copying ...\n      AND \t\t\t/ Byteswapping during copying ...\n      DUP2 \t\t\t/ Byteswapping during copying ...\n      DUP5 \t\t\t/ Byteswapping during copying ...\n      MLOAD \t\t\t/ Byteswapping during copying ...\n      AND \t\t\t/ Byteswapping during copying ...\n      DUP1 \t\t\t/ Byteswapping during copying ...\n      DUP3 \t\t\t/ Byteswapping during copying ...\n      OR \t\t\t/ Byteswapping during copying ...\n      DUP6 \t\t\t/ Byteswapping during copying ...\n      MSTORE \t\t\t/ Byteswapping during copying ...\n      POP \t\t\t/ Byteswapping during copying ...\n      POP \t\t\t/ Byteswapping during copying ...\n      POP \t\t\t/ Byteswapping during copying ...\n      POP \t\t\t/ Byteswapping during copying ...\n      POP \t\t\t/ Byteswapping during copying ...\n      POP \t\t\t/ Byteswapping during copying ...\n      SWAP1 \t\t\t/ Byteswapping during copying ...\n      POP \t\t\t/ Byteswapping during copying ...\n      ADD \t\t\t/ Byteswapping during copying ...\n      SWAP2 \t\t\t/ Byteswapping during copying ...\n      POP \t\t\t/ Byteswapping during copying ...\n      POP \t\t\t/ Byteswapping during copying ...\n      PUSH 20\t\t\t/ Byteswapping during copying ...\n      PUSH 40\t\t\t/ Byteswapping during copying ...\n      MLOAD \t\t\t/ Byteswapping during copying ...\n      DUP1 \t\t\t/ Byteswapping during copying ...\n      DUP4 \t\t\t/ Byteswapping during copying ...\n      SUB \t\t\t/ Byteswapping during copying ...\n      DUP2 \t\t\t/ Byteswapping during copying ...\n      DUP6 \t\t\t/ Byteswapping during copying ...\n      GAS \t\t\t/ Byteswapping during copying ...\n      STATICCALL \t\t\t/ Byteswapping during copying ...\n      ISZERO \t\t\t/ Byteswapping during copying ...\n      DUP1 \t\t\t/ Byteswapping during copying ...\n      ISZERO \t\t\t/ Byteswapping during copying ...\n      PUSH [tag] 94\t\t\t/ Byteswapping during copying ...\n      JUMPI \t\t\t/ Byteswapping during copying ...\n      RETURNDATASIZE \t\t\t/ Byteswapping during copying ...\n      PUSH 0\t\t\t/ Byteswapping during copying ...\n      DUP1 \t\t\t/ Byteswapping during copying ...\n      RETURNDATACOPY \t\t\t/ Byteswapping during copying ...\n      RETURNDATASIZE \t\t\t/ Byteswapping during copying ...\n      PUSH 0\t\t\t/ Byteswapping during copying ...\n      REVERT \t\t\t/ Byteswapping during copying ...\n    tag 94\t\t\t/ Byteswapping during copying ...\n      JUMPDEST \t\t\t/ Byteswapping during copying ...\n      POP \t\t\t/ Byteswapping during copying ...\n      POP \t\t\t/ Byteswapping during copying ...\n      POP \t\t\t/ Byteswapping during copying ...\n      PUSH 40\t\t\t/ Byteswapping during copying ...\n      MLOAD \t\t\t/ Byteswapping during copying ...\n      RETURNDATASIZE \t\t\t/ Byteswapping during copying ...\n      PUSH 20\t\t\t/ Byteswapping during copying ...\n      DUP2 \t\t\t/ Byteswapping during copying ...\n      LT \t\t\t/ Byteswapping during copying ...\n      ISZERO \t\t\t/ Byteswapping during copying ...\n      PUSH [tag] 95\t\t\t/ Byteswapping during copying ...\n      JUMPI \t\t\t/ Byteswapping during copying ...\n      PUSH 0\t\t\t/ Byteswapping during copying ...\n      DUP1 \t\t\t/ Byteswapping during copying ...\n      REVERT \t\t\t/ Byteswapping during copying ...\n    tag 95\t\t\t/ Byteswapping during copying ...\n      JUMPDEST \t\t\t/ Byteswapping during copying ...\n      DUP2 \t\t\t/ Byteswapping during copying ...\n      ADD \t\t\t/ Byteswapping during copying ...\n      SWAP1 \t\t\t/ Byteswapping during copying ...\n      DUP1 \t\t\t/ Byteswapping during copying ...\n      DUP1 \t\t\t/ Byteswapping during copying ...\n      MLOAD \t\t\t/ Byteswapping during copying ...\n      SWAP1 \t\t\t/ Byteswapping during copying ...\n      PUSH 20\t\t\t/ Byteswapping during copying ...\n      ADD \t\t\t/ Byteswapping during copying ...\n      SWAP1 \t\t\t/ Byteswapping during copying ...\n      SWAP3 \t\t\t/ Byteswapping during copying ...\n      SWAP2 \t\t\t/ Byteswapping during copying ...\n      SWAP1 \t\t\t/ Byteswapping during copying ...\n      POP \t\t\t/ Byteswapping during copying ...\n      POP \t\t\t/ Byteswapping during copying ...\n      POP \t\t\t/ Byteswapping during copying ...\n      PUSH 40\t\t\tns (bytes memory ret) {\\r\\n   ...\n      MLOAD \t\t\tns (bytes memory ret) {\\r\\n   ...\n      PUSH 20\t\t\tns (bytes memory ret) {\\r\\n   ...\n      ADD \t\t\tns (bytes memory ret) {\\r\\n   ...\n      DUP1 \t\t\tns (bytes memory ret) {\\r\\n   ...\n      DUP4 \t\t\tns (bytes memory ret) {\\r\\n   ...\n      DUP2 \t\t\tns (bytes memory ret) {\\r\\n   ...\n      MSTORE \t\t\tns (bytes memory ret) {\\r\\n   ...\n      PUSH 20\t\t\tns (bytes memory ret) {\\r\\n   ...\n      ADD \t\t\tns (bytes memory ret) {\\r\\n   ...\n      DUP3 \t\t\tns (bytes memory ret) {\\r\\n   ...\n      DUP2 \t\t\tns (bytes memory ret) {\\r\\n   ...\n      MSTORE \t\t\tns (bytes memory ret) {\\r\\n   ...\n      PUSH 20\t\t\tns (bytes memory ret) {\\r\\n   ...\n      ADD \t\t\tns (bytes memory ret) {\\r\\n   ...\n      SWAP3 \t\t\tns (bytes memory ret) {\\r\\n   ...\n      POP \t\t\tns (bytes memory ret) {\\r\\n   ...\n      POP \t\t\tns (bytes memory ret) {\\r\\n   ...\n      POP \t\t\tns (bytes memory ret) {\\r\\n   ...\n      PUSH 40\t\t\tns (bytes memory ret) {\\r\\n   ...\n      MLOAD \t\t\tns (bytes memory ret) {\\r\\n   ...\n      PUSH 20\t\t\tns (bytes memory ret) {\\r\\n   ...\n      DUP2 \t\t\tns (bytes memory ret) {\\r\\n   ...\n      DUP4 \t\t\tns (bytes memory ret) {\\r\\n   ...\n      SUB \t\t\tns (bytes memory ret) {\\r\\n   ...\n      SUB \t\t\tns (bytes memory ret) {\\r\\n   ...\n      DUP2 \t\t\tns (bytes memory ret) {\\r\\n   ...\n      MSTORE \t\t\tns (bytes memory ret) {\\r\\n   ...\n      SWAP1 \t\t\tns (bytes memory ret) {\\r\\n   ...\n      PUSH 40\t\t\tns (bytes memory ret) {\\r\\n   ...\n      MSTORE \t\t\tns (bytes memory ret) {\\r\\n   ...\n      PUSH 40\t\t\te returns (bytes memory ret) {...\n      MLOAD \t\t\te returns (bytes memory ret) {...\n      DUP1 \t\t\te returns (bytes memory ret) {...\n      DUP3 \t\t\te returns (bytes memory ret) {...\n      DUP1 \t\t\te returns (bytes memory ret) {...\n      MLOAD \t\t\te returns (bytes memory ret) {...\n      SWAP1 \t\t\te returns (bytes memory ret) {...\n      PUSH 20\t\t\te returns (bytes memory ret) {...\n      ADD \t\t\te returns (bytes memory ret) {...\n      SWAP1 \t\t\te returns (bytes memory ret) {...\n      DUP1 \t\t\te returns (bytes memory ret) {...\n      DUP4 \t\t\te returns (bytes memory ret) {...\n      DUP4 \t\t\te returns (bytes memory ret) {...\n    tag 96\t\t\te returns (bytes memory ret) {...\n      JUMPDEST \t\t\te returns (bytes memory ret) {...\n      PUSH 20\t\t\te returns (bytes memory ret) {...\n      DUP4 \t\t\te returns (bytes memory ret) {...\n      LT \t\t\te returns (bytes memory ret) {...\n      PUSH [tag] 98\t\t\te returns (bytes memory ret) {...\n      JUMPI \t\t\te returns (bytes memory ret) {...\n      DUP1 \t\t\te returns (bytes memory ret) {...\n      MLOAD \t\t\te returns (bytes memory ret) {...\n      DUP3 \t\t\te returns (bytes memory ret) {...\n      MSTORE \t\t\te returns (bytes memory ret) {...\n      PUSH 20\t\t\te returns (bytes memory ret) {...\n      DUP3 \t\t\te returns (bytes memory ret) {...\n      ADD \t\t\te returns (bytes memory ret) {...\n      SWAP2 \t\t\te returns (bytes memory ret) {...\n      POP \t\t\te returns (bytes memory ret) {...\n      PUSH 20\t\t\te returns (bytes memory ret) {...\n      DUP2 \t\t\te returns (bytes memory ret) {...\n      ADD \t\t\te returns (bytes memory ret) {...\n      SWAP1 \t\t\te returns (bytes memory ret) {...\n      POP \t\t\te returns (bytes memory ret) {...\n      PUSH 20\t\t\te returns (bytes memory ret) {...\n      DUP4 \t\t\te returns (bytes memory ret) {...\n      SUB \t\t\te returns (bytes memory ret) {...\n      SWAP3 \t\t\te returns (bytes memory ret) {...\n      POP \t\t\te returns (bytes memory ret) {...\n      PUSH [tag] 96\t\t\te returns (bytes memory ret) {...\n      JUMP \t\t\te returns (bytes memory ret) {...\n    tag 98\t\t\te returns (bytes memory ret) {...\n      JUMPDEST \t\t\te returns (bytes memory ret) {...\n      PUSH 1\t\t\te returns (bytes memory ret) {...\n      DUP4 \t\t\te returns (bytes memory ret) {...\n      PUSH 20\t\t\te returns (bytes memory ret) {...\n      SUB \t\t\te returns (bytes memory ret) {...\n      PUSH 100\t\t\te returns (bytes memory ret) {...\n      EXP \t\t\te returns (bytes memory ret) {...\n      SUB \t\t\te returns (bytes memory ret) {...\n      DUP1 \t\t\te returns (bytes memory ret) {...\n      NOT \t\t\te returns (bytes memory ret) {...\n      DUP3 \t\t\te returns (bytes memory ret) {...\n      MLOAD \t\t\te returns (bytes memory ret) {...\n      AND \t\t\te returns (bytes memory ret) {...\n      DUP2 \t\t\te returns (bytes memory ret) {...\n      DUP5 \t\t\te returns (bytes memory ret) {...\n      MLOAD \t\t\te returns (bytes memory ret) {...\n      AND \t\t\te returns (bytes memory ret) {...\n      DUP1 \t\t\te returns (bytes memory ret) {...\n      DUP3 \t\t\te returns (bytes memory ret) {...\n      OR \t\t\te returns (bytes memory ret) {...\n      DUP6 \t\t\te returns (bytes memory ret) {...\n      MSTORE \t\t\te returns (bytes memory ret) {...\n      POP \t\t\te returns (bytes memory ret) {...\n      POP \t\t\te returns (bytes memory ret) {...\n      POP \t\t\te returns (bytes memory ret) {...\n      POP \t\t\te returns (bytes memory ret) {...\n      POP \t\t\te returns (bytes memory ret) {...\n      POP \t\t\te returns (bytes memory ret) {...\n      SWAP1 \t\t\te returns (bytes memory ret) {...\n      POP \t\t\te returns (bytes memory ret) {...\n      ADD \t\t\te returns (bytes memory ret) {...\n      SWAP2 \t\t\te returns (bytes memory ret) {...\n      POP \t\t\te returns (bytes memory ret) {...\n      POP \t\t\te returns (bytes memory ret) {...\n      PUSH 20\t\t\te returns (bytes memory ret) {...\n      PUSH 40\t\t\te returns (bytes memory ret) {...\n      MLOAD \t\t\te returns (bytes memory ret) {...\n      DUP1 \t\t\te returns (bytes memory ret) {...\n      DUP4 \t\t\te returns (bytes memory ret) {...\n      SUB \t\t\te returns (bytes memory ret) {...\n      DUP2 \t\t\te returns (bytes memory ret) {...\n      DUP6 \t\t\te returns (bytes memory ret) {...\n      GAS \t\t\te returns (bytes memory ret) {...\n      STATICCALL \t\t\te returns (bytes memory ret) {...\n      ISZERO \t\t\te returns (bytes memory ret) {...\n      DUP1 \t\t\te returns (bytes memory ret) {...\n      ISZERO \t\t\te returns (bytes memory ret) {...\n      PUSH [tag] 100\t\t\te returns (bytes memory ret) {...\n      JUMPI \t\t\te returns (bytes memory ret) {...\n      RETURNDATASIZE \t\t\te returns (bytes memory ret) {...\n      PUSH 0\t\t\te returns (bytes memory ret) {...\n      DUP1 \t\t\te returns (bytes memory ret) {...\n      RETURNDATACOPY \t\t\te returns (bytes memory ret) {...\n      RETURNDATASIZE \t\t\te returns (bytes memory ret) {...\n      PUSH 0\t\t\te returns (bytes memory ret) {...\n      REVERT \t\t\te returns (bytes memory ret) {...\n    tag 100\t\t\te returns (bytes memory ret) {...\n      JUMPDEST \t\t\te returns (bytes memory ret) {...\n      POP \t\t\te returns (bytes memory ret) {...\n      POP \t\t\te returns (bytes memory ret) {...\n      POP \t\t\te returns (bytes memory ret) {...\n      PUSH 40\t\t\te returns (bytes memory ret) {...\n      MLOAD \t\t\te returns (bytes memory ret) {...\n      RETURNDATASIZE \t\t\te returns (bytes memory ret) {...\n      PUSH 20\t\t\te returns (bytes memory ret) {...\n      DUP2 \t\t\te returns (bytes memory ret) {...\n      LT \t\t\te returns (bytes memory ret) {...\n      ISZERO \t\t\te returns (bytes memory ret) {...\n      PUSH [tag] 101\t\t\te returns (bytes memory ret) {...\n      JUMPI \t\t\te returns (bytes memory ret) {...\n      PUSH 0\t\t\te returns (bytes memory ret) {...\n      DUP1 \t\t\te returns (bytes memory ret) {...\n      REVERT \t\t\te returns (bytes memory ret) {...\n    tag 101\t\t\te returns (bytes memory ret) {...\n      JUMPDEST \t\t\te returns (bytes memory ret) {...\n      DUP2 \t\t\te returns (bytes memory ret) {...\n      ADD \t\t\te returns (bytes memory ret) {...\n      SWAP1 \t\t\te returns (bytes memory ret) {...\n      DUP1 \t\t\te returns (bytes memory ret) {...\n      DUP1 \t\t\te returns (bytes memory ret) {...\n      MLOAD \t\t\te returns (bytes memory ret) {...\n      SWAP1 \t\t\te returns (bytes memory ret) {...\n      PUSH 20\t\t\te returns (bytes memory ret) {...\n      ADD \t\t\te returns (bytes memory ret) {...\n      SWAP1 \t\t\te returns (bytes memory ret) {...\n      SWAP3 \t\t\te returns (bytes memory ret) {...\n      SWAP2 \t\t\te returns (bytes memory ret) {...\n      SWAP1 \t\t\te returns (bytes memory ret) {...\n      POP \t\t\te returns (bytes memory ret) {...\n      POP \t\t\te returns (bytes memory ret) {...\n      POP \t\t\te returns (bytes memory ret) {...\n      SWAP1 \t\t\te) internal pure returns (byte...\n      POP \t\t\te) internal pure returns (byte...\n      DUP6 \t\t\t[4];\\r\\n        ret\n      DUP2 \t\t\ttesV\n      EQ \t\t\ttesValue[4];\\r\\n        ret\n      PUSH [tag] 102\t\t\t[3] = bytesValue[4];\\r\\n      ...\n      JUMPI \t\t\t[3] = bytesValue[4];\\r\\n      ...\n      PUSH 40\t\t\t[3] = bytesValue[4];\\r\\n      ...\n      MLOAD \t\t\t[3] = bytesValue[4];\\r\\n      ...\n      PUSH 8C379A000000000000000000000000000000000000000000000000000000000\t\t\t[3] = bytesValue[4];\\r\\n      ...\n      DUP2 \t\t\t[3] = bytesValue[4];\\r\\n      ...\n      MSTORE \t\t\t[3] = bytesValue[4];\\r\\n      ...\n      PUSH 4\t\t\t[3] = bytesValue[4];\\r\\n      ...\n      ADD \t\t\t[3] = bytesValue[4];\\r\\n      ...\n      DUP1 \t\t\t[3] = bytesValue[4];\\r\\n      ...\n      DUP1 \t\t\t[3] = bytesValue[4];\\r\\n      ...\n      PUSH 20\t\t\t[3] = bytesValue[4];\\r\\n      ...\n      ADD \t\t\t[3] = bytesValue[4];\\r\\n      ...\n      DUP3 \t\t\t[3] = bytesValue[4];\\r\\n      ...\n      DUP2 \t\t\t[3] = bytesValue[4];\\r\\n      ...\n      SUB \t\t\t[3] = bytesValue[4];\\r\\n      ...\n      DUP3 \t\t\t[3] = bytesValue[4];\\r\\n      ...\n      MSTORE \t\t\t[3] = bytesValue[4];\\r\\n      ...\n      PUSH 54\t\t\t[3] = bytesValue[4];\\r\\n      ...\n      DUP2 \t\t\t[3] = bytesValue[4];\\r\\n      ...\n      MSTORE \t\t\t[3] = bytesValue[4];\\r\\n      ...\n      PUSH 20\t\t\t[3] = bytesValue[4];\\r\\n      ...\n      ADD \t\t\t[3] = bytesValue[4];\\r\\n      ...\n      DUP1 \t\t\t[3] = bytesValue[4];\\r\\n      ...\n      PUSH data 18A67971568B2DBAD4353DFDC385098CC004C2A5070A439E010BB919D851BABB\t\t\t[3] = bytesValue[4];\\r\\n      ...\n      PUSH 54\t\t\t[3] = bytesValue[4];\\r\\n      ...\n      SWAP2 \t\t\t[3] = bytesValue[4];\\r\\n      ...\n      CODECOPY \t\t\t[3] = bytesValue[4];\\r\\n      ...\n      PUSH 60\t\t\t[3] = bytesValue[4];\\r\\n      ...\n      ADD \t\t\t[3] = bytesValue[4];\\r\\n      ...\n      SWAP2 \t\t\t[3] = bytesValue[4];\\r\\n      ...\n      POP \t\t\t[3] = bytesValue[4];\\r\\n      ...\n      POP \t\t\t[3] = bytesValue[4];\\r\\n      ...\n      PUSH 40\t\t\t[3] = bytesValue[4];\\r\\n      ...\n      MLOAD \t\t\t[3] = bytesValue[4];\\r\\n      ...\n      DUP1 \t\t\t[3] = bytesValue[4];\\r\\n      ...\n      SWAP2 \t\t\t[3] = bytesValue[4];\\r\\n      ...\n      SUB \t\t\t[3] = bytesValue[4];\\r\\n      ...\n      SWAP1 \t\t\t[3] = bytesValue[4];\\r\\n      ...\n      REVERT \t\t\t[3] = bytesValue[4];\\r\\n      ...\n    tag 102\t\t\t[3] = bytesValue[4];\\r\\n      ...\n      JUMPDEST \t\t\t[3] = bytesValue[4];\\r\\n      ...\n      PUSH 1\t\t\te\n      PUSH 20\t\t\t32\n      PUSH 2\t\t\ts\n      EXP \t\t\ts are used.\\r\\n        require...\n      SUB \t\t\ts are used.\\r\\n        require...\n      PUSH 20\t\t\t\n      SLOAD \t\t\t\n      LT \t\t\t\n      PUSH [tag] 103\t\t\t\n      JUMPI \t\t\t\n      PUSH 40\t\t\t\n      MLOAD \t\t\t\n      PUSH 8C379A000000000000000000000000000000000000000000000000000000000\t\t\t\n      DUP2 \t\t\t\n      MSTORE \t\t\t\n      PUSH 4\t\t\t\n      ADD \t\t\t\n      DUP1 \t\t\t\n      DUP1 \t\t\t\n      PUSH 20\t\t\t\n      ADD \t\t\t\n      DUP3 \t\t\t\n      DUP2 \t\t\t\n      SUB \t\t\t\n      DUP3 \t\t\t\n      MSTORE \t\t\t\n      PUSH 21\t\t\t\n      DUP2 \t\t\t\n      MSTORE \t\t\t\n      PUSH 20\t\t\t\n      ADD \t\t\t\n      DUP1 \t\t\t\n      PUSH data 122AA4BCAC592FD535CB6D2558EBBF28083CD32A46AD577D847EA313CD3A6BE7\t\t\t\n      PUSH 21\t\t\t\n      SWAP2 \t\t\t\n      CODECOPY \t\t\t\n      PUSH 40\t\t\t\n      ADD \t\t\t\n      SWAP2 \t\t\t\n      POP \t\t\t\n      POP \t\t\t\n      PUSH 40\t\t\t\n      MLOAD \t\t\t\n      DUP1 \t\t\t\n      SWAP2 \t\t\t\n      SUB \t\t\t\n      SWAP1 \t\t\t\n      REVERT \t\t\t\n    tag 103\t\t\t\n      JUMPDEST \t\t\t\n      PUSH 1\t\t\t\n      PUSH 20\t\t\t\n      PUSH 0\t\t\t\n      DUP3 \t\t\t\n      DUP3 \t\t\t\n      SLOAD \t\t\t\n      ADD \t\t\t\n      SWAP3 \t\t\t\n      POP \t\t\t\n      POP \t\t\t\n      DUP2 \t\t\t\n      SWAP1 \t\t\t\n      SSTORE \t\t\t\n      POP \t\t\t\n      PUSH 0\t\t\t\n      PUSH 20\t\t\t\n      SLOAD \t\t\t\n      SWAP1 \t\t\t\n      POP \t\t\t\n      PUSH 0\t\t\t\n      DUP1 \t\t\t\n      SWAP1 \t\t\t\n      POP \t\t\t\n    tag 104\t\t\t\n      JUMPDEST \t\t\t\n      PUSH 20\t\t\t32\n      DUP2 \t\t\t\n      LT \t\t\t\n      ISZERO \t\t\t\n      PUSH [tag] 105\t\t\t\n      JUMPI \t\t\t\n      PUSH 1\t\t\t\n      DUP1 \t\t\t\n      DUP4 \t\t\t\n      AND \t\t\t\n      EQ \t\t\t\n      ISZERO \t\t\t\n      PUSH [tag] 107\t\t\t\n      JUMPI \t\t\t\n      DUP3 \t\t\t\n      PUSH 0\t\t\t\n      DUP3 \t\t\t\n      PUSH 20\t\t\t\n      DUP2 \t\t\t\n      LT \t\t\t\n      PUSH [tag] 108\t\t\t\n      JUMPI \t\t\t\n      INVALID \t\t\t\n    tag 108\t\t\t\n      JUMPDEST \t\t\t\n      ADD \t\t\t\n      DUP2 \t\t\t\n      SWAP1 \t\t\t\n      SSTORE \t\t\t\n      POP \t\t\t\n      POP \t\t\t\n      POP \t\t\t\n      POP \t\t\t\n      POP \t\t\t\n      POP \t\t\t\n      POP \t\t\t\n      POP \t\t\t\n      PUSH [tag] 34\t\t\t\n      JUMP \t\t\t\n    tag 107\t\t\t\n      JUMPDEST \t\t\t\n      PUSH 2\t\t\t\n      PUSH 0\t\t\t\n      DUP3 \t\t\t\n      PUSH 20\t\t\t\n      DUP2 \t\t\t\n      LT \t\t\t\n      PUSH [tag] 110\t\t\t\n      JUMPI \t\t\t\n      INVALID \t\t\t\n    tag 110\t\t\t\n      JUMPDEST \t\t\t\n      ADD \t\t\t\n      SLOAD \t\t\t\n      DUP5 \t\t\t\n      PUSH 40\t\t\t\n      MLOAD \t\t\t\n      PUSH 20\t\t\t\n      ADD \t\t\t\n      DUP1 \t\t\t\n      DUP4 \t\t\t\n      DUP2 \t\t\t\n      MSTORE \t\t\t\n      PUSH 20\t\t\t\n      ADD \t\t\t\n      DUP3 \t\t\t\n      DUP2 \t\t\t\n      MSTORE \t\t\t\n      PUSH 20\t\t\t\n      ADD \t\t\t\n      SWAP3 \t\t\t\n      POP \t\t\t\n      POP \t\t\t\n      POP \t\t\t\n      PUSH 40\t\t\t\n      MLOAD \t\t\t\n      PUSH 20\t\t\t\n      DUP2 \t\t\t\n      DUP4 \t\t\t\n      SUB \t\t\t\n      SUB \t\t\t\n      DUP2 \t\t\t\n      MSTORE \t\t\t\n      SWAP1 \t\t\t\n      PUSH 40\t\t\t\n      MSTORE \t\t\t\n      PUSH 40\t\t\t\n      MLOAD \t\t\t\n      DUP1 \t\t\t\n      DUP3 \t\t\t\n      DUP1 \t\t\t\n      MLOAD \t\t\t\n      SWAP1 \t\t\t\n      PUSH 20\t\t\t\n      ADD \t\t\t\n      SWAP1 \t\t\t\n      DUP1 \t\t\t\n      DUP4 \t\t\t\n      DUP4 \t\t\t\n    tag 112\t\t\t\n      JUMPDEST \t\t\t\n      PUSH 20\t\t\t\n      DUP4 \t\t\t\n      LT \t\t\t\n      PUSH [tag] 114\t\t\t\n      JUMPI \t\t\t\n      DUP1 \t\t\t\n      MLOAD \t\t\t\n      DUP3 \t\t\t\n      MSTORE \t\t\t\n      PUSH 20\t\t\t\n      DUP3 \t\t\t\n      ADD \t\t\t\n      SWAP2 \t\t\t\n      POP \t\t\t\n      PUSH 20\t\t\t\n      DUP2 \t\t\t\n      ADD \t\t\t\n      SWAP1 \t\t\t\n      POP \t\t\t\n      PUSH 20\t\t\t\n      DUP4 \t\t\t\n      SUB \t\t\t\n      SWAP3 \t\t\t\n      POP \t\t\t\n      PUSH [tag] 112\t\t\t\n      JUMP \t\t\t\n    tag 114\t\t\t\n      JUMPDEST \t\t\t\n      PUSH 1\t\t\t\n      DUP4 \t\t\t\n      PUSH 20\t\t\t\n      SUB \t\t\t\n      PUSH 100\t\t\t\n      EXP \t\t\t\n      SUB \t\t\t\n      DUP1 \t\t\t\n      NOT \t\t\t\n      DUP3 \t\t\t\n      MLOAD \t\t\t\n      AND \t\t\t\n      DUP2 \t\t\t\n      DUP5 \t\t\t\n      MLOAD \t\t\t\n      AND \t\t\t\n      DUP1 \t\t\t\n      DUP3 \t\t\t\n      OR \t\t\t\n      DUP6 \t\t\t\n      MSTORE \t\t\t\n      POP \t\t\t\n      POP \t\t\t\n      POP \t\t\t\n      POP \t\t\t\n      POP \t\t\t\n      POP \t\t\t\n      SWAP1 \t\t\t\n      POP \t\t\t\n      ADD \t\t\t\n      SWAP2 \t\t\t\n      POP \t\t\t\n      POP \t\t\t\n      PUSH 20\t\t\t\n      PUSH 40\t\t\t\n      MLOAD \t\t\t\n      DUP1 \t\t\t\n      DUP4 \t\t\t\n      SUB \t\t\t\n      DUP2 \t\t\t\n      DUP6 \t\t\t\n      GAS \t\t\t\n      STATICCALL \t\t\t\n      ISZERO \t\t\t\n      DUP1 \t\t\t\n      ISZERO \t\t\t\n      PUSH [tag] 116\t\t\t\n      JUMPI \t\t\t\n      RETURNDATASIZE \t\t\t\n      PUSH 0\t\t\t\n      DUP1 \t\t\t\n      RETURNDATACOPY \t\t\t\n      RETURNDATASIZE \t\t\t\n      PUSH 0\t\t\t\n      REVERT \t\t\t\n    tag 116\t\t\t\n      JUMPDEST \t\t\t\n      POP \t\t\t\n      POP \t\t\t\n      POP \t\t\t\n      PUSH 40\t\t\t\n      MLOAD \t\t\t\n      RETURNDATASIZE \t\t\t\n      PUSH 20\t\t\t\n      DUP2 \t\t\t\n      LT \t\t\t\n      ISZERO \t\t\t\n      PUSH [tag] 117\t\t\t\n      JUMPI \t\t\t\n      PUSH 0\t\t\t\n      DUP1 \t\t\t\n      REVERT \t\t\t\n    tag 117\t\t\t\n      JUMPDEST \t\t\t\n      DUP2 \t\t\t\n      ADD \t\t\t\n      SWAP1 \t\t\t\n      DUP1 \t\t\t\n      DUP1 \t\t\t\n      MLOAD \t\t\t\n      SWAP1 \t\t\t\n      PUSH 20\t\t\t\n      ADD \t\t\t\n      SWAP1 \t\t\t\n      SWAP3 \t\t\t\n      SWAP2 \t\t\t\n      SWAP1 \t\t\t\n      POP \t\t\t\n      POP \t\t\t\n      POP \t\t\t\n      SWAP3 \t\t\t\n      POP \t\t\t\n      PUSH 2\t\t\t\n      DUP3 \t\t\t\n      DUP2 \t\t\t\n      PUSH [tag] 118\t\t\t\n      JUMPI \t\t\t\n      INVALID \t\t\t\n    tag 118\t\t\t\n      JUMPDEST \t\t\t\n      DIV \t\t\t\n      SWAP2 \t\t\t\n      POP \t\t\t\n      DUP1 \t\t\t\n      DUP1 \t\t\t\n      PUSH 1\t\t\t\n      ADD \t\t\t\n      SWAP2 \t\t\t\n      POP \t\t\t\n      POP \t\t\t\n      PUSH [tag] 104\t\t\t\n      JUMP \t\t\t\n    tag 105\t\t\t\n      JUMPDEST \t\t\t\n      POP \t\t\t\n      PUSH 0\t\t\t\n      PUSH [tag] 119\t\t\t\n      JUMPI \t\t\t\n      INVALID \t\t\t\n    tag 119\t\t\t\n      JUMPDEST \t\t\t\n      POP \t\t\t),\\r\\n            sha256(abi.e...\n      POP \t\t\t),\\r\\n            sha256(abi.e...\n      POP \t\t\t),\\r\\n            sha256(abi.e...\n      POP \t\t\t),\\r\\n            sha256(abi.e...\n      POP \t\t\t),\\r\\n            sha256(abi.e...\n      POP \t\t\t),\\r\\n            sha256(abi.e...\n    tag 34\t\t\t),\\r\\n            sha256(abi.e...\n      JUMPDEST \t\t\t),\\r\\n            sha256(abi.e...\n      POP \t\t\t),\\r\\n            sha256(abi.e...\n      POP \t\t\t),\\r\\n            sha256(abi.e...\n      POP \t\t\t),\\r\\n            sha256(abi.e...\n      POP \t\t\t),\\r\\n            sha256(abi.e...\n      POP \t\t\t),\\r\\n            sha256(abi.e...\n      POP \t\t\t),\\r\\n            sha256(abi.e...\n      POP \t\t\t),\\r\\n            sha256(abi.e...\n      JUMP [out]\t\t\t),\\r\\n            sha256(abi.e...\n    tag 24\t\t\t(abi.encodePacked(pubkey, byte...\n      JUMPDEST \t\t\t(abi.encodePacked(pubkey, byte...\n      PUSH 60\t\t\tature_root =\n      PUSH [tag] 121\t\t\tcked(\\r\\n            sha256(ab...\n      PUSH 20\t\t\tbi.encodePack\n      SLOAD \t\t\tbi.encodePack\n      PUSH [tag] 44\t\t\tcked(\\r\\n            \n      JUMP [in]\t\t\tcked(\\r\\n            sha256(ab...\n    tag 121\t\t\tcked(\\r\\n            sha256(ab...\n      JUMPDEST \t\t\tcked(\\r\\n            sha256(ab...\n      SWAP1 \t\t\tncodePacked(\\r\\n            sh...\n      POP \t\t\tncodePacked(\\r\\n            sh...\n      SWAP1 \t\t\t(abi.encodePacked(pubkey, byte...\n      JUMP [out]\t\t\t(abi.encodePacked(pubkey, byte...\n    tag 31\t\t\tntract: deposit value not mult...\n      JUMPDEST \t\t\tntract: deposit value not mult...\n      PUSH 0\t\t\tdeposit\n      DUP1 \t\t\t.value / 1 g\n      PUSH 0\t\t\t   requir\n      PUSH 20\t\t\teposit_amount\n      SLOAD \t\t\teposit_amount\n      SWAP1 \t\t\t   require(deposit_amount\n      POP \t\t\t   require(deposit_amount\n      PUSH 0\t\t\t.max, \"Depo\n      DUP1 \t\t\tC\n      SWAP1 \t\t\t.max, \"DepositC\n      POP \t\t\t.max, \"DepositC\n    tag 123\t\t\tnt64).max, \"DepositContract: d...\n      JUMPDEST \t\t\tnt64).max, \"DepositContract: d...\n      PUSH 20\t\t\t32\n      DUP2 \t\t\ttract:\n      LT \t\t\ttract: deposit value too high\"...\n      ISZERO \t\t\tnt64).max, \"DepositContract: d...\n      PUSH [tag] 124\t\t\tnt64).max, \"DepositContract: d...\n      JUMPI \t\t\tnt64).max, \"DepositContract: d...\n      PUSH 1\t\t\ty\n      DUP1 \t\t\t \n      DUP4 \t\t\tog\\r\\n\n      AND \t\t\tog\\r\\n    \n      EQ \t\t\tlog\\r\\n        by\n      ISZERO \t\t\tnt` log\\r\\n        bytes memor...\n      PUSH [tag] 126\t\t\tnt` log\\r\\n        bytes memor...\n      JUMPI \t\t\tnt` log\\r\\n        bytes memor...\n      PUSH 2\t\t\ttle_endian_64(uint64(deposit_a...\n      PUSH 0\t\t\tosit_a\n      DUP3 \t\t\tount))\n      PUSH 20\t\t\tosit_amount));\n      DUP2 \t\t\tosit_amount));\n      LT \t\t\tosit_amount));\n      PUSH [tag] 127\t\t\tosit_amount));\n      JUMPI \t\t\tosit_amount));\n      INVALID \t\t\tosit_amount));\n    tag 127\t\t\tosit_amount));\n      JUMPDEST \t\t\tosit_amount));\n      ADD \t\t\tosit_amount));\n      SLOAD \t\t\tosit_amount));\n      DUP5 \t\t\t    \n      PUSH 40\t\t\tian_64(uint64(deposit_amount))...\n      MLOAD \t\t\tian_64(uint64(deposit_amount))...\n      PUSH 20\t\t\tian_64(uint64(deposit_amount))...\n      ADD \t\t\tian_64(uint64(deposit_amount))...\n      DUP1 \t\t\tian_64(uint64(deposit_amount))...\n      DUP4 \t\t\tian_64(uint64(deposit_amount))...\n      DUP2 \t\t\tian_64(uint64(deposit_amount))...\n      MSTORE \t\t\tian_64(uint64(deposit_amount))...\n      PUSH 20\t\t\tian_64(uint64(deposit_amount))...\n      ADD \t\t\tian_64(uint64(deposit_amount))...\n      DUP3 \t\t\tian_64(uint64(deposit_amount))...\n      DUP2 \t\t\tian_64(uint64(deposit_amount))...\n      MSTORE \t\t\tian_64(uint64(deposit_amount))...\n      PUSH 20\t\t\tian_64(uint64(deposit_amount))...\n      ADD \t\t\tian_64(uint64(deposit_amount))...\n      SWAP3 \t\t\tian_64(uint64(deposit_amount))...\n      POP \t\t\tian_64(uint64(deposit_amount))...\n      POP \t\t\tian_64(uint64(deposit_amount))...\n      POP \t\t\tian_64(uint64(deposit_amount))...\n      PUSH 40\t\t\tian_64(uint64(deposit_amount))...\n      MLOAD \t\t\tian_64(uint64(deposit_amount))...\n      PUSH 20\t\t\tian_64(uint64(deposit_amount))...\n      DUP2 \t\t\tian_64(uint64(deposit_amount))...\n      DUP4 \t\t\tian_64(uint64(deposit_amount))...\n      SUB \t\t\tian_64(uint64(deposit_amount))...\n      SUB \t\t\tian_64(uint64(deposit_amount))...\n      DUP2 \t\t\tian_64(uint64(deposit_amount))...\n      MSTORE \t\t\tian_64(uint64(deposit_amount))...\n      SWAP1 \t\t\tian_64(uint64(deposit_amount))...\n      PUSH 40\t\t\tian_64(uint64(deposit_amount))...\n      MSTORE \t\t\tian_64(uint64(deposit_amount))...\n      PUSH 40\t\t\ttle_endian_64(uint64(deposit_a...\n      MLOAD \t\t\ttle_endian_64(uint64(deposit_a...\n      DUP1 \t\t\ttle_endian_64(uint64(deposit_a...\n      DUP3 \t\t\ttle_endian_64(uint64(deposit_a...\n      DUP1 \t\t\ttle_endian_64(uint64(deposit_a...\n      MLOAD \t\t\ttle_endian_64(uint64(deposit_a...\n      SWAP1 \t\t\ttle_endian_64(uint64(deposit_a...\n      PUSH 20\t\t\ttle_endian_64(uint64(deposit_a...\n      ADD \t\t\ttle_endian_64(uint64(deposit_a...\n      SWAP1 \t\t\ttle_endian_64(uint64(deposit_a...\n      DUP1 \t\t\ttle_endian_64(uint64(deposit_a...\n      DUP4 \t\t\ttle_endian_64(uint64(deposit_a...\n      DUP4 \t\t\ttle_endian_64(uint64(deposit_a...\n    tag 129\t\t\ttle_endian_64(uint64(deposit_a...\n      JUMPDEST \t\t\ttle_endian_64(uint64(deposit_a...\n      PUSH 20\t\t\ttle_endian_64(uint64(deposit_a...\n      DUP4 \t\t\ttle_endian_64(uint64(deposit_a...\n      LT \t\t\ttle_endian_64(uint64(deposit_a...\n      PUSH [tag] 131\t\t\ttle_endian_64(uint64(deposit_a...\n      JUMPI \t\t\ttle_endian_64(uint64(deposit_a...\n      DUP1 \t\t\ttle_endian_64(uint64(deposit_a...\n      MLOAD \t\t\ttle_endian_64(uint64(deposit_a...\n      DUP3 \t\t\ttle_endian_64(uint64(deposit_a...\n      MSTORE \t\t\ttle_endian_64(uint64(deposit_a...\n      PUSH 20\t\t\ttle_endian_64(uint64(deposit_a...\n      DUP3 \t\t\ttle_endian_64(uint64(deposit_a...\n      ADD \t\t\ttle_endian_64(uint64(deposit_a...\n      SWAP2 \t\t\ttle_endian_64(uint64(deposit_a...\n      POP \t\t\ttle_endian_64(uint64(deposit_a...\n      PUSH 20\t\t\ttle_endian_64(uint64(deposit_a...\n      DUP2 \t\t\ttle_endian_64(uint64(deposit_a...\n      ADD \t\t\ttle_endian_64(uint64(deposit_a...\n      SWAP1 \t\t\ttle_endian_64(uint64(deposit_a...\n      POP \t\t\ttle_endian_64(uint64(deposit_a...\n      PUSH 20\t\t\ttle_endian_64(uint64(deposit_a...\n      DUP4 \t\t\ttle_endian_64(uint64(deposit_a...\n      SUB \t\t\ttle_endian_64(uint64(deposit_a...\n      SWAP3 \t\t\ttle_endian_64(uint64(deposit_a...\n      POP \t\t\ttle_endian_64(uint64(deposit_a...\n      PUSH [tag] 129\t\t\ttle_endian_64(uint64(deposit_a...\n      JUMP \t\t\ttle_endian_64(uint64(deposit_a...\n    tag 131\t\t\ttle_endian_64(uint64(deposit_a...\n      JUMPDEST \t\t\ttle_endian_64(uint64(deposit_a...\n      PUSH 1\t\t\ttle_endian_64(uint64(deposit_a...\n      DUP4 \t\t\ttle_endian_64(uint64(deposit_a...\n      PUSH 20\t\t\ttle_endian_64(uint64(deposit_a...\n      SUB \t\t\ttle_endian_64(uint64(deposit_a...\n      PUSH 100\t\t\ttle_endian_64(uint64(deposit_a...\n      EXP \t\t\ttle_endian_64(uint64(deposit_a...\n      SUB \t\t\ttle_endian_64(uint64(deposit_a...\n      DUP1 \t\t\ttle_endian_64(uint64(deposit_a...\n      NOT \t\t\ttle_endian_64(uint64(deposit_a...\n      DUP3 \t\t\ttle_endian_64(uint64(deposit_a...\n      MLOAD \t\t\ttle_endian_64(uint64(deposit_a...\n      AND \t\t\ttle_endian_64(uint64(deposit_a...\n      DUP2 \t\t\ttle_endian_64(uint64(deposit_a...\n      DUP5 \t\t\ttle_endian_64(uint64(deposit_a...\n      MLOAD \t\t\ttle_endian_64(uint64(deposit_a...\n      AND \t\t\ttle_endian_64(uint64(deposit_a...\n      DUP1 \t\t\ttle_endian_64(uint64(deposit_a...\n      DUP3 \t\t\ttle_endian_64(uint64(deposit_a...\n      OR \t\t\ttle_endian_64(uint64(deposit_a...\n      DUP6 \t\t\ttle_endian_64(uint64(deposit_a...\n      MSTORE \t\t\ttle_endian_64(uint64(deposit_a...\n      POP \t\t\ttle_endian_64(uint64(deposit_a...\n      POP \t\t\ttle_endian_64(uint64(deposit_a...\n      POP \t\t\ttle_endian_64(uint64(deposit_a...\n      POP \t\t\ttle_endian_64(uint64(deposit_a...\n      POP \t\t\ttle_endian_64(uint64(deposit_a...\n      POP \t\t\ttle_endian_64(uint64(deposit_a...\n      SWAP1 \t\t\ttle_endian_64(uint64(deposit_a...\n      POP \t\t\ttle_endian_64(uint64(deposit_a...\n      ADD \t\t\ttle_endian_64(uint64(deposit_a...\n      SWAP2 \t\t\ttle_endian_64(uint64(deposit_a...\n      POP \t\t\ttle_endian_64(uint64(deposit_a...\n      POP \t\t\ttle_endian_64(uint64(deposit_a...\n      PUSH 20\t\t\ttle_endian_64(uint64(deposit_a...\n      PUSH 40\t\t\ttle_endian_64(uint64(deposit_a...\n      MLOAD \t\t\ttle_endian_64(uint64(deposit_a...\n      DUP1 \t\t\ttle_endian_64(uint64(deposit_a...\n      DUP4 \t\t\ttle_endian_64(uint64(deposit_a...\n      SUB \t\t\ttle_endian_64(uint64(deposit_a...\n      DUP2 \t\t\ttle_endian_64(uint64(deposit_a...\n      DUP6 \t\t\ttle_endian_64(uint64(deposit_a...\n      GAS \t\t\ttle_endian_64(uint64(deposit_a...\n      STATICCALL \t\t\ttle_endian_64(uint64(deposit_a...\n      ISZERO \t\t\ttle_endian_64(uint64(deposit_a...\n      DUP1 \t\t\ttle_endian_64(uint64(deposit_a...\n      ISZERO \t\t\ttle_endian_64(uint64(deposit_a...\n      PUSH [tag] 133\t\t\ttle_endian_64(uint64(deposit_a...\n      JUMPI \t\t\ttle_endian_64(uint64(deposit_a...\n      RETURNDATASIZE \t\t\ttle_endian_64(uint64(deposit_a...\n      PUSH 0\t\t\ttle_endian_64(uint64(deposit_a...\n      DUP1 \t\t\ttle_endian_64(uint64(deposit_a...\n      RETURNDATACOPY \t\t\ttle_endian_64(uint64(deposit_a...\n      RETURNDATASIZE \t\t\ttle_endian_64(uint64(deposit_a...\n      PUSH 0\t\t\ttle_endian_64(uint64(deposit_a...\n      REVERT \t\t\ttle_endian_64(uint64(deposit_a...\n    tag 133\t\t\ttle_endian_64(uint64(deposit_a...\n      JUMPDEST \t\t\ttle_endian_64(uint64(deposit_a...\n      POP \t\t\ttle_endian_64(uint64(deposit_a...\n      POP \t\t\ttle_endian_64(uint64(deposit_a...\n      POP \t\t\ttle_endian_64(uint64(deposit_a...\n      PUSH 40\t\t\ttle_endian_64(uint64(deposit_a...\n      MLOAD \t\t\ttle_endian_64(uint64(deposit_a...\n      RETURNDATASIZE \t\t\ttle_endian_64(uint64(deposit_a...\n      PUSH 20\t\t\ttle_endian_64(uint64(deposit_a...\n      DUP2 \t\t\ttle_endian_64(uint64(deposit_a...\n      LT \t\t\ttle_endian_64(uint64(deposit_a...\n      ISZERO \t\t\ttle_endian_64(uint64(deposit_a...\n      PUSH [tag] 134\t\t\ttle_endian_64(uint64(deposit_a...\n      JUMPI \t\t\ttle_endian_64(uint64(deposit_a...\n      PUSH 0\t\t\ttle_endian_64(uint64(deposit_a...\n      DUP1 \t\t\ttle_endian_64(uint64(deposit_a...\n      REVERT \t\t\ttle_endian_64(uint64(deposit_a...\n    tag 134\t\t\ttle_endian_64(uint64(deposit_a...\n      JUMPDEST \t\t\ttle_endian_64(uint64(deposit_a...\n      DUP2 \t\t\ttle_endian_64(uint64(deposit_a...\n      ADD \t\t\ttle_endian_64(uint64(deposit_a...\n      SWAP1 \t\t\ttle_endian_64(uint64(deposit_a...\n      DUP1 \t\t\ttle_endian_64(uint64(deposit_a...\n      DUP1 \t\t\ttle_endian_64(uint64(deposit_a...\n      MLOAD \t\t\ttle_endian_64(uint64(deposit_a...\n      SWAP1 \t\t\ttle_endian_64(uint64(deposit_a...\n      PUSH 20\t\t\ttle_endian_64(uint64(deposit_a...\n      ADD \t\t\ttle_endian_64(uint64(deposit_a...\n      SWAP1 \t\t\ttle_endian_64(uint64(deposit_a...\n      SWAP3 \t\t\ttle_endian_64(uint64(deposit_a...\n      SWAP2 \t\t\ttle_endian_64(uint64(deposit_a...\n      SWAP1 \t\t\ttle_endian_64(uint64(deposit_a...\n      POP \t\t\ttle_endian_64(uint64(deposit_a...\n      POP \t\t\ttle_endian_64(uint64(deposit_a...\n      POP \t\t\ttle_endian_64(uint64(deposit_a...\n      SWAP3 \t\t\t to_little_endian_64(uint64(de...\n      POP \t\t\t to_little_endian_64(uint64(de...\n      PUSH [tag] 135\t\t\tnt` log\\r\\n        bytes memor...\n      JUMP \t\t\tnt` log\\r\\n        bytes memor...\n    tag 126\t\t\tnt` log\\r\\n        bytes memor...\n      JUMPDEST \t\t\tnt` log\\r\\n        bytes memor...\n      PUSH 2\t\t\t           withdrawal_credenti...\n      DUP4 \t\t\teden\n      PUSH 21\t\t\tals,\\r\\n     \n      DUP4 \t\t\t      \n      PUSH 20\t\t\tals,\\r\\n            a\n      DUP2 \t\t\tals,\\r\\n            a\n      LT \t\t\tals,\\r\\n            a\n      PUSH [tag] 136\t\t\tals,\\r\\n            a\n      JUMPI \t\t\tals,\\r\\n            a\n      INVALID \t\t\tals,\\r\\n            a\n    tag 136\t\t\tals,\\r\\n            a\n      JUMPDEST \t\t\tals,\\r\\n            a\n      ADD \t\t\tals,\\r\\n            a\n      SLOAD \t\t\tals,\\r\\n            a\n      PUSH 40\t\t\t    withdrawal_credentials,\\r\\...\n      MLOAD \t\t\t    withdrawal_credentials,\\r\\...\n      PUSH 20\t\t\t    withdrawal_credentials,\\r\\...\n      ADD \t\t\t    withdrawal_credentials,\\r\\...\n      DUP1 \t\t\t    withdrawal_credentials,\\r\\...\n      DUP4 \t\t\t    withdrawal_credentials,\\r\\...\n      DUP2 \t\t\t    withdrawal_credentials,\\r\\...\n      MSTORE \t\t\t    withdrawal_credentials,\\r\\...\n      PUSH 20\t\t\t    withdrawal_credentials,\\r\\...\n      ADD \t\t\t    withdrawal_credentials,\\r\\...\n      DUP3 \t\t\t    withdrawal_credentials,\\r\\...\n      DUP2 \t\t\t    withdrawal_credentials,\\r\\...\n      MSTORE \t\t\t    withdrawal_credentials,\\r\\...\n      PUSH 20\t\t\t    withdrawal_credentials,\\r\\...\n      ADD \t\t\t    withdrawal_credentials,\\r\\...\n      SWAP3 \t\t\t    withdrawal_credentials,\\r\\...\n      POP \t\t\t    withdrawal_credentials,\\r\\...\n      POP \t\t\t    withdrawal_credentials,\\r\\...\n      POP \t\t\t    withdrawal_credentials,\\r\\...\n      PUSH 40\t\t\t    withdrawal_credentials,\\r\\...\n      MLOAD \t\t\t    withdrawal_credentials,\\r\\...\n      PUSH 20\t\t\t    withdrawal_credentials,\\r\\...\n      DUP2 \t\t\t    withdrawal_credentials,\\r\\...\n      DUP4 \t\t\t    withdrawal_credentials,\\r\\...\n      SUB \t\t\t    withdrawal_credentials,\\r\\...\n      SUB \t\t\t    withdrawal_credentials,\\r\\...\n      DUP2 \t\t\t    withdrawal_credentials,\\r\\...\n      MSTORE \t\t\t    withdrawal_credentials,\\r\\...\n      SWAP1 \t\t\t    withdrawal_credentials,\\r\\...\n      PUSH 40\t\t\t    withdrawal_credentials,\\r\\...\n      MSTORE \t\t\t    withdrawal_credentials,\\r\\...\n      PUSH 40\t\t\t           withdrawal_credenti...\n      MLOAD \t\t\t           withdrawal_credenti...\n      DUP1 \t\t\t           withdrawal_credenti...\n      DUP3 \t\t\t           withdrawal_credenti...\n      DUP1 \t\t\t           withdrawal_credenti...\n      MLOAD \t\t\t           withdrawal_credenti...\n      SWAP1 \t\t\t           withdrawal_credenti...\n      PUSH 20\t\t\t           withdrawal_credenti...\n      ADD \t\t\t           withdrawal_credenti...\n      SWAP1 \t\t\t           withdrawal_credenti...\n      DUP1 \t\t\t           withdrawal_credenti...\n      DUP4 \t\t\t           withdrawal_credenti...\n      DUP4 \t\t\t           withdrawal_credenti...\n    tag 138\t\t\t           withdrawal_credenti...\n      JUMPDEST \t\t\t           withdrawal_credenti...\n      PUSH 20\t\t\t           withdrawal_credenti...\n      DUP4 \t\t\t           withdrawal_credenti...\n      LT \t\t\t           withdrawal_credenti...\n      PUSH [tag] 140\t\t\t           withdrawal_credenti...\n      JUMPI \t\t\t           withdrawal_credenti...\n      DUP1 \t\t\t           withdrawal_credenti...\n      MLOAD \t\t\t           withdrawal_credenti...\n      DUP3 \t\t\t           withdrawal_credenti...\n      MSTORE \t\t\t           withdrawal_credenti...\n      PUSH 20\t\t\t           withdrawal_credenti...\n      DUP3 \t\t\t           withdrawal_credenti...\n      ADD \t\t\t           withdrawal_credenti...\n      SWAP2 \t\t\t           withdrawal_credenti...\n      POP \t\t\t           withdrawal_credenti...\n      PUSH 20\t\t\t           withdrawal_credenti...\n      DUP2 \t\t\t           withdrawal_credenti...\n      ADD \t\t\t           withdrawal_credenti...\n      SWAP1 \t\t\t           withdrawal_credenti...\n      POP \t\t\t           withdrawal_credenti...\n      PUSH 20\t\t\t           withdrawal_credenti...\n      DUP4 \t\t\t           withdrawal_credenti...\n      SUB \t\t\t           withdrawal_credenti...\n      SWAP3 \t\t\t           withdrawal_credenti...\n      POP \t\t\t           withdrawal_credenti...\n      PUSH [tag] 138\t\t\t           withdrawal_credenti...\n      JUMP \t\t\t           withdrawal_credenti...\n    tag 140\t\t\t           withdrawal_credenti...\n      JUMPDEST \t\t\t           withdrawal_credenti...\n      PUSH 1\t\t\t           withdrawal_credenti...\n      DUP4 \t\t\t           withdrawal_credenti...\n      PUSH 20\t\t\t           withdrawal_credenti...\n      SUB \t\t\t           withdrawal_credenti...\n      PUSH 100\t\t\t           withdrawal_credenti...\n      EXP \t\t\t           withdrawal_credenti...\n      SUB \t\t\t           withdrawal_credenti...\n      DUP1 \t\t\t           withdrawal_credenti...\n      NOT \t\t\t           withdrawal_credenti...\n      DUP3 \t\t\t           withdrawal_credenti...\n      MLOAD \t\t\t           withdrawal_credenti...\n      AND \t\t\t           withdrawal_credenti...\n      DUP2 \t\t\t           withdrawal_credenti...\n      DUP5 \t\t\t           withdrawal_credenti...\n      MLOAD \t\t\t           withdrawal_credenti...\n      AND \t\t\t           withdrawal_credenti...\n      DUP1 \t\t\t           withdrawal_credenti...\n      DUP3 \t\t\t           withdrawal_credenti...\n      OR \t\t\t           withdrawal_credenti...\n      DUP6 \t\t\t           withdrawal_credenti...\n      MSTORE \t\t\t           withdrawal_credenti...\n      POP \t\t\t           withdrawal_credenti...\n      POP \t\t\t           withdrawal_credenti...\n      POP \t\t\t           withdrawal_credenti...\n      POP \t\t\t           withdrawal_credenti...\n      POP \t\t\t           withdrawal_credenti...\n      POP \t\t\t           withdrawal_credenti...\n      SWAP1 \t\t\t           withdrawal_credenti...\n      POP \t\t\t           withdrawal_credenti...\n      ADD \t\t\t           withdrawal_credenti...\n      SWAP2 \t\t\t           withdrawal_credenti...\n      POP \t\t\t           withdrawal_credenti...\n      POP \t\t\t           withdrawal_credenti...\n      PUSH 20\t\t\t           withdrawal_credenti...\n      PUSH 40\t\t\t           withdrawal_credenti...\n      MLOAD \t\t\t           withdrawal_credenti...\n      DUP1 \t\t\t           withdrawal_credenti...\n      DUP4 \t\t\t           withdrawal_credenti...\n      SUB \t\t\t           withdrawal_credenti...\n      DUP2 \t\t\t           withdrawal_credenti...\n      DUP6 \t\t\t           withdrawal_credenti...\n      GAS \t\t\t           withdrawal_credenti...\n      STATICCALL \t\t\t           withdrawal_credenti...\n      ISZERO \t\t\t           withdrawal_credenti...\n      DUP1 \t\t\t           withdrawal_credenti...\n      ISZERO \t\t\t           withdrawal_credenti...\n      PUSH [tag] 142\t\t\t           withdrawal_credenti...\n      JUMPI \t\t\t           withdrawal_credenti...\n      RETURNDATASIZE \t\t\t           withdrawal_credenti...\n      PUSH 0\t\t\t           withdrawal_credenti...\n      DUP1 \t\t\t           withdrawal_credenti...\n      RETURNDATACOPY \t\t\t           withdrawal_credenti...\n      RETURNDATASIZE \t\t\t           withdrawal_credenti...\n      PUSH 0\t\t\t           withdrawal_credenti...\n      REVERT \t\t\t           withdrawal_credenti...\n    tag 142\t\t\t           withdrawal_credenti...\n      JUMPDEST \t\t\t           withdrawal_credenti...\n      POP \t\t\t           withdrawal_credenti...\n      POP \t\t\t           withdrawal_credenti...\n      POP \t\t\t           withdrawal_credenti...\n      PUSH 40\t\t\t           withdrawal_credenti...\n      MLOAD \t\t\t           withdrawal_credenti...\n      RETURNDATASIZE \t\t\t           withdrawal_credenti...\n      PUSH 20\t\t\t           withdrawal_credenti...\n      DUP2 \t\t\t           withdrawal_credenti...\n      LT \t\t\t           withdrawal_credenti...\n      ISZERO \t\t\t           withdrawal_credenti...\n      PUSH [tag] 143\t\t\t           withdrawal_credenti...\n      JUMPI \t\t\t           withdrawal_credenti...\n      PUSH 0\t\t\t           withdrawal_credenti...\n      DUP1 \t\t\t           withdrawal_credenti...\n      REVERT \t\t\t           withdrawal_credenti...\n    tag 143\t\t\t           withdrawal_credenti...\n      JUMPDEST \t\t\t           withdrawal_credenti...\n      DUP2 \t\t\t           withdrawal_credenti...\n      ADD \t\t\t           withdrawal_credenti...\n      SWAP1 \t\t\t           withdrawal_credenti...\n      DUP1 \t\t\t           withdrawal_credenti...\n      DUP1 \t\t\t           withdrawal_credenti...\n      MLOAD \t\t\t           withdrawal_credenti...\n      SWAP1 \t\t\t           withdrawal_credenti...\n      PUSH 20\t\t\t           withdrawal_credenti...\n      ADD \t\t\t           withdrawal_credenti...\n      SWAP1 \t\t\t           withdrawal_credenti...\n      SWAP3 \t\t\t           withdrawal_credenti...\n      SWAP2 \t\t\t           withdrawal_credenti...\n      SWAP1 \t\t\t           withdrawal_credenti...\n      POP \t\t\t           withdrawal_credenti...\n      POP \t\t\t           withdrawal_credenti...\n      POP \t\t\t           withdrawal_credenti...\n      SWAP3 \t\t\tkey,\\r\\n            withdrawal...\n      POP \t\t\tkey,\\r\\n            withdrawal...\n    tag 135\t\t\tnt` log\\r\\n        bytes memor...\n      JUMPDEST \t\t\tnt` log\\r\\n        bytes memor...\n      PUSH 2\t\t\tt\n      DUP3 \t\t\t   signat\n      DUP2 \t\t\t   signat\n      PUSH [tag] 144\t\t\t   signat\n      JUMPI \t\t\t   signat\n      INVALID \t\t\t   signat\n    tag 144\t\t\t   signat\n      JUMPDEST \t\t\t   signat\n      DIV \t\t\t   signat\n      SWAP2 \t\t\t   signat\n      POP \t\t\t   signat\n      DUP1 \t\t\t      //\n      DUP1 \t\t\t      //\n      PUSH 1\t\t\t      //\n      ADD \t\t\t      //\n      SWAP2 \t\t\t      //\n      POP \t\t\t      //\n      POP \t\t\t      //\n      PUSH [tag] 123\t\t\tnt64).max, \"DepositContract: d...\n      JUMP \t\t\tnt64).max, \"DepositContract: d...\n    tag 124\t\t\tnt64).max, \"DepositContract: d...\n      JUMPDEST \t\t\tnt64).max, \"DepositContract: d...\n      POP \t\t\tnt64).max, \"DepositContract: d...\n      PUSH 2\t\t\tndian_64(uint64(deposit_count)...\n      DUP3 \t\t\t   )\n      PUSH [tag] 145\t\t\t Compute deposit data root (`D...\n      PUSH 20\t\t\t(`DepositData\n      SLOAD \t\t\t(`DepositData\n      PUSH [tag] 44\t\t\t Compute deposit da\n      JUMP [in]\t\t\t Compute deposit data root (`D...\n    tag 145\t\t\t Compute deposit data root (`D...\n      JUMPDEST \t\t\t Compute deposit data root (`D...\n      PUSH 0\t\t\t \n      PUSH 40\t\t\t\\r\\n        \n      SHL \t\t\t\\r\\n        \n      PUSH 40\t\t\t4(uint64(deposit_count))\\r\\n  ...\n      MLOAD \t\t\t4(uint64(deposit_count))\\r\\n  ...\n      PUSH 20\t\t\t4(uint64(deposit_count))\\r\\n  ...\n      ADD \t\t\t4(uint64(deposit_count))\\r\\n  ...\n      DUP1 \t\t\t4(uint64(deposit_count))\\r\\n  ...\n      DUP5 \t\t\t4(uint64(deposit_count))\\r\\n  ...\n      DUP2 \t\t\t4(uint64(deposit_count))\\r\\n  ...\n      MSTORE \t\t\t4(uint64(deposit_count))\\r\\n  ...\n      PUSH 20\t\t\t4(uint64(deposit_count))\\r\\n  ...\n      ADD \t\t\t4(uint64(deposit_count))\\r\\n  ...\n      DUP4 \t\t\t4(uint64(deposit_count))\\r\\n  ...\n      DUP1 \t\t\t4(uint64(deposit_count))\\r\\n  ...\n      MLOAD \t\t\t4(uint64(deposit_count))\\r\\n  ...\n      SWAP1 \t\t\t4(uint64(deposit_count))\\r\\n  ...\n      PUSH 20\t\t\t4(uint64(deposit_count))\\r\\n  ...\n      ADD \t\t\t4(uint64(deposit_count))\\r\\n  ...\n      SWAP1 \t\t\t4(uint64(deposit_count))\\r\\n  ...\n      DUP1 \t\t\t4(uint64(deposit_count))\\r\\n  ...\n      DUP4 \t\t\t4(uint64(deposit_count))\\r\\n  ...\n      DUP4 \t\t\t4(uint64(deposit_count))\\r\\n  ...\n    tag 146\t\t\t4(uint64(deposit_count))\\r\\n  ...\n      JUMPDEST \t\t\t4(uint64(deposit_count))\\r\\n  ...\n      PUSH 20\t\t\t4(uint64(deposit_count))\\r\\n  ...\n      DUP4 \t\t\t4(uint64(deposit_count))\\r\\n  ...\n      LT \t\t\t4(uint64(deposit_count))\\r\\n  ...\n      PUSH [tag] 148\t\t\t4(uint64(deposit_count))\\r\\n  ...\n      JUMPI \t\t\t4(uint64(deposit_count))\\r\\n  ...\n      DUP1 \t\t\t4(uint64(deposit_count))\\r\\n  ...\n      MLOAD \t\t\t4(uint64(deposit_count))\\r\\n  ...\n      DUP3 \t\t\t4(uint64(deposit_count))\\r\\n  ...\n      MSTORE \t\t\t4(uint64(deposit_count))\\r\\n  ...\n      PUSH 20\t\t\t4(uint64(deposit_count))\\r\\n  ...\n      DUP3 \t\t\t4(uint64(deposit_count))\\r\\n  ...\n      ADD \t\t\t4(uint64(deposit_count))\\r\\n  ...\n      SWAP2 \t\t\t4(uint64(deposit_count))\\r\\n  ...\n      POP \t\t\t4(uint64(deposit_count))\\r\\n  ...\n      PUSH 20\t\t\t4(uint64(deposit_count))\\r\\n  ...\n      DUP2 \t\t\t4(uint64(deposit_count))\\r\\n  ...\n      ADD \t\t\t4(uint64(deposit_count))\\r\\n  ...\n      SWAP1 \t\t\t4(uint64(deposit_count))\\r\\n  ...\n      POP \t\t\t4(uint64(deposit_count))\\r\\n  ...\n      PUSH 20\t\t\t4(uint64(deposit_count))\\r\\n  ...\n      DUP4 \t\t\t4(uint64(deposit_count))\\r\\n  ...\n      SUB \t\t\t4(uint64(deposit_count))\\r\\n  ...\n      SWAP3 \t\t\t4(uint64(deposit_count))\\r\\n  ...\n      POP \t\t\t4(uint64(deposit_count))\\r\\n  ...\n      PUSH [tag] 146\t\t\t4(uint64(deposit_count))\\r\\n  ...\n      JUMP \t\t\t4(uint64(deposit_count))\\r\\n  ...\n    tag 148\t\t\t4(uint64(deposit_count))\\r\\n  ...\n      JUMPDEST \t\t\t4(uint64(deposit_count))\\r\\n  ...\n      PUSH 1\t\t\t4(uint64(deposit_count))\\r\\n  ...\n      DUP4 \t\t\t4(uint64(deposit_count))\\r\\n  ...\n      PUSH 20\t\t\t4(uint64(deposit_count))\\r\\n  ...\n      SUB \t\t\t4(uint64(deposit_count))\\r\\n  ...\n      PUSH 100\t\t\t4(uint64(deposit_count))\\r\\n  ...\n      EXP \t\t\t4(uint64(deposit_count))\\r\\n  ...\n      SUB \t\t\t4(uint64(deposit_count))\\r\\n  ...\n      DUP1 \t\t\t4(uint64(deposit_count))\\r\\n  ...\n      NOT \t\t\t4(uint64(deposit_count))\\r\\n  ...\n      DUP3 \t\t\t4(uint64(deposit_count))\\r\\n  ...\n      MLOAD \t\t\t4(uint64(deposit_count))\\r\\n  ...\n      AND \t\t\t4(uint64(deposit_count))\\r\\n  ...\n      DUP2 \t\t\t4(uint64(deposit_count))\\r\\n  ...\n      DUP5 \t\t\t4(uint64(deposit_count))\\r\\n  ...\n      MLOAD \t\t\t4(uint64(deposit_count))\\r\\n  ...\n      AND \t\t\t4(uint64(deposit_count))\\r\\n  ...\n      DUP1 \t\t\t4(uint64(deposit_count))\\r\\n  ...\n      DUP3 \t\t\t4(uint64(deposit_count))\\r\\n  ...\n      OR \t\t\t4(uint64(deposit_count))\\r\\n  ...\n      DUP6 \t\t\t4(uint64(deposit_count))\\r\\n  ...\n      MSTORE \t\t\t4(uint64(deposit_count))\\r\\n  ...\n      POP \t\t\t4(uint64(deposit_count))\\r\\n  ...\n      POP \t\t\t4(uint64(deposit_count))\\r\\n  ...\n      POP \t\t\t4(uint64(deposit_count))\\r\\n  ...\n      POP \t\t\t4(uint64(deposit_count))\\r\\n  ...\n      POP \t\t\t4(uint64(deposit_count))\\r\\n  ...\n      POP \t\t\t4(uint64(deposit_count))\\r\\n  ...\n      SWAP1 \t\t\t4(uint64(deposit_count))\\r\\n  ...\n      POP \t\t\t4(uint64(deposit_count))\\r\\n  ...\n      ADD \t\t\t4(uint64(deposit_count))\\r\\n  ...\n      DUP3 \t\t\t4(uint64(deposit_count))\\r\\n  ...\n      PUSH FFFFFFFFFFFFFFFF\t\t\t4(uint64(deposit_count))\\r\\n  ...\n      NOT \t\t\t4(uint64(deposit_count))\\r\\n  ...\n      AND \t\t\t4(uint64(deposit_count))\\r\\n  ...\n      PUSH FFFFFFFFFFFFFFFF\t\t\t4(uint64(deposit_count))\\r\\n  ...\n      NOT \t\t\t4(uint64(deposit_count))\\r\\n  ...\n      AND \t\t\t4(uint64(deposit_count))\\r\\n  ...\n      DUP2 \t\t\t4(uint64(deposit_count))\\r\\n  ...\n      MSTORE \t\t\t4(uint64(deposit_count))\\r\\n  ...\n      PUSH 18\t\t\t4(uint64(deposit_count))\\r\\n  ...\n      ADD \t\t\t4(uint64(deposit_count))\\r\\n  ...\n      SWAP4 \t\t\t4(uint64(deposit_count))\\r\\n  ...\n      POP \t\t\t4(uint64(deposit_count))\\r\\n  ...\n      POP \t\t\t4(uint64(deposit_count))\\r\\n  ...\n      POP \t\t\t4(uint64(deposit_count))\\r\\n  ...\n      POP \t\t\t4(uint64(deposit_count))\\r\\n  ...\n      PUSH 40\t\t\t4(uint64(deposit_count))\\r\\n  ...\n      MLOAD \t\t\t4(uint64(deposit_count))\\r\\n  ...\n      PUSH 20\t\t\t4(uint64(deposit_count))\\r\\n  ...\n      DUP2 \t\t\t4(uint64(deposit_count))\\r\\n  ...\n      DUP4 \t\t\t4(uint64(deposit_count))\\r\\n  ...\n      SUB \t\t\t4(uint64(deposit_count))\\r\\n  ...\n      SUB \t\t\t4(uint64(deposit_count))\\r\\n  ...\n      DUP2 \t\t\t4(uint64(deposit_count))\\r\\n  ...\n      MSTORE \t\t\t4(uint64(deposit_count))\\r\\n  ...\n      SWAP1 \t\t\t4(uint64(deposit_count))\\r\\n  ...\n      PUSH 40\t\t\t4(uint64(deposit_count))\\r\\n  ...\n      MSTORE \t\t\t4(uint64(deposit_count))\\r\\n  ...\n      PUSH 40\t\t\tndian_64(uint64(deposit_count)...\n      MLOAD \t\t\tndian_64(uint64(deposit_count)...\n      DUP1 \t\t\tndian_64(uint64(deposit_count)...\n      DUP3 \t\t\tndian_64(uint64(deposit_count)...\n      DUP1 \t\t\tndian_64(uint64(deposit_count)...\n      MLOAD \t\t\tndian_64(uint64(deposit_count)...\n      SWAP1 \t\t\tndian_64(uint64(deposit_count)...\n      PUSH 20\t\t\tndian_64(uint64(deposit_count)...\n      ADD \t\t\tndian_64(uint64(deposit_count)...\n      SWAP1 \t\t\tndian_64(uint64(deposit_count)...\n      DUP1 \t\t\tndian_64(uint64(deposit_count)...\n      DUP4 \t\t\tndian_64(uint64(deposit_count)...\n      DUP4 \t\t\tndian_64(uint64(deposit_count)...\n    tag 149\t\t\tndian_64(uint64(deposit_count)...\n      JUMPDEST \t\t\tndian_64(uint64(deposit_count)...\n      PUSH 20\t\t\tndian_64(uint64(deposit_count)...\n      DUP4 \t\t\tndian_64(uint64(deposit_count)...\n      LT \t\t\tndian_64(uint64(deposit_count)...\n      PUSH [tag] 151\t\t\tndian_64(uint64(deposit_count)...\n      JUMPI \t\t\tndian_64(uint64(deposit_count)...\n      DUP1 \t\t\tndian_64(uint64(deposit_count)...\n      MLOAD \t\t\tndian_64(uint64(deposit_count)...\n      DUP3 \t\t\tndian_64(uint64(deposit_count)...\n      MSTORE \t\t\tndian_64(uint64(deposit_count)...\n      PUSH 20\t\t\tndian_64(uint64(deposit_count)...\n      DUP3 \t\t\tndian_64(uint64(deposit_count)...\n      ADD \t\t\tndian_64(uint64(deposit_count)...\n      SWAP2 \t\t\tndian_64(uint64(deposit_count)...\n      POP \t\t\tndian_64(uint64(deposit_count)...\n      PUSH 20\t\t\tndian_64(uint64(deposit_count)...\n      DUP2 \t\t\tndian_64(uint64(deposit_count)...\n      ADD \t\t\tndian_64(uint64(deposit_count)...\n      SWAP1 \t\t\tndian_64(uint64(deposit_count)...\n      POP \t\t\tndian_64(uint64(deposit_count)...\n      PUSH 20\t\t\tndian_64(uint64(deposit_count)...\n      DUP4 \t\t\tndian_64(uint64(deposit_count)...\n      SUB \t\t\tndian_64(uint64(deposit_count)...\n      SWAP3 \t\t\tndian_64(uint64(deposit_count)...\n      POP \t\t\tndian_64(uint64(deposit_count)...\n      PUSH [tag] 149\t\t\tndian_64(uint64(deposit_count)...\n      JUMP \t\t\tndian_64(uint64(deposit_count)...\n    tag 151\t\t\tndian_64(uint64(deposit_count)...\n      JUMPDEST \t\t\tndian_64(uint64(deposit_count)...\n      PUSH 1\t\t\tndian_64(uint64(deposit_count)...\n      DUP4 \t\t\tndian_64(uint64(deposit_count)...\n      PUSH 20\t\t\tndian_64(uint64(deposit_count)...\n      SUB \t\t\tndian_64(uint64(deposit_count)...\n      PUSH 100\t\t\tndian_64(uint64(deposit_count)...\n      EXP \t\t\tndian_64(uint64(deposit_count)...\n      SUB \t\t\tndian_64(uint64(deposit_count)...\n      DUP1 \t\t\tndian_64(uint64(deposit_count)...\n      NOT \t\t\tndian_64(uint64(deposit_count)...\n      DUP3 \t\t\tndian_64(uint64(deposit_count)...\n      MLOAD \t\t\tndian_64(uint64(deposit_count)...\n      AND \t\t\tndian_64(uint64(deposit_count)...\n      DUP2 \t\t\tndian_64(uint64(deposit_count)...\n      DUP5 \t\t\tndian_64(uint64(deposit_count)...\n      MLOAD \t\t\tndian_64(uint64(deposit_count)...\n      AND \t\t\tndian_64(uint64(deposit_count)...\n      DUP1 \t\t\tndian_64(uint64(deposit_count)...\n      DUP3 \t\t\tndian_64(uint64(deposit_count)...\n      OR \t\t\tndian_64(uint64(deposit_count)...\n      DUP6 \t\t\tndian_64(uint64(deposit_count)...\n      MSTORE \t\t\tndian_64(uint64(deposit_count)...\n      POP \t\t\tndian_64(uint64(deposit_count)...\n      POP \t\t\tndian_64(uint64(deposit_count)...\n      POP \t\t\tndian_64(uint64(deposit_count)...\n      POP \t\t\tndian_64(uint64(deposit_count)...\n      POP \t\t\tndian_64(uint64(deposit_count)...\n      POP \t\t\tndian_64(uint64(deposit_count)...\n      SWAP1 \t\t\tndian_64(uint64(deposit_count)...\n      POP \t\t\tndian_64(uint64(deposit_count)...\n      ADD \t\t\tndian_64(uint64(deposit_count)...\n      SWAP2 \t\t\tndian_64(uint64(deposit_count)...\n      POP \t\t\tndian_64(uint64(deposit_count)...\n      POP \t\t\tndian_64(uint64(deposit_count)...\n      PUSH 20\t\t\tndian_64(uint64(deposit_count)...\n      PUSH 40\t\t\tndian_64(uint64(deposit_count)...\n      MLOAD \t\t\tndian_64(uint64(deposit_count)...\n      DUP1 \t\t\tndian_64(uint64(deposit_count)...\n      DUP4 \t\t\tndian_64(uint64(deposit_count)...\n      SUB \t\t\tndian_64(uint64(deposit_count)...\n      DUP2 \t\t\tndian_64(uint64(deposit_count)...\n      DUP6 \t\t\tndian_64(uint64(deposit_count)...\n      GAS \t\t\tndian_64(uint64(deposit_count)...\n      STATICCALL \t\t\tndian_64(uint64(deposit_count)...\n      ISZERO \t\t\tndian_64(uint64(deposit_count)...\n      DUP1 \t\t\tndian_64(uint64(deposit_count)...\n      ISZERO \t\t\tndian_64(uint64(deposit_count)...\n      PUSH [tag] 153\t\t\tndian_64(uint64(deposit_count)...\n      JUMPI \t\t\tndian_64(uint64(deposit_count)...\n      RETURNDATASIZE \t\t\tndian_64(uint64(deposit_count)...\n      PUSH 0\t\t\tndian_64(uint64(deposit_count)...\n      DUP1 \t\t\tndian_64(uint64(deposit_count)...\n      RETURNDATACOPY \t\t\tndian_64(uint64(deposit_count)...\n      RETURNDATASIZE \t\t\tndian_64(uint64(deposit_count)...\n      PUSH 0\t\t\tndian_64(uint64(deposit_count)...\n      REVERT \t\t\tndian_64(uint64(deposit_count)...\n    tag 153\t\t\tndian_64(uint64(deposit_count)...\n      JUMPDEST \t\t\tndian_64(uint64(deposit_count)...\n      POP \t\t\tndian_64(uint64(deposit_count)...\n      POP \t\t\tndian_64(uint64(deposit_count)...\n      POP \t\t\tndian_64(uint64(deposit_count)...\n      PUSH 40\t\t\tndian_64(uint64(deposit_count)...\n      MLOAD \t\t\tndian_64(uint64(deposit_count)...\n      RETURNDATASIZE \t\t\tndian_64(uint64(deposit_count)...\n      PUSH 20\t\t\tndian_64(uint64(deposit_count)...\n      DUP2 \t\t\tndian_64(uint64(deposit_count)...\n      LT \t\t\tndian_64(uint64(deposit_count)...\n      ISZERO \t\t\tndian_64(uint64(deposit_count)...\n      PUSH [tag] 154\t\t\tndian_64(uint64(deposit_count)...\n      JUMPI \t\t\tndian_64(uint64(deposit_count)...\n      PUSH 0\t\t\tndian_64(uint64(deposit_count)...\n      DUP1 \t\t\tndian_64(uint64(deposit_count)...\n      REVERT \t\t\tndian_64(uint64(deposit_count)...\n    tag 154\t\t\tndian_64(uint64(deposit_count)...\n      JUMPDEST \t\t\tndian_64(uint64(deposit_count)...\n      DUP2 \t\t\tndian_64(uint64(deposit_count)...\n      ADD \t\t\tndian_64(uint64(deposit_count)...\n      SWAP1 \t\t\tndian_64(uint64(deposit_count)...\n      DUP1 \t\t\tndian_64(uint64(deposit_count)...\n      DUP1 \t\t\tndian_64(uint64(deposit_count)...\n      MLOAD \t\t\tndian_64(uint64(deposit_count)...\n      SWAP1 \t\t\tndian_64(uint64(deposit_count)...\n      PUSH 20\t\t\tndian_64(uint64(deposit_count)...\n      ADD \t\t\tndian_64(uint64(deposit_count)...\n      SWAP1 \t\t\tndian_64(uint64(deposit_count)...\n      SWAP3 \t\t\tndian_64(uint64(deposit_count)...\n      SWAP2 \t\t\tndian_64(uint64(deposit_count)...\n      SWAP1 \t\t\tndian_64(uint64(deposit_count)...\n      POP \t\t\tndian_64(uint64(deposit_count)...\n      POP \t\t\tndian_64(uint64(deposit_count)...\n      POP \t\t\tndian_64(uint64(deposit_count)...\n      SWAP3 \t\t\tittle_endian_64(uint64(deposit...\n      POP \t\t\tittle_endian_64(uint64(deposit...\n      POP \t\t\tittle_endian_64(uint64(deposit...\n      POP \t\t\tittle_endian_64(uint64(deposit...\n      SWAP1 \t\t\tntract: deposit value not mult...\n      JUMP [out]\t\t\tntract: deposit value not mult...\n    tag 44\t\t\t\n      JUMPDEST \t\t\t\n      PUSH 60\t\t\t\n      PUSH 8\t\t\t\n      PUSH FFFFFFFFFFFFFFFF\t\t\t\n      DUP2 \t\t\t\n      GT \t\t\t\n      DUP1 \t\t\t\n      ISZERO \t\t\t\n      PUSH [tag] 156\t\t\t\n      JUMPI \t\t\t\n      PUSH 0\t\t\t\n      DUP1 \t\t\t\n      REVERT \t\t\t\n    tag 156\t\t\t\n      JUMPDEST \t\t\t\n      POP \t\t\t\n      PUSH 40\t\t\t\n      MLOAD \t\t\t\n      SWAP1 \t\t\t\n      DUP1 \t\t\t\n      DUP3 \t\t\t\n      MSTORE \t\t\t\n      DUP1 \t\t\t\n      PUSH 1F\t\t\t\n      ADD \t\t\t\n      PUSH 1F\t\t\t\n      NOT \t\t\t\n      AND \t\t\t\n      PUSH 20\t\t\t\n      ADD \t\t\t\n      DUP3 \t\t\t\n      ADD \t\t\t\n      PUSH 40\t\t\t\n      MSTORE \t\t\t\n      DUP1 \t\t\t\n      ISZERO \t\t\t\n      PUSH [tag] 157\t\t\t\n      JUMPI \t\t\t\n      DUP2 \t\t\t\n      PUSH 20\t\t\t\n      ADD \t\t\t\n      PUSH 1\t\t\t\n      DUP3 \t\t\t\n      MUL \t\t\t\n      DUP1 \t\t\t\n      CALLDATASIZE \t\t\t\n      DUP4 \t\t\t\n      CALLDATACOPY \t\t\t\n      DUP1 \t\t\t\n      DUP3 \t\t\t\n      ADD \t\t\t\n      SWAP2 \t\t\t\n      POP \t\t\t\n      POP \t\t\t\n      SWAP1 \t\t\t\n      POP \t\t\t\n    tag 157\t\t\t\n      JUMPDEST \t\t\t\n      POP \t\t\t\n      SWAP1 \t\t\t\n      POP \t\t\t\n      PUSH 0\t\t\t\n      DUP3 \t\t\t\n      PUSH C0\t\t\t\n      SHL \t\t\t\n      SWAP1 \t\t\t\n      POP \t\t\t\n      DUP1 \t\t\t\n      PUSH 7\t\t\t\n      PUSH 8\t\t\t\n      DUP2 \t\t\t\n      LT \t\t\t\n      PUSH [tag] 158\t\t\t\n      JUMPI \t\t\t\n      INVALID \t\t\t\n    tag 158\t\t\t\n      JUMPDEST \t\t\t\n      BYTE \t\t\t\n      PUSH F8\t\t\t\n      SHL \t\t\t\n      DUP3 \t\t\t\n      PUSH 0\t\t\t\n      DUP2 \t\t\t\n      MLOAD \t\t\t\n      DUP2 \t\t\t\n      LT \t\t\t\n      PUSH [tag] 159\t\t\t\n      JUMPI \t\t\t\n      INVALID \t\t\t\n    tag 159\t\t\t\n      JUMPDEST \t\t\t\n      PUSH 20\t\t\t\n      ADD \t\t\t\n      ADD \t\t\t\n      SWAP1 \t\t\t\n      PUSH FFFFFFFFFFFFFFFFFFFFFFFFFFFFFFFFFFFFFFFFFFFFFFFFFFFFFFFFFFFFFF\t\t\t\n      NOT \t\t\t\n      AND \t\t\t\n      SWAP1 \t\t\t\n      DUP2 \t\t\t\n      PUSH 0\t\t\t\n      BYTE \t\t\t\n      SWAP1 \t\t\t\n      MSTORE8 \t\t\t\n      POP \t\t\t\n      DUP1 \t\t\t\n      PUSH 6\t\t\t\n      PUSH 8\t\t\t\n      DUP2 \t\t\t\n      LT \t\t\t\n      PUSH [tag] 160\t\t\t\n      JUMPI \t\t\t\n      INVALID \t\t\t\n    tag 160\t\t\t\n      JUMPDEST \t\t\t\n      BYTE \t\t\t\n      PUSH F8\t\t\t\n      SHL \t\t\t\n      DUP3 \t\t\t\n      PUSH 1\t\t\t\n      DUP2 \t\t\t\n      MLOAD \t\t\t\n      DUP2 \t\t\t\n      LT \t\t\t\n      PUSH [tag] 161\t\t\t\n      JUMPI \t\t\t\n      INVALID \t\t\t\n    tag 161\t\t\t\n      JUMPDEST \t\t\t\n      PUSH 20\t\t\t\n      ADD \t\t\t\n      ADD \t\t\t\n      SWAP1 \t\t\t\n      PUSH FFFFFFFFFFFFFFFFFFFFFFFFFFFFFFFFFFFFFFFFFFFFFFFFFFFFFFFFFFFFFF\t\t\t\n      NOT \t\t\t\n      AND \t\t\t\n      SWAP1 \t\t\t\n      DUP2 \t\t\t\n      PUSH 0\t\t\t\n      BYTE \t\t\t\n      SWAP1 \t\t\t\n      MSTORE8 \t\t\t\n      POP \t\t\t\n      DUP1 \t\t\t\n      PUSH 5\t\t\t\n      PUSH 8\t\t\t\n      DUP2 \t\t\t\n      LT \t\t\t\n      PUSH [tag] 162\t\t\t\n      JUMPI \t\t\t\n      INVALID \t\t\t\n    tag 162\t\t\t\n      JUMPDEST \t\t\t\n      BYTE \t\t\t\n      PUSH F8\t\t\t\n      SHL \t\t\t\n      DUP3 \t\t\t\n      PUSH 2\t\t\t\n      DUP2 \t\t\t\n      MLOAD \t\t\t\n      DUP2 \t\t\t\n      LT \t\t\t\n      PUSH [tag] 163\t\t\t\n      JUMPI \t\t\t\n      INVALID \t\t\t\n    tag 163\t\t\t\n      JUMPDEST \t\t\t\n      PUSH 20\t\t\t\n      ADD \t\t\t\n      ADD \t\t\t\n      SWAP1 \t\t\t\n      PUSH FFFFFFFFFFFFFFFFFFFFFFFFFFFFFFFFFFFFFFFFFFFFFFFFFFFFFFFFFFFFFF\t\t\t\n      NOT \t\t\t\n      AND \t\t\t\n      SWAP1 \t\t\t\n      DUP2 \t\t\t\n      PUSH 0\t\t\t\n      BYTE \t\t\t\n      SWAP1 \t\t\t\n      MSTORE8 \t\t\t\n      POP \t\t\t\n      DUP1 \t\t\t\n      PUSH 4\t\t\t\n      PUSH 8\t\t\t\n      DUP2 \t\t\t\n      LT \t\t\t\n      PUSH [tag] 164\t\t\t\n      JUMPI \t\t\t\n      INVALID \t\t\t\n    tag 164\t\t\t\n      JUMPDEST \t\t\t\n      BYTE \t\t\t\n      PUSH F8\t\t\t\n      SHL \t\t\t\n      DUP3 \t\t\t\n      PUSH 3\t\t\t\n      DUP2 \t\t\t\n      MLOAD \t\t\t\n      DUP2 \t\t\t\n      LT \t\t\t\n      PUSH [tag] 165\t\t\t\n      JUMPI \t\t\t\n      INVALID \t\t\t\n    tag 165\t\t\t\n      JUMPDEST \t\t\t\n      PUSH 20\t\t\t\n      ADD \t\t\t\n      ADD \t\t\t\n      SWAP1 \t\t\t\n      PUSH FFFFFFFFFFFFFFFFFFFFFFFFFFFFFFFFFFFFFFFFFFFFFFFFFFFFFFFFFFFFFF\t\t\t\n      NOT \t\t\t\n      AND \t\t\t\n      SWAP1 \t\t\t\n      DUP2 \t\t\t\n      PUSH 0\t\t\t\n      BYTE \t\t\t\n      SWAP1 \t\t\t\n      MSTORE8 \t\t\t\n      POP \t\t\t\n      DUP1 \t\t\t\n      PUSH 3\t\t\t\n      PUSH 8\t\t\t\n      DUP2 \t\t\t\n      LT \t\t\t\n      PUSH [tag] 166\t\t\t\n      JUMPI \t\t\t\n      INVALID \t\t\t\n    tag 166\t\t\t\n      JUMPDEST \t\t\t\n      BYTE \t\t\t\n      PUSH F8\t\t\t\n      SHL \t\t\t\n      DUP3 \t\t\t\n      PUSH 4\t\t\t\n      DUP2 \t\t\t\n      MLOAD \t\t\t\n      DUP2 \t\t\t\n      LT \t\t\t\n      PUSH [tag] 167\t\t\t\n      JUMPI \t\t\t\n      INVALID \t\t\t\n    tag 167\t\t\t\n      JUMPDEST \t\t\t\n      PUSH 20\t\t\t\n      ADD \t\t\t\n      ADD \t\t\t\n      SWAP1 \t\t\t\n      PUSH FFFFFFFFFFFFFFFFFFFFFFFFFFFFFFFFFFFFFFFFFFFFFFFFFFFFFFFFFFFFFF\t\t\t\n      NOT \t\t\t\n      AND \t\t\t\n      SWAP1 \t\t\t\n      DUP2 \t\t\t\n      PUSH 0\t\t\t\n      BYTE \t\t\t\n      SWAP1 \t\t\t\n      MSTORE8 \t\t\t\n      POP \t\t\t\n      DUP1 \t\t\t\n      PUSH 2\t\t\t\n      PUSH 8\t\t\t\n      DUP2 \t\t\t\n      LT \t\t\t\n      PUSH [tag] 168\t\t\t\n      JUMPI \t\t\t\n      INVALID \t\t\t\n    tag 168\t\t\t\n      JUMPDEST \t\t\t\n      BYTE \t\t\t\n      PUSH F8\t\t\t\n      SHL \t\t\t\n      DUP3 \t\t\t\n      PUSH 5\t\t\t\n      DUP2 \t\t\t\n      MLOAD \t\t\t\n      DUP2 \t\t\t\n      LT \t\t\t\n      PUSH [tag] 169\t\t\t\n      JUMPI \t\t\t\n      INVALID \t\t\t\n    tag 169\t\t\t\n      JUMPDEST \t\t\t\n      PUSH 20\t\t\t\n      ADD \t\t\t\n      ADD \t\t\t\n      SWAP1 \t\t\t\n      PUSH FFFFFFFFFFFFFFFFFFFFFFFFFFFFFFFFFFFFFFFFFFFFFFFFFFFFFFFFFFFFFF\t\t\t\n      NOT \t\t\t\n      AND \t\t\t\n      SWAP1 \t\t\t\n      DUP2 \t\t\t\n      PUSH 0\t\t\t\n      BYTE \t\t\t\n      SWAP1 \t\t\t\n      MSTORE8 \t\t\t\n      POP \t\t\t\n      DUP1 \t\t\t\n      PUSH 1\t\t\t\n      PUSH 8\t\t\t\n      DUP2 \t\t\t\n      LT \t\t\t\n      PUSH [tag] 170\t\t\t\n      JUMPI \t\t\t\n      INVALID \t\t\t\n    tag 170\t\t\t\n      JUMPDEST \t\t\t\n      BYTE \t\t\t\n      PUSH F8\t\t\t\n      SHL \t\t\t\n      DUP3 \t\t\t\n      PUSH 6\t\t\t\n      DUP2 \t\t\t\n      MLOAD \t\t\t\n      DUP2 \t\t\t\n      LT \t\t\t\n      PUSH [tag] 171\t\t\t\n      JUMPI \t\t\t\n      INVALID \t\t\t\n    tag 171\t\t\t\n      JUMPDEST \t\t\t\n      PUSH 20\t\t\t\n      ADD \t\t\t\n      ADD \t\t\t\n      SWAP1 \t\t\t\n      PUSH FFFFFFFFFFFFFFFFFFFFFFFFFFFFFFFFFFFFFFFFFFFFFFFFFFFFFFFFFFFFFF\t\t\t\n      NOT \t\t\t\n      AND \t\t\t\n      SWAP1 \t\t\t\n      DUP2 \t\t\t\n      PUSH 0\t\t\t\n      BYTE \t\t\t\n      SWAP1 \t\t\t\n      MSTORE8 \t\t\t\n      POP \t\t\t\n      DUP1 \t\t\t\n      PUSH 0\t\t\t\n      PUSH 8\t\t\t\n      DUP2 \t\t\t\n      LT \t\t\t\n      PUSH [tag] 172\t\t\t\n      JUMPI \t\t\t\n      INVALID \t\t\t\n    tag 172\t\t\t\n      JUMPDEST \t\t\t\n      BYTE \t\t\t\n      PUSH F8\t\t\t\n      SHL \t\t\t\n      DUP3 \t\t\t\n      PUSH 7\t\t\t\n      DUP2 \t\t\t\n      MLOAD \t\t\t\n      DUP2 \t\t\t\n      LT \t\t\t\n      PUSH [tag] 173\t\t\t\n      JUMPI \t\t\t\n      INVALID \t\t\t\n    tag 173\t\t\t\n      JUMPDEST \t\t\t\n      PUSH 20\t\t\t\n      ADD \t\t\t\n      ADD \t\t\t\n      SWAP1 \t\t\t\n      PUSH FFFFFFFFFFFFFFFFFFFFFFFFFFFFFFFFFFFFFFFFFFFFFFFFFFFFFFFFFFFFFF\t\t\t\n      NOT \t\t\t\n      AND \t\t\t\n      SWAP1 \t\t\t\n      DUP2 \t\t\t\n      PUSH 0\t\t\t\n      BYTE \t\t\t\n      SWAP1 \t\t\t\n      MSTORE8 \t\t\t\n      POP \t\t\t\n      POP \t\t\t\n      SWAP2 \t\t\t\n      SWAP1 \t\t\t\n      POP \t\t\t\n      JUMP [out]\t\t\t\n    tag 61\t\t\t━━┓━┏┓━┏┓━━┏━━━┓━━┏━━━┓━━━━┏━━...\n      JUMPDEST \t\t\t━━┓━┏┓━┏┓━━┏━━━┓━━┏━━━┓━━━━┏━━...\n      PUSH 0\t\t\t━━┓━┏┓━┏┓━━┏━━━┓━━┏━━━┓━━━━┏━━...\n      DUP1 \t\t\t━━┓━┏┓━┏┓━━┏━━━┓━━┏━━━┓━━━━┏━━...\n      DUP6 \t\t\t┗┓━━━━┃┏\n      DUP6 \t\t\t━━━━━━━━━━\n      GT \t\t\t━━━━━━━━━━━━━┏┛┗┓━━━━┃┏━\n      ISZERO \t\t\t━━\n      PUSH [tag] 176\t\t\t━━\n      JUMPI \t\t\t━━\n      PUSH 0\t\t\t┓\n      DUP1 \t\t\t┏\n      REVERT \t\t\t━━━━━━━┏┛┗┓━\n    tag 176\t\t\t━━\n      JUMPDEST \t\t\t━━\n      DUP4 \t\t\t━┓┗┓┏┛\n      DUP7 \t\t\t┗┓\\r\\n// ┃\n      GT \t\t\t━┏┛┗┓\\r\\n// ┃┗━━┓┗┓┏┛┃\n      ISZERO \t\t\t━━\n      PUSH [tag] 177\t\t\t━━\n      JUMPI \t\t\t━━\n      PUSH 0\t\t\t┃\n      DUP1 \t\t\t┃\n      REVERT \t\t\t┗┛┏┛┃━━┃┃━┃┃\n    tag 177\t\t\t━━\n      JUMPDEST \t\t\t━━\n      PUSH 1\t\t\t┗\n      DUP6 \t\t\t┃━┗┛┏━━┓┏━\n      MUL \t\t\t━━━┃┃━┗┛┏━━┓┏━┓━┗┓\n      DUP4 \t\t\t┓┏┓┗┓┏\n      ADD \t\t\t┓┏━━┓┏┓┗┓┏┛━━━━┃┃━┗┛┏━━┓┏━┓━┗┓...\n      SWAP2 \t\t\t┃┃┏━━┓┏━━┓┏━━┓┏━━┓┏┓┗┓┏┛━━━━┃┃...\n      POP \t\t\t┃┃┏━━┓┏━━┓┏━━┓┏━━┓┏┓┗┓┏┛━━━━┃┃...\n      DUP5 \t\t\t┏┓┃┏━┛┏┛━━\n      DUP7 \t\t\t┃┏━━┛━┃┃\n      SUB \t\t\t\\n// ┃┏━━┛━┃┃━┃┏┓┃┏━┛┏┛━━┃\n      SWAP1 \t\t\t━━┓━┏━━┓┗┓┏┛\\r\\n// ┃┏━━┛━┃┃━┃┏...\n      POP \t\t\t━━┓━┏━━┓┗┓┏┛\\r\\n// ┃┏━━┛━┃┃━┃┏...\n      SWAP5 \t\t\t┓┏┓┃━━━━━━━━━━━━━━━━━━┏┛┗┓━━━━...\n      POP \t\t\t┓┏┓┃━━━━━━━━━━━━━━━━━━┏┛┗┓━━━━...\n      SWAP5 \t\t\t┓┏┓┃━━━━━━━━━━━━━━━━━━┏┛┗┓━━━━...\n      SWAP3 \t\t\t┓┏┓┃━━━━━━━━━━━━━━━━━━┏┛┗┓━━━━...\n      POP \t\t\t┓┏┓┃━━━━━━━━━━━━━━━━━━┏┛┗┓━━━━...\n      POP \t\t\t┓┏┓┃━━━━━━━━━━━━━━━━━━┏┛┗┓━━━━...\n      POP \t\t\t┓┏┓┃━━━━━━━━━━━━━━━━━━┏┛┗┓━━━━...\n      JUMP [out]\t\t\t┓┏┓┃━━━━━━━━━━━━━━━━━━┏┛┗┓━━━━...\n    .data\n      122AA4BCAC592FD535CB6D2558EBBF28083CD32A46AD577D847EA313CD3A6BE7:\n        4465706f736974436f6e74726163743a206d65726b6c6520747265652066756c6c\n      18A67971568B2DBAD4353DFDC385098CC004C2A5070A439E010BB919D851BABB:\n        4465706f736974436f6e74726163743a207265636f6e7374727563746564204465706f7369744461746120646f6573206e6f74206d6174636820737570706c696564206465706f7369745f646174615f726f6f74\n      747182C86D19950FC1E3554E7B3E3A1972FCFDCF01419AA5598A57F4869840E0:\n        4465706f736974436f6e74726163743a20696e76616c6964207769746864726177616c5f63726564656e7469616c73206c656e677468\n      7DB03C60FBFD1382397614FC537E65F67F687DBB18307BED297BDA7F864590E0:\n        4465706f736974436f6e74726163743a206465706f7369742076616c7565206e6f74206d756c7469706c65206f662067776569\n      C3B50B094EADA99B5A9DFA8CFADFA82355EDD40E0591C544071D0112172C4C5E:\n        4465706f736974436f6e74726163743a20696e76616c6964207075626b6579206c656e677468\n      C445CEE017C8884423C583C4E1697A8E774197F1748CC887AA73775EF891882F:\n        4465706f736974436f6e74726163743a206465706f7369742076616c756520746f6f2068696768\n      D4D9A14975CC31A7DC18AFC82EE6E59EFA15377B990098EEAAB4CC403F9D1217:\n        4465706f736974436f6e74726163743a206465706f7369742076616c756520746f6f206c6f77\n      E15DE1A983E2181DC403952307F19CBE1AC366F85ACCB46BA7EC34E71736287B:\n        4465706f736974436f6e74726163743a20696e76616c6964207369676e6174757265206c656e677468\n"
}